{
  "_format": "hh-sol-artifact-1",
  "contractName": "LiteralRegex",
  "sourceName": "contracts/utils/regex/LiteralRegex.sol",
  "abi": [
    {
      "inputs": [
        {
          "internalType": "string",
          "name": "text",
          "type": "string"
        }
      ],
      "name": "isLiteral",
      "outputs": [
        {
          "internalType": "bool",
          "name": "",
          "type": "bool"
        }
      ],
      "stateMutability": "pure",
      "type": "function"
    }
  ],
  "bytecode": "0x610553610053600b82828239805160001a607314610046577f4e487b7100000000000000000000000000000000000000000000000000000000600052600060045260246000fd5b30600052607381538281f3fe73000000000000000000000000000000000000000030146080604052600436106100355760003560e01c8063d14ba6351461003a575b600080fd5b610054600480360381019061004f91906103ed565b61006a565b6040516100619190610451565b60405180910390f35b60008082905060005b81518110156100c4576100a28282815181106100925761009161046c565b5b602001015160f81c60f81b6100d0565b6100b1576000925050506100cb565b80806100bc906104d4565b915050610073565b5060019150505b919050565b6000603060f81b827effffffffffffffffffffffffffffffffffffffffffffffffffffffffffffff19161015801561012e5750603960f81b827effffffffffffffffffffffffffffffffffffffffffffffffffffffffffffff191611155b806101915750604160f81b827effffffffffffffffffffffffffffffffffffffffffffffffffffffffffffff1916101580156101905750605a60f81b827effffffffffffffffffffffffffffffffffffffffffffffffffffffffffffff191611155b5b806101f45750606160f81b827effffffffffffffffffffffffffffffffffffffffffffffffffffffffffffff1916101580156101f35750607a60f81b827effffffffffffffffffffffffffffffffffffffffffffffffffffffffffffff191611155b5b806102245750602d60f81b827effffffffffffffffffffffffffffffffffffffffffffffffffffffffffffff1916145b806102545750602e60f81b827effffffffffffffffffffffffffffffffffffffffffffffffffffffffffffff1916145b806102845750605f60f81b827effffffffffffffffffffffffffffffffffffffffffffffffffffffffffffff1916145b1561028e57600190505b919050565b6000604051905090565b600080fd5b600080fd5b600080fd5b600080fd5b6000601f19601f8301169050919050565b7f4e487b7100000000000000000000000000000000000000000000000000000000600052604160045260246000fd5b6102fa826102b1565b810181811067ffffffffffffffff82111715610319576103186102c2565b5b80604052505050565b600061032c610293565b905061033882826102f1565b919050565b600067ffffffffffffffff821115610358576103576102c2565b5b610361826102b1565b9050602081019050919050565b82818337600083830152505050565b600061039061038b8461033d565b610322565b9050828152602081018484840111156103ac576103ab6102ac565b5b6103b784828561036e565b509392505050565b600082601f8301126103d4576103d36102a7565b5b81356103e484826020860161037d565b91505092915050565b6000602082840312156104035761040261029d565b5b600082013567ffffffffffffffff811115610421576104206102a2565b5b61042d848285016103bf565b91505092915050565b60008115159050919050565b61044b81610436565b82525050565b60006020820190506104666000830184610442565b92915050565b7f4e487b7100000000000000000000000000000000000000000000000000000000600052603260045260246000fd5b7f4e487b7100000000000000000000000000000000000000000000000000000000600052601160045260246000fd5b6000819050919050565b60006104df826104ca565b91507fffffffffffffffffffffffffffffffffffffffffffffffffffffffffffffffff8214156105125761051161049b565b5b60018201905091905056fea2646970667358221220339fe001468bb822deba2ca8bf83be9fc8e30bf174f02f99ae4edd3e926566d164736f6c634300080b0033",
  "linkReferences": {},
  "deployedLinkReferences": {}
}