{
  "_format": "hh-sol-artifact-1",
  "contractName": "ContData",
  "sourceName": "contracts/ContData/ContData.sol",
  "abi": [
    {
      "anonymous": false,
      "inputs": [
        {
          "indexed": true,
          "internalType": "address",
          "name": "previousOwner",
          "type": "address"
        },
        {
          "indexed": true,
          "internalType": "address",
          "name": "newOwner",
          "type": "address"
        }
      ],
      "name": "OwnershipTransferred",
      "type": "event"
    },
    {
      "anonymous": false,
      "inputs": [
        {
          "indexed": false,
          "internalType": "bytes32",
          "name": "tag",
          "type": "bytes32"
        },
        {
          "indexed": false,
          "internalType": "address",
          "name": "data",
          "type": "address"
        }
      ],
      "name": "SetAddress",
      "type": "event"
    },
    {
      "anonymous": false,
      "inputs": [
        {
          "indexed": false,
          "internalType": "bytes32",
          "name": "tag",
          "type": "bytes32"
        },
        {
          "indexed": false,
          "internalType": "bool",
          "name": "data",
          "type": "bool"
        }
      ],
      "name": "SetBool",
      "type": "event"
    },
    {
      "anonymous": false,
      "inputs": [
        {
          "indexed": false,
          "internalType": "bytes32",
          "name": "tag",
          "type": "bytes32"
        },
        {
          "indexed": false,
          "internalType": "bytes",
          "name": "data",
          "type": "bytes"
        }
      ],
      "name": "SetBytes",
      "type": "event"
    },
    {
      "anonymous": false,
      "inputs": [
        {
          "indexed": false,
          "internalType": "bytes32",
          "name": "tag",
          "type": "bytes32"
        },
        {
          "indexed": false,
          "internalType": "int256",
          "name": "data",
          "type": "int256"
        }
      ],
      "name": "SetInt",
      "type": "event"
    },
    {
      "anonymous": false,
      "inputs": [
        {
          "indexed": false,
          "internalType": "bytes32",
          "name": "tag",
          "type": "bytes32"
        },
        {
          "indexed": false,
          "internalType": "string",
          "name": "data",
          "type": "string"
        }
      ],
      "name": "SetString",
      "type": "event"
    },
    {
      "anonymous": false,
      "inputs": [
        {
          "indexed": false,
          "internalType": "bytes32",
          "name": "tag",
          "type": "bytes32"
        },
        {
          "indexed": false,
          "internalType": "uint256",
          "name": "data",
          "type": "uint256"
        }
      ],
      "name": "SetUint",
      "type": "event"
    },
    {
      "inputs": [
        {
          "internalType": "bytes32",
          "name": "tag",
          "type": "bytes32"
        }
      ],
      "name": "getAddress",
      "outputs": [
        {
          "internalType": "address",
          "name": "data",
          "type": "address"
        }
      ],
      "stateMutability": "view",
      "type": "function"
    },
    {
      "inputs": [
        {
          "internalType": "bytes32",
          "name": "tag",
          "type": "bytes32"
        }
      ],
      "name": "getBool",
      "outputs": [
        {
          "internalType": "bool",
          "name": "data",
          "type": "bool"
        }
      ],
      "stateMutability": "view",
      "type": "function"
    },
    {
      "inputs": [
        {
          "internalType": "bytes32",
          "name": "tag",
          "type": "bytes32"
        }
      ],
      "name": "getBytes",
      "outputs": [
        {
          "internalType": "bytes",
          "name": "data",
          "type": "bytes"
        }
      ],
      "stateMutability": "view",
      "type": "function"
    },
    {
      "inputs": [
        {
          "internalType": "bytes32",
          "name": "tag",
          "type": "bytes32"
        }
      ],
      "name": "getInt",
      "outputs": [
        {
          "internalType": "int256",
          "name": "data",
          "type": "int256"
        }
      ],
      "stateMutability": "view",
      "type": "function"
    },
    {
      "inputs": [
        {
          "internalType": "bytes32",
          "name": "tag",
          "type": "bytes32"
        }
      ],
      "name": "getString",
      "outputs": [
        {
          "internalType": "string",
          "name": "data",
          "type": "string"
        }
      ],
      "stateMutability": "view",
      "type": "function"
    },
    {
      "inputs": [
        {
          "internalType": "bytes32",
          "name": "tag",
          "type": "bytes32"
        }
      ],
      "name": "getUint",
      "outputs": [
        {
          "internalType": "uint256",
          "name": "data",
          "type": "uint256"
        }
      ],
      "stateMutability": "view",
      "type": "function"
    },
    {
      "inputs": [],
      "name": "owner",
      "outputs": [
        {
          "internalType": "address",
          "name": "",
          "type": "address"
        }
      ],
      "stateMutability": "view",
      "type": "function"
    },
    {
      "inputs": [],
      "name": "renounceOwnership",
      "outputs": [],
      "stateMutability": "nonpayable",
      "type": "function"
    },
    {
      "inputs": [
        {
          "internalType": "bytes32",
          "name": "tag",
          "type": "bytes32"
        },
        {
          "internalType": "address",
          "name": "data",
          "type": "address"
        }
      ],
      "name": "setAddress",
      "outputs": [],
      "stateMutability": "nonpayable",
      "type": "function"
    },
    {
      "inputs": [
        {
          "internalType": "bytes32",
          "name": "tag",
          "type": "bytes32"
        },
        {
          "internalType": "bool",
          "name": "data",
          "type": "bool"
        }
      ],
      "name": "setBool",
      "outputs": [],
      "stateMutability": "nonpayable",
      "type": "function"
    },
    {
      "inputs": [
        {
          "internalType": "bytes32",
          "name": "tag",
          "type": "bytes32"
        },
        {
          "internalType": "bytes",
          "name": "data",
          "type": "bytes"
        }
      ],
      "name": "setBytes",
      "outputs": [],
      "stateMutability": "nonpayable",
      "type": "function"
    },
    {
      "inputs": [
        {
          "internalType": "bytes32",
          "name": "tag",
          "type": "bytes32"
        },
        {
          "internalType": "int256",
          "name": "data",
          "type": "int256"
        }
      ],
      "name": "setInt",
      "outputs": [],
      "stateMutability": "nonpayable",
      "type": "function"
    },
    {
      "inputs": [
        {
          "internalType": "bytes32",
          "name": "tag",
          "type": "bytes32"
        },
        {
          "internalType": "string",
          "name": "data",
          "type": "string"
        }
      ],
      "name": "setString",
      "outputs": [],
      "stateMutability": "nonpayable",
      "type": "function"
    },
    {
      "inputs": [
        {
          "internalType": "bytes32",
          "name": "tag",
          "type": "bytes32"
        },
        {
          "internalType": "uint256",
          "name": "data",
          "type": "uint256"
        }
      ],
      "name": "setUint",
      "outputs": [],
      "stateMutability": "nonpayable",
      "type": "function"
    },
    {
      "inputs": [
        {
          "internalType": "address",
          "name": "newOwner",
          "type": "address"
        }
      ],
      "name": "transferOwnership",
      "outputs": [],
      "stateMutability": "nonpayable",
      "type": "function"
    },
    {
      "inputs": [],
      "name": "version",
      "outputs": [
        {
          "internalType": "string",
          "name": "",
          "type": "string"
        }
      ],
      "stateMutability": "pure",
      "type": "function"
    }
  ],
  "bytecode": "0x608060405234801561001057600080fd5b5061002d61002261003260201b60201c565b61003a60201b60201c565b6100fe565b600033905090565b60008060009054906101000a900473ffffffffffffffffffffffffffffffffffffffff169050816000806101000a81548173ffffffffffffffffffffffffffffffffffffffff021916908373ffffffffffffffffffffffffffffffffffffffff1602179055508173ffffffffffffffffffffffffffffffffffffffff168173ffffffffffffffffffffffffffffffffffffffff167f8be0079c531659141344cd1fd0a4f28419497f9722a3daafe3b4186f6b6457e060405160405180910390a35050565b6117fe8061010d6000396000f3fe608060405234801561001057600080fd5b50600436106101005760003560e01c8063986e791a11610097578063ca446dd911610066578063ca446dd9146102ab578063dc97d962146102c7578063e2a4853a146102f7578063f2fde38b1461031357610100565b8063986e791a146101ff578063abfdcced1461022f578063bd02d0f51461024b578063c031a1801461027b57610100565b80636e899550116100d35780636e8995501461018b578063715018a6146101a75780637ae1cfca146101b15780638da5cb5b146101e157610100565b806321f8a721146101055780632e28d084146101355780633e49bed01461015157806354fd4d501461016d575b600080fd5b61011f600480360381019061011a9190610e92565b61032f565b60405161012c9190610f00565b60405180910390f35b61014f600480360381019061014a9190611061565b61036c565b005b61016b600480360381019061016691906110f3565b61044d565b005b61017561051e565b60405161018291906111bb565b60405180910390f35b6101a560048036038101906101a0919061127e565b61055b565b005b6101af61063c565b005b6101cb60048036038101906101c69190610e92565b6106c4565b6040516101d891906112f5565b60405180910390f35b6101e96106ee565b6040516101f69190610f00565b60405180910390f35b61021960048036038101906102149190610e92565b610717565b60405161022691906111bb565b60405180910390f35b6102496004803603810190610244919061133c565b6107bc565b005b61026560048036038101906102609190610e92565b6108a0565b6040516102729190611395565b60405180910390f35b61029560048036038101906102909190610e92565b6108bd565b6040516102a29190611405565b60405180910390f35b6102c560048036038101906102c09190611453565b610962565b005b6102e160048036038101906102dc9190610e92565b610a6d565b6040516102ee91906114a2565b60405180910390f35b610311600480360381019061030c91906114e9565b610a8a565b005b61032d60048036038101906103289190611529565b610b5b565b005b60006004600083815260200190815260200160002060009054906101000a900473ffffffffffffffffffffffffffffffffffffffff169050919050565b610374610c53565b73ffffffffffffffffffffffffffffffffffffffff166103926106ee565b73ffffffffffffffffffffffffffffffffffffffff16146103e8576040517f08c379a00000000000000000000000000000000000000000000000000000000081526004016103df906115a2565b60405180910390fd5b8060066000848152602001908152602001600020908051906020019061040f929190610d1f565b507f54cc8da5421639db2b73f1274ab4d83daf1dece25d4563b1f2b6559036f796e882826040516104419291906115d1565b60405180910390a15050565b610455610c53565b73ffffffffffffffffffffffffffffffffffffffff166104736106ee565b73ffffffffffffffffffffffffffffffffffffffff16146104c9576040517f08c379a00000000000000000000000000000000000000000000000000000000081526004016104c0906115a2565b60405180910390fd5b8060036000848152602001908152602001600020819055507f48abdb84ef047cbb3f1f197c0e760737007cc8138a0fb18d6cbf23e90aec263c8282604051610512929190611601565b60405180910390a15050565b60606040518060400160405280600581526020017f302e312e30000000000000000000000000000000000000000000000000000000815250905090565b610563610c53565b73ffffffffffffffffffffffffffffffffffffffff166105816106ee565b73ffffffffffffffffffffffffffffffffffffffff16146105d7576040517f08c379a00000000000000000000000000000000000000000000000000000000081526004016105ce906115a2565b60405180910390fd5b806005600084815260200190815260200160002090805190602001906105fe929190610da5565b507f60a811eca25d7271d31214fefe3ad82281ee98bbd8cd60870e8fb6289c4bd71b828260405161063092919061162a565b60405180910390a15050565b610644610c53565b73ffffffffffffffffffffffffffffffffffffffff166106626106ee565b73ffffffffffffffffffffffffffffffffffffffff16146106b8576040517f08c379a00000000000000000000000000000000000000000000000000000000081526004016106af906115a2565b60405180910390fd5b6106c26000610c5b565b565b60006001600083815260200190815260200160002060009054906101000a900460ff169050919050565b60008060009054906101000a900473ffffffffffffffffffffffffffffffffffffffff16905090565b606060056000838152602001908152602001600020805461073790611689565b80601f016020809104026020016040519081016040528092919081815260200182805461076390611689565b80156107b05780601f10610785576101008083540402835291602001916107b0565b820191906000526020600020905b81548152906001019060200180831161079357829003601f168201915b50505050509050919050565b6107c4610c53565b73ffffffffffffffffffffffffffffffffffffffff166107e26106ee565b73ffffffffffffffffffffffffffffffffffffffff1614610838576040517f08c379a000000000000000000000000000000000000000000000000000000000815260040161082f906115a2565b60405180910390fd5b806001600084815260200190815260200160002060006101000a81548160ff0219169083151502179055507f3b0490d2388b98265ff19374e42841f02752a50e4c90f27734b8025df1b8da8182826040516108949291906116bb565b60405180910390a15050565b600060026000838152602001908152602001600020549050919050565b60606006600083815260200190815260200160002080546108dd90611689565b80601f016020809104026020016040519081016040528092919081815260200182805461090990611689565b80156109565780601f1061092b57610100808354040283529160200191610956565b820191906000526020600020905b81548152906001019060200180831161093957829003601f168201915b50505050509050919050565b61096a610c53565b73ffffffffffffffffffffffffffffffffffffffff166109886106ee565b73ffffffffffffffffffffffffffffffffffffffff16146109de576040517f08c379a00000000000000000000000000000000000000000000000000000000081526004016109d5906115a2565b60405180910390fd5b806004600084815260200190815260200160002060006101000a81548173ffffffffffffffffffffffffffffffffffffffff021916908373ffffffffffffffffffffffffffffffffffffffff1602179055507f77879ade5d0fc220756fdd6255178c5a1ad8e5ee2ae2970e8b2610242d38d8da8282604051610a619291906116e4565b60405180910390a15050565b600060036000838152602001908152602001600020549050919050565b610a92610c53565b73ffffffffffffffffffffffffffffffffffffffff16610ab06106ee565b73ffffffffffffffffffffffffffffffffffffffff1614610b06576040517f08c379a0000000000000000000000000000000000000000000000000000000008152600401610afd906115a2565b60405180910390fd5b8060026000848152602001908152602001600020819055507f3aa955f7e4f799f5e41900177cf35c185dd3fadf36fafb7a5519aa91ce5fefa58282604051610b4f92919061170d565b60405180910390a15050565b610b63610c53565b73ffffffffffffffffffffffffffffffffffffffff16610b816106ee565b73ffffffffffffffffffffffffffffffffffffffff1614610bd7576040517f08c379a0000000000000000000000000000000000000000000000000000000008152600401610bce906115a2565b60405180910390fd5b600073ffffffffffffffffffffffffffffffffffffffff168173ffffffffffffffffffffffffffffffffffffffff161415610c47576040517f08c379a0000000000000000000000000000000000000000000000000000000008152600401610c3e906117a8565b60405180910390fd5b610c5081610c5b565b50565b600033905090565b60008060009054906101000a900473ffffffffffffffffffffffffffffffffffffffff169050816000806101000a81548173ffffffffffffffffffffffffffffffffffffffff021916908373ffffffffffffffffffffffffffffffffffffffff1602179055508173ffffffffffffffffffffffffffffffffffffffff168173ffffffffffffffffffffffffffffffffffffffff167f8be0079c531659141344cd1fd0a4f28419497f9722a3daafe3b4186f6b6457e060405160405180910390a35050565b828054610d2b90611689565b90600052602060002090601f016020900481019282610d4d5760008555610d94565b82601f10610d6657805160ff1916838001178555610d94565b82800160010185558215610d94579182015b82811115610d93578251825591602001919060010190610d78565b5b509050610da19190610e2b565b5090565b828054610db190611689565b90600052602060002090601f016020900481019282610dd35760008555610e1a565b82601f10610dec57805160ff1916838001178555610e1a565b82800160010185558215610e1a579182015b82811115610e19578251825591602001919060010190610dfe565b5b509050610e279190610e2b565b5090565b5b80821115610e44576000816000905550600101610e2c565b5090565b6000604051905090565b600080fd5b600080fd5b6000819050919050565b610e6f81610e5c565b8114610e7a57600080fd5b50565b600081359050610e8c81610e66565b92915050565b600060208284031215610ea857610ea7610e52565b5b6000610eb684828501610e7d565b91505092915050565b600073ffffffffffffffffffffffffffffffffffffffff82169050919050565b6000610eea82610ebf565b9050919050565b610efa81610edf565b82525050565b6000602082019050610f156000830184610ef1565b92915050565b600080fd5b600080fd5b6000601f19601f8301169050919050565b7f4e487b7100000000000000000000000000000000000000000000000000000000600052604160045260246000fd5b610f6e82610f25565b810181811067ffffffffffffffff82111715610f8d57610f8c610f36565b5b80604052505050565b6000610fa0610e48565b9050610fac8282610f65565b919050565b600067ffffffffffffffff821115610fcc57610fcb610f36565b5b610fd582610f25565b9050602081019050919050565b82818337600083830152505050565b6000611004610fff84610fb1565b610f96565b9050828152602081018484840111156110205761101f610f20565b5b61102b848285610fe2565b509392505050565b600082601f83011261104857611047610f1b565b5b8135611058848260208601610ff1565b91505092915050565b6000806040838503121561107857611077610e52565b5b600061108685828601610e7d565b925050602083013567ffffffffffffffff8111156110a7576110a6610e57565b5b6110b385828601611033565b9150509250929050565b6000819050919050565b6110d0816110bd565b81146110db57600080fd5b50565b6000813590506110ed816110c7565b92915050565b6000806040838503121561110a57611109610e52565b5b600061111885828601610e7d565b9250506020611129858286016110de565b9150509250929050565b600081519050919050565b600082825260208201905092915050565b60005b8381101561116d578082015181840152602081019050611152565b8381111561117c576000848401525b50505050565b600061118d82611133565b611197818561113e565b93506111a781856020860161114f565b6111b081610f25565b840191505092915050565b600060208201905081810360008301526111d58184611182565b905092915050565b600067ffffffffffffffff8211156111f8576111f7610f36565b5b61120182610f25565b9050602081019050919050565b600061122161121c846111dd565b610f96565b90508281526020810184848401111561123d5761123c610f20565b5b611248848285610fe2565b509392505050565b600082601f83011261126557611264610f1b565b5b813561127584826020860161120e565b91505092915050565b6000806040838503121561129557611294610e52565b5b60006112a385828601610e7d565b925050602083013567ffffffffffffffff8111156112c4576112c3610e57565b5b6112d085828601611250565b9150509250929050565b60008115159050919050565b6112ef816112da565b82525050565b600060208201905061130a60008301846112e6565b92915050565b611319816112da565b811461132457600080fd5b50565b60008135905061133681611310565b92915050565b6000806040838503121561135357611352610e52565b5b600061136185828601610e7d565b925050602061137285828601611327565b9150509250929050565b6000819050919050565b61138f8161137c565b82525050565b60006020820190506113aa6000830184611386565b92915050565b600081519050919050565b600082825260208201905092915050565b60006113d7826113b0565b6113e181856113bb565b93506113f181856020860161114f565b6113fa81610f25565b840191505092915050565b6000602082019050818103600083015261141f81846113cc565b905092915050565b61143081610edf565b811461143b57600080fd5b50565b60008135905061144d81611427565b92915050565b6000806040838503121561146a57611469610e52565b5b600061147885828601610e7d565b92505060206114898582860161143e565b9150509250929050565b61149c816110bd565b82525050565b60006020820190506114b76000830184611493565b92915050565b6114c68161137c565b81146114d157600080fd5b50565b6000813590506114e3816114bd565b92915050565b60008060408385031215611500576114ff610e52565b5b600061150e85828601610e7d565b925050602061151f858286016114d4565b9150509250929050565b60006020828403121561153f5761153e610e52565b5b600061154d8482850161143e565b91505092915050565b7f4f776e61626c653a2063616c6c6572206973206e6f7420746865206f776e6572600082015250565b600061158c60208361113e565b915061159782611556565b602082019050919050565b600060208201905081810360008301526115bb8161157f565b9050919050565b6115cb81610e5c565b82525050565b60006040820190506115e660008301856115c2565b81810360208301526115f881846113cc565b90509392505050565b600060408201905061161660008301856115c2565b6116236020830184611493565b9392505050565b600060408201905061163f60008301856115c2565b81810360208301526116518184611182565b90509392505050565b7f4e487b7100000000000000000000000000000000000000000000000000000000600052602260045260246000fd5b600060028204905060018216806116a157607f821691505b602082108114156116b5576116b461165a565b5b50919050565b60006040820190506116d060008301856115c2565b6116dd60208301846112e6565b9392505050565b60006040820190506116f960008301856115c2565b6117066020830184610ef1565b9392505050565b600060408201905061172260008301856115c2565b61172f6020830184611386565b9392505050565b7f4f776e61626c653a206e6577206f776e657220697320746865207a65726f206160008201527f6464726573730000000000000000000000000000000000000000000000000000602082015250565b600061179260268361113e565b915061179d82611736565b604082019050919050565b600060208201905081810360008301526117c181611785565b905091905056fea2646970667358221220e659115f0a6bd0a1a4b1370f16a05d236025d0a6f9cb3f38a439b00d46a8f8d664736f6c634300080b0033",
  "linkReferences": {},
  "deployedLinkReferences": {}
}