{
  "_format": "hh-sol-artifact-1",
  "contractName": "CrossChainNFT",
  "sourceName": "contracts/CrossChainNFT/CrossChainNFT.sol",
  "abi": [
    {
      "inputs": [],
      "stateMutability": "nonpayable",
      "type": "constructor"
    },
    {
      "anonymous": false,
      "inputs": [
        {
          "indexed": true,
          "internalType": "address",
          "name": "owner",
          "type": "address"
        },
        {
          "indexed": true,
          "internalType": "address",
          "name": "approved",
          "type": "address"
        },
        {
          "indexed": true,
          "internalType": "uint256",
          "name": "tokenId",
          "type": "uint256"
        }
      ],
      "name": "Approval",
      "type": "event"
    },
    {
      "anonymous": false,
      "inputs": [
        {
          "indexed": true,
          "internalType": "address",
          "name": "owner",
          "type": "address"
        },
        {
          "indexed": true,
          "internalType": "address",
          "name": "operator",
          "type": "address"
        },
        {
          "indexed": false,
          "internalType": "bool",
          "name": "approved",
          "type": "bool"
        }
      ],
      "name": "ApprovalForAll",
      "type": "event"
    },
    {
      "anonymous": false,
      "inputs": [
        {
          "indexed": true,
          "internalType": "address",
          "name": "previousOwner",
          "type": "address"
        },
        {
          "indexed": true,
          "internalType": "address",
          "name": "newOwner",
          "type": "address"
        }
      ],
      "name": "OwnershipTransferred",
      "type": "event"
    },
    {
      "anonymous": false,
      "inputs": [
        {
          "indexed": false,
          "internalType": "address",
          "name": "account",
          "type": "address"
        }
      ],
      "name": "Paused",
      "type": "event"
    },
    {
      "anonymous": false,
      "inputs": [
        {
          "indexed": false,
          "internalType": "uint256",
          "name": "wTokenId",
          "type": "uint256"
        },
        {
          "indexed": false,
          "internalType": "uint256",
          "name": "chainId",
          "type": "uint256"
        },
        {
          "indexed": false,
          "internalType": "address",
          "name": "contAddr",
          "type": "address"
        },
        {
          "indexed": false,
          "internalType": "uint256",
          "name": "tokenId",
          "type": "uint256"
        },
        {
          "indexed": false,
          "internalType": "string",
          "name": "uri",
          "type": "string"
        }
      ],
      "name": "TokenData",
      "type": "event"
    },
    {
      "anonymous": false,
      "inputs": [
        {
          "indexed": true,
          "internalType": "address",
          "name": "from",
          "type": "address"
        },
        {
          "indexed": true,
          "internalType": "address",
          "name": "to",
          "type": "address"
        },
        {
          "indexed": true,
          "internalType": "uint256",
          "name": "tokenId",
          "type": "uint256"
        }
      ],
      "name": "Transfer",
      "type": "event"
    },
    {
      "anonymous": false,
      "inputs": [
        {
          "indexed": false,
          "internalType": "address",
          "name": "account",
          "type": "address"
        }
      ],
      "name": "Unpaused",
      "type": "event"
    },
    {
      "inputs": [
        {
          "internalType": "address",
          "name": "to",
          "type": "address"
        },
        {
          "internalType": "uint256",
          "name": "tokenId",
          "type": "uint256"
        }
      ],
      "name": "approve",
      "outputs": [],
      "stateMutability": "nonpayable",
      "type": "function"
    },
    {
      "inputs": [
        {
          "internalType": "address",
          "name": "owner",
          "type": "address"
        }
      ],
      "name": "balanceOf",
      "outputs": [
        {
          "internalType": "uint256",
          "name": "",
          "type": "uint256"
        }
      ],
      "stateMutability": "view",
      "type": "function"
    },
    {
      "inputs": [
        {
          "internalType": "uint256",
          "name": "tokenId",
          "type": "uint256"
        }
      ],
      "name": "getApproved",
      "outputs": [
        {
          "internalType": "address",
          "name": "",
          "type": "address"
        }
      ],
      "stateMutability": "view",
      "type": "function"
    },
    {
      "inputs": [
        {
          "internalType": "uint256",
          "name": "wTokenId",
          "type": "uint256"
        }
      ],
      "name": "getLockedTokenData",
      "outputs": [
        {
          "internalType": "uint256",
          "name": "chainId",
          "type": "uint256"
        },
        {
          "internalType": "address",
          "name": "contAddr",
          "type": "address"
        },
        {
          "internalType": "uint256",
          "name": "tokenId",
          "type": "uint256"
        },
        {
          "internalType": "uint256",
          "name": "releaseGasFee",
          "type": "uint256"
        }
      ],
      "stateMutability": "view",
      "type": "function"
    },
    {
      "inputs": [],
      "name": "implementationAddr",
      "outputs": [
        {
          "internalType": "address",
          "name": "",
          "type": "address"
        }
      ],
      "stateMutability": "view",
      "type": "function"
    },
    {
      "inputs": [
        {
          "internalType": "address",
          "name": "owner",
          "type": "address"
        },
        {
          "internalType": "address",
          "name": "operator",
          "type": "address"
        }
      ],
      "name": "isApprovedForAll",
      "outputs": [
        {
          "internalType": "bool",
          "name": "",
          "type": "bool"
        }
      ],
      "stateMutability": "view",
      "type": "function"
    },
    {
      "inputs": [
        {
          "internalType": "uint256",
          "name": "targetChainId",
          "type": "uint256"
        }
      ],
      "name": "mintFee",
      "outputs": [
        {
          "internalType": "uint256",
          "name": "",
          "type": "uint256"
        }
      ],
      "stateMutability": "view",
      "type": "function"
    },
    {
      "inputs": [],
      "name": "name",
      "outputs": [
        {
          "internalType": "string",
          "name": "",
          "type": "string"
        }
      ],
      "stateMutability": "view",
      "type": "function"
    },
    {
      "inputs": [
        {
          "internalType": "address",
          "name": "",
          "type": "address"
        },
        {
          "internalType": "address",
          "name": "",
          "type": "address"
        },
        {
          "internalType": "uint256",
          "name": "",
          "type": "uint256"
        },
        {
          "internalType": "bytes",
          "name": "",
          "type": "bytes"
        }
      ],
      "name": "onERC721Received",
      "outputs": [
        {
          "internalType": "bytes4",
          "name": "",
          "type": "bytes4"
        }
      ],
      "stateMutability": "nonpayable",
      "type": "function"
    },
    {
      "inputs": [],
      "name": "owner",
      "outputs": [
        {
          "internalType": "address",
          "name": "",
          "type": "address"
        }
      ],
      "stateMutability": "view",
      "type": "function"
    },
    {
      "inputs": [
        {
          "internalType": "uint256",
          "name": "tokenId",
          "type": "uint256"
        }
      ],
      "name": "ownerOf",
      "outputs": [
        {
          "internalType": "address",
          "name": "",
          "type": "address"
        }
      ],
      "stateMutability": "view",
      "type": "function"
    },
    {
      "inputs": [],
      "name": "pause",
      "outputs": [],
      "stateMutability": "nonpayable",
      "type": "function"
    },
    {
      "inputs": [],
      "name": "paused",
      "outputs": [
        {
          "internalType": "bool",
          "name": "",
          "type": "bool"
        }
      ],
      "stateMutability": "view",
      "type": "function"
    },
    {
      "inputs": [
        {
          "internalType": "address",
          "name": "contAddr",
          "type": "address"
        },
        {
          "internalType": "address",
          "name": "to",
          "type": "address"
        },
        {
          "internalType": "uint256",
          "name": "tokenId",
          "type": "uint256"
        }
      ],
      "name": "redeem",
      "outputs": [],
      "stateMutability": "nonpayable",
      "type": "function"
    },
    {
      "inputs": [],
      "name": "renounceOwnership",
      "outputs": [],
      "stateMutability": "nonpayable",
      "type": "function"
    },
    {
      "inputs": [
        {
          "internalType": "uint256",
          "name": "wTokenId",
          "type": "uint256"
        },
        {
          "internalType": "address",
          "name": "to",
          "type": "address"
        },
        {
          "internalType": "address",
          "name": "dappAddr",
          "type": "address"
        }
      ],
      "name": "requestReleaseLockedToken",
      "outputs": [],
      "stateMutability": "payable",
      "type": "function"
    },
    {
      "inputs": [
        {
          "internalType": "address",
          "name": "contAddr",
          "type": "address"
        },
        {
          "internalType": "address",
          "name": "from",
          "type": "address"
        },
        {
          "internalType": "uint256",
          "name": "targetChainId",
          "type": "uint256"
        },
        {
          "internalType": "address",
          "name": "to",
          "type": "address"
        },
        {
          "internalType": "uint256",
          "name": "tokenId",
          "type": "uint256"
        },
        {
          "internalType": "address",
          "name": "dappAddr",
          "type": "address"
        }
      ],
      "name": "requestTransferCrossChain",
      "outputs": [],
      "stateMutability": "payable",
      "type": "function"
    },
    {
      "inputs": [
        {
          "internalType": "uint256",
          "name": "chainId",
          "type": "uint256"
        },
        {
          "internalType": "address",
          "name": "contAddr",
          "type": "address"
        },
        {
          "internalType": "address",
          "name": "to",
          "type": "address"
        },
        {
          "internalType": "uint256",
          "name": "tokenId",
          "type": "uint256"
        },
        {
          "internalType": "string",
          "name": "uri",
          "type": "string"
        }
      ],
      "name": "safeMintWrappedToken",
      "outputs": [
        {
          "internalType": "uint256",
          "name": "wTokenId",
          "type": "uint256"
        }
      ],
      "stateMutability": "nonpayable",
      "type": "function"
    },
    {
      "inputs": [
        {
          "internalType": "address",
          "name": "from",
          "type": "address"
        },
        {
          "internalType": "address",
          "name": "to",
          "type": "address"
        },
        {
          "internalType": "uint256",
          "name": "tokenId",
          "type": "uint256"
        }
      ],
      "name": "safeTransferFrom",
      "outputs": [],
      "stateMutability": "nonpayable",
      "type": "function"
    },
    {
      "inputs": [
        {
          "internalType": "address",
          "name": "from",
          "type": "address"
        },
        {
          "internalType": "address",
          "name": "to",
          "type": "address"
        },
        {
          "internalType": "uint256",
          "name": "tokenId",
          "type": "uint256"
        },
        {
          "internalType": "bytes",
          "name": "_data",
          "type": "bytes"
        }
      ],
      "name": "safeTransferFrom",
      "outputs": [],
      "stateMutability": "nonpayable",
      "type": "function"
    },
    {
      "inputs": [
        {
          "internalType": "address",
          "name": "operator",
          "type": "address"
        },
        {
          "internalType": "bool",
          "name": "approved",
          "type": "bool"
        }
      ],
      "name": "setApprovalForAll",
      "outputs": [],
      "stateMutability": "nonpayable",
      "type": "function"
    },
    {
      "inputs": [
        {
          "internalType": "address",
          "name": "_implementationAddr",
          "type": "address"
        }
      ],
      "name": "setImplementation",
      "outputs": [],
      "stateMutability": "nonpayable",
      "type": "function"
    },
    {
      "inputs": [
        {
          "internalType": "bytes4",
          "name": "interfaceId",
          "type": "bytes4"
        }
      ],
      "name": "supportsInterface",
      "outputs": [
        {
          "internalType": "bool",
          "name": "",
          "type": "bool"
        }
      ],
      "stateMutability": "view",
      "type": "function"
    },
    {
      "inputs": [],
      "name": "symbol",
      "outputs": [
        {
          "internalType": "string",
          "name": "",
          "type": "string"
        }
      ],
      "stateMutability": "view",
      "type": "function"
    },
    {
      "inputs": [
        {
          "internalType": "uint256",
          "name": "wTokenId",
          "type": "uint256"
        }
      ],
      "name": "tokenURI",
      "outputs": [
        {
          "internalType": "string",
          "name": "",
          "type": "string"
        }
      ],
      "stateMutability": "view",
      "type": "function"
    },
    {
      "inputs": [
        {
          "internalType": "address",
          "name": "from",
          "type": "address"
        },
        {
          "internalType": "address",
          "name": "to",
          "type": "address"
        },
        {
          "internalType": "uint256",
          "name": "tokenId",
          "type": "uint256"
        }
      ],
      "name": "transferFrom",
      "outputs": [],
      "stateMutability": "nonpayable",
      "type": "function"
    },
    {
      "inputs": [
        {
          "internalType": "address",
          "name": "newOwner",
          "type": "address"
        }
      ],
      "name": "transferOwnership",
      "outputs": [],
      "stateMutability": "nonpayable",
      "type": "function"
    },
    {
      "inputs": [],
      "name": "unpause",
      "outputs": [],
      "stateMutability": "nonpayable",
      "type": "function"
    }
  ],
  "bytecode": "0x60806040523480156200001157600080fd5b506040518060400160405280600f81526020017f43726f73732d436861696e2d4e465400000000000000000000000000000000008152506040518060400160405280600381526020017f43434e0000000000000000000000000000000000000000000000000000000000815250816000908051906020019062000096929190620001c1565b508060019080519060200190620000af929190620001c1565b505050620000d2620000c6620000f360201b60201c565b620000fb60201b60201c565b6000600760146101000a81548160ff021916908315150217905550620002d6565b600033905090565b6000600760009054906101000a900473ffffffffffffffffffffffffffffffffffffffff16905081600760006101000a81548173ffffffffffffffffffffffffffffffffffffffff021916908373ffffffffffffffffffffffffffffffffffffffff1602179055508173ffffffffffffffffffffffffffffffffffffffff168173ffffffffffffffffffffffffffffffffffffffff167f8be0079c531659141344cd1fd0a4f28419497f9722a3daafe3b4186f6b6457e060405160405180910390a35050565b828054620001cf90620002a0565b90600052602060002090601f016020900481019282620001f357600085556200023f565b82601f106200020e57805160ff19168380011785556200023f565b828001600101855582156200023f579182015b828111156200023e57825182559160200191906001019062000221565b5b5090506200024e919062000252565b5090565b5b808211156200026d57600081600090555060010162000253565b5090565b7f4e487b7100000000000000000000000000000000000000000000000000000000600052602260045260246000fd5b60006002820490506001821680620002b957607f821691505b60208210811415620002d057620002cf62000271565b5b50919050565b61424880620002e66000396000f3fe6080604052600436106101b75760003560e01c806370a08231116100ec57806395d89b411161008a578063c87b56dd11610064578063c87b56dd146105f1578063d784d4261461062e578063e985e9c514610657578063f2fde38b14610694576101b7565b806395d89b4114610574578063a22cb4651461059f578063b88d4fde146105c8576101b7565b80638092f0df116100c65780638092f0df146104d95780638456cb59146104f55780638a35ace31461050c5780638da5cb5b14610549576101b7565b806370a0823114610445578063715018a61461048257806372445d6214610499576101b7565b806316e36eb6116101595780633f4ba83a116101335780633f4ba83a1461039d57806342842e0e146103b45780635c975abb146103dd5780636352211e14610408576101b7565b806316e36eb61461031b57806323b872dd146103585780633c7572d414610381576101b7565b8063095ea7b311610195578063095ea7b3146102615780630e6dfcd51461028a578063150b7a02146102b357806315d2147a146102f0576101b7565b806301ffc9a7146101bc57806306fdde03146101f9578063081812fc14610224575b600080fd5b3480156101c857600080fd5b506101e360048036038101906101de9190612b5e565b6106bd565b6040516101f09190612ba6565b60405180910390f35b34801561020557600080fd5b5061020e61079f565b60405161021b9190612c5a565b60405180910390f35b34801561023057600080fd5b5061024b60048036038101906102469190612cb2565b610831565b6040516102589190612d20565b60405180910390f35b34801561026d57600080fd5b5061028860048036038101906102839190612d67565b6108b6565b005b34801561029657600080fd5b506102b160048036038101906102ac9190612da7565b6109ce565b005b3480156102bf57600080fd5b506102da60048036038101906102d59190612f2f565b610ad8565b6040516102e79190612fc1565b60405180910390f35b3480156102fc57600080fd5b50610305610aec565b6040516103129190612d20565b60405180910390f35b34801561032757600080fd5b50610342600480360381019061033d919061307d565b610b12565b60405161034f9190613123565b60405180910390f35b34801561036457600080fd5b5061037f600480360381019061037a9190612da7565b610bda565b005b61039b6004803603810190610396919061313e565b610c3a565b005b3480156103a957600080fd5b506103b2610e1b565b005b3480156103c057600080fd5b506103db60048036038101906103d69190612da7565b610ea1565b005b3480156103e957600080fd5b506103f2610ec1565b6040516103ff9190612ba6565b60405180910390f35b34801561041457600080fd5b5061042f600480360381019061042a9190612cb2565b610ed8565b60405161043c9190612d20565b60405180910390f35b34801561045157600080fd5b5061046c60048036038101906104679190613191565b610f8a565b6040516104799190613123565b60405180910390f35b34801561048e57600080fd5b50610497611042565b005b3480156104a557600080fd5b506104c060048036038101906104bb9190612cb2565b6110ca565b6040516104d094939291906131be565b60405180910390f35b6104f360048036038101906104ee9190613203565b6112a9565b005b34801561050157600080fd5b5061050a611428565b005b34801561051857600080fd5b50610533600480360381019061052e9190612cb2565b6114ae565b6040516105409190613123565b60405180910390f35b34801561055557600080fd5b5061055e611553565b60405161056b9190612d20565b60405180910390f35b34801561058057600080fd5b5061058961157d565b6040516105969190612c5a565b60405180910390f35b3480156105ab57600080fd5b506105c660048036038101906105c191906132bc565b61160f565b005b3480156105d457600080fd5b506105ef60048036038101906105ea9190612f2f565b611625565b005b3480156105fd57600080fd5b5061061860048036038101906106139190612cb2565b611687565b6040516106259190612c5a565b60405180910390f35b34801561063a57600080fd5b5061065560048036038101906106509190613191565b611777565b005b34801561066357600080fd5b5061067e600480360381019061067991906132fc565b611878565b60405161068b9190612ba6565b60405180910390f35b3480156106a057600080fd5b506106bb60048036038101906106b69190613191565b61190c565b005b60007f80ac58cd000000000000000000000000000000000000000000000000000000007bffffffffffffffffffffffffffffffffffffffffffffffffffffffff1916827bffffffffffffffffffffffffffffffffffffffffffffffffffffffff1916148061078857507f5b5e139f000000000000000000000000000000000000000000000000000000007bffffffffffffffffffffffffffffffffffffffffffffffffffffffff1916827bffffffffffffffffffffffffffffffffffffffffffffffffffffffff1916145b80610798575061079782611a04565b5b9050919050565b6060600080546107ae9061336b565b80601f01602080910402602001604051908101604052809291908181526020018280546107da9061336b565b80156108275780601f106107fc57610100808354040283529160200191610827565b820191906000526020600020905b81548152906001019060200180831161080a57829003601f168201915b5050505050905090565b600061083c82611a6e565b61087b576040517f08c379a00000000000000000000000000000000000000000000000000000000081526004016108729061340f565b60405180910390fd5b6004600083815260200190815260200160002060009054906101000a900473ffffffffffffffffffffffffffffffffffffffff169050919050565b60006108c182610ed8565b90508073ffffffffffffffffffffffffffffffffffffffff168373ffffffffffffffffffffffffffffffffffffffff161415610932576040517f08c379a0000000000000000000000000000000000000000000000000000000008152600401610929906134a1565b60405180910390fd5b8073ffffffffffffffffffffffffffffffffffffffff16610951611ada565b73ffffffffffffffffffffffffffffffffffffffff161480610980575061097f8161097a611ada565b611878565b5b6109bf576040517f08c379a00000000000000000000000000000000000000000000000000000000081526004016109b690613533565b60405180910390fd5b6109c98383611ae2565b505050565b600960009054906101000a900473ffffffffffffffffffffffffffffffffffffffff1673ffffffffffffffffffffffffffffffffffffffff163373ffffffffffffffffffffffffffffffffffffffff1614610a5e576040517f08c379a0000000000000000000000000000000000000000000000000000000008152600401610a55906135c5565b60405180910390fd5b60008390508073ffffffffffffffffffffffffffffffffffffffff166342842e0e3085856040518463ffffffff1660e01b8152600401610aa0939291906135e5565b600060405180830381600087803b158015610aba57600080fd5b505af1158015610ace573d6000803e3d6000fd5b5050505050505050565b600063150b7a0260e01b9050949350505050565b600960009054906101000a900473ffffffffffffffffffffffffffffffffffffffff1681565b6000600960009054906101000a900473ffffffffffffffffffffffffffffffffffffffff1673ffffffffffffffffffffffffffffffffffffffff163373ffffffffffffffffffffffffffffffffffffffff1614610ba4576040517f08c379a0000000000000000000000000000000000000000000000000000000008152600401610b9b906135c5565b60405180910390fd5b610bae6008611b9b565b9050610bba6008611ba9565b610bc48482611bbf565b610bd18187878686611bdd565b95945050505050565b610beb610be5611ada565b82611ce8565b610c2a576040517f08c379a0000000000000000000000000000000000000000000000000000000008152600401610c219061368e565b60405180910390fd5b610c35838383611dc6565b505050565b600060066000858152602001908152602001600020604051806080016040529081600082015481526020016001820160009054906101000a900473ffffffffffffffffffffffffffffffffffffffff1673ffffffffffffffffffffffffffffffffffffffff1673ffffffffffffffffffffffffffffffffffffffff16815260200160028201548152602001600382018054610cd49061336b565b80601f0160208091040260200160405190810160405280929190818152602001828054610d009061336b565b8015610d4d5780601f10610d2257610100808354040283529160200191610d4d565b820191906000526020600020905b815481529060010190602001808311610d3057829003601f168201915b5050505050815250509050600081600001519050600082602001519050600083604001519050610d7c87612022565b600a60009054906101000a900473ffffffffffffffffffffffffffffffffffffffff1673ffffffffffffffffffffffffffffffffffffffff1663f60e550e3485858a868b6040518763ffffffff1660e01b8152600401610de09594939291906136ae565b6000604051808303818588803b158015610df957600080fd5b505af1158015610e0d573d6000803e3d6000fd5b505050505050505050505050565b610e23611ada565b73ffffffffffffffffffffffffffffffffffffffff16610e41611553565b73ffffffffffffffffffffffffffffffffffffffff1614610e97576040517f08c379a0000000000000000000000000000000000000000000000000000000008152600401610e8e9061374d565b60405180910390fd5b610e9f612087565b565b610ebc83838360405180602001604052806000815250611625565b505050565b6000600760149054906101000a900460ff16905090565b6000806002600084815260200190815260200160002060009054906101000a900473ffffffffffffffffffffffffffffffffffffffff169050600073ffffffffffffffffffffffffffffffffffffffff168173ffffffffffffffffffffffffffffffffffffffff161415610f81576040517f08c379a0000000000000000000000000000000000000000000000000000000008152600401610f78906137df565b60405180910390fd5b80915050919050565b60008073ffffffffffffffffffffffffffffffffffffffff168273ffffffffffffffffffffffffffffffffffffffff161415610ffb576040517f08c379a0000000000000000000000000000000000000000000000000000000008152600401610ff290613871565b60405180910390fd5b600360008373ffffffffffffffffffffffffffffffffffffffff1673ffffffffffffffffffffffffffffffffffffffff168152602001908152602001600020549050919050565b61104a611ada565b73ffffffffffffffffffffffffffffffffffffffff16611068611553565b73ffffffffffffffffffffffffffffffffffffffff16146110be576040517f08c379a00000000000000000000000000000000000000000000000000000000081526004016110b59061374d565b60405180910390fd5b6110c86000612129565b565b600080600080600060066000878152602001908152602001600020604051806080016040529081600082015481526020016001820160009054906101000a900473ffffffffffffffffffffffffffffffffffffffff1673ffffffffffffffffffffffffffffffffffffffff1673ffffffffffffffffffffffffffffffffffffffff1681526020016002820154815260200160038201805461116a9061336b565b80601f01602080910402602001604051908101604052809291908181526020018280546111969061336b565b80156111e35780601f106111b8576101008083540402835291602001916111e3565b820191906000526020600020905b8154815290600101906020018083116111c657829003601f168201915b5050505050815250509050806000015194508060200151935080604001519250600a60009054906101000a900473ffffffffffffffffffffffffffffffffffffffff1673ffffffffffffffffffffffffffffffffffffffff1663f87fcd0f866040518263ffffffff1660e01b815260040161125e9190613123565b602060405180830381865afa15801561127b573d6000803e3d6000fd5b505050506040513d601f19601f8201168201806040525081019061129f91906138a6565b9150509193509193565b6112b1610ec1565b156112f1576040517f08c379a00000000000000000000000000000000000000000000000000000000081526004016112e89061391f565b60405180910390fd5b6112fc8686846121ef565b600046905060008773ffffffffffffffffffffffffffffffffffffffff1663c87b56dd856040518263ffffffff1660e01b815260040161133c9190613123565b600060405180830381865afa158015611359573d6000803e3d6000fd5b505050506040513d6000823e3d601f19601f8201168201806040525081019061138291906139af565b9050600a60009054906101000a900473ffffffffffffffffffffffffffffffffffffffff1673ffffffffffffffffffffffffffffffffffffffff166311f918f4348888868d8a888b6040518963ffffffff1660e01b81526004016113ec97969594939291906139f8565b6000604051808303818588803b15801561140557600080fd5b505af1158015611419573d6000803e3d6000fd5b50505050505050505050505050565b611430611ada565b73ffffffffffffffffffffffffffffffffffffffff1661144e611553565b73ffffffffffffffffffffffffffffffffffffffff16146114a4576040517f08c379a000000000000000000000000000000000000000000000000000000000815260040161149b9061374d565b60405180910390fd5b6114ac612269565b565b6000600a60009054906101000a900473ffffffffffffffffffffffffffffffffffffffff1673ffffffffffffffffffffffffffffffffffffffff16638a35ace3836040518263ffffffff1660e01b815260040161150b9190613123565b602060405180830381865afa158015611528573d6000803e3d6000fd5b505050506040513d601f19601f8201168201806040525081019061154c91906138a6565b9050919050565b6000600760009054906101000a900473ffffffffffffffffffffffffffffffffffffffff16905090565b60606001805461158c9061336b565b80601f01602080910402602001604051908101604052809291908181526020018280546115b89061336b565b80156116055780601f106115da57610100808354040283529160200191611605565b820191906000526020600020905b8154815290600101906020018083116115e857829003601f168201915b5050505050905090565b61162161161a611ada565b838361230c565b5050565b611636611630611ada565b83611ce8565b611675576040517f08c379a000000000000000000000000000000000000000000000000000000000815260040161166c9061368e565b60405180910390fd5b61168184848484612479565b50505050565b606061169282611a6e565b6116d1576040517f08c379a00000000000000000000000000000000000000000000000000000000081526004016116c890613ae0565b60405180910390fd5b6006600083815260200190815260200160002060030180546116f29061336b565b80601f016020809104026020016040519081016040528092919081815260200182805461171e9061336b565b801561176b5780601f106117405761010080835404028352916020019161176b565b820191906000526020600020905b81548152906001019060200180831161174e57829003601f168201915b50505050509050919050565b61177f611ada565b73ffffffffffffffffffffffffffffffffffffffff1661179d611553565b73ffffffffffffffffffffffffffffffffffffffff16146117f3576040517f08c379a00000000000000000000000000000000000000000000000000000000081526004016117ea9061374d565b60405180910390fd5b80600960006101000a81548173ffffffffffffffffffffffffffffffffffffffff021916908373ffffffffffffffffffffffffffffffffffffffff16021790555080600a60006101000a81548173ffffffffffffffffffffffffffffffffffffffff021916908373ffffffffffffffffffffffffffffffffffffffff16021790555050565b6000600560008473ffffffffffffffffffffffffffffffffffffffff1673ffffffffffffffffffffffffffffffffffffffff16815260200190815260200160002060008373ffffffffffffffffffffffffffffffffffffffff1673ffffffffffffffffffffffffffffffffffffffff16815260200190815260200160002060009054906101000a900460ff16905092915050565b611914611ada565b73ffffffffffffffffffffffffffffffffffffffff16611932611553565b73ffffffffffffffffffffffffffffffffffffffff1614611988576040517f08c379a000000000000000000000000000000000000000000000000000000000815260040161197f9061374d565b60405180910390fd5b600073ffffffffffffffffffffffffffffffffffffffff168173ffffffffffffffffffffffffffffffffffffffff1614156119f8576040517f08c379a00000000000000000000000000000000000000000000000000000000081526004016119ef90613b72565b60405180910390fd5b611a0181612129565b50565b60007f01ffc9a7000000000000000000000000000000000000000000000000000000007bffffffffffffffffffffffffffffffffffffffffffffffffffffffff1916827bffffffffffffffffffffffffffffffffffffffffffffffffffffffff1916149050919050565b60008073ffffffffffffffffffffffffffffffffffffffff166002600084815260200190815260200160002060009054906101000a900473ffffffffffffffffffffffffffffffffffffffff1673ffffffffffffffffffffffffffffffffffffffff1614159050919050565b600033905090565b816004600083815260200190815260200160002060006101000a81548173ffffffffffffffffffffffffffffffffffffffff021916908373ffffffffffffffffffffffffffffffffffffffff160217905550808273ffffffffffffffffffffffffffffffffffffffff16611b5583610ed8565b73ffffffffffffffffffffffffffffffffffffffff167f8c5be1e5ebec7d5bd14f71427d1e84f3dd0314c0f7b2291e5b200ac8c7c3b92560405160405180910390a45050565b600081600001549050919050565b6001816000016000828254019250508190555050565b611bd98282604051806020016040528060008152506124d5565b5050565b60405180608001604052808581526020018473ffffffffffffffffffffffffffffffffffffffff16815260200183815260200182815250600660008781526020019081526020016000206000820151816000015560208201518160010160006101000a81548173ffffffffffffffffffffffffffffffffffffffff021916908373ffffffffffffffffffffffffffffffffffffffff160217905550604082015181600201556060820151816003019080519060200190611c9e929190612a0f565b509050507f2b60e724571e5c167cb187c8f7b1d4d806090ab725f30acc76f592c45158d99a8585858585604051611cd9959493929190613b92565b60405180910390a15050505050565b6000611cf382611a6e565b611d32576040517f08c379a0000000000000000000000000000000000000000000000000000000008152600401611d2990613c5e565b60405180910390fd5b6000611d3d83610ed8565b90508073ffffffffffffffffffffffffffffffffffffffff168473ffffffffffffffffffffffffffffffffffffffff161480611dac57508373ffffffffffffffffffffffffffffffffffffffff16611d9484610831565b73ffffffffffffffffffffffffffffffffffffffff16145b80611dbd5750611dbc8185611878565b5b91505092915050565b8273ffffffffffffffffffffffffffffffffffffffff16611de682610ed8565b73ffffffffffffffffffffffffffffffffffffffff1614611e3c576040517f08c379a0000000000000000000000000000000000000000000000000000000008152600401611e3390613cf0565b60405180910390fd5b600073ffffffffffffffffffffffffffffffffffffffff168273ffffffffffffffffffffffffffffffffffffffff161415611eac576040517f08c379a0000000000000000000000000000000000000000000000000000000008152600401611ea390613d82565b60405180910390fd5b611eb7838383612530565b611ec2600082611ae2565b6001600360008573ffffffffffffffffffffffffffffffffffffffff1673ffffffffffffffffffffffffffffffffffffffff1681526020019081526020016000206000828254611f129190613dd1565b925050819055506001600360008473ffffffffffffffffffffffffffffffffffffffff1673ffffffffffffffffffffffffffffffffffffffff1681526020019081526020016000206000828254611f699190613e05565b92505081905550816002600083815260200190815260200160002060006101000a81548173ffffffffffffffffffffffffffffffffffffffff021916908373ffffffffffffffffffffffffffffffffffffffff160217905550808273ffffffffffffffffffffffffffffffffffffffff168473ffffffffffffffffffffffffffffffffffffffff167fddf252ad1be2c89b69c2b068fc378daa952ba7f163c4a11628f55a4df523b3ef60405160405180910390a4505050565b61203361202d611ada565b82611ce8565b612072576040517f08c379a000000000000000000000000000000000000000000000000000000000815260040161206990613ecd565b60405180910390fd5b61207b81612535565b61208481612646565b50565b61208f610ec1565b6120ce576040517f08c379a00000000000000000000000000000000000000000000000000000000081526004016120c590613f39565b60405180910390fd5b6000600760146101000a81548160ff0219169083151502179055507f5db9ee0a495bf2e6ff9c91a7834c1ba4fdd244a5e8aa4e537bd38aeae4b073aa612112611ada565b60405161211f9190612d20565b60405180910390a1565b6000600760009054906101000a900473ffffffffffffffffffffffffffffffffffffffff16905081600760006101000a81548173ffffffffffffffffffffffffffffffffffffffff021916908373ffffffffffffffffffffffffffffffffffffffff1602179055508173ffffffffffffffffffffffffffffffffffffffff168173ffffffffffffffffffffffffffffffffffffffff167f8be0079c531659141344cd1fd0a4f28419497f9722a3daafe3b4186f6b6457e060405160405180910390a35050565b60008390508073ffffffffffffffffffffffffffffffffffffffff166342842e0e8430856040518463ffffffff1660e01b8152600401612231939291906135e5565b600060405180830381600087803b15801561224b57600080fd5b505af115801561225f573d6000803e3d6000fd5b5050505050505050565b612271610ec1565b156122b1576040517f08c379a00000000000000000000000000000000000000000000000000000000081526004016122a89061391f565b60405180910390fd5b6001600760146101000a81548160ff0219169083151502179055507f62e78cea01bee320cd4e420270b5ea74000d11b0c9f74754ebdbfc544b05a2586122f5611ada565b6040516123029190612d20565b60405180910390a1565b8173ffffffffffffffffffffffffffffffffffffffff168373ffffffffffffffffffffffffffffffffffffffff16141561237b576040517f08c379a000000000000000000000000000000000000000000000000000000000815260040161237290613fa5565b60405180910390fd5b80600560008573ffffffffffffffffffffffffffffffffffffffff1673ffffffffffffffffffffffffffffffffffffffff16815260200190815260200160002060008473ffffffffffffffffffffffffffffffffffffffff1673ffffffffffffffffffffffffffffffffffffffff16815260200190815260200160002060006101000a81548160ff0219169083151502179055508173ffffffffffffffffffffffffffffffffffffffff168373ffffffffffffffffffffffffffffffffffffffff167f17307eab39ab6107e8899845ad3d59bd9653f200f220920489ca2b5937696c318360405161246c9190612ba6565b60405180910390a3505050565b612484848484611dc6565b612490848484846126a6565b6124cf576040517f08c379a00000000000000000000000000000000000000000000000000000000081526004016124c690614037565b60405180910390fd5b50505050565b6124df838361282e565b6124ec60008484846126a6565b61252b576040517f08c379a000000000000000000000000000000000000000000000000000000000815260040161252290614037565b60405180910390fd5b505050565b505050565b600061254082610ed8565b905061254e81600084612530565b612559600083611ae2565b6001600360008373ffffffffffffffffffffffffffffffffffffffff1673ffffffffffffffffffffffffffffffffffffffff16815260200190815260200160002060008282546125a99190613dd1565b925050819055506002600083815260200190815260200160002060006101000a81549073ffffffffffffffffffffffffffffffffffffffff021916905581600073ffffffffffffffffffffffffffffffffffffffff168273ffffffffffffffffffffffffffffffffffffffff167fddf252ad1be2c89b69c2b068fc378daa952ba7f163c4a11628f55a4df523b3ef60405160405180910390a45050565b600660008281526020019081526020016000206000808201600090556001820160006101000a81549073ffffffffffffffffffffffffffffffffffffffff021916905560028201600090556003820160006126a19190612a95565b505050565b60006126c78473ffffffffffffffffffffffffffffffffffffffff166129fc565b15612821578373ffffffffffffffffffffffffffffffffffffffff1663150b7a026126f0611ada565b8786866040518563ffffffff1660e01b815260040161271294939291906140ac565b6020604051808303816000875af192505050801561274e57506040513d601f19601f8201168201806040525081019061274b919061410d565b60015b6127d1573d806000811461277e576040519150601f19603f3d011682016040523d82523d6000602084013e612783565b606091505b506000815114156127c9576040517f08c379a00000000000000000000000000000000000000000000000000000000081526004016127c090614037565b60405180910390fd5b805181602001fd5b63150b7a0260e01b7bffffffffffffffffffffffffffffffffffffffffffffffffffffffff1916817bffffffffffffffffffffffffffffffffffffffffffffffffffffffff191614915050612826565b600190505b949350505050565b600073ffffffffffffffffffffffffffffffffffffffff168273ffffffffffffffffffffffffffffffffffffffff16141561289e576040517f08c379a000000000000000000000000000000000000000000000000000000000815260040161289590614186565b60405180910390fd5b6128a781611a6e565b156128e7576040517f08c379a00000000000000000000000000000000000000000000000000000000081526004016128de906141f2565b60405180910390fd5b6128f360008383612530565b6001600360008473ffffffffffffffffffffffffffffffffffffffff1673ffffffffffffffffffffffffffffffffffffffff16815260200190815260200160002060008282546129439190613e05565b92505081905550816002600083815260200190815260200160002060006101000a81548173ffffffffffffffffffffffffffffffffffffffff021916908373ffffffffffffffffffffffffffffffffffffffff160217905550808273ffffffffffffffffffffffffffffffffffffffff16600073ffffffffffffffffffffffffffffffffffffffff167fddf252ad1be2c89b69c2b068fc378daa952ba7f163c4a11628f55a4df523b3ef60405160405180910390a45050565b600080823b905060008111915050919050565b828054612a1b9061336b565b90600052602060002090601f016020900481019282612a3d5760008555612a84565b82601f10612a5657805160ff1916838001178555612a84565b82800160010185558215612a84579182015b82811115612a83578251825591602001919060010190612a68565b5b509050612a919190612ad5565b5090565b508054612aa19061336b565b6000825580601f10612ab35750612ad2565b601f016020900490600052602060002090810190612ad19190612ad5565b5b50565b5b80821115612aee576000816000905550600101612ad6565b5090565b6000604051905090565b600080fd5b600080fd5b60007fffffffff0000000000000000000000000000000000000000000000000000000082169050919050565b612b3b81612b06565b8114612b4657600080fd5b50565b600081359050612b5881612b32565b92915050565b600060208284031215612b7457612b73612afc565b5b6000612b8284828501612b49565b91505092915050565b60008115159050919050565b612ba081612b8b565b82525050565b6000602082019050612bbb6000830184612b97565b92915050565b600081519050919050565b600082825260208201905092915050565b60005b83811015612bfb578082015181840152602081019050612be0565b83811115612c0a576000848401525b50505050565b6000601f19601f8301169050919050565b6000612c2c82612bc1565b612c368185612bcc565b9350612c46818560208601612bdd565b612c4f81612c10565b840191505092915050565b60006020820190508181036000830152612c748184612c21565b905092915050565b6000819050919050565b612c8f81612c7c565b8114612c9a57600080fd5b50565b600081359050612cac81612c86565b92915050565b600060208284031215612cc857612cc7612afc565b5b6000612cd684828501612c9d565b91505092915050565b600073ffffffffffffffffffffffffffffffffffffffff82169050919050565b6000612d0a82612cdf565b9050919050565b612d1a81612cff565b82525050565b6000602082019050612d356000830184612d11565b92915050565b612d4481612cff565b8114612d4f57600080fd5b50565b600081359050612d6181612d3b565b92915050565b60008060408385031215612d7e57612d7d612afc565b5b6000612d8c85828601612d52565b9250506020612d9d85828601612c9d565b9150509250929050565b600080600060608486031215612dc057612dbf612afc565b5b6000612dce86828701612d52565b9350506020612ddf86828701612d52565b9250506040612df086828701612c9d565b9150509250925092565b600080fd5b600080fd5b7f4e487b7100000000000000000000000000000000000000000000000000000000600052604160045260246000fd5b612e3c82612c10565b810181811067ffffffffffffffff82111715612e5b57612e5a612e04565b5b80604052505050565b6000612e6e612af2565b9050612e7a8282612e33565b919050565b600067ffffffffffffffff821115612e9a57612e99612e04565b5b612ea382612c10565b9050602081019050919050565b82818337600083830152505050565b6000612ed2612ecd84612e7f565b612e64565b905082815260208101848484011115612eee57612eed612dff565b5b612ef9848285612eb0565b509392505050565b600082601f830112612f1657612f15612dfa565b5b8135612f26848260208601612ebf565b91505092915050565b60008060008060808587031215612f4957612f48612afc565b5b6000612f5787828801612d52565b9450506020612f6887828801612d52565b9350506040612f7987828801612c9d565b925050606085013567ffffffffffffffff811115612f9a57612f99612b01565b5b612fa687828801612f01565b91505092959194509250565b612fbb81612b06565b82525050565b6000602082019050612fd66000830184612fb2565b92915050565b600067ffffffffffffffff821115612ff757612ff6612e04565b5b61300082612c10565b9050602081019050919050565b600061302061301b84612fdc565b612e64565b90508281526020810184848401111561303c5761303b612dff565b5b613047848285612eb0565b509392505050565b600082601f83011261306457613063612dfa565b5b813561307484826020860161300d565b91505092915050565b600080600080600060a0868803121561309957613098612afc565b5b60006130a788828901612c9d565b95505060206130b888828901612d52565b94505060406130c988828901612d52565b93505060606130da88828901612c9d565b925050608086013567ffffffffffffffff8111156130fb576130fa612b01565b5b6131078882890161304f565b9150509295509295909350565b61311d81612c7c565b82525050565b60006020820190506131386000830184613114565b92915050565b60008060006060848603121561315757613156612afc565b5b600061316586828701612c9d565b935050602061317686828701612d52565b925050604061318786828701612d52565b9150509250925092565b6000602082840312156131a7576131a6612afc565b5b60006131b584828501612d52565b91505092915050565b60006080820190506131d36000830187613114565b6131e06020830186612d11565b6131ed6040830185613114565b6131fa6060830184613114565b95945050505050565b60008060008060008060c087890312156132205761321f612afc565b5b600061322e89828a01612d52565b965050602061323f89828a01612d52565b955050604061325089828a01612c9d565b945050606061326189828a01612d52565b935050608061327289828a01612c9d565b92505060a061328389828a01612d52565b9150509295509295509295565b61329981612b8b565b81146132a457600080fd5b50565b6000813590506132b681613290565b92915050565b600080604083850312156132d3576132d2612afc565b5b60006132e185828601612d52565b92505060206132f2858286016132a7565b9150509250929050565b6000806040838503121561331357613312612afc565b5b600061332185828601612d52565b925050602061333285828601612d52565b9150509250929050565b7f4e487b7100000000000000000000000000000000000000000000000000000000600052602260045260246000fd5b6000600282049050600182168061338357607f821691505b602082108114156133975761339661333c565b5b50919050565b7f4552433732313a20617070726f76656420717565727920666f72206e6f6e657860008201527f697374656e7420746f6b656e0000000000000000000000000000000000000000602082015250565b60006133f9602c83612bcc565b91506134048261339d565b604082019050919050565b60006020820190508181036000830152613428816133ec565b9050919050565b7f4552433732313a20617070726f76616c20746f2063757272656e74206f776e6560008201527f7200000000000000000000000000000000000000000000000000000000000000602082015250565b600061348b602183612bcc565b91506134968261342f565b604082019050919050565b600060208201905081810360008301526134ba8161347e565b9050919050565b7f4552433732313a20617070726f76652063616c6c6572206973206e6f74206f7760008201527f6e6572206e6f7220617070726f76656420666f7220616c6c0000000000000000602082015250565b600061351d603883612bcc565b9150613528826134c1565b604082019050919050565b6000602082019050818103600083015261354c81613510565b9050919050565b7f726573747269637465642066756e6374696f6e20746f20696d706c656d656e7460008201527f6174696f6e416464720000000000000000000000000000000000000000000000602082015250565b60006135af602983612bcc565b91506135ba82613553565b604082019050919050565b600060208201905081810360008301526135de816135a2565b9050919050565b60006060820190506135fa6000830186612d11565b6136076020830185612d11565b6136146040830184613114565b949350505050565b7f4552433732313a207472616e736665722063616c6c6572206973206e6f74206f60008201527f776e6572206e6f7220617070726f766564000000000000000000000000000000602082015250565b6000613678603183612bcc565b91506136838261361c565b604082019050919050565b600060208201905081810360008301526136a78161366b565b9050919050565b600060a0820190506136c36000830188613114565b6136d06020830187612d11565b6136dd6040830186612d11565b6136ea6060830185613114565b6136f76080830184612d11565b9695505050505050565b7f4f776e61626c653a2063616c6c6572206973206e6f7420746865206f776e6572600082015250565b6000613737602083612bcc565b915061374282613701565b602082019050919050565b600060208201905081810360008301526137668161372a565b9050919050565b7f4552433732313a206f776e657220717565727920666f72206e6f6e657869737460008201527f656e7420746f6b656e0000000000000000000000000000000000000000000000602082015250565b60006137c9602983612bcc565b91506137d48261376d565b604082019050919050565b600060208201905081810360008301526137f8816137bc565b9050919050565b7f4552433732313a2062616c616e636520717565727920666f7220746865207a6560008201527f726f206164647265737300000000000000000000000000000000000000000000602082015250565b600061385b602a83612bcc565b9150613866826137ff565b604082019050919050565b6000602082019050818103600083015261388a8161384e565b9050919050565b6000815190506138a081612c86565b92915050565b6000602082840312156138bc576138bb612afc565b5b60006138ca84828501613891565b91505092915050565b7f5061757361626c653a2070617573656400000000000000000000000000000000600082015250565b6000613909601083612bcc565b9150613914826138d3565b602082019050919050565b60006020820190508181036000830152613938816138fc565b9050919050565b600061395261394d84612fdc565b612e64565b90508281526020810184848401111561396e5761396d612dff565b5b613979848285612bdd565b509392505050565b600082601f83011261399657613995612dfa565b5b81516139a684826020860161393f565b91505092915050565b6000602082840312156139c5576139c4612afc565b5b600082015167ffffffffffffffff8111156139e3576139e2612b01565b5b6139ef84828501613981565b91505092915050565b600060e082019050613a0d600083018a613114565b613a1a6020830189612d11565b613a276040830188613114565b613a346060830187612d11565b613a416080830186613114565b81810360a0830152613a538185612c21565b9050613a6260c0830184612d11565b98975050505050505050565b7f4552433732314d657461646174613a2055524920717565727920666f72206e6f60008201527f6e6578697374656e7420746f6b656e0000000000000000000000000000000000602082015250565b6000613aca602f83612bcc565b9150613ad582613a6e565b604082019050919050565b60006020820190508181036000830152613af981613abd565b9050919050565b7f4f776e61626c653a206e6577206f776e657220697320746865207a65726f206160008201527f6464726573730000000000000000000000000000000000000000000000000000602082015250565b6000613b5c602683612bcc565b9150613b6782613b00565b604082019050919050565b60006020820190508181036000830152613b8b81613b4f565b9050919050565b600060a082019050613ba76000830188613114565b613bb46020830187613114565b613bc16040830186612d11565b613bce6060830185613114565b8181036080830152613be08184612c21565b90509695505050505050565b7f4552433732313a206f70657261746f7220717565727920666f72206e6f6e657860008201527f697374656e7420746f6b656e0000000000000000000000000000000000000000602082015250565b6000613c48602c83612bcc565b9150613c5382613bec565b604082019050919050565b60006020820190508181036000830152613c7781613c3b565b9050919050565b7f4552433732313a207472616e73666572206f6620746f6b656e2074686174206960008201527f73206e6f74206f776e0000000000000000000000000000000000000000000000602082015250565b6000613cda602983612bcc565b9150613ce582613c7e565b604082019050919050565b60006020820190508181036000830152613d0981613ccd565b9050919050565b7f4552433732313a207472616e7366657220746f20746865207a65726f2061646460008201527f7265737300000000000000000000000000000000000000000000000000000000602082015250565b6000613d6c602483612bcc565b9150613d7782613d10565b604082019050919050565b60006020820190508181036000830152613d9b81613d5f565b9050919050565b7f4e487b7100000000000000000000000000000000000000000000000000000000600052601160045260246000fd5b6000613ddc82612c7c565b9150613de783612c7c565b925082821015613dfa57613df9613da2565b5b828203905092915050565b6000613e1082612c7c565b9150613e1b83612c7c565b9250827fffffffffffffffffffffffffffffffffffffffffffffffffffffffffffffffff03821115613e5057613e4f613da2565b5b828201905092915050565b7f4552433732314275726e61626c653a2063616c6c6572206973206e6f74206f7760008201527f6e6572206e6f7220617070726f76656400000000000000000000000000000000602082015250565b6000613eb7603083612bcc565b9150613ec282613e5b565b604082019050919050565b60006020820190508181036000830152613ee681613eaa565b9050919050565b7f5061757361626c653a206e6f7420706175736564000000000000000000000000600082015250565b6000613f23601483612bcc565b9150613f2e82613eed565b602082019050919050565b60006020820190508181036000830152613f5281613f16565b9050919050565b7f4552433732313a20617070726f766520746f2063616c6c657200000000000000600082015250565b6000613f8f601983612bcc565b9150613f9a82613f59565b602082019050919050565b60006020820190508181036000830152613fbe81613f82565b9050919050565b7f4552433732313a207472616e7366657220746f206e6f6e20455243373231526560008201527f63656976657220696d706c656d656e7465720000000000000000000000000000602082015250565b6000614021603283612bcc565b915061402c82613fc5565b604082019050919050565b6000602082019050818103600083015261405081614014565b9050919050565b600081519050919050565b600082825260208201905092915050565b600061407e82614057565b6140888185614062565b9350614098818560208601612bdd565b6140a181612c10565b840191505092915050565b60006080820190506140c16000830187612d11565b6140ce6020830186612d11565b6140db6040830185613114565b81810360608301526140ed8184614073565b905095945050505050565b60008151905061410781612b32565b92915050565b60006020828403121561412357614122612afc565b5b6000614131848285016140f8565b91505092915050565b7f4552433732313a206d696e7420746f20746865207a65726f2061646472657373600082015250565b6000614170602083612bcc565b915061417b8261413a565b602082019050919050565b6000602082019050818103600083015261419f81614163565b9050919050565b7f4552433732313a20746f6b656e20616c7265616479206d696e74656400000000600082015250565b60006141dc601c83612bcc565b91506141e7826141a6565b602082019050919050565b6000602082019050818103600083015261420b816141cf565b905091905056fea264697066735822122077a318a1cd95b75bc5a90e76cc3872c2988c07bed1c8e62c072696bdff8fc08a64736f6c634300080b0033",
  "linkReferences": {},
  "deployedLinkReferences": {}
}