{
  "_format": "hh-sol-artifact-1",
  "contractName": "CrossChainNFT",
  "sourceName": "contracts/CrossChainNFT/CrossChainNFT.sol",
  "abi": [
    {
      "inputs": [],
      "stateMutability": "nonpayable",
      "type": "constructor"
    },
    {
      "anonymous": false,
      "inputs": [
        {
          "indexed": true,
          "internalType": "address",
          "name": "owner",
          "type": "address"
        },
        {
          "indexed": true,
          "internalType": "address",
          "name": "approved",
          "type": "address"
        },
        {
          "indexed": true,
          "internalType": "uint256",
          "name": "tokenId",
          "type": "uint256"
        }
      ],
      "name": "Approval",
      "type": "event"
    },
    {
      "anonymous": false,
      "inputs": [
        {
          "indexed": true,
          "internalType": "address",
          "name": "owner",
          "type": "address"
        },
        {
          "indexed": true,
          "internalType": "address",
          "name": "operator",
          "type": "address"
        },
        {
          "indexed": false,
          "internalType": "bool",
          "name": "approved",
          "type": "bool"
        }
      ],
      "name": "ApprovalForAll",
      "type": "event"
    },
    {
      "anonymous": false,
      "inputs": [
        {
          "indexed": true,
          "internalType": "address",
          "name": "previousOwner",
          "type": "address"
        },
        {
          "indexed": true,
          "internalType": "address",
          "name": "newOwner",
          "type": "address"
        }
      ],
      "name": "OwnershipTransferred",
      "type": "event"
    },
    {
      "anonymous": false,
      "inputs": [
        {
          "indexed": false,
          "internalType": "uint256",
          "name": "chainId",
          "type": "uint256"
        },
        {
          "indexed": false,
          "internalType": "address",
          "name": "contAddr",
          "type": "address"
        },
        {
          "indexed": false,
          "internalType": "uint256",
          "name": "tokenId",
          "type": "uint256"
        },
        {
          "indexed": false,
          "internalType": "address",
          "name": "to",
          "type": "address"
        }
      ],
      "name": "RelayerCallRedeem",
      "type": "event"
    },
    {
      "anonymous": false,
      "inputs": [
        {
          "indexed": false,
          "internalType": "uint256",
          "name": "targetChainId",
          "type": "uint256"
        },
        {
          "indexed": false,
          "internalType": "address",
          "name": "to",
          "type": "address"
        },
        {
          "indexed": false,
          "internalType": "uint256",
          "name": "chainId",
          "type": "uint256"
        },
        {
          "indexed": false,
          "internalType": "address",
          "name": "contAddr",
          "type": "address"
        },
        {
          "indexed": false,
          "internalType": "uint256",
          "name": "tokenId",
          "type": "uint256"
        },
        {
          "indexed": false,
          "internalType": "string",
          "name": "uri",
          "type": "string"
        }
      ],
      "name": "RelayerCallSafeMintWrappedToken",
      "type": "event"
    },
    {
      "anonymous": false,
      "inputs": [
        {
          "indexed": false,
          "internalType": "uint256",
          "name": "wTokenId",
          "type": "uint256"
        }
      ],
      "name": "TokenWrapped",
      "type": "event"
    },
    {
      "anonymous": false,
      "inputs": [
        {
          "indexed": true,
          "internalType": "address",
          "name": "from",
          "type": "address"
        },
        {
          "indexed": true,
          "internalType": "address",
          "name": "to",
          "type": "address"
        },
        {
          "indexed": true,
          "internalType": "uint256",
          "name": "tokenId",
          "type": "uint256"
        }
      ],
      "name": "Transfer",
      "type": "event"
    },
    {
      "anonymous": false,
      "inputs": [
        {
          "indexed": false,
          "internalType": "uint256",
          "name": "wTokenId",
          "type": "uint256"
        }
      ],
      "name": "WTokenBurned",
      "type": "event"
    },
    {
      "inputs": [
        {
          "internalType": "address",
          "name": "to",
          "type": "address"
        },
        {
          "internalType": "uint256",
          "name": "tokenId",
          "type": "uint256"
        }
      ],
      "name": "approve",
      "outputs": [],
      "stateMutability": "nonpayable",
      "type": "function"
    },
    {
      "inputs": [
        {
          "internalType": "address",
          "name": "owner",
          "type": "address"
        }
      ],
      "name": "balanceOf",
      "outputs": [
        {
          "internalType": "uint256",
          "name": "",
          "type": "uint256"
        }
      ],
      "stateMutability": "view",
      "type": "function"
    },
    {
      "inputs": [
        {
          "internalType": "uint256",
          "name": "wTokenId",
          "type": "uint256"
        }
      ],
      "name": "burnWrappedToken",
      "outputs": [],
      "stateMutability": "nonpayable",
      "type": "function"
    },
    {
      "inputs": [
        {
          "internalType": "uint256",
          "name": "tokenId",
          "type": "uint256"
        }
      ],
      "name": "getApproved",
      "outputs": [
        {
          "internalType": "address",
          "name": "",
          "type": "address"
        }
      ],
      "stateMutability": "view",
      "type": "function"
    },
    {
      "inputs": [
        {
          "internalType": "uint256",
          "name": "targetChainId",
          "type": "uint256"
        }
      ],
      "name": "getFee",
      "outputs": [
        {
          "internalType": "uint256",
          "name": "fee",
          "type": "uint256"
        }
      ],
      "stateMutability": "view",
      "type": "function"
    },
    {
      "inputs": [
        {
          "internalType": "address",
          "name": "owner",
          "type": "address"
        },
        {
          "internalType": "address",
          "name": "operator",
          "type": "address"
        }
      ],
      "name": "isApprovedForAll",
      "outputs": [
        {
          "internalType": "bool",
          "name": "",
          "type": "bool"
        }
      ],
      "stateMutability": "view",
      "type": "function"
    },
    {
      "inputs": [],
      "name": "name",
      "outputs": [
        {
          "internalType": "string",
          "name": "",
          "type": "string"
        }
      ],
      "stateMutability": "view",
      "type": "function"
    },
    {
      "inputs": [
        {
          "internalType": "address",
          "name": "",
          "type": "address"
        },
        {
          "internalType": "address",
          "name": "",
          "type": "address"
        },
        {
          "internalType": "uint256",
          "name": "",
          "type": "uint256"
        },
        {
          "internalType": "bytes",
          "name": "",
          "type": "bytes"
        }
      ],
      "name": "onERC721Received",
      "outputs": [
        {
          "internalType": "bytes4",
          "name": "",
          "type": "bytes4"
        }
      ],
      "stateMutability": "nonpayable",
      "type": "function"
    },
    {
      "inputs": [],
      "name": "owner",
      "outputs": [
        {
          "internalType": "address",
          "name": "",
          "type": "address"
        }
      ],
      "stateMutability": "view",
      "type": "function"
    },
    {
      "inputs": [
        {
          "internalType": "uint256",
          "name": "tokenId",
          "type": "uint256"
        }
      ],
      "name": "ownerOf",
      "outputs": [
        {
          "internalType": "address",
          "name": "",
          "type": "address"
        }
      ],
      "stateMutability": "view",
      "type": "function"
    },
    {
      "inputs": [
        {
          "internalType": "address",
          "name": "contAddr",
          "type": "address"
        },
        {
          "internalType": "uint256",
          "name": "tokenId",
          "type": "uint256"
        },
        {
          "internalType": "address",
          "name": "to",
          "type": "address"
        }
      ],
      "name": "redeem",
      "outputs": [],
      "stateMutability": "nonpayable",
      "type": "function"
    },
    {
      "inputs": [],
      "name": "relayer",
      "outputs": [
        {
          "internalType": "address",
          "name": "",
          "type": "address"
        }
      ],
      "stateMutability": "view",
      "type": "function"
    },
    {
      "inputs": [],
      "name": "renounceOwnership",
      "outputs": [],
      "stateMutability": "nonpayable",
      "type": "function"
    },
    {
      "inputs": [
        {
          "internalType": "address",
          "name": "to",
          "type": "address"
        },
        {
          "internalType": "uint256",
          "name": "chainId",
          "type": "uint256"
        },
        {
          "internalType": "address",
          "name": "contAddr",
          "type": "address"
        },
        {
          "internalType": "uint256",
          "name": "tokenId",
          "type": "uint256"
        },
        {
          "internalType": "string",
          "name": "uri",
          "type": "string"
        }
      ],
      "name": "safeMintWrappedToken",
      "outputs": [
        {
          "internalType": "uint256",
          "name": "wTokenId",
          "type": "uint256"
        }
      ],
      "stateMutability": "nonpayable",
      "type": "function"
    },
    {
      "inputs": [
        {
          "internalType": "address",
          "name": "from",
          "type": "address"
        },
        {
          "internalType": "address",
          "name": "to",
          "type": "address"
        },
        {
          "internalType": "uint256",
          "name": "tokenId",
          "type": "uint256"
        }
      ],
      "name": "safeTransferFrom",
      "outputs": [],
      "stateMutability": "nonpayable",
      "type": "function"
    },
    {
      "inputs": [
        {
          "internalType": "address",
          "name": "from",
          "type": "address"
        },
        {
          "internalType": "address",
          "name": "to",
          "type": "address"
        },
        {
          "internalType": "uint256",
          "name": "tokenId",
          "type": "uint256"
        },
        {
          "internalType": "bytes",
          "name": "_data",
          "type": "bytes"
        }
      ],
      "name": "safeTransferFrom",
      "outputs": [],
      "stateMutability": "nonpayable",
      "type": "function"
    },
    {
      "inputs": [
        {
          "internalType": "address",
          "name": "operator",
          "type": "address"
        },
        {
          "internalType": "bool",
          "name": "approved",
          "type": "bool"
        }
      ],
      "name": "setApprovalForAll",
      "outputs": [],
      "stateMutability": "nonpayable",
      "type": "function"
    },
    {
      "inputs": [
        {
          "internalType": "uint256",
          "name": "targetChainId",
          "type": "uint256"
        },
        {
          "internalType": "uint256",
          "name": "fee",
          "type": "uint256"
        }
      ],
      "name": "setFee",
      "outputs": [],
      "stateMutability": "nonpayable",
      "type": "function"
    },
    {
      "inputs": [
        {
          "internalType": "uint256[]",
          "name": "targetChainIds",
          "type": "uint256[]"
        },
        {
          "internalType": "uint256[]",
          "name": "fees",
          "type": "uint256[]"
        }
      ],
      "name": "setFees",
      "outputs": [],
      "stateMutability": "nonpayable",
      "type": "function"
    },
    {
      "inputs": [
        {
          "internalType": "address",
          "name": "newRelayer",
          "type": "address"
        }
      ],
      "name": "setRelayer",
      "outputs": [],
      "stateMutability": "nonpayable",
      "type": "function"
    },
    {
      "inputs": [
        {
          "internalType": "bytes4",
          "name": "interfaceId",
          "type": "bytes4"
        }
      ],
      "name": "supportsInterface",
      "outputs": [
        {
          "internalType": "bool",
          "name": "",
          "type": "bool"
        }
      ],
      "stateMutability": "view",
      "type": "function"
    },
    {
      "inputs": [],
      "name": "symbol",
      "outputs": [
        {
          "internalType": "string",
          "name": "",
          "type": "string"
        }
      ],
      "stateMutability": "view",
      "type": "function"
    },
    {
      "inputs": [
        {
          "internalType": "uint256",
          "name": "tokenId",
          "type": "uint256"
        }
      ],
      "name": "tokenURI",
      "outputs": [
        {
          "internalType": "string",
          "name": "",
          "type": "string"
        }
      ],
      "stateMutability": "view",
      "type": "function"
    },
    {
      "inputs": [],
      "name": "totalSupply",
      "outputs": [
        {
          "internalType": "uint256",
          "name": "",
          "type": "uint256"
        }
      ],
      "stateMutability": "view",
      "type": "function"
    },
    {
      "inputs": [
        {
          "internalType": "address",
          "name": "contAddr",
          "type": "address"
        },
        {
          "internalType": "uint256",
          "name": "tokenId",
          "type": "uint256"
        },
        {
          "internalType": "address",
          "name": "from",
          "type": "address"
        },
        {
          "internalType": "address",
          "name": "to",
          "type": "address"
        },
        {
          "internalType": "uint256",
          "name": "targetChainId",
          "type": "uint256"
        }
      ],
      "name": "transferCrossChainRequest",
      "outputs": [],
      "stateMutability": "payable",
      "type": "function"
    },
    {
      "inputs": [
        {
          "internalType": "address",
          "name": "from",
          "type": "address"
        },
        {
          "internalType": "address",
          "name": "to",
          "type": "address"
        },
        {
          "internalType": "uint256",
          "name": "tokenId",
          "type": "uint256"
        }
      ],
      "name": "transferFrom",
      "outputs": [],
      "stateMutability": "nonpayable",
      "type": "function"
    },
    {
      "inputs": [
        {
          "internalType": "address",
          "name": "newOwner",
          "type": "address"
        }
      ],
      "name": "transferOwnership",
      "outputs": [],
      "stateMutability": "nonpayable",
      "type": "function"
    },
    {
      "inputs": [
        {
          "internalType": "uint256",
          "name": "wTokenId",
          "type": "uint256"
        },
        {
          "internalType": "address",
          "name": "to",
          "type": "address"
        }
      ],
      "name": "wReturnCrossChainRequest",
      "outputs": [],
      "stateMutability": "payable",
      "type": "function"
    },
    {
      "inputs": [
        {
          "internalType": "address payable",
          "name": "to",
          "type": "address"
        }
      ],
      "name": "withdrawCash",
      "outputs": [],
      "stateMutability": "nonpayable",
      "type": "function"
    }
  ],
  "bytecode": "0x60806040523480156200001157600080fd5b5073e189bfcc0d6f5f63401b104c1051699c7aa1ae4a6040518060400160405280600d81526020017f43726f7373436861696e4e4654000000000000000000000000000000000000008152506040518060400160405280600381526020017f43436800000000000000000000000000000000000000000000000000000000008152508160009080519060200190620000ab929190620002ca565b508060019080519060200190620000c4929190620002ca565b505050620000e7620000db620000ff60201b60201c565b6200010760201b60201c565b620000f881620001cd60201b60201c565b5062000462565b600033905090565b6000600760009054906101000a900473ffffffffffffffffffffffffffffffffffffffff16905081600760006101000a81548173ffffffffffffffffffffffffffffffffffffffff021916908373ffffffffffffffffffffffffffffffffffffffff1602179055508173ffffffffffffffffffffffffffffffffffffffff168173ffffffffffffffffffffffffffffffffffffffff167f8be0079c531659141344cd1fd0a4f28419497f9722a3daafe3b4186f6b6457e060405160405180910390a35050565b620001dd620000ff60201b60201c565b73ffffffffffffffffffffffffffffffffffffffff1662000203620002a060201b60201c565b73ffffffffffffffffffffffffffffffffffffffff16146200025c576040517f08c379a00000000000000000000000000000000000000000000000000000000081526004016200025390620003db565b60405180910390fd5b80600960006101000a81548173ffffffffffffffffffffffffffffffffffffffff021916908373ffffffffffffffffffffffffffffffffffffffff16021790555050565b6000600760009054906101000a900473ffffffffffffffffffffffffffffffffffffffff16905090565b828054620002d8906200042c565b90600052602060002090601f016020900481019282620002fc576000855562000348565b82601f106200031757805160ff191683800117855562000348565b8280016001018555821562000348579182015b82811115620003475782518255916020019190600101906200032a565b5b5090506200035791906200035b565b5090565b5b80821115620003765760008160009055506001016200035c565b5090565b600082825260208201905092915050565b7f4f776e61626c653a2063616c6c6572206973206e6f7420746865206f776e6572600082015250565b6000620003c36020836200037a565b9150620003d0826200038b565b602082019050919050565b60006020820190508181036000830152620003f681620003b4565b9050919050565b7f4e487b7100000000000000000000000000000000000000000000000000000000600052602260045260246000fd5b600060028204905060018216806200044557607f821691505b602082108114156200045c576200045b620003fd565b5b50919050565b61413e80620004726000396000f3fe6080604052600436106101c25760003560e01c806370a08231116100f7578063a22cb46511610095578063c87b56dd11610064578063c87b56dd1461061e578063e985e9c51461065b578063f2fde38b14610698578063fcee45f4146106c1576101c2565b8063a22cb46514610587578063ae7197df146105b0578063b88d4fde146105d9578063c237ba6b14610602576101c2565b80637a3b45bb116100d15780637a3b45bb146104dd5780638406c079146105065780638da5cb5b1461053157806395d89b411461055c576101c2565b806370a082311461044c57806370e4acd814610489578063715018a6146104c6576101c2565b8063375fede51161016457806352f7c9881161013e57806352f7c988146103945780635c833bfd146103bd5780636352211e146103e65780636548e9bc14610423576101c2565b8063375fede51461032657806338b5c5af1461034f57806342842e0e1461036b576101c2565b8063095ea7b3116101a0578063095ea7b31461026c578063150b7a021461029557806318160ddd146102d257806323b872dd146102fd576101c2565b806301ffc9a7146101c757806306fdde0314610204578063081812fc1461022f575b600080fd5b3480156101d357600080fd5b506101ee60048036038101906101e991906128c0565b6106fe565b6040516101fb9190612908565b60405180910390f35b34801561021057600080fd5b506102196107e0565b60405161022691906129bc565b60405180910390f35b34801561023b57600080fd5b5061025660048036038101906102519190612a14565b610872565b6040516102639190612a82565b60405180910390f35b34801561027857600080fd5b50610293600480360381019061028e9190612ac9565b6108f7565b005b3480156102a157600080fd5b506102bc60048036038101906102b79190612c3e565b610a0f565b6040516102c99190612cd0565b60405180910390f35b3480156102de57600080fd5b506102e7610a23565b6040516102f49190612cfa565b60405180910390f35b34801561030957600080fd5b50610324600480360381019061031f9190612d15565b610a2b565b005b34801561033257600080fd5b5061034d60048036038101906103489190612e30565b610a8b565b005b61036960048036038101906103649190612ea8565b610bac565b005b34801561037757600080fd5b50610392600480360381019061038d9190612d15565b610d82565b005b3480156103a057600080fd5b506103bb60048036038101906103b69190612ee8565b610da2565b005b3480156103c957600080fd5b506103e460048036038101906103df9190612f28565b610e3a565b005b3480156103f257600080fd5b5061040d60048036038101906104089190612a14565b610f44565b60405161041a9190612a82565b60405180910390f35b34801561042f57600080fd5b5061044a60048036038101906104459190612f7b565b610ff6565b005b34801561045857600080fd5b50610473600480360381019061046e9190612f7b565b6110b6565b6040516104809190612cfa565b60405180910390f35b34801561049557600080fd5b506104b060048036038101906104ab9190613049565b61116e565b6040516104bd9190612cfa565b60405180910390f35b3480156104d257600080fd5b506104db611236565b005b3480156104e957600080fd5b5061050460048036038101906104ff9190612a14565b6112be565b005b34801561051257600080fd5b5061051b611323565b6040516105289190612a82565b60405180910390f35b34801561053d57600080fd5b50610546611349565b6040516105539190612a82565b60405180910390f35b34801561056857600080fd5b50610571611373565b60405161057e91906129bc565b60405180910390f35b34801561059357600080fd5b506105ae60048036038101906105a9919061310c565b611405565b005b3480156105bc57600080fd5b506105d760048036038101906105d2919061318a565b61141b565b005b3480156105e557600080fd5b5061060060048036038101906105fb9190612c3e565b6114e8565b005b61061c600480360381019061061791906131b7565b61154a565b005b34801561062a57600080fd5b5061064560048036038101906106409190612a14565b611636565b60405161065291906129bc565b60405180910390f35b34801561066757600080fd5b50610682600480360381019061067d9190613232565b611648565b60405161068f9190612908565b60405180910390f35b3480156106a457600080fd5b506106bf60048036038101906106ba9190612f7b565b6116dc565b005b3480156106cd57600080fd5b506106e860048036038101906106e39190612a14565b6117d4565b6040516106f59190612cfa565b60405180910390f35b60007f80ac58cd000000000000000000000000000000000000000000000000000000007bffffffffffffffffffffffffffffffffffffffffffffffffffffffff1916827bffffffffffffffffffffffffffffffffffffffffffffffffffffffff191614806107c957507f5b5e139f000000000000000000000000000000000000000000000000000000007bffffffffffffffffffffffffffffffffffffffffffffffffffffffff1916827bffffffffffffffffffffffffffffffffffffffffffffffffffffffff1916145b806107d957506107d8826117f1565b5b9050919050565b6060600080546107ef906132a1565b80601f016020809104026020016040519081016040528092919081815260200182805461081b906132a1565b80156108685780601f1061083d57610100808354040283529160200191610868565b820191906000526020600020905b81548152906001019060200180831161084b57829003601f168201915b5050505050905090565b600061087d8261185b565b6108bc576040517f08c379a00000000000000000000000000000000000000000000000000000000081526004016108b390613345565b60405180910390fd5b6004600083815260200190815260200160002060009054906101000a900473ffffffffffffffffffffffffffffffffffffffff169050919050565b600061090282610f44565b90508073ffffffffffffffffffffffffffffffffffffffff168373ffffffffffffffffffffffffffffffffffffffff161415610973576040517f08c379a000000000000000000000000000000000000000000000000000000000815260040161096a906133d7565b60405180910390fd5b8073ffffffffffffffffffffffffffffffffffffffff166109926118c7565b73ffffffffffffffffffffffffffffffffffffffff1614806109c157506109c0816109bb6118c7565b611648565b5b610a00576040517f08c379a00000000000000000000000000000000000000000000000000000000081526004016109f790613469565b60405180910390fd5b610a0a83836118cf565b505050565b600063150b7a0260e01b9050949350505050565b600047905090565b610a3c610a366118c7565b82611988565b610a7b576040517f08c379a0000000000000000000000000000000000000000000000000000000008152600401610a72906134fb565b60405180910390fd5b610a86838383611a66565b505050565b610a936118c7565b73ffffffffffffffffffffffffffffffffffffffff16610ab1611349565b73ffffffffffffffffffffffffffffffffffffffff1614610b07576040517f08c379a0000000000000000000000000000000000000000000000000000000008152600401610afe90613567565b60405180910390fd5b8051825114610b4b576040517f08c379a0000000000000000000000000000000000000000000000000000000008152600401610b42906135f9565b60405180910390fd5b60005b82518111610ba757610b94838281518110610b6c57610b6b613619565b5b6020026020010151838381518110610b8757610b86613619565b5b6020026020010151610da2565b8080610b9f90613677565b915050610b4e565b505050565b600060066000848152602001908152602001600020604051806080016040529081600082015481526020016001820160009054906101000a900473ffffffffffffffffffffffffffffffffffffffff1673ffffffffffffffffffffffffffffffffffffffff1673ffffffffffffffffffffffffffffffffffffffff16815260200160028201548152602001600382018054610c46906132a1565b80601f0160208091040260200160405190810160405280929190818152602001828054610c72906132a1565b8015610cbf5780601f10610c9457610100808354040283529160200191610cbf565b820191906000526020600020905b815481529060010190602001808311610ca257829003601f168201915b5050505050815250509050610cd781600001516117d4565b341015610d19576040517f08c379a0000000000000000000000000000000000000000000000000000000008152600401610d109061370c565b60405180910390fd5b600081600001519050600082602001519050600083604001519050610d3d866112be565b7f68d40ad5dae5d6d29b5f9a3faf65a9e21ea0772c8a6861641ef31fad20d185fb83838388604051610d72949392919061372c565b60405180910390a1505050505050565b610d9d838383604051806020016040528060008152506114e8565b505050565b610daa6118c7565b73ffffffffffffffffffffffffffffffffffffffff16610dc8611349565b73ffffffffffffffffffffffffffffffffffffffff1614610e1e576040517f08c379a0000000000000000000000000000000000000000000000000000000008152600401610e1590613567565b60405180910390fd5b80600a6000848152602001908152602001600020819055505050565b600960009054906101000a900473ffffffffffffffffffffffffffffffffffffffff1673ffffffffffffffffffffffffffffffffffffffff163373ffffffffffffffffffffffffffffffffffffffff1614610eca576040517f08c379a0000000000000000000000000000000000000000000000000000000008152600401610ec1906137bd565b60405180910390fd5b60008390508073ffffffffffffffffffffffffffffffffffffffff166342842e0e3084866040518463ffffffff1660e01b8152600401610f0c939291906137dd565b600060405180830381600087803b158015610f2657600080fd5b505af1158015610f3a573d6000803e3d6000fd5b5050505050505050565b6000806002600084815260200190815260200160002060009054906101000a900473ffffffffffffffffffffffffffffffffffffffff169050600073ffffffffffffffffffffffffffffffffffffffff168173ffffffffffffffffffffffffffffffffffffffff161415610fed576040517f08c379a0000000000000000000000000000000000000000000000000000000008152600401610fe490613886565b60405180910390fd5b80915050919050565b610ffe6118c7565b73ffffffffffffffffffffffffffffffffffffffff1661101c611349565b73ffffffffffffffffffffffffffffffffffffffff1614611072576040517f08c379a000000000000000000000000000000000000000000000000000000000815260040161106990613567565b60405180910390fd5b80600960006101000a81548173ffffffffffffffffffffffffffffffffffffffff021916908373ffffffffffffffffffffffffffffffffffffffff16021790555050565b60008073ffffffffffffffffffffffffffffffffffffffff168273ffffffffffffffffffffffffffffffffffffffff161415611127576040517f08c379a000000000000000000000000000000000000000000000000000000000815260040161111e90613918565b60405180910390fd5b600360008373ffffffffffffffffffffffffffffffffffffffff1673ffffffffffffffffffffffffffffffffffffffff168152602001908152602001600020549050919050565b6000600960009054906101000a900473ffffffffffffffffffffffffffffffffffffffff1673ffffffffffffffffffffffffffffffffffffffff163373ffffffffffffffffffffffffffffffffffffffff1614611200576040517f08c379a00000000000000000000000000000000000000000000000000000000081526004016111f7906137bd565b60405180910390fd5b61120a6008611cc2565b90506112166008611cd0565b6112208682611ce6565b61122d8186868686611d04565b95945050505050565b61123e6118c7565b73ffffffffffffffffffffffffffffffffffffffff1661125c611349565b73ffffffffffffffffffffffffffffffffffffffff16146112b2576040517f08c379a00000000000000000000000000000000000000000000000000000000081526004016112a990613567565b60405180910390fd5b6112bc6000611e07565b565b6112cf6112c96118c7565b82611988565b61130e576040517f08c379a0000000000000000000000000000000000000000000000000000000008152600401611305906139aa565b60405180910390fd5b61131781611ecd565b61132081611fde565b50565b600960009054906101000a900473ffffffffffffffffffffffffffffffffffffffff1681565b6000600760009054906101000a900473ffffffffffffffffffffffffffffffffffffffff16905090565b606060018054611382906132a1565b80601f01602080910402602001604051908101604052809291908181526020018280546113ae906132a1565b80156113fb5780601f106113d0576101008083540402835291602001916113fb565b820191906000526020600020905b8154815290600101906020018083116113de57829003601f168201915b5050505050905090565b6114176114106118c7565b8383612075565b5050565b6114236118c7565b73ffffffffffffffffffffffffffffffffffffffff16611441611349565b73ffffffffffffffffffffffffffffffffffffffff1614611497576040517f08c379a000000000000000000000000000000000000000000000000000000000815260040161148e90613567565b60405180910390fd5b8073ffffffffffffffffffffffffffffffffffffffff166108fc6114b9610a23565b9081150290604051600060405180830381858888f193505050501580156114e4573d6000803e3d6000fd5b5050565b6114f96114f36118c7565b83611988565b611538576040517f08c379a000000000000000000000000000000000000000000000000000000000815260040161152f906134fb565b60405180910390fd5b611544848484846121e2565b50505050565b611553816117d4565b34101561155f57600080fd5b61156a85858561223e565b60004690507f9301e409432a51a191443f644ae41630782021a09e1ce98fc0e5fb72078a25ea82848389898b73ffffffffffffffffffffffffffffffffffffffff1663c87b56dd8c6040518263ffffffff1660e01b81526004016115ce9190612cfa565b600060405180830381865afa1580156115eb573d6000803e3d6000fd5b505050506040513d6000823e3d601f19601f820116820180604052508101906116149190613a3a565b60405161162696959493929190613a83565b60405180910390a1505050505050565b6060611641826122b8565b9050919050565b6000600560008473ffffffffffffffffffffffffffffffffffffffff1673ffffffffffffffffffffffffffffffffffffffff16815260200190815260200160002060008373ffffffffffffffffffffffffffffffffffffffff1673ffffffffffffffffffffffffffffffffffffffff16815260200190815260200160002060009054906101000a900460ff16905092915050565b6116e46118c7565b73ffffffffffffffffffffffffffffffffffffffff16611702611349565b73ffffffffffffffffffffffffffffffffffffffff1614611758576040517f08c379a000000000000000000000000000000000000000000000000000000000815260040161174f90613567565b60405180910390fd5b600073ffffffffffffffffffffffffffffffffffffffff168173ffffffffffffffffffffffffffffffffffffffff1614156117c8576040517f08c379a00000000000000000000000000000000000000000000000000000000081526004016117bf90613b5d565b60405180910390fd5b6117d181611e07565b50565b6000600a6000838152602001908152602001600020549050919050565b60007f01ffc9a7000000000000000000000000000000000000000000000000000000007bffffffffffffffffffffffffffffffffffffffffffffffffffffffff1916827bffffffffffffffffffffffffffffffffffffffffffffffffffffffff1916149050919050565b60008073ffffffffffffffffffffffffffffffffffffffff166002600084815260200190815260200160002060009054906101000a900473ffffffffffffffffffffffffffffffffffffffff1673ffffffffffffffffffffffffffffffffffffffff1614159050919050565b600033905090565b816004600083815260200190815260200160002060006101000a81548173ffffffffffffffffffffffffffffffffffffffff021916908373ffffffffffffffffffffffffffffffffffffffff160217905550808273ffffffffffffffffffffffffffffffffffffffff1661194283610f44565b73ffffffffffffffffffffffffffffffffffffffff167f8c5be1e5ebec7d5bd14f71427d1e84f3dd0314c0f7b2291e5b200ac8c7c3b92560405160405180910390a45050565b60006119938261185b565b6119d2576040517f08c379a00000000000000000000000000000000000000000000000000000000081526004016119c990613bef565b60405180910390fd5b60006119dd83610f44565b90508073ffffffffffffffffffffffffffffffffffffffff168473ffffffffffffffffffffffffffffffffffffffff161480611a4c57508373ffffffffffffffffffffffffffffffffffffffff16611a3484610872565b73ffffffffffffffffffffffffffffffffffffffff16145b80611a5d5750611a5c8185611648565b5b91505092915050565b8273ffffffffffffffffffffffffffffffffffffffff16611a8682610f44565b73ffffffffffffffffffffffffffffffffffffffff1614611adc576040517f08c379a0000000000000000000000000000000000000000000000000000000008152600401611ad390613c81565b60405180910390fd5b600073ffffffffffffffffffffffffffffffffffffffff168273ffffffffffffffffffffffffffffffffffffffff161415611b4c576040517f08c379a0000000000000000000000000000000000000000000000000000000008152600401611b4390613d13565b60405180910390fd5b611b578383836123a8565b611b626000826118cf565b6001600360008573ffffffffffffffffffffffffffffffffffffffff1673ffffffffffffffffffffffffffffffffffffffff1681526020019081526020016000206000828254611bb29190613d33565b925050819055506001600360008473ffffffffffffffffffffffffffffffffffffffff1673ffffffffffffffffffffffffffffffffffffffff1681526020019081526020016000206000828254611c099190613d67565b92505081905550816002600083815260200190815260200160002060006101000a81548173ffffffffffffffffffffffffffffffffffffffff021916908373ffffffffffffffffffffffffffffffffffffffff160217905550808273ffffffffffffffffffffffffffffffffffffffff168473ffffffffffffffffffffffffffffffffffffffff167fddf252ad1be2c89b69c2b068fc378daa952ba7f163c4a11628f55a4df523b3ef60405160405180910390a4505050565b600081600001549050919050565b6001816000016000828254019250508190555050565b611d008282604051806020016040528060008152506123ad565b5050565b60405180608001604052808581526020018473ffffffffffffffffffffffffffffffffffffffff16815260200183815260200182815250600660008781526020019081526020016000206000820151816000015560208201518160010160006101000a81548173ffffffffffffffffffffffffffffffffffffffff021916908373ffffffffffffffffffffffffffffffffffffffff160217905550604082015181600201556060820151816003019080519060200190611dc5929190612771565b509050507fbbd8046f2003b15c5e4858368dad2435a58ae1e6b8e64b8edab81490292e339585604051611df89190612cfa565b60405180910390a15050505050565b6000600760009054906101000a900473ffffffffffffffffffffffffffffffffffffffff16905081600760006101000a81548173ffffffffffffffffffffffffffffffffffffffff021916908373ffffffffffffffffffffffffffffffffffffffff1602179055508173ffffffffffffffffffffffffffffffffffffffff168173ffffffffffffffffffffffffffffffffffffffff167f8be0079c531659141344cd1fd0a4f28419497f9722a3daafe3b4186f6b6457e060405160405180910390a35050565b6000611ed882610f44565b9050611ee6816000846123a8565b611ef16000836118cf565b6001600360008373ffffffffffffffffffffffffffffffffffffffff1673ffffffffffffffffffffffffffffffffffffffff1681526020019081526020016000206000828254611f419190613d33565b925050819055506002600083815260200190815260200160002060006101000a81549073ffffffffffffffffffffffffffffffffffffffff021916905581600073ffffffffffffffffffffffffffffffffffffffff168273ffffffffffffffffffffffffffffffffffffffff167fddf252ad1be2c89b69c2b068fc378daa952ba7f163c4a11628f55a4df523b3ef60405160405180910390a45050565b600660008281526020019081526020016000206000808201600090556001820160006101000a81549073ffffffffffffffffffffffffffffffffffffffff0219169055600282016000905560038201600061203991906127f7565b50507fbae674de5b60cebab59cbdf60624b8a5ba69b8baf7f2c92aeaf1a2cc183ddddf8160405161206a9190612cfa565b60405180910390a150565b8173ffffffffffffffffffffffffffffffffffffffff168373ffffffffffffffffffffffffffffffffffffffff1614156120e4576040517f08c379a00000000000000000000000000000000000000000000000000000000081526004016120db90613e09565b60405180910390fd5b80600560008573ffffffffffffffffffffffffffffffffffffffff1673ffffffffffffffffffffffffffffffffffffffff16815260200190815260200160002060008473ffffffffffffffffffffffffffffffffffffffff1673ffffffffffffffffffffffffffffffffffffffff16815260200190815260200160002060006101000a81548160ff0219169083151502179055508173ffffffffffffffffffffffffffffffffffffffff168373ffffffffffffffffffffffffffffffffffffffff167f17307eab39ab6107e8899845ad3d59bd9653f200f220920489ca2b5937696c31836040516121d59190612908565b60405180910390a3505050565b6121ed848484611a66565b6121f984848484612408565b612238576040517f08c379a000000000000000000000000000000000000000000000000000000000815260040161222f90613e9b565b60405180910390fd5b50505050565b60008390508073ffffffffffffffffffffffffffffffffffffffff166342842e0e8330866040518463ffffffff1660e01b8152600401612280939291906137dd565b600060405180830381600087803b15801561229a57600080fd5b505af11580156122ae573d6000803e3d6000fd5b5050505050505050565b60606122c38261185b565b612302576040517f08c379a00000000000000000000000000000000000000000000000000000000081526004016122f990613f2d565b60405180910390fd5b600660008381526020019081526020016000206003018054612323906132a1565b80601f016020809104026020016040519081016040528092919081815260200182805461234f906132a1565b801561239c5780601f106123715761010080835404028352916020019161239c565b820191906000526020600020905b81548152906001019060200180831161237f57829003601f168201915b50505050509050919050565b505050565b6123b78383612590565b6123c46000848484612408565b612403576040517f08c379a00000000000000000000000000000000000000000000000000000000081526004016123fa90613e9b565b60405180910390fd5b505050565b60006124298473ffffffffffffffffffffffffffffffffffffffff1661275e565b15612583578373ffffffffffffffffffffffffffffffffffffffff1663150b7a026124526118c7565b8786866040518563ffffffff1660e01b81526004016124749493929190613fa2565b6020604051808303816000875af19250505080156124b057506040513d601f19601f820116820180604052508101906124ad9190614003565b60015b612533573d80600081146124e0576040519150601f19603f3d011682016040523d82523d6000602084013e6124e5565b606091505b5060008151141561252b576040517f08c379a000000000000000000000000000000000000000000000000000000000815260040161252290613e9b565b60405180910390fd5b805181602001fd5b63150b7a0260e01b7bffffffffffffffffffffffffffffffffffffffffffffffffffffffff1916817bffffffffffffffffffffffffffffffffffffffffffffffffffffffff191614915050612588565b600190505b949350505050565b600073ffffffffffffffffffffffffffffffffffffffff168273ffffffffffffffffffffffffffffffffffffffff161415612600576040517f08c379a00000000000000000000000000000000000000000000000000000000081526004016125f79061407c565b60405180910390fd5b6126098161185b565b15612649576040517f08c379a0000000000000000000000000000000000000000000000000000000008152600401612640906140e8565b60405180910390fd5b612655600083836123a8565b6001600360008473ffffffffffffffffffffffffffffffffffffffff1673ffffffffffffffffffffffffffffffffffffffff16815260200190815260200160002060008282546126a59190613d67565b92505081905550816002600083815260200190815260200160002060006101000a81548173ffffffffffffffffffffffffffffffffffffffff021916908373ffffffffffffffffffffffffffffffffffffffff160217905550808273ffffffffffffffffffffffffffffffffffffffff16600073ffffffffffffffffffffffffffffffffffffffff167fddf252ad1be2c89b69c2b068fc378daa952ba7f163c4a11628f55a4df523b3ef60405160405180910390a45050565b600080823b905060008111915050919050565b82805461277d906132a1565b90600052602060002090601f01602090048101928261279f57600085556127e6565b82601f106127b857805160ff19168380011785556127e6565b828001600101855582156127e6579182015b828111156127e55782518255916020019190600101906127ca565b5b5090506127f39190612837565b5090565b508054612803906132a1565b6000825580601f106128155750612834565b601f0160209004906000526020600020908101906128339190612837565b5b50565b5b80821115612850576000816000905550600101612838565b5090565b6000604051905090565b600080fd5b600080fd5b60007fffffffff0000000000000000000000000000000000000000000000000000000082169050919050565b61289d81612868565b81146128a857600080fd5b50565b6000813590506128ba81612894565b92915050565b6000602082840312156128d6576128d561285e565b5b60006128e4848285016128ab565b91505092915050565b60008115159050919050565b612902816128ed565b82525050565b600060208201905061291d60008301846128f9565b92915050565b600081519050919050565b600082825260208201905092915050565b60005b8381101561295d578082015181840152602081019050612942565b8381111561296c576000848401525b50505050565b6000601f19601f8301169050919050565b600061298e82612923565b612998818561292e565b93506129a881856020860161293f565b6129b181612972565b840191505092915050565b600060208201905081810360008301526129d68184612983565b905092915050565b6000819050919050565b6129f1816129de565b81146129fc57600080fd5b50565b600081359050612a0e816129e8565b92915050565b600060208284031215612a2a57612a2961285e565b5b6000612a38848285016129ff565b91505092915050565b600073ffffffffffffffffffffffffffffffffffffffff82169050919050565b6000612a6c82612a41565b9050919050565b612a7c81612a61565b82525050565b6000602082019050612a976000830184612a73565b92915050565b612aa681612a61565b8114612ab157600080fd5b50565b600081359050612ac381612a9d565b92915050565b60008060408385031215612ae057612adf61285e565b5b6000612aee85828601612ab4565b9250506020612aff858286016129ff565b9150509250929050565b600080fd5b600080fd5b7f4e487b7100000000000000000000000000000000000000000000000000000000600052604160045260246000fd5b612b4b82612972565b810181811067ffffffffffffffff82111715612b6a57612b69612b13565b5b80604052505050565b6000612b7d612854565b9050612b898282612b42565b919050565b600067ffffffffffffffff821115612ba957612ba8612b13565b5b612bb282612972565b9050602081019050919050565b82818337600083830152505050565b6000612be1612bdc84612b8e565b612b73565b905082815260208101848484011115612bfd57612bfc612b0e565b5b612c08848285612bbf565b509392505050565b600082601f830112612c2557612c24612b09565b5b8135612c35848260208601612bce565b91505092915050565b60008060008060808587031215612c5857612c5761285e565b5b6000612c6687828801612ab4565b9450506020612c7787828801612ab4565b9350506040612c88878288016129ff565b925050606085013567ffffffffffffffff811115612ca957612ca8612863565b5b612cb587828801612c10565b91505092959194509250565b612cca81612868565b82525050565b6000602082019050612ce56000830184612cc1565b92915050565b612cf4816129de565b82525050565b6000602082019050612d0f6000830184612ceb565b92915050565b600080600060608486031215612d2e57612d2d61285e565b5b6000612d3c86828701612ab4565b9350506020612d4d86828701612ab4565b9250506040612d5e868287016129ff565b9150509250925092565b600067ffffffffffffffff821115612d8357612d82612b13565b5b602082029050602081019050919050565b600080fd5b6000612dac612da784612d68565b612b73565b90508083825260208201905060208402830185811115612dcf57612dce612d94565b5b835b81811015612df85780612de488826129ff565b845260208401935050602081019050612dd1565b5050509392505050565b600082601f830112612e1757612e16612b09565b5b8135612e27848260208601612d99565b91505092915050565b60008060408385031215612e4757612e4661285e565b5b600083013567ffffffffffffffff811115612e6557612e64612863565b5b612e7185828601612e02565b925050602083013567ffffffffffffffff811115612e9257612e91612863565b5b612e9e85828601612e02565b9150509250929050565b60008060408385031215612ebf57612ebe61285e565b5b6000612ecd858286016129ff565b9250506020612ede85828601612ab4565b9150509250929050565b60008060408385031215612eff57612efe61285e565b5b6000612f0d858286016129ff565b9250506020612f1e858286016129ff565b9150509250929050565b600080600060608486031215612f4157612f4061285e565b5b6000612f4f86828701612ab4565b9350506020612f60868287016129ff565b9250506040612f7186828701612ab4565b9150509250925092565b600060208284031215612f9157612f9061285e565b5b6000612f9f84828501612ab4565b91505092915050565b600067ffffffffffffffff821115612fc357612fc2612b13565b5b612fcc82612972565b9050602081019050919050565b6000612fec612fe784612fa8565b612b73565b90508281526020810184848401111561300857613007612b0e565b5b613013848285612bbf565b509392505050565b600082601f8301126130305761302f612b09565b5b8135613040848260208601612fd9565b91505092915050565b600080600080600060a086880312156130655761306461285e565b5b600061307388828901612ab4565b9550506020613084888289016129ff565b945050604061309588828901612ab4565b93505060606130a6888289016129ff565b925050608086013567ffffffffffffffff8111156130c7576130c6612863565b5b6130d38882890161301b565b9150509295509295909350565b6130e9816128ed565b81146130f457600080fd5b50565b600081359050613106816130e0565b92915050565b600080604083850312156131235761312261285e565b5b600061313185828601612ab4565b9250506020613142858286016130f7565b9150509250929050565b600061315782612a41565b9050919050565b6131678161314c565b811461317257600080fd5b50565b6000813590506131848161315e565b92915050565b6000602082840312156131a05761319f61285e565b5b60006131ae84828501613175565b91505092915050565b600080600080600060a086880312156131d3576131d261285e565b5b60006131e188828901612ab4565b95505060206131f2888289016129ff565b945050604061320388828901612ab4565b935050606061321488828901612ab4565b9250506080613225888289016129ff565b9150509295509295909350565b600080604083850312156132495761324861285e565b5b600061325785828601612ab4565b925050602061326885828601612ab4565b9150509250929050565b7f4e487b7100000000000000000000000000000000000000000000000000000000600052602260045260246000fd5b600060028204905060018216806132b957607f821691505b602082108114156132cd576132cc613272565b5b50919050565b7f4552433732313a20617070726f76656420717565727920666f72206e6f6e657860008201527f697374656e7420746f6b656e0000000000000000000000000000000000000000602082015250565b600061332f602c8361292e565b915061333a826132d3565b604082019050919050565b6000602082019050818103600083015261335e81613322565b9050919050565b7f4552433732313a20617070726f76616c20746f2063757272656e74206f776e6560008201527f7200000000000000000000000000000000000000000000000000000000000000602082015250565b60006133c160218361292e565b91506133cc82613365565b604082019050919050565b600060208201905081810360008301526133f0816133b4565b9050919050565b7f4552433732313a20617070726f76652063616c6c6572206973206e6f74206f7760008201527f6e6572206e6f7220617070726f76656420666f7220616c6c0000000000000000602082015250565b600061345360388361292e565b915061345e826133f7565b604082019050919050565b6000602082019050818103600083015261348281613446565b9050919050565b7f4552433732313a207472616e736665722063616c6c6572206973206e6f74206f60008201527f776e6572206e6f7220617070726f766564000000000000000000000000000000602082015250565b60006134e560318361292e565b91506134f082613489565b604082019050919050565b60006020820190508181036000830152613514816134d8565b9050919050565b7f4f776e61626c653a2063616c6c6572206973206e6f7420746865206f776e6572600082015250565b600061355160208361292e565b915061355c8261351b565b602082019050919050565b6000602082019050818103600083015261358081613544565b9050919050565b7f61727261797320617265206e6f7420696e207468652073616d65206c656e676860008201527f7400000000000000000000000000000000000000000000000000000000000000602082015250565b60006135e360218361292e565b91506135ee82613587565b604082019050919050565b60006020820190508181036000830152613612816135d6565b9050919050565b7f4e487b7100000000000000000000000000000000000000000000000000000000600052603260045260246000fd5b7f4e487b7100000000000000000000000000000000000000000000000000000000600052601160045260246000fd5b6000613682826129de565b91507fffffffffffffffffffffffffffffffffffffffffffffffffffffffffffffffff8214156136b5576136b4613648565b5b600182019050919050565b7f696e73756666696369656e742066656500000000000000000000000000000000600082015250565b60006136f660108361292e565b9150613701826136c0565b602082019050919050565b60006020820190508181036000830152613725816136e9565b9050919050565b60006080820190506137416000830187612ceb565b61374e6020830186612a73565b61375b6040830185612ceb565b6137686060830184612a73565b95945050505050565b7f726573747269637465642066756e6374696f6e20746f2072656c617965720000600082015250565b60006137a7601e8361292e565b91506137b282613771565b602082019050919050565b600060208201905081810360008301526137d68161379a565b9050919050565b60006060820190506137f26000830186612a73565b6137ff6020830185612a73565b61380c6040830184612ceb565b949350505050565b7f4552433732313a206f776e657220717565727920666f72206e6f6e657869737460008201527f656e7420746f6b656e0000000000000000000000000000000000000000000000602082015250565b600061387060298361292e565b915061387b82613814565b604082019050919050565b6000602082019050818103600083015261389f81613863565b9050919050565b7f4552433732313a2062616c616e636520717565727920666f7220746865207a6560008201527f726f206164647265737300000000000000000000000000000000000000000000602082015250565b6000613902602a8361292e565b915061390d826138a6565b604082019050919050565b60006020820190508181036000830152613931816138f5565b9050919050565b7f4552433732314275726e61626c653a2063616c6c6572206973206e6f74206f7760008201527f6e6572206e6f7220617070726f76656400000000000000000000000000000000602082015250565b600061399460308361292e565b915061399f82613938565b604082019050919050565b600060208201905081810360008301526139c381613987565b9050919050565b60006139dd6139d884612fa8565b612b73565b9050828152602081018484840111156139f9576139f8612b0e565b5b613a0484828561293f565b509392505050565b600082601f830112613a2157613a20612b09565b5b8151613a318482602086016139ca565b91505092915050565b600060208284031215613a5057613a4f61285e565b5b600082015167ffffffffffffffff811115613a6e57613a6d612863565b5b613a7a84828501613a0c565b91505092915050565b600060c082019050613a986000830189612ceb565b613aa56020830188612a73565b613ab26040830187612ceb565b613abf6060830186612a73565b613acc6080830185612ceb565b81810360a0830152613ade8184612983565b9050979650505050505050565b7f4f776e61626c653a206e6577206f776e657220697320746865207a65726f206160008201527f6464726573730000000000000000000000000000000000000000000000000000602082015250565b6000613b4760268361292e565b9150613b5282613aeb565b604082019050919050565b60006020820190508181036000830152613b7681613b3a565b9050919050565b7f4552433732313a206f70657261746f7220717565727920666f72206e6f6e657860008201527f697374656e7420746f6b656e0000000000000000000000000000000000000000602082015250565b6000613bd9602c8361292e565b9150613be482613b7d565b604082019050919050565b60006020820190508181036000830152613c0881613bcc565b9050919050565b7f4552433732313a207472616e73666572206f6620746f6b656e2074686174206960008201527f73206e6f74206f776e0000000000000000000000000000000000000000000000602082015250565b6000613c6b60298361292e565b9150613c7682613c0f565b604082019050919050565b60006020820190508181036000830152613c9a81613c5e565b9050919050565b7f4552433732313a207472616e7366657220746f20746865207a65726f2061646460008201527f7265737300000000000000000000000000000000000000000000000000000000602082015250565b6000613cfd60248361292e565b9150613d0882613ca1565b604082019050919050565b60006020820190508181036000830152613d2c81613cf0565b9050919050565b6000613d3e826129de565b9150613d49836129de565b925082821015613d5c57613d5b613648565b5b828203905092915050565b6000613d72826129de565b9150613d7d836129de565b9250827fffffffffffffffffffffffffffffffffffffffffffffffffffffffffffffffff03821115613db257613db1613648565b5b828201905092915050565b7f4552433732313a20617070726f766520746f2063616c6c657200000000000000600082015250565b6000613df360198361292e565b9150613dfe82613dbd565b602082019050919050565b60006020820190508181036000830152613e2281613de6565b9050919050565b7f4552433732313a207472616e7366657220746f206e6f6e20455243373231526560008201527f63656976657220696d706c656d656e7465720000000000000000000000000000602082015250565b6000613e8560328361292e565b9150613e9082613e29565b604082019050919050565b60006020820190508181036000830152613eb481613e78565b9050919050565b7f4552433732314d657461646174613a2055524920717565727920666f72206e6f60008201527f6e6578697374656e7420746f6b656e0000000000000000000000000000000000602082015250565b6000613f17602f8361292e565b9150613f2282613ebb565b604082019050919050565b60006020820190508181036000830152613f4681613f0a565b9050919050565b600081519050919050565b600082825260208201905092915050565b6000613f7482613f4d565b613f7e8185613f58565b9350613f8e81856020860161293f565b613f9781612972565b840191505092915050565b6000608082019050613fb76000830187612a73565b613fc46020830186612a73565b613fd16040830185612ceb565b8181036060830152613fe38184613f69565b905095945050505050565b600081519050613ffd81612894565b92915050565b6000602082840312156140195761401861285e565b5b600061402784828501613fee565b91505092915050565b7f4552433732313a206d696e7420746f20746865207a65726f2061646472657373600082015250565b600061406660208361292e565b915061407182614030565b602082019050919050565b6000602082019050818103600083015261409581614059565b9050919050565b7f4552433732313a20746f6b656e20616c7265616479206d696e74656400000000600082015250565b60006140d2601c8361292e565b91506140dd8261409c565b602082019050919050565b60006020820190508181036000830152614101816140c5565b905091905056fea26469706673582212202824e58cba743c134e48d47bf2bc6db29e81ade45e9d77868483dfca761c1a2564736f6c634300080b0033",
  "linkReferences": {},
  "deployedLinkReferences": {}
}