{
  "_format": "hh-sol-artifact-1",
  "contractName": "CrossChainNFT",
  "sourceName": "contracts/CrossChainNFT/CrossChainNFT.sol",
  "abi": [
    {
      "inputs": [],
      "stateMutability": "nonpayable",
      "type": "constructor"
    },
    {
      "anonymous": false,
      "inputs": [
        {
          "indexed": true,
          "internalType": "address",
          "name": "owner",
          "type": "address"
        },
        {
          "indexed": true,
          "internalType": "address",
          "name": "approved",
          "type": "address"
        },
        {
          "indexed": true,
          "internalType": "uint256",
          "name": "tokenId",
          "type": "uint256"
        }
      ],
      "name": "Approval",
      "type": "event"
    },
    {
      "anonymous": false,
      "inputs": [
        {
          "indexed": true,
          "internalType": "address",
          "name": "owner",
          "type": "address"
        },
        {
          "indexed": true,
          "internalType": "address",
          "name": "operator",
          "type": "address"
        },
        {
          "indexed": false,
          "internalType": "bool",
          "name": "approved",
          "type": "bool"
        }
      ],
      "name": "ApprovalForAll",
      "type": "event"
    },
    {
      "anonymous": false,
      "inputs": [
        {
          "indexed": true,
          "internalType": "address",
          "name": "previousOwner",
          "type": "address"
        },
        {
          "indexed": true,
          "internalType": "address",
          "name": "newOwner",
          "type": "address"
        }
      ],
      "name": "OwnershipTransferred",
      "type": "event"
    },
    {
      "anonymous": false,
      "inputs": [
        {
          "indexed": false,
          "internalType": "uint256",
          "name": "chainId",
          "type": "uint256"
        },
        {
          "indexed": false,
          "internalType": "address",
          "name": "contAddr",
          "type": "address"
        },
        {
          "indexed": false,
          "internalType": "uint256",
          "name": "tokenId",
          "type": "uint256"
        },
        {
          "indexed": false,
          "internalType": "address",
          "name": "to",
          "type": "address"
        }
      ],
      "name": "RelayerCallRedeem",
      "type": "event"
    },
    {
      "anonymous": false,
      "inputs": [
        {
          "indexed": false,
          "internalType": "uint256",
          "name": "targetChainId",
          "type": "uint256"
        },
        {
          "indexed": false,
          "internalType": "address",
          "name": "to",
          "type": "address"
        },
        {
          "indexed": false,
          "internalType": "uint256",
          "name": "chainId",
          "type": "uint256"
        },
        {
          "indexed": false,
          "internalType": "address",
          "name": "contAddr",
          "type": "address"
        },
        {
          "indexed": false,
          "internalType": "uint256",
          "name": "tokenId",
          "type": "uint256"
        },
        {
          "indexed": false,
          "internalType": "string",
          "name": "uri",
          "type": "string"
        }
      ],
      "name": "RelayerCallSafeMintWrappedToken",
      "type": "event"
    },
    {
      "anonymous": false,
      "inputs": [
        {
          "indexed": false,
          "internalType": "uint256",
          "name": "wTokenId",
          "type": "uint256"
        }
      ],
      "name": "TokenWrapped",
      "type": "event"
    },
    {
      "anonymous": false,
      "inputs": [
        {
          "indexed": true,
          "internalType": "address",
          "name": "from",
          "type": "address"
        },
        {
          "indexed": true,
          "internalType": "address",
          "name": "to",
          "type": "address"
        },
        {
          "indexed": true,
          "internalType": "uint256",
          "name": "tokenId",
          "type": "uint256"
        }
      ],
      "name": "Transfer",
      "type": "event"
    },
    {
      "anonymous": false,
      "inputs": [
        {
          "indexed": false,
          "internalType": "uint256",
          "name": "wTokenId",
          "type": "uint256"
        }
      ],
      "name": "WTokenBurned",
      "type": "event"
    },
    {
      "inputs": [
        {
          "internalType": "address",
          "name": "to",
          "type": "address"
        },
        {
          "internalType": "uint256",
          "name": "tokenId",
          "type": "uint256"
        }
      ],
      "name": "approve",
      "outputs": [],
      "stateMutability": "nonpayable",
      "type": "function"
    },
    {
      "inputs": [
        {
          "internalType": "address",
          "name": "owner",
          "type": "address"
        }
      ],
      "name": "balanceOf",
      "outputs": [
        {
          "internalType": "uint256",
          "name": "",
          "type": "uint256"
        }
      ],
      "stateMutability": "view",
      "type": "function"
    },
    {
      "inputs": [
        {
          "internalType": "uint256",
          "name": "tokenId",
          "type": "uint256"
        }
      ],
      "name": "burn",
      "outputs": [],
      "stateMutability": "nonpayable",
      "type": "function"
    },
    {
      "inputs": [
        {
          "internalType": "uint256",
          "name": "wTokenId",
          "type": "uint256"
        }
      ],
      "name": "burnWrappedToken",
      "outputs": [],
      "stateMutability": "nonpayable",
      "type": "function"
    },
    {
      "inputs": [
        {
          "internalType": "uint256",
          "name": "tokenId",
          "type": "uint256"
        }
      ],
      "name": "getApproved",
      "outputs": [
        {
          "internalType": "address",
          "name": "",
          "type": "address"
        }
      ],
      "stateMutability": "view",
      "type": "function"
    },
    {
      "inputs": [
        {
          "internalType": "uint256",
          "name": "targetChainId",
          "type": "uint256"
        }
      ],
      "name": "getFee",
      "outputs": [
        {
          "internalType": "uint256",
          "name": "fee",
          "type": "uint256"
        }
      ],
      "stateMutability": "view",
      "type": "function"
    },
    {
      "inputs": [
        {
          "internalType": "address",
          "name": "owner",
          "type": "address"
        },
        {
          "internalType": "address",
          "name": "operator",
          "type": "address"
        }
      ],
      "name": "isApprovedForAll",
      "outputs": [
        {
          "internalType": "bool",
          "name": "",
          "type": "bool"
        }
      ],
      "stateMutability": "view",
      "type": "function"
    },
    {
      "inputs": [],
      "name": "name",
      "outputs": [
        {
          "internalType": "string",
          "name": "",
          "type": "string"
        }
      ],
      "stateMutability": "view",
      "type": "function"
    },
    {
      "inputs": [
        {
          "internalType": "address",
          "name": "",
          "type": "address"
        },
        {
          "internalType": "address",
          "name": "",
          "type": "address"
        },
        {
          "internalType": "uint256",
          "name": "",
          "type": "uint256"
        },
        {
          "internalType": "bytes",
          "name": "",
          "type": "bytes"
        }
      ],
      "name": "onERC721Received",
      "outputs": [
        {
          "internalType": "bytes4",
          "name": "",
          "type": "bytes4"
        }
      ],
      "stateMutability": "nonpayable",
      "type": "function"
    },
    {
      "inputs": [],
      "name": "owner",
      "outputs": [
        {
          "internalType": "address",
          "name": "",
          "type": "address"
        }
      ],
      "stateMutability": "view",
      "type": "function"
    },
    {
      "inputs": [
        {
          "internalType": "uint256",
          "name": "tokenId",
          "type": "uint256"
        }
      ],
      "name": "ownerOf",
      "outputs": [
        {
          "internalType": "address",
          "name": "",
          "type": "address"
        }
      ],
      "stateMutability": "view",
      "type": "function"
    },
    {
      "inputs": [
        {
          "internalType": "address",
          "name": "contAddr",
          "type": "address"
        },
        {
          "internalType": "uint256",
          "name": "tokenId",
          "type": "uint256"
        },
        {
          "internalType": "address",
          "name": "to",
          "type": "address"
        }
      ],
      "name": "redeem",
      "outputs": [],
      "stateMutability": "nonpayable",
      "type": "function"
    },
    {
      "inputs": [],
      "name": "relayer",
      "outputs": [
        {
          "internalType": "address",
          "name": "",
          "type": "address"
        }
      ],
      "stateMutability": "view",
      "type": "function"
    },
    {
      "inputs": [],
      "name": "renounceOwnership",
      "outputs": [],
      "stateMutability": "nonpayable",
      "type": "function"
    },
    {
      "inputs": [
        {
          "internalType": "address",
          "name": "to",
          "type": "address"
        },
        {
          "internalType": "uint256",
          "name": "chainId",
          "type": "uint256"
        },
        {
          "internalType": "address",
          "name": "contAddr",
          "type": "address"
        },
        {
          "internalType": "uint256",
          "name": "tokenId",
          "type": "uint256"
        },
        {
          "internalType": "string",
          "name": "uri",
          "type": "string"
        }
      ],
      "name": "safeMintWrappedToken",
      "outputs": [
        {
          "internalType": "uint256",
          "name": "wTokenId",
          "type": "uint256"
        }
      ],
      "stateMutability": "nonpayable",
      "type": "function"
    },
    {
      "inputs": [
        {
          "internalType": "address",
          "name": "from",
          "type": "address"
        },
        {
          "internalType": "address",
          "name": "to",
          "type": "address"
        },
        {
          "internalType": "uint256",
          "name": "tokenId",
          "type": "uint256"
        }
      ],
      "name": "safeTransferFrom",
      "outputs": [],
      "stateMutability": "nonpayable",
      "type": "function"
    },
    {
      "inputs": [
        {
          "internalType": "address",
          "name": "from",
          "type": "address"
        },
        {
          "internalType": "address",
          "name": "to",
          "type": "address"
        },
        {
          "internalType": "uint256",
          "name": "tokenId",
          "type": "uint256"
        },
        {
          "internalType": "bytes",
          "name": "_data",
          "type": "bytes"
        }
      ],
      "name": "safeTransferFrom",
      "outputs": [],
      "stateMutability": "nonpayable",
      "type": "function"
    },
    {
      "inputs": [
        {
          "internalType": "address",
          "name": "operator",
          "type": "address"
        },
        {
          "internalType": "bool",
          "name": "approved",
          "type": "bool"
        }
      ],
      "name": "setApprovalForAll",
      "outputs": [],
      "stateMutability": "nonpayable",
      "type": "function"
    },
    {
      "inputs": [
        {
          "internalType": "uint256",
          "name": "targetChainId",
          "type": "uint256"
        },
        {
          "internalType": "uint256",
          "name": "fee",
          "type": "uint256"
        }
      ],
      "name": "setFee",
      "outputs": [],
      "stateMutability": "nonpayable",
      "type": "function"
    },
    {
      "inputs": [
        {
          "internalType": "uint256[]",
          "name": "targetChainIds",
          "type": "uint256[]"
        },
        {
          "internalType": "uint256[]",
          "name": "fees",
          "type": "uint256[]"
        }
      ],
      "name": "setFees",
      "outputs": [],
      "stateMutability": "nonpayable",
      "type": "function"
    },
    {
      "inputs": [
        {
          "internalType": "address",
          "name": "newRelayer",
          "type": "address"
        }
      ],
      "name": "setRelayer",
      "outputs": [],
      "stateMutability": "nonpayable",
      "type": "function"
    },
    {
      "inputs": [
        {
          "internalType": "bytes4",
          "name": "interfaceId",
          "type": "bytes4"
        }
      ],
      "name": "supportsInterface",
      "outputs": [
        {
          "internalType": "bool",
          "name": "",
          "type": "bool"
        }
      ],
      "stateMutability": "view",
      "type": "function"
    },
    {
      "inputs": [],
      "name": "symbol",
      "outputs": [
        {
          "internalType": "string",
          "name": "",
          "type": "string"
        }
      ],
      "stateMutability": "view",
      "type": "function"
    },
    {
      "inputs": [
        {
          "internalType": "uint256",
          "name": "tokenId",
          "type": "uint256"
        }
      ],
      "name": "tokenURI",
      "outputs": [
        {
          "internalType": "string",
          "name": "",
          "type": "string"
        }
      ],
      "stateMutability": "view",
      "type": "function"
    },
    {
      "inputs": [],
      "name": "totalSupply",
      "outputs": [
        {
          "internalType": "uint256",
          "name": "",
          "type": "uint256"
        }
      ],
      "stateMutability": "view",
      "type": "function"
    },
    {
      "inputs": [
        {
          "internalType": "address",
          "name": "contAddr",
          "type": "address"
        },
        {
          "internalType": "uint256",
          "name": "tokenId",
          "type": "uint256"
        },
        {
          "internalType": "address",
          "name": "from",
          "type": "address"
        },
        {
          "internalType": "address",
          "name": "to",
          "type": "address"
        },
        {
          "internalType": "uint256",
          "name": "targetChainId",
          "type": "uint256"
        }
      ],
      "name": "transferCrossChainRequest",
      "outputs": [],
      "stateMutability": "payable",
      "type": "function"
    },
    {
      "inputs": [
        {
          "internalType": "address",
          "name": "from",
          "type": "address"
        },
        {
          "internalType": "address",
          "name": "to",
          "type": "address"
        },
        {
          "internalType": "uint256",
          "name": "tokenId",
          "type": "uint256"
        }
      ],
      "name": "transferFrom",
      "outputs": [],
      "stateMutability": "nonpayable",
      "type": "function"
    },
    {
      "inputs": [
        {
          "internalType": "address",
          "name": "newOwner",
          "type": "address"
        }
      ],
      "name": "transferOwnership",
      "outputs": [],
      "stateMutability": "nonpayable",
      "type": "function"
    },
    {
      "inputs": [
        {
          "internalType": "uint256",
          "name": "wTokenId",
          "type": "uint256"
        },
        {
          "internalType": "address",
          "name": "to",
          "type": "address"
        }
      ],
      "name": "wReturnCrossChainRequest",
      "outputs": [],
      "stateMutability": "payable",
      "type": "function"
    },
    {
      "inputs": [
        {
          "internalType": "address payable",
          "name": "to",
          "type": "address"
        }
      ],
      "name": "withdrawCash",
      "outputs": [],
      "stateMutability": "nonpayable",
      "type": "function"
    }
  ],
  "bytecode": "0x60806040523480156200001157600080fd5b5073e189bfcc0d6f5f63401b104c1051699c7aa1ae4a6040518060400160405280600d81526020017f43726f7373436861696e4e4654000000000000000000000000000000000000008152506040518060400160405280600381526020017f43436800000000000000000000000000000000000000000000000000000000008152508160009080519060200190620000ab929190620002ca565b508060019080519060200190620000c4929190620002ca565b505050620000e7620000db620000ff60201b60201c565b6200010760201b60201c565b620000f881620001cd60201b60201c565b5062000462565b600033905090565b6000600760009054906101000a900473ffffffffffffffffffffffffffffffffffffffff16905081600760006101000a81548173ffffffffffffffffffffffffffffffffffffffff021916908373ffffffffffffffffffffffffffffffffffffffff1602179055508173ffffffffffffffffffffffffffffffffffffffff168173ffffffffffffffffffffffffffffffffffffffff167f8be0079c531659141344cd1fd0a4f28419497f9722a3daafe3b4186f6b6457e060405160405180910390a35050565b620001dd620000ff60201b60201c565b73ffffffffffffffffffffffffffffffffffffffff1662000203620002a060201b60201c565b73ffffffffffffffffffffffffffffffffffffffff16146200025c576040517f08c379a00000000000000000000000000000000000000000000000000000000081526004016200025390620003db565b60405180910390fd5b80600960006101000a81548173ffffffffffffffffffffffffffffffffffffffff021916908373ffffffffffffffffffffffffffffffffffffffff16021790555050565b6000600760009054906101000a900473ffffffffffffffffffffffffffffffffffffffff16905090565b828054620002d8906200042c565b90600052602060002090601f016020900481019282620002fc576000855562000348565b82601f106200031757805160ff191683800117855562000348565b8280016001018555821562000348579182015b82811115620003475782518255916020019190600101906200032a565b5b5090506200035791906200035b565b5090565b5b80821115620003765760008160009055506001016200035c565b5090565b600082825260208201905092915050565b7f4f776e61626c653a2063616c6c6572206973206e6f7420746865206f776e6572600082015250565b6000620003c36020836200037a565b9150620003d0826200038b565b602082019050919050565b60006020820190508181036000830152620003f681620003b4565b9050919050565b7f4e487b7100000000000000000000000000000000000000000000000000000000600052602260045260246000fd5b600060028204905060018216806200044557607f821691505b602082108114156200045c576200045b620003fd565b5b50919050565b6141ce80620004726000396000f3fe6080604052600436106101cd5760003560e01c806370a08231116100f7578063a22cb46511610095578063c87b56dd11610064578063c87b56dd14610652578063e985e9c51461068f578063f2fde38b146106cc578063fcee45f4146106f5576101cd565b8063a22cb465146105bb578063ae7197df146105e4578063b88d4fde1461060d578063c237ba6b14610636576101cd565b80637a3b45bb116100d15780637a3b45bb146105115780638406c0791461053a5780638da5cb5b1461056557806395d89b4114610590576101cd565b806370a082311461048057806370e4acd8146104bd578063715018a6146104fa576101cd565b8063375fede51161016f57806352f7c9881161013e57806352f7c988146103c85780635c833bfd146103f15780636352211e1461041a5780636548e9bc14610457576101cd565b8063375fede51461033157806338b5c5af1461035a57806342842e0e1461037657806342966c681461039f576101cd565b8063095ea7b3116101ab578063095ea7b314610277578063150b7a02146102a057806318160ddd146102dd57806323b872dd14610308576101cd565b806301ffc9a7146101d257806306fdde031461020f578063081812fc1461023a575b600080fd5b3480156101de57600080fd5b506101f960048036038101906101f49190612950565b610732565b6040516102069190612998565b60405180910390f35b34801561021b57600080fd5b50610224610814565b6040516102319190612a4c565b60405180910390f35b34801561024657600080fd5b50610261600480360381019061025c9190612aa4565b6108a6565b60405161026e9190612b12565b60405180910390f35b34801561028357600080fd5b5061029e60048036038101906102999190612b59565b61092b565b005b3480156102ac57600080fd5b506102c760048036038101906102c29190612cce565b610a43565b6040516102d49190612d60565b60405180910390f35b3480156102e957600080fd5b506102f2610a57565b6040516102ff9190612d8a565b60405180910390f35b34801561031457600080fd5b5061032f600480360381019061032a9190612da5565b610a5f565b005b34801561033d57600080fd5b5061035860048036038101906103539190612ec0565b610abf565b005b610374600480360381019061036f9190612f38565b610be0565b005b34801561038257600080fd5b5061039d60048036038101906103989190612da5565b610db6565b005b3480156103ab57600080fd5b506103c660048036038101906103c19190612aa4565b610dd6565b005b3480156103d457600080fd5b506103ef60048036038101906103ea9190612f78565b610e32565b005b3480156103fd57600080fd5b5061041860048036038101906104139190612fb8565b610eca565b005b34801561042657600080fd5b50610441600480360381019061043c9190612aa4565b610fd4565b60405161044e9190612b12565b60405180910390f35b34801561046357600080fd5b5061047e6004803603810190610479919061300b565b611086565b005b34801561048c57600080fd5b506104a760048036038101906104a2919061300b565b611146565b6040516104b49190612d8a565b60405180910390f35b3480156104c957600080fd5b506104e460048036038101906104df91906130d9565b6111fe565b6040516104f19190612d8a565b60405180910390f35b34801561050657600080fd5b5061050f6112c6565b005b34801561051d57600080fd5b5061053860048036038101906105339190612aa4565b61134e565b005b34801561054657600080fd5b5061054f6113b3565b60405161055c9190612b12565b60405180910390f35b34801561057157600080fd5b5061057a6113d9565b6040516105879190612b12565b60405180910390f35b34801561059c57600080fd5b506105a5611403565b6040516105b29190612a4c565b60405180910390f35b3480156105c757600080fd5b506105e260048036038101906105dd919061319c565b611495565b005b3480156105f057600080fd5b5061060b6004803603810190610606919061321a565b6114ab565b005b34801561061957600080fd5b50610634600480360381019061062f9190612cce565b611578565b005b610650600480360381019061064b9190613247565b6115da565b005b34801561065e57600080fd5b5061067960048036038101906106749190612aa4565b6116c6565b6040516106869190612a4c565b60405180910390f35b34801561069b57600080fd5b506106b660048036038101906106b191906132c2565b6116d8565b6040516106c39190612998565b60405180910390f35b3480156106d857600080fd5b506106f360048036038101906106ee919061300b565b61176c565b005b34801561070157600080fd5b5061071c60048036038101906107179190612aa4565b611864565b6040516107299190612d8a565b60405180910390f35b60007f80ac58cd000000000000000000000000000000000000000000000000000000007bffffffffffffffffffffffffffffffffffffffffffffffffffffffff1916827bffffffffffffffffffffffffffffffffffffffffffffffffffffffff191614806107fd57507f5b5e139f000000000000000000000000000000000000000000000000000000007bffffffffffffffffffffffffffffffffffffffffffffffffffffffff1916827bffffffffffffffffffffffffffffffffffffffffffffffffffffffff1916145b8061080d575061080c82611881565b5b9050919050565b60606000805461082390613331565b80601f016020809104026020016040519081016040528092919081815260200182805461084f90613331565b801561089c5780601f106108715761010080835404028352916020019161089c565b820191906000526020600020905b81548152906001019060200180831161087f57829003601f168201915b5050505050905090565b60006108b1826118eb565b6108f0576040517f08c379a00000000000000000000000000000000000000000000000000000000081526004016108e7906133d5565b60405180910390fd5b6004600083815260200190815260200160002060009054906101000a900473ffffffffffffffffffffffffffffffffffffffff169050919050565b600061093682610fd4565b90508073ffffffffffffffffffffffffffffffffffffffff168373ffffffffffffffffffffffffffffffffffffffff1614156109a7576040517f08c379a000000000000000000000000000000000000000000000000000000000815260040161099e90613467565b60405180910390fd5b8073ffffffffffffffffffffffffffffffffffffffff166109c6611957565b73ffffffffffffffffffffffffffffffffffffffff1614806109f557506109f4816109ef611957565b6116d8565b5b610a34576040517f08c379a0000000000000000000000000000000000000000000000000000000008152600401610a2b906134f9565b60405180910390fd5b610a3e838361195f565b505050565b600063150b7a0260e01b9050949350505050565b600047905090565b610a70610a6a611957565b82611a18565b610aaf576040517f08c379a0000000000000000000000000000000000000000000000000000000008152600401610aa69061358b565b60405180910390fd5b610aba838383611af6565b505050565b610ac7611957565b73ffffffffffffffffffffffffffffffffffffffff16610ae56113d9565b73ffffffffffffffffffffffffffffffffffffffff1614610b3b576040517f08c379a0000000000000000000000000000000000000000000000000000000008152600401610b32906135f7565b60405180910390fd5b8051825114610b7f576040517f08c379a0000000000000000000000000000000000000000000000000000000008152600401610b7690613689565b60405180910390fd5b60005b82518111610bdb57610bc8838281518110610ba057610b9f6136a9565b5b6020026020010151838381518110610bbb57610bba6136a9565b5b6020026020010151610e32565b8080610bd390613707565b915050610b82565b505050565b600060066000848152602001908152602001600020604051806080016040529081600082015481526020016001820160009054906101000a900473ffffffffffffffffffffffffffffffffffffffff1673ffffffffffffffffffffffffffffffffffffffff1673ffffffffffffffffffffffffffffffffffffffff16815260200160028201548152602001600382018054610c7a90613331565b80601f0160208091040260200160405190810160405280929190818152602001828054610ca690613331565b8015610cf35780601f10610cc857610100808354040283529160200191610cf3565b820191906000526020600020905b815481529060010190602001808311610cd657829003601f168201915b5050505050815250509050610d0b8160000151611864565b341015610d4d576040517f08c379a0000000000000000000000000000000000000000000000000000000008152600401610d449061379c565b60405180910390fd5b600081600001519050600082602001519050600083604001519050610d718661134e565b7f68d40ad5dae5d6d29b5f9a3faf65a9e21ea0772c8a6861641ef31fad20d185fb83838388604051610da694939291906137bc565b60405180910390a1505050505050565b610dd183838360405180602001604052806000815250611578565b505050565b610de7610de1611957565b82611a18565b610e26576040517f08c379a0000000000000000000000000000000000000000000000000000000008152600401610e1d90613873565b60405180910390fd5b610e2f81611d52565b50565b610e3a611957565b73ffffffffffffffffffffffffffffffffffffffff16610e586113d9565b73ffffffffffffffffffffffffffffffffffffffff1614610eae576040517f08c379a0000000000000000000000000000000000000000000000000000000008152600401610ea5906135f7565b60405180910390fd5b80600a6000848152602001908152602001600020819055505050565b600960009054906101000a900473ffffffffffffffffffffffffffffffffffffffff1673ffffffffffffffffffffffffffffffffffffffff163373ffffffffffffffffffffffffffffffffffffffff1614610f5a576040517f08c379a0000000000000000000000000000000000000000000000000000000008152600401610f51906138df565b60405180910390fd5b60008390508073ffffffffffffffffffffffffffffffffffffffff166342842e0e3084866040518463ffffffff1660e01b8152600401610f9c939291906138ff565b600060405180830381600087803b158015610fb657600080fd5b505af1158015610fca573d6000803e3d6000fd5b5050505050505050565b6000806002600084815260200190815260200160002060009054906101000a900473ffffffffffffffffffffffffffffffffffffffff169050600073ffffffffffffffffffffffffffffffffffffffff168173ffffffffffffffffffffffffffffffffffffffff16141561107d576040517f08c379a0000000000000000000000000000000000000000000000000000000008152600401611074906139a8565b60405180910390fd5b80915050919050565b61108e611957565b73ffffffffffffffffffffffffffffffffffffffff166110ac6113d9565b73ffffffffffffffffffffffffffffffffffffffff1614611102576040517f08c379a00000000000000000000000000000000000000000000000000000000081526004016110f9906135f7565b60405180910390fd5b80600960006101000a81548173ffffffffffffffffffffffffffffffffffffffff021916908373ffffffffffffffffffffffffffffffffffffffff16021790555050565b60008073ffffffffffffffffffffffffffffffffffffffff168273ffffffffffffffffffffffffffffffffffffffff1614156111b7576040517f08c379a00000000000000000000000000000000000000000000000000000000081526004016111ae90613a3a565b60405180910390fd5b600360008373ffffffffffffffffffffffffffffffffffffffff1673ffffffffffffffffffffffffffffffffffffffff168152602001908152602001600020549050919050565b6000600960009054906101000a900473ffffffffffffffffffffffffffffffffffffffff1673ffffffffffffffffffffffffffffffffffffffff163373ffffffffffffffffffffffffffffffffffffffff1614611290576040517f08c379a0000000000000000000000000000000000000000000000000000000008152600401611287906138df565b60405180910390fd5b61129a6008611e63565b90506112a66008611e71565b6112b08682611e87565b6112bd8186868686611ea5565b95945050505050565b6112ce611957565b73ffffffffffffffffffffffffffffffffffffffff166112ec6113d9565b73ffffffffffffffffffffffffffffffffffffffff1614611342576040517f08c379a0000000000000000000000000000000000000000000000000000000008152600401611339906135f7565b60405180910390fd5b61134c6000611fa8565b565b61135f611359611957565b82611a18565b61139e576040517f08c379a000000000000000000000000000000000000000000000000000000000815260040161139590613873565b60405180910390fd5b6113a781611d52565b6113b08161206e565b50565b600960009054906101000a900473ffffffffffffffffffffffffffffffffffffffff1681565b6000600760009054906101000a900473ffffffffffffffffffffffffffffffffffffffff16905090565b60606001805461141290613331565b80601f016020809104026020016040519081016040528092919081815260200182805461143e90613331565b801561148b5780601f106114605761010080835404028352916020019161148b565b820191906000526020600020905b81548152906001019060200180831161146e57829003601f168201915b5050505050905090565b6114a76114a0611957565b8383612105565b5050565b6114b3611957565b73ffffffffffffffffffffffffffffffffffffffff166114d16113d9565b73ffffffffffffffffffffffffffffffffffffffff1614611527576040517f08c379a000000000000000000000000000000000000000000000000000000000815260040161151e906135f7565b60405180910390fd5b8073ffffffffffffffffffffffffffffffffffffffff166108fc611549610a57565b9081150290604051600060405180830381858888f19350505050158015611574573d6000803e3d6000fd5b5050565b611589611583611957565b83611a18565b6115c8576040517f08c379a00000000000000000000000000000000000000000000000000000000081526004016115bf9061358b565b60405180910390fd5b6115d484848484612272565b50505050565b6115e381611864565b3410156115ef57600080fd5b6115fa8585856122ce565b60004690507f9301e409432a51a191443f644ae41630782021a09e1ce98fc0e5fb72078a25ea82848389898b73ffffffffffffffffffffffffffffffffffffffff1663c87b56dd8c6040518263ffffffff1660e01b815260040161165e9190612d8a565b600060405180830381865afa15801561167b573d6000803e3d6000fd5b505050506040513d6000823e3d601f19601f820116820180604052508101906116a49190613aca565b6040516116b696959493929190613b13565b60405180910390a1505050505050565b60606116d182612348565b9050919050565b6000600560008473ffffffffffffffffffffffffffffffffffffffff1673ffffffffffffffffffffffffffffffffffffffff16815260200190815260200160002060008373ffffffffffffffffffffffffffffffffffffffff1673ffffffffffffffffffffffffffffffffffffffff16815260200190815260200160002060009054906101000a900460ff16905092915050565b611774611957565b73ffffffffffffffffffffffffffffffffffffffff166117926113d9565b73ffffffffffffffffffffffffffffffffffffffff16146117e8576040517f08c379a00000000000000000000000000000000000000000000000000000000081526004016117df906135f7565b60405180910390fd5b600073ffffffffffffffffffffffffffffffffffffffff168173ffffffffffffffffffffffffffffffffffffffff161415611858576040517f08c379a000000000000000000000000000000000000000000000000000000000815260040161184f90613bed565b60405180910390fd5b61186181611fa8565b50565b6000600a6000838152602001908152602001600020549050919050565b60007f01ffc9a7000000000000000000000000000000000000000000000000000000007bffffffffffffffffffffffffffffffffffffffffffffffffffffffff1916827bffffffffffffffffffffffffffffffffffffffffffffffffffffffff1916149050919050565b60008073ffffffffffffffffffffffffffffffffffffffff166002600084815260200190815260200160002060009054906101000a900473ffffffffffffffffffffffffffffffffffffffff1673ffffffffffffffffffffffffffffffffffffffff1614159050919050565b600033905090565b816004600083815260200190815260200160002060006101000a81548173ffffffffffffffffffffffffffffffffffffffff021916908373ffffffffffffffffffffffffffffffffffffffff160217905550808273ffffffffffffffffffffffffffffffffffffffff166119d283610fd4565b73ffffffffffffffffffffffffffffffffffffffff167f8c5be1e5ebec7d5bd14f71427d1e84f3dd0314c0f7b2291e5b200ac8c7c3b92560405160405180910390a45050565b6000611a23826118eb565b611a62576040517f08c379a0000000000000000000000000000000000000000000000000000000008152600401611a5990613c7f565b60405180910390fd5b6000611a6d83610fd4565b90508073ffffffffffffffffffffffffffffffffffffffff168473ffffffffffffffffffffffffffffffffffffffff161480611adc57508373ffffffffffffffffffffffffffffffffffffffff16611ac4846108a6565b73ffffffffffffffffffffffffffffffffffffffff16145b80611aed5750611aec81856116d8565b5b91505092915050565b8273ffffffffffffffffffffffffffffffffffffffff16611b1682610fd4565b73ffffffffffffffffffffffffffffffffffffffff1614611b6c576040517f08c379a0000000000000000000000000000000000000000000000000000000008152600401611b6390613d11565b60405180910390fd5b600073ffffffffffffffffffffffffffffffffffffffff168273ffffffffffffffffffffffffffffffffffffffff161415611bdc576040517f08c379a0000000000000000000000000000000000000000000000000000000008152600401611bd390613da3565b60405180910390fd5b611be7838383612438565b611bf260008261195f565b6001600360008573ffffffffffffffffffffffffffffffffffffffff1673ffffffffffffffffffffffffffffffffffffffff1681526020019081526020016000206000828254611c429190613dc3565b925050819055506001600360008473ffffffffffffffffffffffffffffffffffffffff1673ffffffffffffffffffffffffffffffffffffffff1681526020019081526020016000206000828254611c999190613df7565b92505081905550816002600083815260200190815260200160002060006101000a81548173ffffffffffffffffffffffffffffffffffffffff021916908373ffffffffffffffffffffffffffffffffffffffff160217905550808273ffffffffffffffffffffffffffffffffffffffff168473ffffffffffffffffffffffffffffffffffffffff167fddf252ad1be2c89b69c2b068fc378daa952ba7f163c4a11628f55a4df523b3ef60405160405180910390a4505050565b6000611d5d82610fd4565b9050611d6b81600084612438565b611d7660008361195f565b6001600360008373ffffffffffffffffffffffffffffffffffffffff1673ffffffffffffffffffffffffffffffffffffffff1681526020019081526020016000206000828254611dc69190613dc3565b925050819055506002600083815260200190815260200160002060006101000a81549073ffffffffffffffffffffffffffffffffffffffff021916905581600073ffffffffffffffffffffffffffffffffffffffff168273ffffffffffffffffffffffffffffffffffffffff167fddf252ad1be2c89b69c2b068fc378daa952ba7f163c4a11628f55a4df523b3ef60405160405180910390a45050565b600081600001549050919050565b6001816000016000828254019250508190555050565b611ea182826040518060200160405280600081525061243d565b5050565b60405180608001604052808581526020018473ffffffffffffffffffffffffffffffffffffffff16815260200183815260200182815250600660008781526020019081526020016000206000820151816000015560208201518160010160006101000a81548173ffffffffffffffffffffffffffffffffffffffff021916908373ffffffffffffffffffffffffffffffffffffffff160217905550604082015181600201556060820151816003019080519060200190611f66929190612801565b509050507fbbd8046f2003b15c5e4858368dad2435a58ae1e6b8e64b8edab81490292e339585604051611f999190612d8a565b60405180910390a15050505050565b6000600760009054906101000a900473ffffffffffffffffffffffffffffffffffffffff16905081600760006101000a81548173ffffffffffffffffffffffffffffffffffffffff021916908373ffffffffffffffffffffffffffffffffffffffff1602179055508173ffffffffffffffffffffffffffffffffffffffff168173ffffffffffffffffffffffffffffffffffffffff167f8be0079c531659141344cd1fd0a4f28419497f9722a3daafe3b4186f6b6457e060405160405180910390a35050565b600660008281526020019081526020016000206000808201600090556001820160006101000a81549073ffffffffffffffffffffffffffffffffffffffff021916905560028201600090556003820160006120c99190612887565b50507fbae674de5b60cebab59cbdf60624b8a5ba69b8baf7f2c92aeaf1a2cc183ddddf816040516120fa9190612d8a565b60405180910390a150565b8173ffffffffffffffffffffffffffffffffffffffff168373ffffffffffffffffffffffffffffffffffffffff161415612174576040517f08c379a000000000000000000000000000000000000000000000000000000000815260040161216b90613e99565b60405180910390fd5b80600560008573ffffffffffffffffffffffffffffffffffffffff1673ffffffffffffffffffffffffffffffffffffffff16815260200190815260200160002060008473ffffffffffffffffffffffffffffffffffffffff1673ffffffffffffffffffffffffffffffffffffffff16815260200190815260200160002060006101000a81548160ff0219169083151502179055508173ffffffffffffffffffffffffffffffffffffffff168373ffffffffffffffffffffffffffffffffffffffff167f17307eab39ab6107e8899845ad3d59bd9653f200f220920489ca2b5937696c31836040516122659190612998565b60405180910390a3505050565b61227d848484611af6565b61228984848484612498565b6122c8576040517f08c379a00000000000000000000000000000000000000000000000000000000081526004016122bf90613f2b565b60405180910390fd5b50505050565b60008390508073ffffffffffffffffffffffffffffffffffffffff166342842e0e8330866040518463ffffffff1660e01b8152600401612310939291906138ff565b600060405180830381600087803b15801561232a57600080fd5b505af115801561233e573d6000803e3d6000fd5b5050505050505050565b6060612353826118eb565b612392576040517f08c379a000000000000000000000000000000000000000000000000000000000815260040161238990613fbd565b60405180910390fd5b6006600083815260200190815260200160002060030180546123b390613331565b80601f01602080910402602001604051908101604052809291908181526020018280546123df90613331565b801561242c5780601f106124015761010080835404028352916020019161242c565b820191906000526020600020905b81548152906001019060200180831161240f57829003601f168201915b50505050509050919050565b505050565b6124478383612620565b6124546000848484612498565b612493576040517f08c379a000000000000000000000000000000000000000000000000000000000815260040161248a90613f2b565b60405180910390fd5b505050565b60006124b98473ffffffffffffffffffffffffffffffffffffffff166127ee565b15612613578373ffffffffffffffffffffffffffffffffffffffff1663150b7a026124e2611957565b8786866040518563ffffffff1660e01b81526004016125049493929190614032565b6020604051808303816000875af192505050801561254057506040513d601f19601f8201168201806040525081019061253d9190614093565b60015b6125c3573d8060008114612570576040519150601f19603f3d011682016040523d82523d6000602084013e612575565b606091505b506000815114156125bb576040517f08c379a00000000000000000000000000000000000000000000000000000000081526004016125b290613f2b565b60405180910390fd5b805181602001fd5b63150b7a0260e01b7bffffffffffffffffffffffffffffffffffffffffffffffffffffffff1916817bffffffffffffffffffffffffffffffffffffffffffffffffffffffff191614915050612618565b600190505b949350505050565b600073ffffffffffffffffffffffffffffffffffffffff168273ffffffffffffffffffffffffffffffffffffffff161415612690576040517f08c379a00000000000000000000000000000000000000000000000000000000081526004016126879061410c565b60405180910390fd5b612699816118eb565b156126d9576040517f08c379a00000000000000000000000000000000000000000000000000000000081526004016126d090614178565b60405180910390fd5b6126e560008383612438565b6001600360008473ffffffffffffffffffffffffffffffffffffffff1673ffffffffffffffffffffffffffffffffffffffff16815260200190815260200160002060008282546127359190613df7565b92505081905550816002600083815260200190815260200160002060006101000a81548173ffffffffffffffffffffffffffffffffffffffff021916908373ffffffffffffffffffffffffffffffffffffffff160217905550808273ffffffffffffffffffffffffffffffffffffffff16600073ffffffffffffffffffffffffffffffffffffffff167fddf252ad1be2c89b69c2b068fc378daa952ba7f163c4a11628f55a4df523b3ef60405160405180910390a45050565b600080823b905060008111915050919050565b82805461280d90613331565b90600052602060002090601f01602090048101928261282f5760008555612876565b82601f1061284857805160ff1916838001178555612876565b82800160010185558215612876579182015b8281111561287557825182559160200191906001019061285a565b5b50905061288391906128c7565b5090565b50805461289390613331565b6000825580601f106128a557506128c4565b601f0160209004906000526020600020908101906128c391906128c7565b5b50565b5b808211156128e05760008160009055506001016128c8565b5090565b6000604051905090565b600080fd5b600080fd5b60007fffffffff0000000000000000000000000000000000000000000000000000000082169050919050565b61292d816128f8565b811461293857600080fd5b50565b60008135905061294a81612924565b92915050565b600060208284031215612966576129656128ee565b5b60006129748482850161293b565b91505092915050565b60008115159050919050565b6129928161297d565b82525050565b60006020820190506129ad6000830184612989565b92915050565b600081519050919050565b600082825260208201905092915050565b60005b838110156129ed5780820151818401526020810190506129d2565b838111156129fc576000848401525b50505050565b6000601f19601f8301169050919050565b6000612a1e826129b3565b612a2881856129be565b9350612a388185602086016129cf565b612a4181612a02565b840191505092915050565b60006020820190508181036000830152612a668184612a13565b905092915050565b6000819050919050565b612a8181612a6e565b8114612a8c57600080fd5b50565b600081359050612a9e81612a78565b92915050565b600060208284031215612aba57612ab96128ee565b5b6000612ac884828501612a8f565b91505092915050565b600073ffffffffffffffffffffffffffffffffffffffff82169050919050565b6000612afc82612ad1565b9050919050565b612b0c81612af1565b82525050565b6000602082019050612b276000830184612b03565b92915050565b612b3681612af1565b8114612b4157600080fd5b50565b600081359050612b5381612b2d565b92915050565b60008060408385031215612b7057612b6f6128ee565b5b6000612b7e85828601612b44565b9250506020612b8f85828601612a8f565b9150509250929050565b600080fd5b600080fd5b7f4e487b7100000000000000000000000000000000000000000000000000000000600052604160045260246000fd5b612bdb82612a02565b810181811067ffffffffffffffff82111715612bfa57612bf9612ba3565b5b80604052505050565b6000612c0d6128e4565b9050612c198282612bd2565b919050565b600067ffffffffffffffff821115612c3957612c38612ba3565b5b612c4282612a02565b9050602081019050919050565b82818337600083830152505050565b6000612c71612c6c84612c1e565b612c03565b905082815260208101848484011115612c8d57612c8c612b9e565b5b612c98848285612c4f565b509392505050565b600082601f830112612cb557612cb4612b99565b5b8135612cc5848260208601612c5e565b91505092915050565b60008060008060808587031215612ce857612ce76128ee565b5b6000612cf687828801612b44565b9450506020612d0787828801612b44565b9350506040612d1887828801612a8f565b925050606085013567ffffffffffffffff811115612d3957612d386128f3565b5b612d4587828801612ca0565b91505092959194509250565b612d5a816128f8565b82525050565b6000602082019050612d756000830184612d51565b92915050565b612d8481612a6e565b82525050565b6000602082019050612d9f6000830184612d7b565b92915050565b600080600060608486031215612dbe57612dbd6128ee565b5b6000612dcc86828701612b44565b9350506020612ddd86828701612b44565b9250506040612dee86828701612a8f565b9150509250925092565b600067ffffffffffffffff821115612e1357612e12612ba3565b5b602082029050602081019050919050565b600080fd5b6000612e3c612e3784612df8565b612c03565b90508083825260208201905060208402830185811115612e5f57612e5e612e24565b5b835b81811015612e885780612e748882612a8f565b845260208401935050602081019050612e61565b5050509392505050565b600082601f830112612ea757612ea6612b99565b5b8135612eb7848260208601612e29565b91505092915050565b60008060408385031215612ed757612ed66128ee565b5b600083013567ffffffffffffffff811115612ef557612ef46128f3565b5b612f0185828601612e92565b925050602083013567ffffffffffffffff811115612f2257612f216128f3565b5b612f2e85828601612e92565b9150509250929050565b60008060408385031215612f4f57612f4e6128ee565b5b6000612f5d85828601612a8f565b9250506020612f6e85828601612b44565b9150509250929050565b60008060408385031215612f8f57612f8e6128ee565b5b6000612f9d85828601612a8f565b9250506020612fae85828601612a8f565b9150509250929050565b600080600060608486031215612fd157612fd06128ee565b5b6000612fdf86828701612b44565b9350506020612ff086828701612a8f565b925050604061300186828701612b44565b9150509250925092565b600060208284031215613021576130206128ee565b5b600061302f84828501612b44565b91505092915050565b600067ffffffffffffffff82111561305357613052612ba3565b5b61305c82612a02565b9050602081019050919050565b600061307c61307784613038565b612c03565b90508281526020810184848401111561309857613097612b9e565b5b6130a3848285612c4f565b509392505050565b600082601f8301126130c0576130bf612b99565b5b81356130d0848260208601613069565b91505092915050565b600080600080600060a086880312156130f5576130f46128ee565b5b600061310388828901612b44565b955050602061311488828901612a8f565b945050604061312588828901612b44565b935050606061313688828901612a8f565b925050608086013567ffffffffffffffff811115613157576131566128f3565b5b613163888289016130ab565b9150509295509295909350565b6131798161297d565b811461318457600080fd5b50565b60008135905061319681613170565b92915050565b600080604083850312156131b3576131b26128ee565b5b60006131c185828601612b44565b92505060206131d285828601613187565b9150509250929050565b60006131e782612ad1565b9050919050565b6131f7816131dc565b811461320257600080fd5b50565b600081359050613214816131ee565b92915050565b6000602082840312156132305761322f6128ee565b5b600061323e84828501613205565b91505092915050565b600080600080600060a08688031215613263576132626128ee565b5b600061327188828901612b44565b955050602061328288828901612a8f565b945050604061329388828901612b44565b93505060606132a488828901612b44565b92505060806132b588828901612a8f565b9150509295509295909350565b600080604083850312156132d9576132d86128ee565b5b60006132e785828601612b44565b92505060206132f885828601612b44565b9150509250929050565b7f4e487b7100000000000000000000000000000000000000000000000000000000600052602260045260246000fd5b6000600282049050600182168061334957607f821691505b6020821081141561335d5761335c613302565b5b50919050565b7f4552433732313a20617070726f76656420717565727920666f72206e6f6e657860008201527f697374656e7420746f6b656e0000000000000000000000000000000000000000602082015250565b60006133bf602c836129be565b91506133ca82613363565b604082019050919050565b600060208201905081810360008301526133ee816133b2565b9050919050565b7f4552433732313a20617070726f76616c20746f2063757272656e74206f776e6560008201527f7200000000000000000000000000000000000000000000000000000000000000602082015250565b60006134516021836129be565b915061345c826133f5565b604082019050919050565b6000602082019050818103600083015261348081613444565b9050919050565b7f4552433732313a20617070726f76652063616c6c6572206973206e6f74206f7760008201527f6e6572206e6f7220617070726f76656420666f7220616c6c0000000000000000602082015250565b60006134e36038836129be565b91506134ee82613487565b604082019050919050565b60006020820190508181036000830152613512816134d6565b9050919050565b7f4552433732313a207472616e736665722063616c6c6572206973206e6f74206f60008201527f776e6572206e6f7220617070726f766564000000000000000000000000000000602082015250565b60006135756031836129be565b915061358082613519565b604082019050919050565b600060208201905081810360008301526135a481613568565b9050919050565b7f4f776e61626c653a2063616c6c6572206973206e6f7420746865206f776e6572600082015250565b60006135e16020836129be565b91506135ec826135ab565b602082019050919050565b60006020820190508181036000830152613610816135d4565b9050919050565b7f61727261797320617265206e6f7420696e207468652073616d65206c656e676860008201527f7400000000000000000000000000000000000000000000000000000000000000602082015250565b60006136736021836129be565b915061367e82613617565b604082019050919050565b600060208201905081810360008301526136a281613666565b9050919050565b7f4e487b7100000000000000000000000000000000000000000000000000000000600052603260045260246000fd5b7f4e487b7100000000000000000000000000000000000000000000000000000000600052601160045260246000fd5b600061371282612a6e565b91507fffffffffffffffffffffffffffffffffffffffffffffffffffffffffffffffff821415613745576137446136d8565b5b600182019050919050565b7f696e73756666696369656e742066656500000000000000000000000000000000600082015250565b60006137866010836129be565b915061379182613750565b602082019050919050565b600060208201905081810360008301526137b581613779565b9050919050565b60006080820190506137d16000830187612d7b565b6137de6020830186612b03565b6137eb6040830185612d7b565b6137f86060830184612b03565b95945050505050565b7f4552433732314275726e61626c653a2063616c6c6572206973206e6f74206f7760008201527f6e6572206e6f7220617070726f76656400000000000000000000000000000000602082015250565b600061385d6030836129be565b915061386882613801565b604082019050919050565b6000602082019050818103600083015261388c81613850565b9050919050565b7f726573747269637465642066756e6374696f6e20746f2072656c617965720000600082015250565b60006138c9601e836129be565b91506138d482613893565b602082019050919050565b600060208201905081810360008301526138f8816138bc565b9050919050565b60006060820190506139146000830186612b03565b6139216020830185612b03565b61392e6040830184612d7b565b949350505050565b7f4552433732313a206f776e657220717565727920666f72206e6f6e657869737460008201527f656e7420746f6b656e0000000000000000000000000000000000000000000000602082015250565b60006139926029836129be565b915061399d82613936565b604082019050919050565b600060208201905081810360008301526139c181613985565b9050919050565b7f4552433732313a2062616c616e636520717565727920666f7220746865207a6560008201527f726f206164647265737300000000000000000000000000000000000000000000602082015250565b6000613a24602a836129be565b9150613a2f826139c8565b604082019050919050565b60006020820190508181036000830152613a5381613a17565b9050919050565b6000613a6d613a6884613038565b612c03565b905082815260208101848484011115613a8957613a88612b9e565b5b613a948482856129cf565b509392505050565b600082601f830112613ab157613ab0612b99565b5b8151613ac1848260208601613a5a565b91505092915050565b600060208284031215613ae057613adf6128ee565b5b600082015167ffffffffffffffff811115613afe57613afd6128f3565b5b613b0a84828501613a9c565b91505092915050565b600060c082019050613b286000830189612d7b565b613b356020830188612b03565b613b426040830187612d7b565b613b4f6060830186612b03565b613b5c6080830185612d7b565b81810360a0830152613b6e8184612a13565b9050979650505050505050565b7f4f776e61626c653a206e6577206f776e657220697320746865207a65726f206160008201527f6464726573730000000000000000000000000000000000000000000000000000602082015250565b6000613bd76026836129be565b9150613be282613b7b565b604082019050919050565b60006020820190508181036000830152613c0681613bca565b9050919050565b7f4552433732313a206f70657261746f7220717565727920666f72206e6f6e657860008201527f697374656e7420746f6b656e0000000000000000000000000000000000000000602082015250565b6000613c69602c836129be565b9150613c7482613c0d565b604082019050919050565b60006020820190508181036000830152613c9881613c5c565b9050919050565b7f4552433732313a207472616e73666572206f6620746f6b656e2074686174206960008201527f73206e6f74206f776e0000000000000000000000000000000000000000000000602082015250565b6000613cfb6029836129be565b9150613d0682613c9f565b604082019050919050565b60006020820190508181036000830152613d2a81613cee565b9050919050565b7f4552433732313a207472616e7366657220746f20746865207a65726f2061646460008201527f7265737300000000000000000000000000000000000000000000000000000000602082015250565b6000613d8d6024836129be565b9150613d9882613d31565b604082019050919050565b60006020820190508181036000830152613dbc81613d80565b9050919050565b6000613dce82612a6e565b9150613dd983612a6e565b925082821015613dec57613deb6136d8565b5b828203905092915050565b6000613e0282612a6e565b9150613e0d83612a6e565b9250827fffffffffffffffffffffffffffffffffffffffffffffffffffffffffffffffff03821115613e4257613e416136d8565b5b828201905092915050565b7f4552433732313a20617070726f766520746f2063616c6c657200000000000000600082015250565b6000613e836019836129be565b9150613e8e82613e4d565b602082019050919050565b60006020820190508181036000830152613eb281613e76565b9050919050565b7f4552433732313a207472616e7366657220746f206e6f6e20455243373231526560008201527f63656976657220696d706c656d656e7465720000000000000000000000000000602082015250565b6000613f156032836129be565b9150613f2082613eb9565b604082019050919050565b60006020820190508181036000830152613f4481613f08565b9050919050565b7f4552433732314d657461646174613a2055524920717565727920666f72206e6f60008201527f6e6578697374656e7420746f6b656e0000000000000000000000000000000000602082015250565b6000613fa7602f836129be565b9150613fb282613f4b565b604082019050919050565b60006020820190508181036000830152613fd681613f9a565b9050919050565b600081519050919050565b600082825260208201905092915050565b600061400482613fdd565b61400e8185613fe8565b935061401e8185602086016129cf565b61402781612a02565b840191505092915050565b60006080820190506140476000830187612b03565b6140546020830186612b03565b6140616040830185612d7b565b81810360608301526140738184613ff9565b905095945050505050565b60008151905061408d81612924565b92915050565b6000602082840312156140a9576140a86128ee565b5b60006140b78482850161407e565b91505092915050565b7f4552433732313a206d696e7420746f20746865207a65726f2061646472657373600082015250565b60006140f66020836129be565b9150614101826140c0565b602082019050919050565b60006020820190508181036000830152614125816140e9565b9050919050565b7f4552433732313a20746f6b656e20616c7265616479206d696e74656400000000600082015250565b6000614162601c836129be565b915061416d8261412c565b602082019050919050565b6000602082019050818103600083015261419181614155565b905091905056fea264697066735822122027a12685d0f008ae86dd7e766c891e401b0c5349d760bcc7511611f0e0e0b4d164736f6c634300080b0033",
  "linkReferences": {},
  "deployedLinkReferences": {}
}