{
  "_format": "hh-sol-artifact-1",
  "contractName": "CrossChainNFT",
  "sourceName": "contracts/CrossChainNFT/CrossChainNFT.sol",
  "abi": [
    {
      "inputs": [],
      "stateMutability": "nonpayable",
      "type": "constructor"
    },
    {
      "anonymous": false,
      "inputs": [
        {
          "indexed": true,
          "internalType": "address",
          "name": "owner",
          "type": "address"
        },
        {
          "indexed": true,
          "internalType": "address",
          "name": "approved",
          "type": "address"
        },
        {
          "indexed": true,
          "internalType": "uint256",
          "name": "tokenId",
          "type": "uint256"
        }
      ],
      "name": "Approval",
      "type": "event"
    },
    {
      "anonymous": false,
      "inputs": [
        {
          "indexed": true,
          "internalType": "address",
          "name": "owner",
          "type": "address"
        },
        {
          "indexed": true,
          "internalType": "address",
          "name": "operator",
          "type": "address"
        },
        {
          "indexed": false,
          "internalType": "bool",
          "name": "approved",
          "type": "bool"
        }
      ],
      "name": "ApprovalForAll",
      "type": "event"
    },
    {
      "anonymous": false,
      "inputs": [
        {
          "indexed": true,
          "internalType": "address",
          "name": "previousOwner",
          "type": "address"
        },
        {
          "indexed": true,
          "internalType": "address",
          "name": "newOwner",
          "type": "address"
        }
      ],
      "name": "OwnershipTransferred",
      "type": "event"
    },
    {
      "anonymous": false,
      "inputs": [
        {
          "indexed": false,
          "internalType": "address",
          "name": "account",
          "type": "address"
        }
      ],
      "name": "Paused",
      "type": "event"
    },
    {
      "anonymous": false,
      "inputs": [
        {
          "indexed": false,
          "internalType": "uint256",
          "name": "chainId",
          "type": "uint256"
        },
        {
          "indexed": false,
          "internalType": "address",
          "name": "contAddr",
          "type": "address"
        },
        {
          "indexed": false,
          "internalType": "address",
          "name": "to",
          "type": "address"
        },
        {
          "indexed": false,
          "internalType": "uint256",
          "name": "tokenId",
          "type": "uint256"
        }
      ],
      "name": "RelayerCallRedeem",
      "type": "event"
    },
    {
      "anonymous": false,
      "inputs": [
        {
          "indexed": false,
          "internalType": "uint256",
          "name": "targetChainId",
          "type": "uint256"
        },
        {
          "indexed": false,
          "internalType": "address",
          "name": "to",
          "type": "address"
        },
        {
          "indexed": false,
          "internalType": "uint256",
          "name": "chainId",
          "type": "uint256"
        },
        {
          "indexed": false,
          "internalType": "address",
          "name": "contAddr",
          "type": "address"
        },
        {
          "indexed": false,
          "internalType": "uint256",
          "name": "tokenId",
          "type": "uint256"
        },
        {
          "indexed": false,
          "internalType": "string",
          "name": "uri",
          "type": "string"
        }
      ],
      "name": "RelayerCallSafeMintWrappedToken",
      "type": "event"
    },
    {
      "anonymous": false,
      "inputs": [
        {
          "indexed": false,
          "internalType": "uint256",
          "name": "wTokenId",
          "type": "uint256"
        },
        {
          "indexed": false,
          "internalType": "uint256",
          "name": "chainId",
          "type": "uint256"
        },
        {
          "indexed": false,
          "internalType": "address",
          "name": "contAddr",
          "type": "address"
        },
        {
          "indexed": false,
          "internalType": "uint256",
          "name": "tokenId",
          "type": "uint256"
        },
        {
          "indexed": false,
          "internalType": "string",
          "name": "uri",
          "type": "string"
        }
      ],
      "name": "TokenData",
      "type": "event"
    },
    {
      "anonymous": false,
      "inputs": [
        {
          "indexed": true,
          "internalType": "address",
          "name": "from",
          "type": "address"
        },
        {
          "indexed": true,
          "internalType": "address",
          "name": "to",
          "type": "address"
        },
        {
          "indexed": true,
          "internalType": "uint256",
          "name": "tokenId",
          "type": "uint256"
        }
      ],
      "name": "Transfer",
      "type": "event"
    },
    {
      "anonymous": false,
      "inputs": [
        {
          "indexed": false,
          "internalType": "address",
          "name": "account",
          "type": "address"
        }
      ],
      "name": "Unpaused",
      "type": "event"
    },
    {
      "inputs": [
        {
          "internalType": "address",
          "name": "to",
          "type": "address"
        },
        {
          "internalType": "uint256",
          "name": "tokenId",
          "type": "uint256"
        }
      ],
      "name": "approve",
      "outputs": [],
      "stateMutability": "nonpayable",
      "type": "function"
    },
    {
      "inputs": [
        {
          "internalType": "address",
          "name": "owner",
          "type": "address"
        }
      ],
      "name": "balanceOf",
      "outputs": [
        {
          "internalType": "uint256",
          "name": "",
          "type": "uint256"
        }
      ],
      "stateMutability": "view",
      "type": "function"
    },
    {
      "inputs": [
        {
          "internalType": "uint256",
          "name": "tokenId",
          "type": "uint256"
        }
      ],
      "name": "getApproved",
      "outputs": [
        {
          "internalType": "address",
          "name": "",
          "type": "address"
        }
      ],
      "stateMutability": "view",
      "type": "function"
    },
    {
      "inputs": [
        {
          "internalType": "uint256",
          "name": "wTokenId",
          "type": "uint256"
        }
      ],
      "name": "getLockedTokenData",
      "outputs": [
        {
          "internalType": "uint256",
          "name": "chainId",
          "type": "uint256"
        },
        {
          "internalType": "address",
          "name": "contAddr",
          "type": "address"
        },
        {
          "internalType": "uint256",
          "name": "tokenId",
          "type": "uint256"
        },
        {
          "internalType": "uint256",
          "name": "releaseGasFee",
          "type": "uint256"
        }
      ],
      "stateMutability": "view",
      "type": "function"
    },
    {
      "inputs": [
        {
          "internalType": "address",
          "name": "owner",
          "type": "address"
        },
        {
          "internalType": "address",
          "name": "operator",
          "type": "address"
        }
      ],
      "name": "isApprovedForAll",
      "outputs": [
        {
          "internalType": "bool",
          "name": "",
          "type": "bool"
        }
      ],
      "stateMutability": "view",
      "type": "function"
    },
    {
      "inputs": [],
      "name": "name",
      "outputs": [
        {
          "internalType": "string",
          "name": "",
          "type": "string"
        }
      ],
      "stateMutability": "view",
      "type": "function"
    },
    {
      "inputs": [
        {
          "internalType": "address",
          "name": "addr",
          "type": "address"
        }
      ],
      "name": "newImplementation",
      "outputs": [],
      "stateMutability": "nonpayable",
      "type": "function"
    },
    {
      "inputs": [
        {
          "internalType": "address",
          "name": "",
          "type": "address"
        },
        {
          "internalType": "address",
          "name": "",
          "type": "address"
        },
        {
          "internalType": "uint256",
          "name": "",
          "type": "uint256"
        },
        {
          "internalType": "bytes",
          "name": "",
          "type": "bytes"
        }
      ],
      "name": "onERC721Received",
      "outputs": [
        {
          "internalType": "bytes4",
          "name": "",
          "type": "bytes4"
        }
      ],
      "stateMutability": "nonpayable",
      "type": "function"
    },
    {
      "inputs": [],
      "name": "owner",
      "outputs": [
        {
          "internalType": "address",
          "name": "",
          "type": "address"
        }
      ],
      "stateMutability": "view",
      "type": "function"
    },
    {
      "inputs": [
        {
          "internalType": "uint256",
          "name": "tokenId",
          "type": "uint256"
        }
      ],
      "name": "ownerOf",
      "outputs": [
        {
          "internalType": "address",
          "name": "",
          "type": "address"
        }
      ],
      "stateMutability": "view",
      "type": "function"
    },
    {
      "inputs": [],
      "name": "pause",
      "outputs": [],
      "stateMutability": "nonpayable",
      "type": "function"
    },
    {
      "inputs": [],
      "name": "paused",
      "outputs": [
        {
          "internalType": "bool",
          "name": "",
          "type": "bool"
        }
      ],
      "stateMutability": "view",
      "type": "function"
    },
    {
      "inputs": [
        {
          "internalType": "address",
          "name": "contAddr",
          "type": "address"
        },
        {
          "internalType": "address",
          "name": "to",
          "type": "address"
        },
        {
          "internalType": "uint256",
          "name": "tokenId",
          "type": "uint256"
        }
      ],
      "name": "redeem",
      "outputs": [],
      "stateMutability": "nonpayable",
      "type": "function"
    },
    {
      "inputs": [],
      "name": "relayer",
      "outputs": [
        {
          "internalType": "address",
          "name": "",
          "type": "address"
        }
      ],
      "stateMutability": "view",
      "type": "function"
    },
    {
      "inputs": [],
      "name": "renounceOwnership",
      "outputs": [],
      "stateMutability": "nonpayable",
      "type": "function"
    },
    {
      "inputs": [
        {
          "internalType": "uint256",
          "name": "wTokenId",
          "type": "uint256"
        },
        {
          "internalType": "address",
          "name": "to",
          "type": "address"
        },
        {
          "internalType": "uint256",
          "name": "dappId",
          "type": "uint256"
        }
      ],
      "name": "requestReleaseLockedToken",
      "outputs": [],
      "stateMutability": "payable",
      "type": "function"
    },
    {
      "inputs": [
        {
          "internalType": "uint256",
          "name": "wTokenId",
          "type": "uint256"
        },
        {
          "internalType": "address",
          "name": "to",
          "type": "address"
        },
        {
          "internalType": "uint256",
          "name": "dappId",
          "type": "uint256"
        },
        {
          "internalType": "bytes",
          "name": "data",
          "type": "bytes"
        }
      ],
      "name": "requestReleaseLockedToken",
      "outputs": [],
      "stateMutability": "payable",
      "type": "function"
    },
    {
      "inputs": [
        {
          "internalType": "address",
          "name": "contAddr",
          "type": "address"
        },
        {
          "internalType": "address",
          "name": "from",
          "type": "address"
        },
        {
          "internalType": "uint256",
          "name": "targetChainId",
          "type": "uint256"
        },
        {
          "internalType": "address",
          "name": "to",
          "type": "address"
        },
        {
          "internalType": "uint256",
          "name": "tokenId",
          "type": "uint256"
        },
        {
          "internalType": "uint256",
          "name": "dappId",
          "type": "uint256"
        }
      ],
      "name": "requestTransferCrossChain",
      "outputs": [],
      "stateMutability": "payable",
      "type": "function"
    },
    {
      "inputs": [
        {
          "internalType": "address",
          "name": "contAddr",
          "type": "address"
        },
        {
          "internalType": "address",
          "name": "from",
          "type": "address"
        },
        {
          "internalType": "uint256",
          "name": "targetChainId",
          "type": "uint256"
        },
        {
          "internalType": "address",
          "name": "to",
          "type": "address"
        },
        {
          "internalType": "uint256",
          "name": "tokenId",
          "type": "uint256"
        },
        {
          "internalType": "uint256",
          "name": "dappId",
          "type": "uint256"
        },
        {
          "internalType": "bytes",
          "name": "data",
          "type": "bytes"
        }
      ],
      "name": "requestTransferCrossChain",
      "outputs": [],
      "stateMutability": "payable",
      "type": "function"
    },
    {
      "inputs": [
        {
          "internalType": "uint256",
          "name": "chainId",
          "type": "uint256"
        },
        {
          "internalType": "address",
          "name": "contAddr",
          "type": "address"
        },
        {
          "internalType": "address",
          "name": "to",
          "type": "address"
        },
        {
          "internalType": "uint256",
          "name": "tokenId",
          "type": "uint256"
        },
        {
          "internalType": "string",
          "name": "uri",
          "type": "string"
        }
      ],
      "name": "safeMintWrappedToken",
      "outputs": [
        {
          "internalType": "uint256",
          "name": "wTokenId",
          "type": "uint256"
        }
      ],
      "stateMutability": "nonpayable",
      "type": "function"
    },
    {
      "inputs": [
        {
          "internalType": "address",
          "name": "from",
          "type": "address"
        },
        {
          "internalType": "address",
          "name": "to",
          "type": "address"
        },
        {
          "internalType": "uint256",
          "name": "tokenId",
          "type": "uint256"
        }
      ],
      "name": "safeTransferFrom",
      "outputs": [],
      "stateMutability": "nonpayable",
      "type": "function"
    },
    {
      "inputs": [
        {
          "internalType": "address",
          "name": "from",
          "type": "address"
        },
        {
          "internalType": "address",
          "name": "to",
          "type": "address"
        },
        {
          "internalType": "uint256",
          "name": "tokenId",
          "type": "uint256"
        },
        {
          "internalType": "bytes",
          "name": "_data",
          "type": "bytes"
        }
      ],
      "name": "safeTransferFrom",
      "outputs": [],
      "stateMutability": "nonpayable",
      "type": "function"
    },
    {
      "inputs": [
        {
          "internalType": "address",
          "name": "operator",
          "type": "address"
        },
        {
          "internalType": "bool",
          "name": "approved",
          "type": "bool"
        }
      ],
      "name": "setApprovalForAll",
      "outputs": [],
      "stateMutability": "nonpayable",
      "type": "function"
    },
    {
      "inputs": [
        {
          "internalType": "address",
          "name": "newRelayer",
          "type": "address"
        }
      ],
      "name": "setRelayer",
      "outputs": [],
      "stateMutability": "nonpayable",
      "type": "function"
    },
    {
      "inputs": [
        {
          "internalType": "bytes4",
          "name": "interfaceId",
          "type": "bytes4"
        }
      ],
      "name": "supportsInterface",
      "outputs": [
        {
          "internalType": "bool",
          "name": "",
          "type": "bool"
        }
      ],
      "stateMutability": "view",
      "type": "function"
    },
    {
      "inputs": [],
      "name": "symbol",
      "outputs": [
        {
          "internalType": "string",
          "name": "",
          "type": "string"
        }
      ],
      "stateMutability": "view",
      "type": "function"
    },
    {
      "inputs": [
        {
          "internalType": "uint256",
          "name": "wTokenId",
          "type": "uint256"
        }
      ],
      "name": "tokenURI",
      "outputs": [
        {
          "internalType": "string",
          "name": "",
          "type": "string"
        }
      ],
      "stateMutability": "view",
      "type": "function"
    },
    {
      "inputs": [
        {
          "internalType": "address",
          "name": "from",
          "type": "address"
        },
        {
          "internalType": "address",
          "name": "to",
          "type": "address"
        },
        {
          "internalType": "uint256",
          "name": "tokenId",
          "type": "uint256"
        }
      ],
      "name": "transferFrom",
      "outputs": [],
      "stateMutability": "nonpayable",
      "type": "function"
    },
    {
      "inputs": [
        {
          "internalType": "address",
          "name": "newOwner",
          "type": "address"
        }
      ],
      "name": "transferOwnership",
      "outputs": [],
      "stateMutability": "nonpayable",
      "type": "function"
    },
    {
      "inputs": [],
      "name": "unpause",
      "outputs": [],
      "stateMutability": "nonpayable",
      "type": "function"
    }
  ],
  "bytecode": "0x60806040523480156200001157600080fd5b507375d0b767029305b2ad067f6742e8e5b1bbdc5d3e6040518060400160405280600f81526020017f43726f73732d436861696e2d4e465400000000000000000000000000000000008152506040518060400160405280600381526020017f43434e00000000000000000000000000000000000000000000000000000000008152508160009080519060200190620000ab9291906200033a565b508060019080519060200190620000c49291906200033a565b505050620000e7620000db6200016f60201b60201c565b6200017760201b60201c565b6000600760146101000a81548160ff02191690831515021790555062000113816200023d60201b60201c565b507372753d08d630b4190a561c821ad965161e2a5d6e600a60006101000a81548173ffffffffffffffffffffffffffffffffffffffff021916908373ffffffffffffffffffffffffffffffffffffffff160217905550620004d2565b600033905090565b6000600760009054906101000a900473ffffffffffffffffffffffffffffffffffffffff16905081600760006101000a81548173ffffffffffffffffffffffffffffffffffffffff021916908373ffffffffffffffffffffffffffffffffffffffff1602179055508173ffffffffffffffffffffffffffffffffffffffff168173ffffffffffffffffffffffffffffffffffffffff167f8be0079c531659141344cd1fd0a4f28419497f9722a3daafe3b4186f6b6457e060405160405180910390a35050565b6200024d6200016f60201b60201c565b73ffffffffffffffffffffffffffffffffffffffff16620002736200031060201b60201c565b73ffffffffffffffffffffffffffffffffffffffff1614620002cc576040517f08c379a0000000000000000000000000000000000000000000000000000000008152600401620002c3906200044b565b60405180910390fd5b80600960006101000a81548173ffffffffffffffffffffffffffffffffffffffff021916908373ffffffffffffffffffffffffffffffffffffffff16021790555050565b6000600760009054906101000a900473ffffffffffffffffffffffffffffffffffffffff16905090565b82805462000348906200049c565b90600052602060002090601f0160209004810192826200036c5760008555620003b8565b82601f106200038757805160ff1916838001178555620003b8565b82800160010185558215620003b8579182015b82811115620003b75782518255916020019190600101906200039a565b5b509050620003c79190620003cb565b5090565b5b80821115620003e6576000816000905550600101620003cc565b5090565b600082825260208201905092915050565b7f4f776e61626c653a2063616c6c6572206973206e6f7420746865206f776e6572600082015250565b600062000433602083620003ea565b91506200044082620003fb565b602082019050919050565b60006020820190508181036000830152620004668162000424565b9050919050565b7f4e487b7100000000000000000000000000000000000000000000000000000000600052602260045260246000fd5b60006002820490506001821680620004b557607f821691505b60208210811415620004cc57620004cb6200046d565b5b50919050565b61451980620004e26000396000f3fe6080604052600436106101cd5760003560e01c80636548e9bc116100f75780638da5cb5b11610095578063b88d4fde11610064578063b88d4fde1461062b578063c87b56dd14610654578063e985e9c514610691578063f2fde38b146106ce576101cd565b80638da5cb5b1461058357806395d89b41146105ae578063a22cb465146105d9578063b61087be14610602576101cd565b806372445d62116100d157806372445d62146104e5578063835994ba146105255780638406c079146105415780638456cb591461056c576101cd565b80636548e9bc1461046857806370a0823114610491578063715018a6146104ce576101cd565b806316e36eb61161016f5780633f4ba83a1161013e5780633f4ba83a146103c057806342842e0e146103d75780635c975abb146104005780636352211e1461042b576101cd565b806316e36eb6146103225780631db0e1421461035f57806323b872dd1461037b57806329f50ecf146103a4576101cd565b8063095ea7b3116101ab578063095ea7b3146102775780630b931557146102a05780630e6dfcd5146102bc578063150b7a02146102e5576101cd565b806301ffc9a7146101d257806306fdde031461020f578063081812fc1461023a575b600080fd5b3480156101de57600080fd5b506101f960048036038101906101f49190612c3c565b6106f7565b6040516102069190612c84565b60405180910390f35b34801561021b57600080fd5b506102246107d9565b6040516102319190612d38565b60405180910390f35b34801561024657600080fd5b50610261600480360381019061025c9190612d90565b61086b565b60405161026e9190612dfe565b60405180910390f35b34801561028357600080fd5b5061029e60048036038101906102999190612e45565b6108f0565b005b6102ba60048036038101906102b59190612e85565b610a08565b005b3480156102c857600080fd5b506102e360048036038101906102de9190612ed8565b610a28565b005b3480156102f157600080fd5b5061030c60048036038101906103079190613060565b610b32565b60405161031991906130f2565b60405180910390f35b34801561032e57600080fd5b50610349600480360381019061034491906131ae565b610b46565b6040516103569190613254565b60405180910390f35b6103796004803603810190610374919061326f565b610c0e565b005b34801561038757600080fd5b506103a2600480360381019061039d9190612ed8565b610c34565b005b6103be60048036038101906103b991906132fc565b610c94565b005b3480156103cc57600080fd5b506103d5610eb5565b005b3480156103e357600080fd5b506103fe60048036038101906103f99190612ed8565b610f3b565b005b34801561040c57600080fd5b50610415610f5b565b6040516104229190612c84565b60405180910390f35b34801561043757600080fd5b50610452600480360381019061044d9190612d90565b610f72565b60405161045f9190612dfe565b60405180910390f35b34801561047457600080fd5b5061048f600480360381019061048a919061337f565b611024565b005b34801561049d57600080fd5b506104b860048036038101906104b3919061337f565b6110e4565b6040516104c59190613254565b60405180910390f35b3480156104da57600080fd5b506104e361119c565b005b3480156104f157600080fd5b5061050c60048036038101906105079190612d90565b611224565b60405161051c94939291906133ac565b60405180910390f35b61053f600480360381019061053a91906133f1565b611403565b005b34801561054d57600080fd5b506105566115c6565b6040516105639190612dfe565b60405180910390f35b34801561057857600080fd5b506105816115ec565b005b34801561058f57600080fd5b50610598611672565b6040516105a59190612dfe565b60405180910390f35b3480156105ba57600080fd5b506105c361169c565b6040516105d09190612d38565b60405180910390f35b3480156105e557600080fd5b5061060060048036038101906105fb91906134db565b61172e565b005b34801561060e57600080fd5b506106296004803603810190610624919061337f565b611744565b005b34801561063757600080fd5b50610652600480360381019061064d9190613060565b611804565b005b34801561066057600080fd5b5061067b60048036038101906106769190612d90565b611866565b6040516106889190612d38565b60405180910390f35b34801561069d57600080fd5b506106b860048036038101906106b3919061351b565b611956565b6040516106c59190612c84565b60405180910390f35b3480156106da57600080fd5b506106f560048036038101906106f0919061337f565b6119ea565b005b60007f80ac58cd000000000000000000000000000000000000000000000000000000007bffffffffffffffffffffffffffffffffffffffffffffffffffffffff1916827bffffffffffffffffffffffffffffffffffffffffffffffffffffffff191614806107c257507f5b5e139f000000000000000000000000000000000000000000000000000000007bffffffffffffffffffffffffffffffffffffffffffffffffffffffff1916827bffffffffffffffffffffffffffffffffffffffffffffffffffffffff1916145b806107d257506107d182611ae2565b5b9050919050565b6060600080546107e89061358a565b80601f01602080910402602001604051908101604052809291908181526020018280546108149061358a565b80156108615780601f1061083657610100808354040283529160200191610861565b820191906000526020600020905b81548152906001019060200180831161084457829003601f168201915b5050505050905090565b600061087682611b4c565b6108b5576040517f08c379a00000000000000000000000000000000000000000000000000000000081526004016108ac9061362e565b60405180910390fd5b6004600083815260200190815260200160002060009054906101000a900473ffffffffffffffffffffffffffffffffffffffff169050919050565b60006108fb82610f72565b90508073ffffffffffffffffffffffffffffffffffffffff168373ffffffffffffffffffffffffffffffffffffffff16141561096c576040517f08c379a0000000000000000000000000000000000000000000000000000000008152600401610963906136c0565b60405180910390fd5b8073ffffffffffffffffffffffffffffffffffffffff1661098b611bb8565b73ffffffffffffffffffffffffffffffffffffffff1614806109ba57506109b9816109b4611bb8565b611956565b5b6109f9576040517f08c379a00000000000000000000000000000000000000000000000000000000081526004016109f090613752565b60405180910390fd5b610a038383611bc0565b505050565b610a2383838360405180602001604052806000815250610c94565b505050565b600960009054906101000a900473ffffffffffffffffffffffffffffffffffffffff1673ffffffffffffffffffffffffffffffffffffffff163373ffffffffffffffffffffffffffffffffffffffff1614610ab8576040517f08c379a0000000000000000000000000000000000000000000000000000000008152600401610aaf906137be565b60405180910390fd5b60008390508073ffffffffffffffffffffffffffffffffffffffff166342842e0e3085856040518463ffffffff1660e01b8152600401610afa939291906137de565b600060405180830381600087803b158015610b1457600080fd5b505af1158015610b28573d6000803e3d6000fd5b5050505050505050565b600063150b7a0260e01b9050949350505050565b6000600960009054906101000a900473ffffffffffffffffffffffffffffffffffffffff1673ffffffffffffffffffffffffffffffffffffffff163373ffffffffffffffffffffffffffffffffffffffff1614610bd8576040517f08c379a0000000000000000000000000000000000000000000000000000000008152600401610bcf906137be565b60405180910390fd5b610be26008611c79565b9050610bee6008611c87565b610bf88482611c9d565b610c058187878686611cbb565b95945050505050565b610c2c86868686868660405180602001604052806000815250611403565b505050505050565b610c45610c3f611bb8565b82611dc6565b610c84576040517f08c379a0000000000000000000000000000000000000000000000000000000008152600401610c7b90613887565b60405180910390fd5b610c8f838383611ea4565b505050565b600060066000868152602001908152602001600020604051806080016040529081600082015481526020016001820160009054906101000a900473ffffffffffffffffffffffffffffffffffffffff1673ffffffffffffffffffffffffffffffffffffffff1673ffffffffffffffffffffffffffffffffffffffff16815260200160028201548152602001600382018054610d2e9061358a565b80601f0160208091040260200160405190810160405280929190818152602001828054610d5a9061358a565b8015610da75780601f10610d7c57610100808354040283529160200191610da7565b820191906000526020600020905b815481529060010190602001808311610d8a57829003601f168201915b5050505050815250509050600081600001519050600082602001519050600083604001519050610dd688612100565b600a60009054906101000a900473ffffffffffffffffffffffffffffffffffffffff1673ffffffffffffffffffffffffffffffffffffffff1663f146dc993485858b868c8c6040518863ffffffff1660e01b8152600401610e3c969594939291906138fc565b6000604051808303818588803b158015610e5557600080fd5b505af1158015610e69573d6000803e3d6000fd5b50505050507f667b67437a1677e566daace17cce7e4f73fbf7707b8bda21ad49e7be550d641083838984604051610ea39493929190613964565b60405180910390a15050505050505050565b610ebd611bb8565b73ffffffffffffffffffffffffffffffffffffffff16610edb611672565b73ffffffffffffffffffffffffffffffffffffffff1614610f31576040517f08c379a0000000000000000000000000000000000000000000000000000000008152600401610f28906139f5565b60405180910390fd5b610f39612165565b565b610f5683838360405180602001604052806000815250611804565b505050565b6000600760149054906101000a900460ff16905090565b6000806002600084815260200190815260200160002060009054906101000a900473ffffffffffffffffffffffffffffffffffffffff169050600073ffffffffffffffffffffffffffffffffffffffff168173ffffffffffffffffffffffffffffffffffffffff16141561101b576040517f08c379a000000000000000000000000000000000000000000000000000000000815260040161101290613a87565b60405180910390fd5b80915050919050565b61102c611bb8565b73ffffffffffffffffffffffffffffffffffffffff1661104a611672565b73ffffffffffffffffffffffffffffffffffffffff16146110a0576040517f08c379a0000000000000000000000000000000000000000000000000000000008152600401611097906139f5565b60405180910390fd5b80600960006101000a81548173ffffffffffffffffffffffffffffffffffffffff021916908373ffffffffffffffffffffffffffffffffffffffff16021790555050565b60008073ffffffffffffffffffffffffffffffffffffffff168273ffffffffffffffffffffffffffffffffffffffff161415611155576040517f08c379a000000000000000000000000000000000000000000000000000000000815260040161114c90613b19565b60405180910390fd5b600360008373ffffffffffffffffffffffffffffffffffffffff1673ffffffffffffffffffffffffffffffffffffffff168152602001908152602001600020549050919050565b6111a4611bb8565b73ffffffffffffffffffffffffffffffffffffffff166111c2611672565b73ffffffffffffffffffffffffffffffffffffffff1614611218576040517f08c379a000000000000000000000000000000000000000000000000000000000815260040161120f906139f5565b60405180910390fd5b6112226000612207565b565b600080600080600060066000878152602001908152602001600020604051806080016040529081600082015481526020016001820160009054906101000a900473ffffffffffffffffffffffffffffffffffffffff1673ffffffffffffffffffffffffffffffffffffffff1673ffffffffffffffffffffffffffffffffffffffff168152602001600282015481526020016003820180546112c49061358a565b80601f01602080910402602001604051908101604052809291908181526020018280546112f09061358a565b801561133d5780601f106113125761010080835404028352916020019161133d565b820191906000526020600020905b81548152906001019060200180831161132057829003601f168201915b5050505050815250509050806000015194508060200151935080604001519250600a60009054906101000a900473ffffffffffffffffffffffffffffffffffffffff1673ffffffffffffffffffffffffffffffffffffffff1663f87fcd0f866040518263ffffffff1660e01b81526004016113b89190613254565b602060405180830381865afa1580156113d5573d6000803e3d6000fd5b505050506040513d601f19601f820116820180604052508101906113f99190613b4e565b9150509193509193565b61140b610f5b565b1561144b576040517f08c379a000000000000000000000000000000000000000000000000000000000815260040161144290613bc7565b60405180910390fd5b6114568787856122cd565b600046905060008873ffffffffffffffffffffffffffffffffffffffff1663c87b56dd866040518263ffffffff1660e01b81526004016114969190613254565b600060405180830381865afa1580156114b3573d6000803e3d6000fd5b505050506040513d6000823e3d601f19601f820116820180604052508101906114dc9190613c57565b9050600a60009054906101000a900473ffffffffffffffffffffffffffffffffffffffff1673ffffffffffffffffffffffffffffffffffffffff166334b490d4348989868e8b888c8c6040518a63ffffffff1660e01b8152600401611548989796959493929190613ca0565b6000604051808303818588803b15801561156157600080fd5b505af1158015611575573d6000803e3d6000fd5b50505050507f9301e409432a51a191443f644ae41630782021a09e1ce98fc0e5fb72078a25ea8787848c89866040516115b396959493929190613d2c565b60405180910390a1505050505050505050565b600960009054906101000a900473ffffffffffffffffffffffffffffffffffffffff1681565b6115f4611bb8565b73ffffffffffffffffffffffffffffffffffffffff16611612611672565b73ffffffffffffffffffffffffffffffffffffffff1614611668576040517f08c379a000000000000000000000000000000000000000000000000000000000815260040161165f906139f5565b60405180910390fd5b611670612347565b565b6000600760009054906101000a900473ffffffffffffffffffffffffffffffffffffffff16905090565b6060600180546116ab9061358a565b80601f01602080910402602001604051908101604052809291908181526020018280546116d79061358a565b80156117245780601f106116f957610100808354040283529160200191611724565b820191906000526020600020905b81548152906001019060200180831161170757829003601f168201915b5050505050905090565b611740611739611bb8565b83836123ea565b5050565b61174c611bb8565b73ffffffffffffffffffffffffffffffffffffffff1661176a611672565b73ffffffffffffffffffffffffffffffffffffffff16146117c0576040517f08c379a00000000000000000000000000000000000000000000000000000000081526004016117b7906139f5565b60405180910390fd5b80600a60006101000a81548173ffffffffffffffffffffffffffffffffffffffff021916908373ffffffffffffffffffffffffffffffffffffffff16021790555050565b61181561180f611bb8565b83611dc6565b611854576040517f08c379a000000000000000000000000000000000000000000000000000000000815260040161184b90613887565b60405180910390fd5b61186084848484612557565b50505050565b606061187182611b4c565b6118b0576040517f08c379a00000000000000000000000000000000000000000000000000000000081526004016118a790613e06565b60405180910390fd5b6006600083815260200190815260200160002060030180546118d19061358a565b80601f01602080910402602001604051908101604052809291908181526020018280546118fd9061358a565b801561194a5780601f1061191f5761010080835404028352916020019161194a565b820191906000526020600020905b81548152906001019060200180831161192d57829003601f168201915b50505050509050919050565b6000600560008473ffffffffffffffffffffffffffffffffffffffff1673ffffffffffffffffffffffffffffffffffffffff16815260200190815260200160002060008373ffffffffffffffffffffffffffffffffffffffff1673ffffffffffffffffffffffffffffffffffffffff16815260200190815260200160002060009054906101000a900460ff16905092915050565b6119f2611bb8565b73ffffffffffffffffffffffffffffffffffffffff16611a10611672565b73ffffffffffffffffffffffffffffffffffffffff1614611a66576040517f08c379a0000000000000000000000000000000000000000000000000000000008152600401611a5d906139f5565b60405180910390fd5b600073ffffffffffffffffffffffffffffffffffffffff168173ffffffffffffffffffffffffffffffffffffffff161415611ad6576040517f08c379a0000000000000000000000000000000000000000000000000000000008152600401611acd90613e98565b60405180910390fd5b611adf81612207565b50565b60007f01ffc9a7000000000000000000000000000000000000000000000000000000007bffffffffffffffffffffffffffffffffffffffffffffffffffffffff1916827bffffffffffffffffffffffffffffffffffffffffffffffffffffffff1916149050919050565b60008073ffffffffffffffffffffffffffffffffffffffff166002600084815260200190815260200160002060009054906101000a900473ffffffffffffffffffffffffffffffffffffffff1673ffffffffffffffffffffffffffffffffffffffff1614159050919050565b600033905090565b816004600083815260200190815260200160002060006101000a81548173ffffffffffffffffffffffffffffffffffffffff021916908373ffffffffffffffffffffffffffffffffffffffff160217905550808273ffffffffffffffffffffffffffffffffffffffff16611c3383610f72565b73ffffffffffffffffffffffffffffffffffffffff167f8c5be1e5ebec7d5bd14f71427d1e84f3dd0314c0f7b2291e5b200ac8c7c3b92560405160405180910390a45050565b600081600001549050919050565b6001816000016000828254019250508190555050565b611cb78282604051806020016040528060008152506125b3565b5050565b60405180608001604052808581526020018473ffffffffffffffffffffffffffffffffffffffff16815260200183815260200182815250600660008781526020019081526020016000206000820151816000015560208201518160010160006101000a81548173ffffffffffffffffffffffffffffffffffffffff021916908373ffffffffffffffffffffffffffffffffffffffff160217905550604082015181600201556060820151816003019080519060200190611d7c929190612aed565b509050507f2b60e724571e5c167cb187c8f7b1d4d806090ab725f30acc76f592c45158d99a8585858585604051611db7959493929190613eb8565b60405180910390a15050505050565b6000611dd182611b4c565b611e10576040517f08c379a0000000000000000000000000000000000000000000000000000000008152600401611e0790613f84565b60405180910390fd5b6000611e1b83610f72565b90508073ffffffffffffffffffffffffffffffffffffffff168473ffffffffffffffffffffffffffffffffffffffff161480611e8a57508373ffffffffffffffffffffffffffffffffffffffff16611e728461086b565b73ffffffffffffffffffffffffffffffffffffffff16145b80611e9b5750611e9a8185611956565b5b91505092915050565b8273ffffffffffffffffffffffffffffffffffffffff16611ec482610f72565b73ffffffffffffffffffffffffffffffffffffffff1614611f1a576040517f08c379a0000000000000000000000000000000000000000000000000000000008152600401611f1190614016565b60405180910390fd5b600073ffffffffffffffffffffffffffffffffffffffff168273ffffffffffffffffffffffffffffffffffffffff161415611f8a576040517f08c379a0000000000000000000000000000000000000000000000000000000008152600401611f81906140a8565b60405180910390fd5b611f9583838361260e565b611fa0600082611bc0565b6001600360008573ffffffffffffffffffffffffffffffffffffffff1673ffffffffffffffffffffffffffffffffffffffff1681526020019081526020016000206000828254611ff091906140f7565b925050819055506001600360008473ffffffffffffffffffffffffffffffffffffffff1673ffffffffffffffffffffffffffffffffffffffff1681526020019081526020016000206000828254612047919061412b565b92505081905550816002600083815260200190815260200160002060006101000a81548173ffffffffffffffffffffffffffffffffffffffff021916908373ffffffffffffffffffffffffffffffffffffffff160217905550808273ffffffffffffffffffffffffffffffffffffffff168473ffffffffffffffffffffffffffffffffffffffff167fddf252ad1be2c89b69c2b068fc378daa952ba7f163c4a11628f55a4df523b3ef60405160405180910390a4505050565b61211161210b611bb8565b82611dc6565b612150576040517f08c379a0000000000000000000000000000000000000000000000000000000008152600401612147906141f3565b60405180910390fd5b61215981612613565b61216281612724565b50565b61216d610f5b565b6121ac576040517f08c379a00000000000000000000000000000000000000000000000000000000081526004016121a39061425f565b60405180910390fd5b6000600760146101000a81548160ff0219169083151502179055507f5db9ee0a495bf2e6ff9c91a7834c1ba4fdd244a5e8aa4e537bd38aeae4b073aa6121f0611bb8565b6040516121fd9190612dfe565b60405180910390a1565b6000600760009054906101000a900473ffffffffffffffffffffffffffffffffffffffff16905081600760006101000a81548173ffffffffffffffffffffffffffffffffffffffff021916908373ffffffffffffffffffffffffffffffffffffffff1602179055508173ffffffffffffffffffffffffffffffffffffffff168173ffffffffffffffffffffffffffffffffffffffff167f8be0079c531659141344cd1fd0a4f28419497f9722a3daafe3b4186f6b6457e060405160405180910390a35050565b60008390508073ffffffffffffffffffffffffffffffffffffffff166342842e0e8430856040518463ffffffff1660e01b815260040161230f939291906137de565b600060405180830381600087803b15801561232957600080fd5b505af115801561233d573d6000803e3d6000fd5b5050505050505050565b61234f610f5b565b1561238f576040517f08c379a000000000000000000000000000000000000000000000000000000000815260040161238690613bc7565b60405180910390fd5b6001600760146101000a81548160ff0219169083151502179055507f62e78cea01bee320cd4e420270b5ea74000d11b0c9f74754ebdbfc544b05a2586123d3611bb8565b6040516123e09190612dfe565b60405180910390a1565b8173ffffffffffffffffffffffffffffffffffffffff168373ffffffffffffffffffffffffffffffffffffffff161415612459576040517f08c379a0000000000000000000000000000000000000000000000000000000008152600401612450906142cb565b60405180910390fd5b80600560008573ffffffffffffffffffffffffffffffffffffffff1673ffffffffffffffffffffffffffffffffffffffff16815260200190815260200160002060008473ffffffffffffffffffffffffffffffffffffffff1673ffffffffffffffffffffffffffffffffffffffff16815260200190815260200160002060006101000a81548160ff0219169083151502179055508173ffffffffffffffffffffffffffffffffffffffff168373ffffffffffffffffffffffffffffffffffffffff167f17307eab39ab6107e8899845ad3d59bd9653f200f220920489ca2b5937696c318360405161254a9190612c84565b60405180910390a3505050565b612562848484611ea4565b61256e84848484612784565b6125ad576040517f08c379a00000000000000000000000000000000000000000000000000000000081526004016125a49061435d565b60405180910390fd5b50505050565b6125bd838361290c565b6125ca6000848484612784565b612609576040517f08c379a00000000000000000000000000000000000000000000000000000000081526004016126009061435d565b60405180910390fd5b505050565b505050565b600061261e82610f72565b905061262c8160008461260e565b612637600083611bc0565b6001600360008373ffffffffffffffffffffffffffffffffffffffff1673ffffffffffffffffffffffffffffffffffffffff168152602001908152602001600020600082825461268791906140f7565b925050819055506002600083815260200190815260200160002060006101000a81549073ffffffffffffffffffffffffffffffffffffffff021916905581600073ffffffffffffffffffffffffffffffffffffffff168273ffffffffffffffffffffffffffffffffffffffff167fddf252ad1be2c89b69c2b068fc378daa952ba7f163c4a11628f55a4df523b3ef60405160405180910390a45050565b600660008281526020019081526020016000206000808201600090556001820160006101000a81549073ffffffffffffffffffffffffffffffffffffffff0219169055600282016000905560038201600061277f9190612b73565b505050565b60006127a58473ffffffffffffffffffffffffffffffffffffffff16612ada565b156128ff578373ffffffffffffffffffffffffffffffffffffffff1663150b7a026127ce611bb8565b8786866040518563ffffffff1660e01b81526004016127f0949392919061437d565b6020604051808303816000875af192505050801561282c57506040513d601f19601f8201168201806040525081019061282991906143de565b60015b6128af573d806000811461285c576040519150601f19603f3d011682016040523d82523d6000602084013e612861565b606091505b506000815114156128a7576040517f08c379a000000000000000000000000000000000000000000000000000000000815260040161289e9061435d565b60405180910390fd5b805181602001fd5b63150b7a0260e01b7bffffffffffffffffffffffffffffffffffffffffffffffffffffffff1916817bffffffffffffffffffffffffffffffffffffffffffffffffffffffff191614915050612904565b600190505b949350505050565b600073ffffffffffffffffffffffffffffffffffffffff168273ffffffffffffffffffffffffffffffffffffffff16141561297c576040517f08c379a000000000000000000000000000000000000000000000000000000000815260040161297390614457565b60405180910390fd5b61298581611b4c565b156129c5576040517f08c379a00000000000000000000000000000000000000000000000000000000081526004016129bc906144c3565b60405180910390fd5b6129d16000838361260e565b6001600360008473ffffffffffffffffffffffffffffffffffffffff1673ffffffffffffffffffffffffffffffffffffffff1681526020019081526020016000206000828254612a21919061412b565b92505081905550816002600083815260200190815260200160002060006101000a81548173ffffffffffffffffffffffffffffffffffffffff021916908373ffffffffffffffffffffffffffffffffffffffff160217905550808273ffffffffffffffffffffffffffffffffffffffff16600073ffffffffffffffffffffffffffffffffffffffff167fddf252ad1be2c89b69c2b068fc378daa952ba7f163c4a11628f55a4df523b3ef60405160405180910390a45050565b600080823b905060008111915050919050565b828054612af99061358a565b90600052602060002090601f016020900481019282612b1b5760008555612b62565b82601f10612b3457805160ff1916838001178555612b62565b82800160010185558215612b62579182015b82811115612b61578251825591602001919060010190612b46565b5b509050612b6f9190612bb3565b5090565b508054612b7f9061358a565b6000825580601f10612b915750612bb0565b601f016020900490600052602060002090810190612baf9190612bb3565b5b50565b5b80821115612bcc576000816000905550600101612bb4565b5090565b6000604051905090565b600080fd5b600080fd5b60007fffffffff0000000000000000000000000000000000000000000000000000000082169050919050565b612c1981612be4565b8114612c2457600080fd5b50565b600081359050612c3681612c10565b92915050565b600060208284031215612c5257612c51612bda565b5b6000612c6084828501612c27565b91505092915050565b60008115159050919050565b612c7e81612c69565b82525050565b6000602082019050612c996000830184612c75565b92915050565b600081519050919050565b600082825260208201905092915050565b60005b83811015612cd9578082015181840152602081019050612cbe565b83811115612ce8576000848401525b50505050565b6000601f19601f8301169050919050565b6000612d0a82612c9f565b612d148185612caa565b9350612d24818560208601612cbb565b612d2d81612cee565b840191505092915050565b60006020820190508181036000830152612d528184612cff565b905092915050565b6000819050919050565b612d6d81612d5a565b8114612d7857600080fd5b50565b600081359050612d8a81612d64565b92915050565b600060208284031215612da657612da5612bda565b5b6000612db484828501612d7b565b91505092915050565b600073ffffffffffffffffffffffffffffffffffffffff82169050919050565b6000612de882612dbd565b9050919050565b612df881612ddd565b82525050565b6000602082019050612e136000830184612def565b92915050565b612e2281612ddd565b8114612e2d57600080fd5b50565b600081359050612e3f81612e19565b92915050565b60008060408385031215612e5c57612e5b612bda565b5b6000612e6a85828601612e30565b9250506020612e7b85828601612d7b565b9150509250929050565b600080600060608486031215612e9e57612e9d612bda565b5b6000612eac86828701612d7b565b9350506020612ebd86828701612e30565b9250506040612ece86828701612d7b565b9150509250925092565b600080600060608486031215612ef157612ef0612bda565b5b6000612eff86828701612e30565b9350506020612f1086828701612e30565b9250506040612f2186828701612d7b565b9150509250925092565b600080fd5b600080fd5b7f4e487b7100000000000000000000000000000000000000000000000000000000600052604160045260246000fd5b612f6d82612cee565b810181811067ffffffffffffffff82111715612f8c57612f8b612f35565b5b80604052505050565b6000612f9f612bd0565b9050612fab8282612f64565b919050565b600067ffffffffffffffff821115612fcb57612fca612f35565b5b612fd482612cee565b9050602081019050919050565b82818337600083830152505050565b6000613003612ffe84612fb0565b612f95565b90508281526020810184848401111561301f5761301e612f30565b5b61302a848285612fe1565b509392505050565b600082601f83011261304757613046612f2b565b5b8135613057848260208601612ff0565b91505092915050565b6000806000806080858703121561307a57613079612bda565b5b600061308887828801612e30565b945050602061309987828801612e30565b93505060406130aa87828801612d7b565b925050606085013567ffffffffffffffff8111156130cb576130ca612bdf565b5b6130d787828801613032565b91505092959194509250565b6130ec81612be4565b82525050565b600060208201905061310760008301846130e3565b92915050565b600067ffffffffffffffff82111561312857613127612f35565b5b61313182612cee565b9050602081019050919050565b600061315161314c8461310d565b612f95565b90508281526020810184848401111561316d5761316c612f30565b5b613178848285612fe1565b509392505050565b600082601f83011261319557613194612f2b565b5b81356131a584826020860161313e565b91505092915050565b600080600080600060a086880312156131ca576131c9612bda565b5b60006131d888828901612d7b565b95505060206131e988828901612e30565b94505060406131fa88828901612e30565b935050606061320b88828901612d7b565b925050608086013567ffffffffffffffff81111561322c5761322b612bdf565b5b61323888828901613180565b9150509295509295909350565b61324e81612d5a565b82525050565b60006020820190506132696000830184613245565b92915050565b60008060008060008060c0878903121561328c5761328b612bda565b5b600061329a89828a01612e30565b96505060206132ab89828a01612e30565b95505060406132bc89828a01612d7b565b94505060606132cd89828a01612e30565b93505060806132de89828a01612d7b565b92505060a06132ef89828a01612d7b565b9150509295509295509295565b6000806000806080858703121561331657613315612bda565b5b600061332487828801612d7b565b945050602061333587828801612e30565b935050604061334687828801612d7b565b925050606085013567ffffffffffffffff81111561336757613366612bdf565b5b61337387828801613032565b91505092959194509250565b60006020828403121561339557613394612bda565b5b60006133a384828501612e30565b91505092915050565b60006080820190506133c16000830187613245565b6133ce6020830186612def565b6133db6040830185613245565b6133e86060830184613245565b95945050505050565b600080600080600080600060e0888a0312156134105761340f612bda565b5b600061341e8a828b01612e30565b975050602061342f8a828b01612e30565b96505060406134408a828b01612d7b565b95505060606134518a828b01612e30565b94505060806134628a828b01612d7b565b93505060a06134738a828b01612d7b565b92505060c088013567ffffffffffffffff81111561349457613493612bdf565b5b6134a08a828b01613032565b91505092959891949750929550565b6134b881612c69565b81146134c357600080fd5b50565b6000813590506134d5816134af565b92915050565b600080604083850312156134f2576134f1612bda565b5b600061350085828601612e30565b9250506020613511858286016134c6565b9150509250929050565b6000806040838503121561353257613531612bda565b5b600061354085828601612e30565b925050602061355185828601612e30565b9150509250929050565b7f4e487b7100000000000000000000000000000000000000000000000000000000600052602260045260246000fd5b600060028204905060018216806135a257607f821691505b602082108114156135b6576135b561355b565b5b50919050565b7f4552433732313a20617070726f76656420717565727920666f72206e6f6e657860008201527f697374656e7420746f6b656e0000000000000000000000000000000000000000602082015250565b6000613618602c83612caa565b9150613623826135bc565b604082019050919050565b600060208201905081810360008301526136478161360b565b9050919050565b7f4552433732313a20617070726f76616c20746f2063757272656e74206f776e6560008201527f7200000000000000000000000000000000000000000000000000000000000000602082015250565b60006136aa602183612caa565b91506136b58261364e565b604082019050919050565b600060208201905081810360008301526136d98161369d565b9050919050565b7f4552433732313a20617070726f76652063616c6c6572206973206e6f74206f7760008201527f6e6572206e6f7220617070726f76656420666f7220616c6c0000000000000000602082015250565b600061373c603883612caa565b9150613747826136e0565b604082019050919050565b6000602082019050818103600083015261376b8161372f565b9050919050565b7f726573747269637465642066756e6374696f6e20746f2072656c617965720000600082015250565b60006137a8601e83612caa565b91506137b382613772565b602082019050919050565b600060208201905081810360008301526137d78161379b565b9050919050565b60006060820190506137f36000830186612def565b6138006020830185612def565b61380d6040830184613245565b949350505050565b7f4552433732313a207472616e736665722063616c6c6572206973206e6f74206f60008201527f776e6572206e6f7220617070726f766564000000000000000000000000000000602082015250565b6000613871603183612caa565b915061387c82613815565b604082019050919050565b600060208201905081810360008301526138a081613864565b9050919050565b600081519050919050565b600082825260208201905092915050565b60006138ce826138a7565b6138d881856138b2565b93506138e8818560208601612cbb565b6138f181612cee565b840191505092915050565b600060c0820190506139116000830189613245565b61391e6020830188612def565b61392b6040830187612def565b6139386060830186613245565b6139456080830185613245565b81810360a083015261395781846138c3565b9050979650505050505050565b60006080820190506139796000830187613245565b6139866020830186612def565b6139936040830185612def565b6139a06060830184613245565b95945050505050565b7f4f776e61626c653a2063616c6c6572206973206e6f7420746865206f776e6572600082015250565b60006139df602083612caa565b91506139ea826139a9565b602082019050919050565b60006020820190508181036000830152613a0e816139d2565b9050919050565b7f4552433732313a206f776e657220717565727920666f72206e6f6e657869737460008201527f656e7420746f6b656e0000000000000000000000000000000000000000000000602082015250565b6000613a71602983612caa565b9150613a7c82613a15565b604082019050919050565b60006020820190508181036000830152613aa081613a64565b9050919050565b7f4552433732313a2062616c616e636520717565727920666f7220746865207a6560008201527f726f206164647265737300000000000000000000000000000000000000000000602082015250565b6000613b03602a83612caa565b9150613b0e82613aa7565b604082019050919050565b60006020820190508181036000830152613b3281613af6565b9050919050565b600081519050613b4881612d64565b92915050565b600060208284031215613b6457613b63612bda565b5b6000613b7284828501613b39565b91505092915050565b7f5061757361626c653a2070617573656400000000000000000000000000000000600082015250565b6000613bb1601083612caa565b9150613bbc82613b7b565b602082019050919050565b60006020820190508181036000830152613be081613ba4565b9050919050565b6000613bfa613bf58461310d565b612f95565b905082815260208101848484011115613c1657613c15612f30565b5b613c21848285612cbb565b509392505050565b600082601f830112613c3e57613c3d612f2b565b5b8151613c4e848260208601613be7565b91505092915050565b600060208284031215613c6d57613c6c612bda565b5b600082015167ffffffffffffffff811115613c8b57613c8a612bdf565b5b613c9784828501613c29565b91505092915050565b600061010082019050613cb6600083018b613245565b613cc3602083018a612def565b613cd06040830189613245565b613cdd6060830188612def565b613cea6080830187613245565b81810360a0830152613cfc8186612cff565b9050613d0b60c0830185613245565b81810360e0830152613d1d81846138c3565b90509998505050505050505050565b600060c082019050613d416000830189613245565b613d4e6020830188612def565b613d5b6040830187613245565b613d686060830186612def565b613d756080830185613245565b81810360a0830152613d878184612cff565b9050979650505050505050565b7f4552433732314d657461646174613a2055524920717565727920666f72206e6f60008201527f6e6578697374656e7420746f6b656e0000000000000000000000000000000000602082015250565b6000613df0602f83612caa565b9150613dfb82613d94565b604082019050919050565b60006020820190508181036000830152613e1f81613de3565b9050919050565b7f4f776e61626c653a206e6577206f776e657220697320746865207a65726f206160008201527f6464726573730000000000000000000000000000000000000000000000000000602082015250565b6000613e82602683612caa565b9150613e8d82613e26565b604082019050919050565b60006020820190508181036000830152613eb181613e75565b9050919050565b600060a082019050613ecd6000830188613245565b613eda6020830187613245565b613ee76040830186612def565b613ef46060830185613245565b8181036080830152613f068184612cff565b90509695505050505050565b7f4552433732313a206f70657261746f7220717565727920666f72206e6f6e657860008201527f697374656e7420746f6b656e0000000000000000000000000000000000000000602082015250565b6000613f6e602c83612caa565b9150613f7982613f12565b604082019050919050565b60006020820190508181036000830152613f9d81613f61565b9050919050565b7f4552433732313a207472616e73666572206f6620746f6b656e2074686174206960008201527f73206e6f74206f776e0000000000000000000000000000000000000000000000602082015250565b6000614000602983612caa565b915061400b82613fa4565b604082019050919050565b6000602082019050818103600083015261402f81613ff3565b9050919050565b7f4552433732313a207472616e7366657220746f20746865207a65726f2061646460008201527f7265737300000000000000000000000000000000000000000000000000000000602082015250565b6000614092602483612caa565b915061409d82614036565b604082019050919050565b600060208201905081810360008301526140c181614085565b9050919050565b7f4e487b7100000000000000000000000000000000000000000000000000000000600052601160045260246000fd5b600061410282612d5a565b915061410d83612d5a565b9250828210156141205761411f6140c8565b5b828203905092915050565b600061413682612d5a565b915061414183612d5a565b9250827fffffffffffffffffffffffffffffffffffffffffffffffffffffffffffffffff03821115614176576141756140c8565b5b828201905092915050565b7f4552433732314275726e61626c653a2063616c6c6572206973206e6f74206f7760008201527f6e6572206e6f7220617070726f76656400000000000000000000000000000000602082015250565b60006141dd603083612caa565b91506141e882614181565b604082019050919050565b6000602082019050818103600083015261420c816141d0565b9050919050565b7f5061757361626c653a206e6f7420706175736564000000000000000000000000600082015250565b6000614249601483612caa565b915061425482614213565b602082019050919050565b600060208201905081810360008301526142788161423c565b9050919050565b7f4552433732313a20617070726f766520746f2063616c6c657200000000000000600082015250565b60006142b5601983612caa565b91506142c08261427f565b602082019050919050565b600060208201905081810360008301526142e4816142a8565b9050919050565b7f4552433732313a207472616e7366657220746f206e6f6e20455243373231526560008201527f63656976657220696d706c656d656e7465720000000000000000000000000000602082015250565b6000614347603283612caa565b9150614352826142eb565b604082019050919050565b600060208201905081810360008301526143768161433a565b9050919050565b60006080820190506143926000830187612def565b61439f6020830186612def565b6143ac6040830185613245565b81810360608301526143be81846138c3565b905095945050505050565b6000815190506143d881612c10565b92915050565b6000602082840312156143f4576143f3612bda565b5b6000614402848285016143c9565b91505092915050565b7f4552433732313a206d696e7420746f20746865207a65726f2061646472657373600082015250565b6000614441602083612caa565b915061444c8261440b565b602082019050919050565b6000602082019050818103600083015261447081614434565b9050919050565b7f4552433732313a20746f6b656e20616c7265616479206d696e74656400000000600082015250565b60006144ad601c83612caa565b91506144b882614477565b602082019050919050565b600060208201905081810360008301526144dc816144a0565b905091905056fea2646970667358221220ecb12118808f917ee684f28cb0e437a8222db8dd4429eef94d9bd461f9a1a91d64736f6c634300080b0033",
  "linkReferences": {},
  "deployedLinkReferences": {}
}