{
  "_format": "hh-sol-artifact-1",
  "contractName": "CrossChainNFT",
  "sourceName": "contracts/CrossChainNFT/CrossChainNFT.sol",
  "abi": [
    {
      "inputs": [],
      "stateMutability": "nonpayable",
      "type": "constructor"
    },
    {
      "anonymous": false,
      "inputs": [
        {
          "indexed": true,
          "internalType": "address",
          "name": "owner",
          "type": "address"
        },
        {
          "indexed": true,
          "internalType": "address",
          "name": "approved",
          "type": "address"
        },
        {
          "indexed": true,
          "internalType": "uint256",
          "name": "tokenId",
          "type": "uint256"
        }
      ],
      "name": "Approval",
      "type": "event"
    },
    {
      "anonymous": false,
      "inputs": [
        {
          "indexed": true,
          "internalType": "address",
          "name": "owner",
          "type": "address"
        },
        {
          "indexed": true,
          "internalType": "address",
          "name": "operator",
          "type": "address"
        },
        {
          "indexed": false,
          "internalType": "bool",
          "name": "approved",
          "type": "bool"
        }
      ],
      "name": "ApprovalForAll",
      "type": "event"
    },
    {
      "anonymous": false,
      "inputs": [
        {
          "indexed": true,
          "internalType": "address",
          "name": "previousOwner",
          "type": "address"
        },
        {
          "indexed": true,
          "internalType": "address",
          "name": "newOwner",
          "type": "address"
        }
      ],
      "name": "OwnershipTransferred",
      "type": "event"
    },
    {
      "anonymous": false,
      "inputs": [
        {
          "indexed": false,
          "internalType": "uint256",
          "name": "chainId",
          "type": "uint256"
        },
        {
          "indexed": false,
          "internalType": "address",
          "name": "contAddr",
          "type": "address"
        },
        {
          "indexed": false,
          "internalType": "uint256",
          "name": "tokenId",
          "type": "uint256"
        },
        {
          "indexed": false,
          "internalType": "address",
          "name": "to",
          "type": "address"
        }
      ],
      "name": "RelayerCallRedeem",
      "type": "event"
    },
    {
      "anonymous": false,
      "inputs": [
        {
          "indexed": false,
          "internalType": "uint256",
          "name": "targetChainId",
          "type": "uint256"
        },
        {
          "indexed": false,
          "internalType": "address",
          "name": "to",
          "type": "address"
        },
        {
          "indexed": false,
          "internalType": "uint256",
          "name": "chainId",
          "type": "uint256"
        },
        {
          "indexed": false,
          "internalType": "address",
          "name": "contAddr",
          "type": "address"
        },
        {
          "indexed": false,
          "internalType": "uint256",
          "name": "tokenId",
          "type": "uint256"
        },
        {
          "indexed": false,
          "internalType": "string",
          "name": "uri",
          "type": "string"
        }
      ],
      "name": "RelayerCallSafeMintWrappedToken",
      "type": "event"
    },
    {
      "anonymous": false,
      "inputs": [
        {
          "indexed": false,
          "internalType": "uint256",
          "name": "wTokenId",
          "type": "uint256"
        }
      ],
      "name": "TokenWrapped",
      "type": "event"
    },
    {
      "anonymous": false,
      "inputs": [
        {
          "indexed": true,
          "internalType": "address",
          "name": "from",
          "type": "address"
        },
        {
          "indexed": true,
          "internalType": "address",
          "name": "to",
          "type": "address"
        },
        {
          "indexed": true,
          "internalType": "uint256",
          "name": "tokenId",
          "type": "uint256"
        }
      ],
      "name": "Transfer",
      "type": "event"
    },
    {
      "anonymous": false,
      "inputs": [
        {
          "indexed": false,
          "internalType": "uint256",
          "name": "wTokenId",
          "type": "uint256"
        }
      ],
      "name": "WTokenBurned",
      "type": "event"
    },
    {
      "inputs": [
        {
          "internalType": "address",
          "name": "to",
          "type": "address"
        },
        {
          "internalType": "uint256",
          "name": "tokenId",
          "type": "uint256"
        }
      ],
      "name": "approve",
      "outputs": [],
      "stateMutability": "nonpayable",
      "type": "function"
    },
    {
      "inputs": [
        {
          "internalType": "address",
          "name": "owner",
          "type": "address"
        }
      ],
      "name": "balanceOf",
      "outputs": [
        {
          "internalType": "uint256",
          "name": "",
          "type": "uint256"
        }
      ],
      "stateMutability": "view",
      "type": "function"
    },
    {
      "inputs": [
        {
          "internalType": "uint256",
          "name": "wTokenId",
          "type": "uint256"
        }
      ],
      "name": "burnWrappedToken",
      "outputs": [],
      "stateMutability": "nonpayable",
      "type": "function"
    },
    {
      "inputs": [
        {
          "internalType": "uint256",
          "name": "tokenId",
          "type": "uint256"
        }
      ],
      "name": "getApproved",
      "outputs": [
        {
          "internalType": "address",
          "name": "",
          "type": "address"
        }
      ],
      "stateMutability": "view",
      "type": "function"
    },
    {
      "inputs": [
        {
          "internalType": "uint256",
          "name": "targetChainId",
          "type": "uint256"
        }
      ],
      "name": "getFee",
      "outputs": [
        {
          "internalType": "uint256",
          "name": "fee",
          "type": "uint256"
        }
      ],
      "stateMutability": "view",
      "type": "function"
    },
    {
      "inputs": [
        {
          "internalType": "address",
          "name": "owner",
          "type": "address"
        },
        {
          "internalType": "address",
          "name": "operator",
          "type": "address"
        }
      ],
      "name": "isApprovedForAll",
      "outputs": [
        {
          "internalType": "bool",
          "name": "",
          "type": "bool"
        }
      ],
      "stateMutability": "view",
      "type": "function"
    },
    {
      "inputs": [],
      "name": "name",
      "outputs": [
        {
          "internalType": "string",
          "name": "",
          "type": "string"
        }
      ],
      "stateMutability": "view",
      "type": "function"
    },
    {
      "inputs": [
        {
          "internalType": "address",
          "name": "",
          "type": "address"
        },
        {
          "internalType": "address",
          "name": "",
          "type": "address"
        },
        {
          "internalType": "uint256",
          "name": "",
          "type": "uint256"
        },
        {
          "internalType": "bytes",
          "name": "",
          "type": "bytes"
        }
      ],
      "name": "onERC721Received",
      "outputs": [
        {
          "internalType": "bytes4",
          "name": "",
          "type": "bytes4"
        }
      ],
      "stateMutability": "nonpayable",
      "type": "function"
    },
    {
      "inputs": [],
      "name": "owner",
      "outputs": [
        {
          "internalType": "address",
          "name": "",
          "type": "address"
        }
      ],
      "stateMutability": "view",
      "type": "function"
    },
    {
      "inputs": [
        {
          "internalType": "uint256",
          "name": "tokenId",
          "type": "uint256"
        }
      ],
      "name": "ownerOf",
      "outputs": [
        {
          "internalType": "address",
          "name": "",
          "type": "address"
        }
      ],
      "stateMutability": "view",
      "type": "function"
    },
    {
      "inputs": [
        {
          "internalType": "address",
          "name": "contAddr",
          "type": "address"
        },
        {
          "internalType": "uint256",
          "name": "tokenId",
          "type": "uint256"
        },
        {
          "internalType": "address",
          "name": "to",
          "type": "address"
        }
      ],
      "name": "redeem",
      "outputs": [],
      "stateMutability": "nonpayable",
      "type": "function"
    },
    {
      "inputs": [],
      "name": "relayer",
      "outputs": [
        {
          "internalType": "address",
          "name": "",
          "type": "address"
        }
      ],
      "stateMutability": "view",
      "type": "function"
    },
    {
      "inputs": [],
      "name": "renounceOwnership",
      "outputs": [],
      "stateMutability": "nonpayable",
      "type": "function"
    },
    {
      "inputs": [
        {
          "internalType": "address",
          "name": "to",
          "type": "address"
        },
        {
          "internalType": "uint256",
          "name": "chainId",
          "type": "uint256"
        },
        {
          "internalType": "address",
          "name": "contAddr",
          "type": "address"
        },
        {
          "internalType": "uint256",
          "name": "tokenId",
          "type": "uint256"
        },
        {
          "internalType": "string",
          "name": "uri",
          "type": "string"
        }
      ],
      "name": "safeMintWrappedToken",
      "outputs": [
        {
          "internalType": "uint256",
          "name": "wTokenId",
          "type": "uint256"
        }
      ],
      "stateMutability": "nonpayable",
      "type": "function"
    },
    {
      "inputs": [
        {
          "internalType": "address",
          "name": "from",
          "type": "address"
        },
        {
          "internalType": "address",
          "name": "to",
          "type": "address"
        },
        {
          "internalType": "uint256",
          "name": "tokenId",
          "type": "uint256"
        }
      ],
      "name": "safeTransferFrom",
      "outputs": [],
      "stateMutability": "nonpayable",
      "type": "function"
    },
    {
      "inputs": [
        {
          "internalType": "address",
          "name": "from",
          "type": "address"
        },
        {
          "internalType": "address",
          "name": "to",
          "type": "address"
        },
        {
          "internalType": "uint256",
          "name": "tokenId",
          "type": "uint256"
        },
        {
          "internalType": "bytes",
          "name": "_data",
          "type": "bytes"
        }
      ],
      "name": "safeTransferFrom",
      "outputs": [],
      "stateMutability": "nonpayable",
      "type": "function"
    },
    {
      "inputs": [
        {
          "internalType": "address",
          "name": "operator",
          "type": "address"
        },
        {
          "internalType": "bool",
          "name": "approved",
          "type": "bool"
        }
      ],
      "name": "setApprovalForAll",
      "outputs": [],
      "stateMutability": "nonpayable",
      "type": "function"
    },
    {
      "inputs": [
        {
          "internalType": "uint256",
          "name": "targetChainId",
          "type": "uint256"
        },
        {
          "internalType": "uint256",
          "name": "fee",
          "type": "uint256"
        }
      ],
      "name": "setFee",
      "outputs": [],
      "stateMutability": "nonpayable",
      "type": "function"
    },
    {
      "inputs": [
        {
          "internalType": "uint256[]",
          "name": "targetChainIds",
          "type": "uint256[]"
        },
        {
          "internalType": "uint256[]",
          "name": "fees",
          "type": "uint256[]"
        }
      ],
      "name": "setFees",
      "outputs": [],
      "stateMutability": "nonpayable",
      "type": "function"
    },
    {
      "inputs": [
        {
          "internalType": "address",
          "name": "newRelayer",
          "type": "address"
        }
      ],
      "name": "setRelayer",
      "outputs": [],
      "stateMutability": "nonpayable",
      "type": "function"
    },
    {
      "inputs": [
        {
          "internalType": "bytes4",
          "name": "interfaceId",
          "type": "bytes4"
        }
      ],
      "name": "supportsInterface",
      "outputs": [
        {
          "internalType": "bool",
          "name": "",
          "type": "bool"
        }
      ],
      "stateMutability": "view",
      "type": "function"
    },
    {
      "inputs": [],
      "name": "symbol",
      "outputs": [
        {
          "internalType": "string",
          "name": "",
          "type": "string"
        }
      ],
      "stateMutability": "view",
      "type": "function"
    },
    {
      "inputs": [
        {
          "internalType": "uint256",
          "name": "tokenId",
          "type": "uint256"
        }
      ],
      "name": "tokenURI",
      "outputs": [
        {
          "internalType": "string",
          "name": "",
          "type": "string"
        }
      ],
      "stateMutability": "view",
      "type": "function"
    },
    {
      "inputs": [],
      "name": "totalSupply",
      "outputs": [
        {
          "internalType": "uint256",
          "name": "",
          "type": "uint256"
        }
      ],
      "stateMutability": "view",
      "type": "function"
    },
    {
      "inputs": [
        {
          "internalType": "address",
          "name": "contAddr",
          "type": "address"
        },
        {
          "internalType": "uint256",
          "name": "tokenId",
          "type": "uint256"
        },
        {
          "internalType": "address",
          "name": "from",
          "type": "address"
        },
        {
          "internalType": "address",
          "name": "to",
          "type": "address"
        },
        {
          "internalType": "uint256",
          "name": "targetChainId",
          "type": "uint256"
        }
      ],
      "name": "transferCrossChainRequest",
      "outputs": [],
      "stateMutability": "payable",
      "type": "function"
    },
    {
      "inputs": [
        {
          "internalType": "address",
          "name": "from",
          "type": "address"
        },
        {
          "internalType": "address",
          "name": "to",
          "type": "address"
        },
        {
          "internalType": "uint256",
          "name": "tokenId",
          "type": "uint256"
        }
      ],
      "name": "transferFrom",
      "outputs": [],
      "stateMutability": "nonpayable",
      "type": "function"
    },
    {
      "inputs": [
        {
          "internalType": "address",
          "name": "newOwner",
          "type": "address"
        }
      ],
      "name": "transferOwnership",
      "outputs": [],
      "stateMutability": "nonpayable",
      "type": "function"
    },
    {
      "inputs": [
        {
          "internalType": "uint256",
          "name": "wTokenId",
          "type": "uint256"
        },
        {
          "internalType": "address",
          "name": "to",
          "type": "address"
        }
      ],
      "name": "wReturnCrossChainRequest",
      "outputs": [],
      "stateMutability": "payable",
      "type": "function"
    },
    {
      "inputs": [
        {
          "internalType": "address payable",
          "name": "to",
          "type": "address"
        }
      ],
      "name": "withdrawCash",
      "outputs": [],
      "stateMutability": "nonpayable",
      "type": "function"
    }
  ],
  "bytecode": "0x60806040523480156200001157600080fd5b5073e189bfcc0d6f5f63401b104c1051699c7aa1ae4a6040518060400160405280600d81526020017f43726f7373436861696e4e4654000000000000000000000000000000000000008152506040518060400160405280600381526020017f43436800000000000000000000000000000000000000000000000000000000008152508160009080519060200190620000ab929190620002ca565b508060019080519060200190620000c4929190620002ca565b505050620000e7620000db620000ff60201b60201c565b6200010760201b60201c565b620000f881620001cd60201b60201c565b5062000462565b600033905090565b6000600760009054906101000a900473ffffffffffffffffffffffffffffffffffffffff16905081600760006101000a81548173ffffffffffffffffffffffffffffffffffffffff021916908373ffffffffffffffffffffffffffffffffffffffff1602179055508173ffffffffffffffffffffffffffffffffffffffff168173ffffffffffffffffffffffffffffffffffffffff167f8be0079c531659141344cd1fd0a4f28419497f9722a3daafe3b4186f6b6457e060405160405180910390a35050565b620001dd620000ff60201b60201c565b73ffffffffffffffffffffffffffffffffffffffff1662000203620002a060201b60201c565b73ffffffffffffffffffffffffffffffffffffffff16146200025c576040517f08c379a00000000000000000000000000000000000000000000000000000000081526004016200025390620003a1565b60405180910390fd5b80600960006101000a81548173ffffffffffffffffffffffffffffffffffffffff021916908373ffffffffffffffffffffffffffffffffffffffff16021790555050565b6000600760009054906101000a900473ffffffffffffffffffffffffffffffffffffffff16905090565b828054620002d890620003d4565b90600052602060002090601f016020900481019282620002fc576000855562000348565b82601f106200031757805160ff191683800117855562000348565b8280016001018555821562000348579182015b82811115620003475782518255916020019190600101906200032a565b5b5090506200035791906200035b565b5090565b5b80821115620003765760008160009055506001016200035c565b5090565b600062000389602083620003c3565b9150620003968262000439565b602082019050919050565b60006020820190508181036000830152620003bc816200037a565b9050919050565b600082825260208201905092915050565b60006002820490506001821680620003ed57607f821691505b602082108114156200040457620004036200040a565b5b50919050565b7f4e487b7100000000000000000000000000000000000000000000000000000000600052602260045260246000fd5b7f4f776e61626c653a2063616c6c6572206973206e6f7420746865206f776e6572600082015250565b6140ef80620004726000396000f3fe6080604052600436106101c25760003560e01c806370a08231116100f7578063a22cb46511610095578063c87b56dd11610064578063c87b56dd1461061e578063e985e9c51461065b578063f2fde38b14610698578063fcee45f4146106c1576101c2565b8063a22cb46514610587578063ae7197df146105b0578063b88d4fde146105d9578063c237ba6b14610602576101c2565b80637a3b45bb116100d15780637a3b45bb146104dd5780638406c079146105065780638da5cb5b1461053157806395d89b411461055c576101c2565b806370a082311461044c57806370e4acd814610489578063715018a6146104c6576101c2565b8063375fede51161016457806352f7c9881161013e57806352f7c988146103945780635c833bfd146103bd5780636352211e146103e65780636548e9bc14610423576101c2565b8063375fede51461032657806338b5c5af1461034f57806342842e0e1461036b576101c2565b8063095ea7b3116101a0578063095ea7b31461026c578063150b7a021461029557806318160ddd146102d257806323b872dd146102fd576101c2565b806301ffc9a7146101c757806306fdde0314610204578063081812fc1461022f575b600080fd5b3480156101d357600080fd5b506101ee60048036038101906101e99190612e9b565b6106fe565b6040516101fb91906133d7565b60405180910390f35b34801561021057600080fd5b506102196107e0565b604051610226919061340d565b60405180910390f35b34801561023b57600080fd5b5061025660048036038101906102519190612f2e565b610872565b6040516102639190613339565b60405180910390f35b34801561027857600080fd5b50610293600480360381019061028e9190612c9e565b6108f7565b005b3480156102a157600080fd5b506102bc60048036038101906102b79190612be7565b610a0f565b6040516102c991906133f2565b60405180910390f35b3480156102de57600080fd5b506102e7610a23565b6040516102f491906136af565b60405180910390f35b34801561030957600080fd5b50610324600480360381019061031f9190612b98565b610a2b565b005b34801561033257600080fd5b5061034d60048036038101906103489190612e2f565b610a8b565b005b61036960048036038101906103649190612f57565b610bf8565b005b34801561037757600080fd5b50610392600480360381019061038d9190612b98565b610dce565b005b3480156103a057600080fd5b506103bb60048036038101906103b69190612f93565b610dee565b005b3480156103c957600080fd5b506103e460048036038101906103df9190612cda565b610e86565b005b3480156103f257600080fd5b5061040d60048036038101906104089190612f2e565b610f90565b60405161041a9190613339565b60405180910390f35b34801561042f57600080fd5b5061044a60048036038101906104459190612b0a565b611042565b005b34801561045857600080fd5b50610473600480360381019061046e9190612b0a565b611102565b60405161048091906136af565b60405180910390f35b34801561049557600080fd5b506104b060048036038101906104ab9190612da0565b6111ba565b6040516104bd91906136af565b60405180910390f35b3480156104d257600080fd5b506104db611282565b005b3480156104e957600080fd5b5061050460048036038101906104ff9190612f2e565b61130a565b005b34801561051257600080fd5b5061051b61136f565b6040516105289190613339565b60405180910390f35b34801561053d57600080fd5b50610546611395565b6040516105539190613339565b60405180910390f35b34801561056857600080fd5b506105716113bf565b60405161057e919061340d565b60405180910390f35b34801561059357600080fd5b506105ae60048036038101906105a99190612c62565b611451565b005b3480156105bc57600080fd5b506105d760048036038101906105d29190612b33565b611467565b005b3480156105e557600080fd5b5061060060048036038101906105fb9190612be7565b611534565b005b61061c60048036038101906106179190612d29565b611596565b005b34801561062a57600080fd5b5061064560048036038101906106409190612f2e565b611691565b604051610652919061340d565b60405180910390f35b34801561066757600080fd5b50610682600480360381019061067d9190612b5c565b6116a3565b60405161068f91906133d7565b60405180910390f35b3480156106a457600080fd5b506106bf60048036038101906106ba9190612b0a565b611737565b005b3480156106cd57600080fd5b506106e860048036038101906106e39190612f2e565b61182f565b6040516106f591906136af565b60405180910390f35b60007f80ac58cd000000000000000000000000000000000000000000000000000000007bffffffffffffffffffffffffffffffffffffffffffffffffffffffff1916827bffffffffffffffffffffffffffffffffffffffffffffffffffffffff191614806107c957507f5b5e139f000000000000000000000000000000000000000000000000000000007bffffffffffffffffffffffffffffffffffffffffffffffffffffffff1916827bffffffffffffffffffffffffffffffffffffffffffffffffffffffff1916145b806107d957506107d88261184c565b5b9050919050565b6060600080546107ef906139b4565b80601f016020809104026020016040519081016040528092919081815260200182805461081b906139b4565b80156108685780601f1061083d57610100808354040283529160200191610868565b820191906000526020600020905b81548152906001019060200180831161084b57829003601f168201915b5050505050905090565b600061087d826118b6565b6108bc576040517f08c379a00000000000000000000000000000000000000000000000000000000081526004016108b39061358f565b60405180910390fd5b6004600083815260200190815260200160002060009054906101000a900473ffffffffffffffffffffffffffffffffffffffff169050919050565b600061090282610f90565b90508073ffffffffffffffffffffffffffffffffffffffff168373ffffffffffffffffffffffffffffffffffffffff161415610973576040517f08c379a000000000000000000000000000000000000000000000000000000000815260040161096a9061360f565b60405180910390fd5b8073ffffffffffffffffffffffffffffffffffffffff16610992611922565b73ffffffffffffffffffffffffffffffffffffffff1614806109c157506109c0816109bb611922565b6116a3565b5b610a00576040517f08c379a00000000000000000000000000000000000000000000000000000000081526004016109f79061350f565b60405180910390fd5b610a0a838361192a565b505050565b600063150b7a0260e01b9050949350505050565b600047905090565b610a3c610a36611922565b826119e3565b610a7b576040517f08c379a0000000000000000000000000000000000000000000000000000000008152600401610a729061366f565b60405180910390fd5b610a86838383611ac1565b505050565b610a93611922565b73ffffffffffffffffffffffffffffffffffffffff16610ab1611395565b73ffffffffffffffffffffffffffffffffffffffff1614610b07576040517f08c379a0000000000000000000000000000000000000000000000000000000008152600401610afe906135af565b60405180910390fd5b8051825114610b4b576040517f08c379a0000000000000000000000000000000000000000000000000000000008152600401610b42906134cf565b60405180910390fd5b60005b82518111610bf357610be0838281518110610b92577f4e487b7100000000000000000000000000000000000000000000000000000000600052603260045260246000fd5b6020026020010151838381518110610bd3577f4e487b7100000000000000000000000000000000000000000000000000000000600052603260045260246000fd5b6020026020010151610dee565b8080610beb90613a17565b915050610b4e565b505050565b600060066000848152602001908152602001600020604051806080016040529081600082015481526020016001820160009054906101000a900473ffffffffffffffffffffffffffffffffffffffff1673ffffffffffffffffffffffffffffffffffffffff1673ffffffffffffffffffffffffffffffffffffffff16815260200160028201548152602001600382018054610c92906139b4565b80601f0160208091040260200160405190810160405280929190818152602001828054610cbe906139b4565b8015610d0b5780601f10610ce057610100808354040283529160200191610d0b565b820191906000526020600020905b815481529060010190602001808311610cee57829003601f168201915b5050505050815250509050610d23816000015161182f565b341015610d65576040517f08c379a0000000000000000000000000000000000000000000000000000000008152600401610d5c9061364f565b60405180910390fd5b600081600001519050600082602001519050600083604001519050610d898661130a565b7f68d40ad5dae5d6d29b5f9a3faf65a9e21ea0772c8a6861641ef31fad20d185fb83838388604051610dbe94939291906136ca565b60405180910390a1505050505050565b610de983838360405180602001604052806000815250611534565b505050565b610df6611922565b73ffffffffffffffffffffffffffffffffffffffff16610e14611395565b73ffffffffffffffffffffffffffffffffffffffff1614610e6a576040517f08c379a0000000000000000000000000000000000000000000000000000000008152600401610e61906135af565b60405180910390fd5b80600a6000848152602001908152602001600020819055505050565b600960009054906101000a900473ffffffffffffffffffffffffffffffffffffffff1673ffffffffffffffffffffffffffffffffffffffff163373ffffffffffffffffffffffffffffffffffffffff1614610f16576040517f08c379a0000000000000000000000000000000000000000000000000000000008152600401610f0d9061362f565b60405180910390fd5b60008390508073ffffffffffffffffffffffffffffffffffffffff166342842e0e3084866040518463ffffffff1660e01b8152600401610f5893929190613354565b600060405180830381600087803b158015610f7257600080fd5b505af1158015610f86573d6000803e3d6000fd5b5050505050505050565b6000806002600084815260200190815260200160002060009054906101000a900473ffffffffffffffffffffffffffffffffffffffff169050600073ffffffffffffffffffffffffffffffffffffffff168173ffffffffffffffffffffffffffffffffffffffff161415611039576040517f08c379a00000000000000000000000000000000000000000000000000000000081526004016110309061354f565b60405180910390fd5b80915050919050565b61104a611922565b73ffffffffffffffffffffffffffffffffffffffff16611068611395565b73ffffffffffffffffffffffffffffffffffffffff16146110be576040517f08c379a00000000000000000000000000000000000000000000000000000000081526004016110b5906135af565b60405180910390fd5b80600960006101000a81548173ffffffffffffffffffffffffffffffffffffffff021916908373ffffffffffffffffffffffffffffffffffffffff16021790555050565b60008073ffffffffffffffffffffffffffffffffffffffff168273ffffffffffffffffffffffffffffffffffffffff161415611173576040517f08c379a000000000000000000000000000000000000000000000000000000000815260040161116a9061352f565b60405180910390fd5b600360008373ffffffffffffffffffffffffffffffffffffffff1673ffffffffffffffffffffffffffffffffffffffff168152602001908152602001600020549050919050565b6000600960009054906101000a900473ffffffffffffffffffffffffffffffffffffffff1673ffffffffffffffffffffffffffffffffffffffff163373ffffffffffffffffffffffffffffffffffffffff161461124c576040517f08c379a00000000000000000000000000000000000000000000000000000000081526004016112439061362f565b60405180910390fd5b6112566008611d1d565b90506112626008611d2b565b61126c8682611d41565b6112798186868686611d5f565b95945050505050565b61128a611922565b73ffffffffffffffffffffffffffffffffffffffff166112a8611395565b73ffffffffffffffffffffffffffffffffffffffff16146112fe576040517f08c379a00000000000000000000000000000000000000000000000000000000081526004016112f5906135af565b60405180910390fd5b6113086000611e62565b565b61131b611315611922565b826119e3565b61135a576040517f08c379a00000000000000000000000000000000000000000000000000000000081526004016113519061368f565b60405180910390fd5b61136381611f28565b61136c81612039565b50565b600960009054906101000a900473ffffffffffffffffffffffffffffffffffffffff1681565b6000600760009054906101000a900473ffffffffffffffffffffffffffffffffffffffff16905090565b6060600180546113ce906139b4565b80601f01602080910402602001604051908101604052809291908181526020018280546113fa906139b4565b80156114475780601f1061141c57610100808354040283529160200191611447565b820191906000526020600020905b81548152906001019060200180831161142a57829003601f168201915b5050505050905090565b61146361145c611922565b83836120d0565b5050565b61146f611922565b73ffffffffffffffffffffffffffffffffffffffff1661148d611395565b73ffffffffffffffffffffffffffffffffffffffff16146114e3576040517f08c379a00000000000000000000000000000000000000000000000000000000081526004016114da906135af565b60405180910390fd5b8073ffffffffffffffffffffffffffffffffffffffff166108fc611505610a23565b9081150290604051600060405180830381858888f19350505050158015611530573d6000803e3d6000fd5b5050565b61154561153f611922565b836119e3565b611584576040517f08c379a000000000000000000000000000000000000000000000000000000000815260040161157b9061366f565b60405180910390fd5b6115908484848461223d565b50505050565b61159f8161182f565b3410156115ab57600080fd5b6115b6858585612299565b60004690507f9301e409432a51a191443f644ae41630782021a09e1ce98fc0e5fb72078a25ea82848389898b73ffffffffffffffffffffffffffffffffffffffff1663c87b56dd8c6040518263ffffffff1660e01b815260040161161a91906136af565b60006040518083038186803b15801561163257600080fd5b505afa158015611646573d6000803e3d6000fd5b505050506040513d6000823e3d601f19601f8201168201806040525081019061166f9190612eed565b6040516116819695949392919061370f565b60405180910390a1505050505050565b606061169c82612313565b9050919050565b6000600560008473ffffffffffffffffffffffffffffffffffffffff1673ffffffffffffffffffffffffffffffffffffffff16815260200190815260200160002060008373ffffffffffffffffffffffffffffffffffffffff1673ffffffffffffffffffffffffffffffffffffffff16815260200190815260200160002060009054906101000a900460ff16905092915050565b61173f611922565b73ffffffffffffffffffffffffffffffffffffffff1661175d611395565b73ffffffffffffffffffffffffffffffffffffffff16146117b3576040517f08c379a00000000000000000000000000000000000000000000000000000000081526004016117aa906135af565b60405180910390fd5b600073ffffffffffffffffffffffffffffffffffffffff168173ffffffffffffffffffffffffffffffffffffffff161415611823576040517f08c379a000000000000000000000000000000000000000000000000000000000815260040161181a9061344f565b60405180910390fd5b61182c81611e62565b50565b6000600a6000838152602001908152602001600020549050919050565b60007f01ffc9a7000000000000000000000000000000000000000000000000000000007bffffffffffffffffffffffffffffffffffffffffffffffffffffffff1916827bffffffffffffffffffffffffffffffffffffffffffffffffffffffff1916149050919050565b60008073ffffffffffffffffffffffffffffffffffffffff166002600084815260200190815260200160002060009054906101000a900473ffffffffffffffffffffffffffffffffffffffff1673ffffffffffffffffffffffffffffffffffffffff1614159050919050565b600033905090565b816004600083815260200190815260200160002060006101000a81548173ffffffffffffffffffffffffffffffffffffffff021916908373ffffffffffffffffffffffffffffffffffffffff160217905550808273ffffffffffffffffffffffffffffffffffffffff1661199d83610f90565b73ffffffffffffffffffffffffffffffffffffffff167f8c5be1e5ebec7d5bd14f71427d1e84f3dd0314c0f7b2291e5b200ac8c7c3b92560405160405180910390a45050565b60006119ee826118b6565b611a2d576040517f08c379a0000000000000000000000000000000000000000000000000000000008152600401611a24906134ef565b60405180910390fd5b6000611a3883610f90565b90508073ffffffffffffffffffffffffffffffffffffffff168473ffffffffffffffffffffffffffffffffffffffff161480611aa757508373ffffffffffffffffffffffffffffffffffffffff16611a8f84610872565b73ffffffffffffffffffffffffffffffffffffffff16145b80611ab85750611ab781856116a3565b5b91505092915050565b8273ffffffffffffffffffffffffffffffffffffffff16611ae182610f90565b73ffffffffffffffffffffffffffffffffffffffff1614611b37576040517f08c379a0000000000000000000000000000000000000000000000000000000008152600401611b2e906135cf565b60405180910390fd5b600073ffffffffffffffffffffffffffffffffffffffff168273ffffffffffffffffffffffffffffffffffffffff161415611ba7576040517f08c379a0000000000000000000000000000000000000000000000000000000008152600401611b9e9061348f565b60405180910390fd5b611bb2838383612403565b611bbd60008261192a565b6001600360008573ffffffffffffffffffffffffffffffffffffffff1673ffffffffffffffffffffffffffffffffffffffff1681526020019081526020016000206000828254611c0d91906138b8565b925050819055506001600360008473ffffffffffffffffffffffffffffffffffffffff1673ffffffffffffffffffffffffffffffffffffffff1681526020019081526020016000206000828254611c649190613862565b92505081905550816002600083815260200190815260200160002060006101000a81548173ffffffffffffffffffffffffffffffffffffffff021916908373ffffffffffffffffffffffffffffffffffffffff160217905550808273ffffffffffffffffffffffffffffffffffffffff168473ffffffffffffffffffffffffffffffffffffffff167fddf252ad1be2c89b69c2b068fc378daa952ba7f163c4a11628f55a4df523b3ef60405160405180910390a4505050565b600081600001549050919050565b6001816000016000828254019250508190555050565b611d5b828260405180602001604052806000815250612408565b5050565b60405180608001604052808581526020018473ffffffffffffffffffffffffffffffffffffffff16815260200183815260200182815250600660008781526020019081526020016000206000820151816000015560208201518160010160006101000a81548173ffffffffffffffffffffffffffffffffffffffff021916908373ffffffffffffffffffffffffffffffffffffffff160217905550604082015181600201556060820151816003019080519060200190611e209291906127db565b509050507fbbd8046f2003b15c5e4858368dad2435a58ae1e6b8e64b8edab81490292e339585604051611e5391906136af565b60405180910390a15050505050565b6000600760009054906101000a900473ffffffffffffffffffffffffffffffffffffffff16905081600760006101000a81548173ffffffffffffffffffffffffffffffffffffffff021916908373ffffffffffffffffffffffffffffffffffffffff1602179055508173ffffffffffffffffffffffffffffffffffffffff168173ffffffffffffffffffffffffffffffffffffffff167f8be0079c531659141344cd1fd0a4f28419497f9722a3daafe3b4186f6b6457e060405160405180910390a35050565b6000611f3382610f90565b9050611f4181600084612403565b611f4c60008361192a565b6001600360008373ffffffffffffffffffffffffffffffffffffffff1673ffffffffffffffffffffffffffffffffffffffff1681526020019081526020016000206000828254611f9c91906138b8565b925050819055506002600083815260200190815260200160002060006101000a81549073ffffffffffffffffffffffffffffffffffffffff021916905581600073ffffffffffffffffffffffffffffffffffffffff168273ffffffffffffffffffffffffffffffffffffffff167fddf252ad1be2c89b69c2b068fc378daa952ba7f163c4a11628f55a4df523b3ef60405160405180910390a45050565b600660008281526020019081526020016000206000808201600090556001820160006101000a81549073ffffffffffffffffffffffffffffffffffffffff021916905560028201600090556003820160006120949190612861565b50507fbae674de5b60cebab59cbdf60624b8a5ba69b8baf7f2c92aeaf1a2cc183ddddf816040516120c591906136af565b60405180910390a150565b8173ffffffffffffffffffffffffffffffffffffffff168373ffffffffffffffffffffffffffffffffffffffff16141561213f576040517f08c379a0000000000000000000000000000000000000000000000000000000008152600401612136906134af565b60405180910390fd5b80600560008573ffffffffffffffffffffffffffffffffffffffff1673ffffffffffffffffffffffffffffffffffffffff16815260200190815260200160002060008473ffffffffffffffffffffffffffffffffffffffff1673ffffffffffffffffffffffffffffffffffffffff16815260200190815260200160002060006101000a81548160ff0219169083151502179055508173ffffffffffffffffffffffffffffffffffffffff168373ffffffffffffffffffffffffffffffffffffffff167f17307eab39ab6107e8899845ad3d59bd9653f200f220920489ca2b5937696c318360405161223091906133d7565b60405180910390a3505050565b612248848484611ac1565b61225484848484612463565b612293576040517f08c379a000000000000000000000000000000000000000000000000000000000815260040161228a9061342f565b60405180910390fd5b50505050565b60008390508073ffffffffffffffffffffffffffffffffffffffff166342842e0e8330866040518463ffffffff1660e01b81526004016122db93929190613354565b600060405180830381600087803b1580156122f557600080fd5b505af1158015612309573d6000803e3d6000fd5b5050505050505050565b606061231e826118b6565b61235d576040517f08c379a0000000000000000000000000000000000000000000000000000000008152600401612354906135ef565b60405180910390fd5b60066000838152602001908152602001600020600301805461237e906139b4565b80601f01602080910402602001604051908101604052809291908181526020018280546123aa906139b4565b80156123f75780601f106123cc576101008083540402835291602001916123f7565b820191906000526020600020905b8154815290600101906020018083116123da57829003601f168201915b50505050509050919050565b505050565b61241283836125fa565b61241f6000848484612463565b61245e576040517f08c379a00000000000000000000000000000000000000000000000000000000081526004016124559061342f565b60405180910390fd5b505050565b60006124848473ffffffffffffffffffffffffffffffffffffffff166127c8565b156125ed578373ffffffffffffffffffffffffffffffffffffffff1663150b7a026124ad611922565b8786866040518563ffffffff1660e01b81526004016124cf949392919061338b565b602060405180830381600087803b1580156124e957600080fd5b505af192505050801561251a57506040513d601f19601f820116820180604052508101906125179190612ec4565b60015b61259d573d806000811461254a576040519150601f19603f3d011682016040523d82523d6000602084013e61254f565b606091505b50600081511415612595576040517f08c379a000000000000000000000000000000000000000000000000000000000815260040161258c9061342f565b60405180910390fd5b805181602001fd5b63150b7a0260e01b7bffffffffffffffffffffffffffffffffffffffffffffffffffffffff1916817bffffffffffffffffffffffffffffffffffffffffffffffffffffffff1916149150506125f2565b600190505b949350505050565b600073ffffffffffffffffffffffffffffffffffffffff168273ffffffffffffffffffffffffffffffffffffffff16141561266a576040517f08c379a00000000000000000000000000000000000000000000000000000000081526004016126619061356f565b60405180910390fd5b612673816118b6565b156126b3576040517f08c379a00000000000000000000000000000000000000000000000000000000081526004016126aa9061346f565b60405180910390fd5b6126bf60008383612403565b6001600360008473ffffffffffffffffffffffffffffffffffffffff1673ffffffffffffffffffffffffffffffffffffffff168152602001908152602001600020600082825461270f9190613862565b92505081905550816002600083815260200190815260200160002060006101000a81548173ffffffffffffffffffffffffffffffffffffffff021916908373ffffffffffffffffffffffffffffffffffffffff160217905550808273ffffffffffffffffffffffffffffffffffffffff16600073ffffffffffffffffffffffffffffffffffffffff167fddf252ad1be2c89b69c2b068fc378daa952ba7f163c4a11628f55a4df523b3ef60405160405180910390a45050565b600080823b905060008111915050919050565b8280546127e7906139b4565b90600052602060002090601f0160209004810192826128095760008555612850565b82601f1061282257805160ff1916838001178555612850565b82800160010185558215612850579182015b8281111561284f578251825591602001919060010190612834565b5b50905061285d91906128a1565b5090565b50805461286d906139b4565b6000825580601f1061287f575061289e565b601f01602090049060005260206000209081019061289d91906128a1565b5b50565b5b808211156128ba5760008160009055506001016128a2565b5090565b60006128d16128cc8461379c565b613777565b905080838252602082019050828560208602820111156128f057600080fd5b60005b8581101561292057816129068882612af5565b8452602084019350602083019250506001810190506128f3565b5050509392505050565b600061293d612938846137c8565b613777565b90508281526020810184848401111561295557600080fd5b612960848285613972565b509392505050565b600061297b612976846137f9565b613777565b90508281526020810184848401111561299357600080fd5b61299e848285613972565b509392505050565b60006129b96129b4846137f9565b613777565b9050828152602081018484840111156129d157600080fd5b6129dc848285613981565b509392505050565b6000813590506129f381614046565b92915050565b600081359050612a088161405d565b92915050565b600082601f830112612a1f57600080fd5b8135612a2f8482602086016128be565b91505092915050565b600081359050612a4781614074565b92915050565b600081359050612a5c8161408b565b92915050565b600081519050612a718161408b565b92915050565b600082601f830112612a8857600080fd5b8135612a9884826020860161292a565b91505092915050565b600082601f830112612ab257600080fd5b8135612ac2848260208601612968565b91505092915050565b600082601f830112612adc57600080fd5b8151612aec8482602086016129a6565b91505092915050565b600081359050612b04816140a2565b92915050565b600060208284031215612b1c57600080fd5b6000612b2a848285016129e4565b91505092915050565b600060208284031215612b4557600080fd5b6000612b53848285016129f9565b91505092915050565b60008060408385031215612b6f57600080fd5b6000612b7d858286016129e4565b9250506020612b8e858286016129e4565b9150509250929050565b600080600060608486031215612bad57600080fd5b6000612bbb868287016129e4565b9350506020612bcc868287016129e4565b9250506040612bdd86828701612af5565b9150509250925092565b60008060008060808587031215612bfd57600080fd5b6000612c0b878288016129e4565b9450506020612c1c878288016129e4565b9350506040612c2d87828801612af5565b925050606085013567ffffffffffffffff811115612c4a57600080fd5b612c5687828801612a77565b91505092959194509250565b60008060408385031215612c7557600080fd5b6000612c83858286016129e4565b9250506020612c9485828601612a38565b9150509250929050565b60008060408385031215612cb157600080fd5b6000612cbf858286016129e4565b9250506020612cd085828601612af5565b9150509250929050565b600080600060608486031215612cef57600080fd5b6000612cfd868287016129e4565b9350506020612d0e86828701612af5565b9250506040612d1f868287016129e4565b9150509250925092565b600080600080600060a08688031215612d4157600080fd5b6000612d4f888289016129e4565b9550506020612d6088828901612af5565b9450506040612d71888289016129e4565b9350506060612d82888289016129e4565b9250506080612d9388828901612af5565b9150509295509295909350565b600080600080600060a08688031215612db857600080fd5b6000612dc6888289016129e4565b9550506020612dd788828901612af5565b9450506040612de8888289016129e4565b9350506060612df988828901612af5565b925050608086013567ffffffffffffffff811115612e1657600080fd5b612e2288828901612aa1565b9150509295509295909350565b60008060408385031215612e4257600080fd5b600083013567ffffffffffffffff811115612e5c57600080fd5b612e6885828601612a0e565b925050602083013567ffffffffffffffff811115612e8557600080fd5b612e9185828601612a0e565b9150509250929050565b600060208284031215612ead57600080fd5b6000612ebb84828501612a4d565b91505092915050565b600060208284031215612ed657600080fd5b6000612ee484828501612a62565b91505092915050565b600060208284031215612eff57600080fd5b600082015167ffffffffffffffff811115612f1957600080fd5b612f2584828501612acb565b91505092915050565b600060208284031215612f4057600080fd5b6000612f4e84828501612af5565b91505092915050565b60008060408385031215612f6a57600080fd5b6000612f7885828601612af5565b9250506020612f89858286016129e4565b9150509250929050565b60008060408385031215612fa657600080fd5b6000612fb485828601612af5565b9250506020612fc585828601612af5565b9150509250929050565b612fd8816138ec565b82525050565b612fe781613910565b82525050565b612ff68161391c565b82525050565b60006130078261382a565b6130118185613840565b9350613021818560208601613981565b61302a81613aed565b840191505092915050565b600061304082613835565b61304a8185613851565b935061305a818560208601613981565b61306381613aed565b840191505092915050565b600061307b603283613851565b915061308682613afe565b604082019050919050565b600061309e602683613851565b91506130a982613b4d565b604082019050919050565b60006130c1601c83613851565b91506130cc82613b9c565b602082019050919050565b60006130e4602483613851565b91506130ef82613bc5565b604082019050919050565b6000613107601983613851565b915061311282613c14565b602082019050919050565b600061312a602183613851565b915061313582613c3d565b604082019050919050565b600061314d602c83613851565b915061315882613c8c565b604082019050919050565b6000613170603883613851565b915061317b82613cdb565b604082019050919050565b6000613193602a83613851565b915061319e82613d2a565b604082019050919050565b60006131b6602983613851565b91506131c182613d79565b604082019050919050565b60006131d9602083613851565b91506131e482613dc8565b602082019050919050565b60006131fc602c83613851565b915061320782613df1565b604082019050919050565b600061321f602083613851565b915061322a82613e40565b602082019050919050565b6000613242602983613851565b915061324d82613e69565b604082019050919050565b6000613265602f83613851565b915061327082613eb8565b604082019050919050565b6000613288602183613851565b915061329382613f07565b604082019050919050565b60006132ab601e83613851565b91506132b682613f56565b602082019050919050565b60006132ce601083613851565b91506132d982613f7f565b602082019050919050565b60006132f1603183613851565b91506132fc82613fa8565b604082019050919050565b6000613314603083613851565b915061331f82613ff7565b604082019050919050565b61333381613968565b82525050565b600060208201905061334e6000830184612fcf565b92915050565b60006060820190506133696000830186612fcf565b6133766020830185612fcf565b613383604083018461332a565b949350505050565b60006080820190506133a06000830187612fcf565b6133ad6020830186612fcf565b6133ba604083018561332a565b81810360608301526133cc8184612ffc565b905095945050505050565b60006020820190506133ec6000830184612fde565b92915050565b60006020820190506134076000830184612fed565b92915050565b600060208201905081810360008301526134278184613035565b905092915050565b600060208201905081810360008301526134488161306e565b9050919050565b6000602082019050818103600083015261346881613091565b9050919050565b60006020820190508181036000830152613488816130b4565b9050919050565b600060208201905081810360008301526134a8816130d7565b9050919050565b600060208201905081810360008301526134c8816130fa565b9050919050565b600060208201905081810360008301526134e88161311d565b9050919050565b6000602082019050818103600083015261350881613140565b9050919050565b6000602082019050818103600083015261352881613163565b9050919050565b6000602082019050818103600083015261354881613186565b9050919050565b60006020820190508181036000830152613568816131a9565b9050919050565b60006020820190508181036000830152613588816131cc565b9050919050565b600060208201905081810360008301526135a8816131ef565b9050919050565b600060208201905081810360008301526135c881613212565b9050919050565b600060208201905081810360008301526135e881613235565b9050919050565b6000602082019050818103600083015261360881613258565b9050919050565b600060208201905081810360008301526136288161327b565b9050919050565b600060208201905081810360008301526136488161329e565b9050919050565b60006020820190508181036000830152613668816132c1565b9050919050565b60006020820190508181036000830152613688816132e4565b9050919050565b600060208201905081810360008301526136a881613307565b9050919050565b60006020820190506136c4600083018461332a565b92915050565b60006080820190506136df600083018761332a565b6136ec6020830186612fcf565b6136f9604083018561332a565b6137066060830184612fcf565b95945050505050565b600060c082019050613724600083018961332a565b6137316020830188612fcf565b61373e604083018761332a565b61374b6060830186612fcf565b613758608083018561332a565b81810360a083015261376a8184613035565b9050979650505050505050565b6000613781613792565b905061378d82826139e6565b919050565b6000604051905090565b600067ffffffffffffffff8211156137b7576137b6613abe565b5b602082029050602081019050919050565b600067ffffffffffffffff8211156137e3576137e2613abe565b5b6137ec82613aed565b9050602081019050919050565b600067ffffffffffffffff82111561381457613813613abe565b5b61381d82613aed565b9050602081019050919050565b600081519050919050565b600081519050919050565b600082825260208201905092915050565b600082825260208201905092915050565b600061386d82613968565b915061387883613968565b9250827fffffffffffffffffffffffffffffffffffffffffffffffffffffffffffffffff038211156138ad576138ac613a60565b5b828201905092915050565b60006138c382613968565b91506138ce83613968565b9250828210156138e1576138e0613a60565b5b828203905092915050565b60006138f782613948565b9050919050565b600061390982613948565b9050919050565b60008115159050919050565b60007fffffffff0000000000000000000000000000000000000000000000000000000082169050919050565b600073ffffffffffffffffffffffffffffffffffffffff82169050919050565b6000819050919050565b82818337600083830152505050565b60005b8381101561399f578082015181840152602081019050613984565b838111156139ae576000848401525b50505050565b600060028204905060018216806139cc57607f821691505b602082108114156139e0576139df613a8f565b5b50919050565b6139ef82613aed565b810181811067ffffffffffffffff82111715613a0e57613a0d613abe565b5b80604052505050565b6000613a2282613968565b91507fffffffffffffffffffffffffffffffffffffffffffffffffffffffffffffffff821415613a5557613a54613a60565b5b600182019050919050565b7f4e487b7100000000000000000000000000000000000000000000000000000000600052601160045260246000fd5b7f4e487b7100000000000000000000000000000000000000000000000000000000600052602260045260246000fd5b7f4e487b7100000000000000000000000000000000000000000000000000000000600052604160045260246000fd5b6000601f19601f8301169050919050565b7f4552433732313a207472616e7366657220746f206e6f6e20455243373231526560008201527f63656976657220696d706c656d656e7465720000000000000000000000000000602082015250565b7f4f776e61626c653a206e6577206f776e657220697320746865207a65726f206160008201527f6464726573730000000000000000000000000000000000000000000000000000602082015250565b7f4552433732313a20746f6b656e20616c7265616479206d696e74656400000000600082015250565b7f4552433732313a207472616e7366657220746f20746865207a65726f2061646460008201527f7265737300000000000000000000000000000000000000000000000000000000602082015250565b7f4552433732313a20617070726f766520746f2063616c6c657200000000000000600082015250565b7f61727261797320617265206e6f7420696e207468652073616d65206c656e676860008201527f7400000000000000000000000000000000000000000000000000000000000000602082015250565b7f4552433732313a206f70657261746f7220717565727920666f72206e6f6e657860008201527f697374656e7420746f6b656e0000000000000000000000000000000000000000602082015250565b7f4552433732313a20617070726f76652063616c6c6572206973206e6f74206f7760008201527f6e6572206e6f7220617070726f76656420666f7220616c6c0000000000000000602082015250565b7f4552433732313a2062616c616e636520717565727920666f7220746865207a6560008201527f726f206164647265737300000000000000000000000000000000000000000000602082015250565b7f4552433732313a206f776e657220717565727920666f72206e6f6e657869737460008201527f656e7420746f6b656e0000000000000000000000000000000000000000000000602082015250565b7f4552433732313a206d696e7420746f20746865207a65726f2061646472657373600082015250565b7f4552433732313a20617070726f76656420717565727920666f72206e6f6e657860008201527f697374656e7420746f6b656e0000000000000000000000000000000000000000602082015250565b7f4f776e61626c653a2063616c6c6572206973206e6f7420746865206f776e6572600082015250565b7f4552433732313a207472616e73666572206f6620746f6b656e2074686174206960008201527f73206e6f74206f776e0000000000000000000000000000000000000000000000602082015250565b7f4552433732314d657461646174613a2055524920717565727920666f72206e6f60008201527f6e6578697374656e7420746f6b656e0000000000000000000000000000000000602082015250565b7f4552433732313a20617070726f76616c20746f2063757272656e74206f776e6560008201527f7200000000000000000000000000000000000000000000000000000000000000602082015250565b7f726573747269637465642066756e6374696f6e20746f2072656c617965720000600082015250565b7f696e73756666696369656e742066656500000000000000000000000000000000600082015250565b7f4552433732313a207472616e736665722063616c6c6572206973206e6f74206f60008201527f776e6572206e6f7220617070726f766564000000000000000000000000000000602082015250565b7f4552433732314275726e61626c653a2063616c6c6572206973206e6f74206f7760008201527f6e6572206e6f7220617070726f76656400000000000000000000000000000000602082015250565b61404f816138ec565b811461405a57600080fd5b50565b614066816138fe565b811461407157600080fd5b50565b61407d81613910565b811461408857600080fd5b50565b6140948161391c565b811461409f57600080fd5b50565b6140ab81613968565b81146140b657600080fd5b5056fea26469706673582212203040b65f0410bdba95bc2f0ffed31dc1fe713cda9a06ac8287a233a4d0ef038964736f6c63430008020033",
  "linkReferences": {},
  "deployedLinkReferences": {}
}