{
  "_format": "hh-sol-artifact-1",
  "contractName": "ConcatenateString",
  "sourceName": "contracts/utils/ConcatenateString.sol",
  "abi": [
    {
      "inputs": [
        {
          "internalType": "string",
          "name": "text",
          "type": "string"
        },
        {
          "internalType": "string",
          "name": "suffix",
          "type": "string"
        }
      ],
      "name": "append",
      "outputs": [
        {
          "internalType": "string",
          "name": "",
          "type": "string"
        }
      ],
      "stateMutability": "pure",
      "type": "function"
    }
  ],
  "bytecode": "0x6103a8610053600b82828239805160001a607314610046577f4e487b7100000000000000000000000000000000000000000000000000000000600052600060045260246000fd5b30600052607381538281f3fe73000000000000000000000000000000000000000030146080604052600436106100355760003560e01c8063591c515f1461003a575b600080fd5b610054600480360381019061004f91906101f0565b61006a565b60405161006191906102f0565b60405180910390f35b6060828260405160200161007f92919061034e565b604051602081830303815290604052905092915050565b6000604051905090565b600080fd5b600080fd5b600080fd5b600080fd5b6000601f19601f8301169050919050565b7f4e487b7100000000000000000000000000000000000000000000000000000000600052604160045260246000fd5b6100fd826100b4565b810181811067ffffffffffffffff8211171561011c5761011b6100c5565b5b80604052505050565b600061012f610096565b905061013b82826100f4565b919050565b600067ffffffffffffffff82111561015b5761015a6100c5565b5b610164826100b4565b9050602081019050919050565b82818337600083830152505050565b600061019361018e84610140565b610125565b9050828152602081018484840111156101af576101ae6100af565b5b6101ba848285610171565b509392505050565b600082601f8301126101d7576101d66100aa565b5b81356101e7848260208601610180565b91505092915050565b60008060408385031215610207576102066100a0565b5b600083013567ffffffffffffffff811115610225576102246100a5565b5b610231858286016101c2565b925050602083013567ffffffffffffffff811115610252576102516100a5565b5b61025e858286016101c2565b9150509250929050565b600081519050919050565b600082825260208201905092915050565b60005b838110156102a2578082015181840152602081019050610287565b838111156102b1576000848401525b50505050565b60006102c282610268565b6102cc8185610273565b93506102dc818560208601610284565b6102e5816100b4565b840191505092915050565b6000602082019050818103600083015261030a81846102b7565b905092915050565b600081905092915050565b600061032882610268565b6103328185610312565b9350610342818560208601610284565b80840191505092915050565b600061035a828561031d565b9150610366828461031d565b9150819050939250505056fea2646970667358221220c6e33d4b813fdf12f746b9b4a7f2fdf90fa26d0302a5773ec1738009c0a4dc6964736f6c634300080b0033",
  "linkReferences": {},
  "deployedLinkReferences": {}
}