{
  "_format": "hh-sol-artifact-1",
  "contractName": "IdCard",
  "sourceName": "contracts/IdCard/IdCard.sol",
  "abi": [
    {
      "inputs": [],
      "stateMutability": "nonpayable",
      "type": "constructor"
    },
    {
      "anonymous": false,
      "inputs": [
        {
          "indexed": true,
          "internalType": "address",
          "name": "owner",
          "type": "address"
        },
        {
          "indexed": true,
          "internalType": "address",
          "name": "approved",
          "type": "address"
        },
        {
          "indexed": true,
          "internalType": "uint256",
          "name": "tokenId",
          "type": "uint256"
        }
      ],
      "name": "Approval",
      "type": "event"
    },
    {
      "anonymous": false,
      "inputs": [
        {
          "indexed": true,
          "internalType": "address",
          "name": "owner",
          "type": "address"
        },
        {
          "indexed": true,
          "internalType": "address",
          "name": "operator",
          "type": "address"
        },
        {
          "indexed": false,
          "internalType": "bool",
          "name": "approved",
          "type": "bool"
        }
      ],
      "name": "ApprovalForAll",
      "type": "event"
    },
    {
      "anonymous": false,
      "inputs": [
        {
          "indexed": true,
          "internalType": "address",
          "name": "previousOwner",
          "type": "address"
        },
        {
          "indexed": true,
          "internalType": "address",
          "name": "newOwner",
          "type": "address"
        }
      ],
      "name": "OwnershipTransferred",
      "type": "event"
    },
    {
      "anonymous": false,
      "inputs": [
        {
          "indexed": false,
          "internalType": "address",
          "name": "account",
          "type": "address"
        }
      ],
      "name": "Paused",
      "type": "event"
    },
    {
      "anonymous": false,
      "inputs": [
        {
          "indexed": true,
          "internalType": "address",
          "name": "from",
          "type": "address"
        },
        {
          "indexed": true,
          "internalType": "address",
          "name": "to",
          "type": "address"
        },
        {
          "indexed": true,
          "internalType": "uint256",
          "name": "tokenId",
          "type": "uint256"
        }
      ],
      "name": "Transfer",
      "type": "event"
    },
    {
      "anonymous": false,
      "inputs": [
        {
          "indexed": false,
          "internalType": "address",
          "name": "account",
          "type": "address"
        }
      ],
      "name": "Unpaused",
      "type": "event"
    },
    {
      "inputs": [
        {
          "internalType": "bytes32",
          "name": "tag",
          "type": "bytes32"
        }
      ],
      "name": "ContDataGetAddress",
      "outputs": [
        {
          "internalType": "address",
          "name": "data",
          "type": "address"
        }
      ],
      "stateMutability": "view",
      "type": "function"
    },
    {
      "inputs": [
        {
          "internalType": "bytes32",
          "name": "tag",
          "type": "bytes32"
        }
      ],
      "name": "ContDataGetBool",
      "outputs": [
        {
          "internalType": "bool",
          "name": "data",
          "type": "bool"
        }
      ],
      "stateMutability": "view",
      "type": "function"
    },
    {
      "inputs": [
        {
          "internalType": "bytes32",
          "name": "tag",
          "type": "bytes32"
        }
      ],
      "name": "ContDataGetBytes",
      "outputs": [
        {
          "internalType": "bytes",
          "name": "data",
          "type": "bytes"
        }
      ],
      "stateMutability": "view",
      "type": "function"
    },
    {
      "inputs": [
        {
          "internalType": "bytes32",
          "name": "tag",
          "type": "bytes32"
        }
      ],
      "name": "ContDataGetInt",
      "outputs": [
        {
          "internalType": "int256",
          "name": "data",
          "type": "int256"
        }
      ],
      "stateMutability": "view",
      "type": "function"
    },
    {
      "inputs": [
        {
          "internalType": "bytes32",
          "name": "tag",
          "type": "bytes32"
        }
      ],
      "name": "ContDataGetString",
      "outputs": [
        {
          "internalType": "string",
          "name": "data",
          "type": "string"
        }
      ],
      "stateMutability": "view",
      "type": "function"
    },
    {
      "inputs": [
        {
          "internalType": "bytes32",
          "name": "tag",
          "type": "bytes32"
        }
      ],
      "name": "ContDataGetUint",
      "outputs": [
        {
          "internalType": "uint256",
          "name": "data",
          "type": "uint256"
        }
      ],
      "stateMutability": "view",
      "type": "function"
    },
    {
      "inputs": [
        {
          "internalType": "address",
          "name": "to",
          "type": "address"
        },
        {
          "internalType": "uint256",
          "name": "tokenId",
          "type": "uint256"
        }
      ],
      "name": "approve",
      "outputs": [],
      "stateMutability": "nonpayable",
      "type": "function"
    },
    {
      "inputs": [
        {
          "internalType": "uint256",
          "name": "userId",
          "type": "uint256"
        }
      ],
      "name": "balanceInWei",
      "outputs": [
        {
          "internalType": "uint256",
          "name": "",
          "type": "uint256"
        }
      ],
      "stateMutability": "view",
      "type": "function"
    },
    {
      "inputs": [
        {
          "internalType": "address",
          "name": "owner",
          "type": "address"
        }
      ],
      "name": "balanceOf",
      "outputs": [
        {
          "internalType": "uint256",
          "name": "",
          "type": "uint256"
        }
      ],
      "stateMutability": "view",
      "type": "function"
    },
    {
      "inputs": [
        {
          "internalType": "uint256",
          "name": "tokenId",
          "type": "uint256"
        }
      ],
      "name": "burn",
      "outputs": [],
      "stateMutability": "nonpayable",
      "type": "function"
    },
    {
      "inputs": [
        {
          "internalType": "uint256",
          "name": "tokenId",
          "type": "uint256"
        }
      ],
      "name": "getApproved",
      "outputs": [
        {
          "internalType": "address",
          "name": "",
          "type": "address"
        }
      ],
      "stateMutability": "view",
      "type": "function"
    },
    {
      "inputs": [
        {
          "internalType": "address",
          "name": "owner",
          "type": "address"
        },
        {
          "internalType": "address",
          "name": "operator",
          "type": "address"
        }
      ],
      "name": "isApprovedForAll",
      "outputs": [
        {
          "internalType": "bool",
          "name": "",
          "type": "bool"
        }
      ],
      "stateMutability": "view",
      "type": "function"
    },
    {
      "inputs": [],
      "name": "name",
      "outputs": [
        {
          "internalType": "string",
          "name": "",
          "type": "string"
        }
      ],
      "stateMutability": "view",
      "type": "function"
    },
    {
      "inputs": [],
      "name": "owner",
      "outputs": [
        {
          "internalType": "address",
          "name": "",
          "type": "address"
        }
      ],
      "stateMutability": "view",
      "type": "function"
    },
    {
      "inputs": [
        {
          "internalType": "uint256",
          "name": "tokenId",
          "type": "uint256"
        }
      ],
      "name": "ownerOf",
      "outputs": [
        {
          "internalType": "address",
          "name": "",
          "type": "address"
        }
      ],
      "stateMutability": "view",
      "type": "function"
    },
    {
      "inputs": [
        {
          "internalType": "address",
          "name": "owner",
          "type": "address"
        }
      ],
      "name": "ownsToken",
      "outputs": [
        {
          "internalType": "bool",
          "name": "",
          "type": "bool"
        }
      ],
      "stateMutability": "view",
      "type": "function"
    },
    {
      "inputs": [],
      "name": "pause",
      "outputs": [],
      "stateMutability": "nonpayable",
      "type": "function"
    },
    {
      "inputs": [],
      "name": "paused",
      "outputs": [
        {
          "internalType": "bool",
          "name": "",
          "type": "bool"
        }
      ],
      "stateMutability": "view",
      "type": "function"
    },
    {
      "inputs": [],
      "name": "renounceOwnership",
      "outputs": [],
      "stateMutability": "nonpayable",
      "type": "function"
    },
    {
      "inputs": [
        {
          "internalType": "address",
          "name": "from",
          "type": "address"
        },
        {
          "internalType": "address",
          "name": "to",
          "type": "address"
        },
        {
          "internalType": "uint256",
          "name": "tokenId",
          "type": "uint256"
        }
      ],
      "name": "safeTransferFrom",
      "outputs": [],
      "stateMutability": "nonpayable",
      "type": "function"
    },
    {
      "inputs": [
        {
          "internalType": "address",
          "name": "from",
          "type": "address"
        },
        {
          "internalType": "address",
          "name": "to",
          "type": "address"
        },
        {
          "internalType": "uint256",
          "name": "tokenId",
          "type": "uint256"
        },
        {
          "internalType": "bytes",
          "name": "_data",
          "type": "bytes"
        }
      ],
      "name": "safeTransferFrom",
      "outputs": [],
      "stateMutability": "nonpayable",
      "type": "function"
    },
    {
      "inputs": [
        {
          "internalType": "address",
          "name": "operator",
          "type": "address"
        },
        {
          "internalType": "bool",
          "name": "approved",
          "type": "bool"
        }
      ],
      "name": "setApprovalForAll",
      "outputs": [],
      "stateMutability": "nonpayable",
      "type": "function"
    },
    {
      "inputs": [
        {
          "internalType": "bytes4",
          "name": "interfaceId",
          "type": "bytes4"
        }
      ],
      "name": "supportsInterface",
      "outputs": [
        {
          "internalType": "bool",
          "name": "",
          "type": "bool"
        }
      ],
      "stateMutability": "view",
      "type": "function"
    },
    {
      "inputs": [],
      "name": "symbol",
      "outputs": [
        {
          "internalType": "string",
          "name": "",
          "type": "string"
        }
      ],
      "stateMutability": "view",
      "type": "function"
    },
    {
      "inputs": [
        {
          "internalType": "address",
          "name": "owner",
          "type": "address"
        }
      ],
      "name": "tokenOf",
      "outputs": [
        {
          "internalType": "uint256",
          "name": "",
          "type": "uint256"
        }
      ],
      "stateMutability": "view",
      "type": "function"
    },
    {
      "inputs": [
        {
          "internalType": "uint256",
          "name": "tokenId",
          "type": "uint256"
        }
      ],
      "name": "tokenURI",
      "outputs": [
        {
          "internalType": "string",
          "name": "",
          "type": "string"
        }
      ],
      "stateMutability": "view",
      "type": "function"
    },
    {
      "inputs": [
        {
          "internalType": "address",
          "name": "from",
          "type": "address"
        },
        {
          "internalType": "address",
          "name": "to",
          "type": "address"
        },
        {
          "internalType": "uint256",
          "name": "tokenId",
          "type": "uint256"
        }
      ],
      "name": "transferFrom",
      "outputs": [],
      "stateMutability": "nonpayable",
      "type": "function"
    },
    {
      "inputs": [
        {
          "internalType": "address",
          "name": "newOwner",
          "type": "address"
        }
      ],
      "name": "transferOwnership",
      "outputs": [],
      "stateMutability": "nonpayable",
      "type": "function"
    },
    {
      "inputs": [],
      "name": "unpause",
      "outputs": [],
      "stateMutability": "nonpayable",
      "type": "function"
    },
    {
      "inputs": [],
      "name": "withdraw",
      "outputs": [],
      "stateMutability": "nonpayable",
      "type": "function"
    }
  ],
  "bytecode": "0x60806040523480156200001157600080fd5b506040518060400160405280600681526020017f49644361726400000000000000000000000000000000000000000000000000008152506040518060400160405280600381526020017f4944430000000000000000000000000000000000000000000000000000000000815250733e76c03d6f4cb0ea6e930f77924beb90fda2b80c6000806101000a81548173ffffffffffffffffffffffffffffffffffffffff021916908373ffffffffffffffffffffffffffffffffffffffff1602179055508160019080519060200190620000ea929190620008d9565b50806002908051906020019062000103929190620008d9565b5050506000600860006101000a81548160ff02191690831515021790555062000141620001356200016960201b60201c565b6200017160201b60201c565b62000163620001556200023760201b60201c565b60006200026160201b60201c565b62000f95565b600033905090565b6000600860019054906101000a900473ffffffffffffffffffffffffffffffffffffffff16905081600860016101000a81548173ffffffffffffffffffffffffffffffffffffffff021916908373ffffffffffffffffffffffffffffffffffffffff1602179055508173ffffffffffffffffffffffffffffffffffffffff168173ffffffffffffffffffffffffffffffffffffffff167f8be0079c531659141344cd1fd0a4f28419497f9722a3daafe3b4186f6b6457e060405160405180910390a35050565b6000600860019054906101000a900473ffffffffffffffffffffffffffffffffffffffff16905090565b620002838282604051806020016040528060008152506200028760201b60201c565b5050565b620002998383620002f560201b60201c565b620002ae6000848484620004db60201b60201c565b620002f0576040517f08c379a0000000000000000000000000000000000000000000000000000000008152600401620002e79062000a10565b60405180910390fd5b505050565b600073ffffffffffffffffffffffffffffffffffffffff168273ffffffffffffffffffffffffffffffffffffffff16141562000368576040517f08c379a00000000000000000000000000000000000000000000000000000000081526004016200035f9062000a82565b60405180910390fd5b62000379816200068560201b60201c565b15620003bc576040517f08c379a0000000000000000000000000000000000000000000000000000000008152600401620003b39062000af4565b60405180910390fd5b620003d060008383620006f160201b60201c565b6001600460008473ffffffffffffffffffffffffffffffffffffffff1673ffffffffffffffffffffffffffffffffffffffff168152602001908152602001600020600082825462000422919062000b4f565b92505081905550816003600083815260200190815260200160002060006101000a81548173ffffffffffffffffffffffffffffffffffffffff021916908373ffffffffffffffffffffffffffffffffffffffff160217905550808273ffffffffffffffffffffffffffffffffffffffff16600073ffffffffffffffffffffffffffffffffffffffff167fddf252ad1be2c89b69c2b068fc378daa952ba7f163c4a11628f55a4df523b3ef60405160405180910390a45050565b6000620005098473ffffffffffffffffffffffffffffffffffffffff166200076160201b6200150e1760201c565b1562000678578373ffffffffffffffffffffffffffffffffffffffff1663150b7a026200053b6200016960201b60201c565b8786866040518563ffffffff1660e01b81526004016200055f949392919062000ca6565b6020604051808303816000875af19250505080156200059e57506040513d601f19601f820116820180604052508101906200059b919062000d5c565b60015b62000627573d8060008114620005d1576040519150601f19603f3d011682016040523d82523d6000602084013e620005d6565b606091505b506000815114156200061f576040517f08c379a0000000000000000000000000000000000000000000000000000000008152600401620006169062000a10565b60405180910390fd5b805181602001fd5b63150b7a0260e01b7bffffffffffffffffffffffffffffffffffffffffffffffffffffffff1916817bffffffffffffffffffffffffffffffffffffffffffffffffffffffff1916149150506200067d565b600190505b949350505050565b60008073ffffffffffffffffffffffffffffffffffffffff166003600084815260200190815260200160002060009054906101000a900473ffffffffffffffffffffffffffffffffffffffff1673ffffffffffffffffffffffffffffffffffffffff1614159050919050565b620007016200077460201b60201c565b1562000744576040517f08c379a00000000000000000000000000000000000000000000000000000000081526004016200073b9062000dde565b60405180910390fd5b6200075c8383836200078b60201b620015211760201c565b505050565b600080823b905060008111915050919050565b6000600860009054906101000a900460ff16905090565b620007a3838383620007fc60201b6200157a1760201c565b620007b4826200080160201b60201c565b15620007f7576040517f08c379a0000000000000000000000000000000000000000000000000000000008152600401620007ee9062000e76565b60405180910390fd5b505050565b505050565b60008062000815836200081e60201b60201c565b14159050919050565b60008073ffffffffffffffffffffffffffffffffffffffff168273ffffffffffffffffffffffffffffffffffffffff16141562000892576040517f08c379a0000000000000000000000000000000000000000000000000000000008152600401620008899062000f0e565b60405180910390fd5b600460008373ffffffffffffffffffffffffffffffffffffffff1673ffffffffffffffffffffffffffffffffffffffff168152602001908152602001600020549050919050565b828054620008e79062000f5f565b90600052602060002090601f0160209004810192826200090b576000855562000957565b82601f106200092657805160ff191683800117855562000957565b8280016001018555821562000957579182015b828111156200095657825182559160200191906001019062000939565b5b5090506200096691906200096a565b5090565b5b80821115620009855760008160009055506001016200096b565b5090565b600082825260208201905092915050565b7f4552433732313a207472616e7366657220746f206e6f6e20455243373231526560008201527f63656976657220696d706c656d656e7465720000000000000000000000000000602082015250565b6000620009f860328362000989565b915062000a05826200099a565b604082019050919050565b6000602082019050818103600083015262000a2b81620009e9565b9050919050565b7f4552433732313a206d696e7420746f20746865207a65726f2061646472657373600082015250565b600062000a6a60208362000989565b915062000a778262000a32565b602082019050919050565b6000602082019050818103600083015262000a9d8162000a5b565b9050919050565b7f4552433732313a20746f6b656e20616c7265616479206d696e74656400000000600082015250565b600062000adc601c8362000989565b915062000ae98262000aa4565b602082019050919050565b6000602082019050818103600083015262000b0f8162000acd565b9050919050565b6000819050919050565b7f4e487b7100000000000000000000000000000000000000000000000000000000600052601160045260246000fd5b600062000b5c8262000b16565b915062000b698362000b16565b9250827fffffffffffffffffffffffffffffffffffffffffffffffffffffffffffffffff0382111562000ba15762000ba062000b20565b5b828201905092915050565b600073ffffffffffffffffffffffffffffffffffffffff82169050919050565b600062000bd98262000bac565b9050919050565b62000beb8162000bcc565b82525050565b62000bfc8162000b16565b82525050565b600081519050919050565b600082825260208201905092915050565b60005b8381101562000c3e57808201518184015260208101905062000c21565b8381111562000c4e576000848401525b50505050565b6000601f19601f8301169050919050565b600062000c728262000c02565b62000c7e818562000c0d565b935062000c9081856020860162000c1e565b62000c9b8162000c54565b840191505092915050565b600060808201905062000cbd600083018762000be0565b62000ccc602083018662000be0565b62000cdb604083018562000bf1565b818103606083015262000cef818462000c65565b905095945050505050565b600080fd5b60007fffffffff0000000000000000000000000000000000000000000000000000000082169050919050565b62000d368162000cff565b811462000d4257600080fd5b50565b60008151905062000d568162000d2b565b92915050565b60006020828403121562000d755762000d7462000cfa565b5b600062000d858482850162000d45565b91505092915050565b7f5061757361626c653a2070617573656400000000000000000000000000000000600082015250565b600062000dc660108362000989565b915062000dd38262000d8e565b602082019050919050565b6000602082019050818103600083015262000df98162000db7565b9050919050565b7f455243373231556e636f6c6c65637469626c653a20746869732061646472657360008201527f7320646f65732068617665206120746f6b656e00000000000000000000000000602082015250565b600062000e5e60338362000989565b915062000e6b8262000e00565b604082019050919050565b6000602082019050818103600083015262000e918162000e4f565b9050919050565b7f4552433732313a2062616c616e636520717565727920666f7220746865207a6560008201527f726f206164647265737300000000000000000000000000000000000000000000602082015250565b600062000ef6602a8362000989565b915062000f038262000e98565b604082019050919050565b6000602082019050818103600083015262000f298162000ee7565b9050919050565b7f4e487b7100000000000000000000000000000000000000000000000000000000600052602260045260246000fd5b6000600282049050600182168062000f7857607f821691505b6020821081141562000f8f5762000f8e62000f30565b5b50919050565b613d168062000fa56000396000f3fe608060405234801561001057600080fd5b50600436106101da5760003560e01c80636352211e116101045780638da5cb5b116100a2578063b88d4fde11610071578063b88d4fde1461057b578063c87b56dd14610597578063e985e9c5146105c7578063f2fde38b146105f7576101da565b80638da5cb5b146104f357806394f6552a1461051157806395d89b4114610541578063a22cb4651461055f576101da565b806370a08231116100de57806370a082311461047f578063715018a6146104af5780638456cb59146104b95780638990a663146104c3576101da565b80636352211e146103ef578063638e23291461041f57806366ba52891461044f576101da565b806323b872dd1161017c57806342842e0e1161014b57806342842e0e1461036957806342966c681461038557806342ec38e2146103a15780635c975abb146103d1576101da565b806323b872dd146103095780632b9c040f146103255780633ccfd60b146103555780633f4ba83a1461035f576101da565b8063081812fc116101b8578063081812fc1461025d578063095ea7b31461028d578063190f7478146102a95780631a379423146102d9576101da565b806301ffc9a7146101df57806305c063b41461020f57806306fdde031461023f575b600080fd5b6101f960048036038101906101f491906125ae565b610613565b60405161020691906125f6565b60405180910390f35b61022960048036038101906102249190612647565b6106f5565b604051610236919061270d565b60405180910390f35b61024761079d565b604051610254919061270d565b60405180910390f35b61027760048036038101906102729190612765565b61082f565b60405161028491906127d3565b60405180910390f35b6102a760048036038101906102a2919061281a565b6108b4565b005b6102c360048036038101906102be9190612647565b6109cc565b6040516102d091906127d3565b60405180910390f35b6102f360048036038101906102ee919061285a565b610a70565b60405161030091906125f6565b60405180910390f35b610323600480360381019061031e9190612887565b610a85565b005b61033f600480360381019061033a9190612765565b610ae5565b60405161034c91906128e9565b60405180910390f35b61035d610b02565b005b610367610b86565b005b610383600480360381019061037e9190612887565b610c0c565b005b61039f600480360381019061039a9190612765565b610c2c565b005b6103bb60048036038101906103b6919061285a565b610c88565b6040516103c891906128e9565b60405180910390f35b6103d9610d19565b6040516103e691906125f6565b60405180910390f35b61040960048036038101906104049190612765565b610d30565b60405161041691906127d3565b60405180910390f35b61043960048036038101906104349190612647565b610de2565b6040516104469190612959565b60405180910390f35b61046960048036038101906104649190612647565b610e8a565b60405161047691906125f6565b60405180910390f35b6104996004803603810190610494919061285a565b610f2e565b6040516104a691906128e9565b60405180910390f35b6104b7610fe6565b005b6104c161106e565b005b6104dd60048036038101906104d89190612647565b6110f4565b6040516104ea91906128e9565b60405180910390f35b6104fb611198565b60405161050891906127d3565b60405180910390f35b61052b60048036038101906105269190612647565b6111c2565b6040516105389190612994565b60405180910390f35b610549611266565b604051610556919061270d565b60405180910390f35b610579600480360381019061057491906129db565b6112f8565b005b61059560048036038101906105909190612b50565b61130e565b005b6105b160048036038101906105ac9190612765565b611370565b6040516105be919061270d565b60405180910390f35b6105e160048036038101906105dc9190612bd3565b611382565b6040516105ee91906125f6565b60405180910390f35b610611600480360381019061060c919061285a565b611416565b005b60007f80ac58cd000000000000000000000000000000000000000000000000000000007bffffffffffffffffffffffffffffffffffffffffffffffffffffffff1916827bffffffffffffffffffffffffffffffffffffffffffffffffffffffff191614806106de57507f5b5e139f000000000000000000000000000000000000000000000000000000007bffffffffffffffffffffffffffffffffffffffffffffffffffffffff1916827bffffffffffffffffffffffffffffffffffffffffffffffffffffffff1916145b806106ee57506106ed8261157f565b5b9050919050565b606060008054906101000a900473ffffffffffffffffffffffffffffffffffffffff1673ffffffffffffffffffffffffffffffffffffffff1663986e791a836040518263ffffffff1660e01b81526004016107509190612c22565b600060405180830381865afa15801561076d573d6000803e3d6000fd5b505050506040513d6000823e3d601f19601f820116820180604052508101906107969190612cde565b9050919050565b6060600180546107ac90612d56565b80601f01602080910402602001604051908101604052809291908181526020018280546107d890612d56565b80156108255780601f106107fa57610100808354040283529160200191610825565b820191906000526020600020905b81548152906001019060200180831161080857829003601f168201915b5050505050905090565b600061083a826115e9565b610879576040517f08c379a000000000000000000000000000000000000000000000000000000000815260040161087090612dfa565b60405180910390fd5b6005600083815260200190815260200160002060009054906101000a900473ffffffffffffffffffffffffffffffffffffffff169050919050565b60006108bf82610d30565b90508073ffffffffffffffffffffffffffffffffffffffff168373ffffffffffffffffffffffffffffffffffffffff161415610930576040517f08c379a000000000000000000000000000000000000000000000000000000000815260040161092790612e8c565b60405180910390fd5b8073ffffffffffffffffffffffffffffffffffffffff1661094f611655565b73ffffffffffffffffffffffffffffffffffffffff16148061097e575061097d81610978611655565b611382565b5b6109bd576040517f08c379a00000000000000000000000000000000000000000000000000000000081526004016109b490612f1e565b60405180910390fd5b6109c7838361165d565b505050565b60008060009054906101000a900473ffffffffffffffffffffffffffffffffffffffff1673ffffffffffffffffffffffffffffffffffffffff166321f8a721836040518263ffffffff1660e01b8152600401610a289190612c22565b602060405180830381865afa158015610a45573d6000803e3d6000fd5b505050506040513d601f19601f82011682018060405250810190610a699190612f53565b9050919050565b600080610a7c83610f2e565b14159050919050565b610a96610a90611655565b82611716565b610ad5576040517f08c379a0000000000000000000000000000000000000000000000000000000008152600401610acc90612ff2565b60405180910390fd5b610ae08383836117f4565b505050565b6000600a6000838152602001908152602001600020549050919050565b60003390506000610b1282610c88565b90506000610b1f82610ae5565b90506000600a6000848152602001908152602001600020819055508273ffffffffffffffffffffffffffffffffffffffff166108fc829081150290604051600060405180830381858888f19350505050158015610b80573d6000803e3d6000fd5b50505050565b610b8e611655565b73ffffffffffffffffffffffffffffffffffffffff16610bac611198565b73ffffffffffffffffffffffffffffffffffffffff1614610c02576040517f08c379a0000000000000000000000000000000000000000000000000000000008152600401610bf99061305e565b60405180910390fd5b610c0a611a50565b565b610c278383836040518060200160405280600081525061130e565b505050565b610c3d610c37611655565b82611716565b610c7c576040517f08c379a0000000000000000000000000000000000000000000000000000000008152600401610c73906130f0565b60405180910390fd5b610c8581611af2565b50565b6000610c9382610a70565b610cd2576040517f08c379a0000000000000000000000000000000000000000000000000000000008152600401610cc990613182565b60405180910390fd5b600960008373ffffffffffffffffffffffffffffffffffffffff1673ffffffffffffffffffffffffffffffffffffffff168152602001908152602001600020549050919050565b6000600860009054906101000a900460ff16905090565b6000806003600084815260200190815260200160002060009054906101000a900473ffffffffffffffffffffffffffffffffffffffff169050600073ffffffffffffffffffffffffffffffffffffffff168173ffffffffffffffffffffffffffffffffffffffff161415610dd9576040517f08c379a0000000000000000000000000000000000000000000000000000000008152600401610dd090613214565b60405180910390fd5b80915050919050565b606060008054906101000a900473ffffffffffffffffffffffffffffffffffffffff1673ffffffffffffffffffffffffffffffffffffffff1663c031a180836040518263ffffffff1660e01b8152600401610e3d9190612c22565b600060405180830381865afa158015610e5a573d6000803e3d6000fd5b505050506040513d6000823e3d601f19601f82011682018060405250810190610e8391906132a4565b9050919050565b60008060009054906101000a900473ffffffffffffffffffffffffffffffffffffffff1673ffffffffffffffffffffffffffffffffffffffff16637ae1cfca836040518263ffffffff1660e01b8152600401610ee69190612c22565b602060405180830381865afa158015610f03573d6000803e3d6000fd5b505050506040513d601f19601f82011682018060405250810190610f279190613302565b9050919050565b60008073ffffffffffffffffffffffffffffffffffffffff168273ffffffffffffffffffffffffffffffffffffffff161415610f9f576040517f08c379a0000000000000000000000000000000000000000000000000000000008152600401610f96906133a1565b60405180910390fd5b600460008373ffffffffffffffffffffffffffffffffffffffff1673ffffffffffffffffffffffffffffffffffffffff168152602001908152602001600020549050919050565b610fee611655565b73ffffffffffffffffffffffffffffffffffffffff1661100c611198565b73ffffffffffffffffffffffffffffffffffffffff1614611062576040517f08c379a00000000000000000000000000000000000000000000000000000000081526004016110599061305e565b60405180910390fd5b61106c6000611afe565b565b611076611655565b73ffffffffffffffffffffffffffffffffffffffff16611094611198565b73ffffffffffffffffffffffffffffffffffffffff16146110ea576040517f08c379a00000000000000000000000000000000000000000000000000000000081526004016110e19061305e565b60405180910390fd5b6110f2611bc4565b565b60008060009054906101000a900473ffffffffffffffffffffffffffffffffffffffff1673ffffffffffffffffffffffffffffffffffffffff1663bd02d0f5836040518263ffffffff1660e01b81526004016111509190612c22565b602060405180830381865afa15801561116d573d6000803e3d6000fd5b505050506040513d601f19601f8201168201806040525081019061119191906133d6565b9050919050565b6000600860019054906101000a900473ffffffffffffffffffffffffffffffffffffffff16905090565b60008060009054906101000a900473ffffffffffffffffffffffffffffffffffffffff1673ffffffffffffffffffffffffffffffffffffffff1663dc97d962836040518263ffffffff1660e01b815260040161121e9190612c22565b602060405180830381865afa15801561123b573d6000803e3d6000fd5b505050506040513d601f19601f8201168201806040525081019061125f919061342f565b9050919050565b60606002805461127590612d56565b80601f01602080910402602001604051908101604052809291908181526020018280546112a190612d56565b80156112ee5780601f106112c3576101008083540402835291602001916112ee565b820191906000526020600020905b8154815290600101906020018083116112d157829003601f168201915b5050505050905090565b61130a611303611655565b8383611c67565b5050565b61131f611319611655565b83611716565b61135e576040517f08c379a000000000000000000000000000000000000000000000000000000000815260040161135590612ff2565b60405180910390fd5b61136a84848484611dd4565b50505050565b606061137b82611e30565b9050919050565b6000600660008473ffffffffffffffffffffffffffffffffffffffff1673ffffffffffffffffffffffffffffffffffffffff16815260200190815260200160002060008373ffffffffffffffffffffffffffffffffffffffff1673ffffffffffffffffffffffffffffffffffffffff16815260200190815260200160002060009054906101000a900460ff16905092915050565b61141e611655565b73ffffffffffffffffffffffffffffffffffffffff1661143c611198565b73ffffffffffffffffffffffffffffffffffffffff1614611492576040517f08c379a00000000000000000000000000000000000000000000000000000000081526004016114899061305e565b60405180910390fd5b600073ffffffffffffffffffffffffffffffffffffffff168173ffffffffffffffffffffffffffffffffffffffff161415611502576040517f08c379a00000000000000000000000000000000000000000000000000000000081526004016114f9906134ce565b60405180910390fd5b61150b81611afe565b50565b600080823b905060008111915050919050565b61152c83838361157a565b61153582610a70565b15611575576040517f08c379a000000000000000000000000000000000000000000000000000000000815260040161156c90613560565b60405180910390fd5b505050565b505050565b60007f01ffc9a7000000000000000000000000000000000000000000000000000000007bffffffffffffffffffffffffffffffffffffffffffffffffffffffff1916827bffffffffffffffffffffffffffffffffffffffffffffffffffffffff1916149050919050565b60008073ffffffffffffffffffffffffffffffffffffffff166003600084815260200190815260200160002060009054906101000a900473ffffffffffffffffffffffffffffffffffffffff1673ffffffffffffffffffffffffffffffffffffffff1614159050919050565b600033905090565b816005600083815260200190815260200160002060006101000a81548173ffffffffffffffffffffffffffffffffffffffff021916908373ffffffffffffffffffffffffffffffffffffffff160217905550808273ffffffffffffffffffffffffffffffffffffffff166116d083610d30565b73ffffffffffffffffffffffffffffffffffffffff167f8c5be1e5ebec7d5bd14f71427d1e84f3dd0314c0f7b2291e5b200ac8c7c3b92560405160405180910390a45050565b6000611721826115e9565b611760576040517f08c379a0000000000000000000000000000000000000000000000000000000008152600401611757906135f2565b60405180910390fd5b600061176b83610d30565b90508073ffffffffffffffffffffffffffffffffffffffff168473ffffffffffffffffffffffffffffffffffffffff1614806117da57508373ffffffffffffffffffffffffffffffffffffffff166117c28461082f565b73ffffffffffffffffffffffffffffffffffffffff16145b806117eb57506117ea8185611382565b5b91505092915050565b8273ffffffffffffffffffffffffffffffffffffffff1661181482610d30565b73ffffffffffffffffffffffffffffffffffffffff161461186a576040517f08c379a000000000000000000000000000000000000000000000000000000000815260040161186190613684565b60405180910390fd5b600073ffffffffffffffffffffffffffffffffffffffff168273ffffffffffffffffffffffffffffffffffffffff1614156118da576040517f08c379a00000000000000000000000000000000000000000000000000000000081526004016118d190613716565b60405180910390fd5b6118e5838383611f82565b6118f060008261165d565b6001600460008573ffffffffffffffffffffffffffffffffffffffff1673ffffffffffffffffffffffffffffffffffffffff16815260200190815260200160002060008282546119409190613765565b925050819055506001600460008473ffffffffffffffffffffffffffffffffffffffff1673ffffffffffffffffffffffffffffffffffffffff16815260200190815260200160002060008282546119979190613799565b92505081905550816003600083815260200190815260200160002060006101000a81548173ffffffffffffffffffffffffffffffffffffffff021916908373ffffffffffffffffffffffffffffffffffffffff160217905550808273ffffffffffffffffffffffffffffffffffffffff168473ffffffffffffffffffffffffffffffffffffffff167fddf252ad1be2c89b69c2b068fc378daa952ba7f163c4a11628f55a4df523b3ef60405160405180910390a4505050565b611a58610d19565b611a97576040517f08c379a0000000000000000000000000000000000000000000000000000000008152600401611a8e9061383b565b60405180910390fd5b6000600860006101000a81548160ff0219169083151502179055507f5db9ee0a495bf2e6ff9c91a7834c1ba4fdd244a5e8aa4e537bd38aeae4b073aa611adb611655565b604051611ae891906127d3565b60405180910390a1565b611afb81611fda565b50565b6000600860019054906101000a900473ffffffffffffffffffffffffffffffffffffffff16905081600860016101000a81548173ffffffffffffffffffffffffffffffffffffffff021916908373ffffffffffffffffffffffffffffffffffffffff1602179055508173ffffffffffffffffffffffffffffffffffffffff168173ffffffffffffffffffffffffffffffffffffffff167f8be0079c531659141344cd1fd0a4f28419497f9722a3daafe3b4186f6b6457e060405160405180910390a35050565b611bcc610d19565b15611c0c576040517f08c379a0000000000000000000000000000000000000000000000000000000008152600401611c03906138a7565b60405180910390fd5b6001600860006101000a81548160ff0219169083151502179055507f62e78cea01bee320cd4e420270b5ea74000d11b0c9f74754ebdbfc544b05a258611c50611655565b604051611c5d91906127d3565b60405180910390a1565b8173ffffffffffffffffffffffffffffffffffffffff168373ffffffffffffffffffffffffffffffffffffffff161415611cd6576040517f08c379a0000000000000000000000000000000000000000000000000000000008152600401611ccd90613913565b60405180910390fd5b80600660008573ffffffffffffffffffffffffffffffffffffffff1673ffffffffffffffffffffffffffffffffffffffff16815260200190815260200160002060008473ffffffffffffffffffffffffffffffffffffffff1673ffffffffffffffffffffffffffffffffffffffff16815260200190815260200160002060006101000a81548160ff0219169083151502179055508173ffffffffffffffffffffffffffffffffffffffff168373ffffffffffffffffffffffffffffffffffffffff167f17307eab39ab6107e8899845ad3d59bd9653f200f220920489ca2b5937696c3183604051611dc791906125f6565b60405180910390a3505050565b611ddf8484846117f4565b611deb8484848461202d565b611e2a576040517f08c379a0000000000000000000000000000000000000000000000000000000008152600401611e21906139a5565b60405180910390fd5b50505050565b6060611e3b826115e9565b611e7a576040517f08c379a0000000000000000000000000000000000000000000000000000000008152600401611e7190613a37565b60405180910390fd5b6000600760008481526020019081526020016000208054611e9a90612d56565b80601f0160208091040260200160405190810160405280929190818152602001828054611ec690612d56565b8015611f135780601f10611ee857610100808354040283529160200191611f13565b820191906000526020600020905b815481529060010190602001808311611ef657829003601f168201915b505050505090506000611f246121b5565b9050600081511415611f3a578192505050611f7d565b600082511115611f6f578082604051602001611f57929190613a93565b60405160208183030381529060405292505050611f7d565b611f78846121cc565b925050505b919050565b611f8a610d19565b15611fca576040517f08c379a0000000000000000000000000000000000000000000000000000000008152600401611fc1906138a7565b60405180910390fd5b611fd5838383611521565b505050565b611fe381612273565b600060076000838152602001908152602001600020805461200390612d56565b90501461202a5760076000828152602001908152602001600020600061202991906124e5565b5b50565b600061204e8473ffffffffffffffffffffffffffffffffffffffff1661150e565b156121a8578373ffffffffffffffffffffffffffffffffffffffff1663150b7a02612077611655565b8786866040518563ffffffff1660e01b81526004016120999493929190613ab7565b6020604051808303816000875af19250505080156120d557506040513d601f19601f820116820180604052508101906120d29190613b18565b60015b612158573d8060008114612105576040519150601f19603f3d011682016040523d82523d6000602084013e61210a565b606091505b50600081511415612150576040517f08c379a0000000000000000000000000000000000000000000000000000000008152600401612147906139a5565b60405180910390fd5b805181602001fd5b63150b7a0260e01b7bffffffffffffffffffffffffffffffffffffffffffffffffffffffff1916817bffffffffffffffffffffffffffffffffffffffffffffffffffffffff1916149150506121ad565b600190505b949350505050565b606060405180602001604052806000815250905090565b60606121d7826115e9565b612216576040517f08c379a000000000000000000000000000000000000000000000000000000000815260040161220d90613bb7565b60405180910390fd5b60006122206121b5565b90506000815111612240576040518060200160405280600081525061226b565b8061224a84612384565b60405160200161225b929190613a93565b6040516020818303038152906040525b915050919050565b600061227e82610d30565b905061228c81600084611f82565b61229760008361165d565b6001600460008373ffffffffffffffffffffffffffffffffffffffff1673ffffffffffffffffffffffffffffffffffffffff16815260200190815260200160002060008282546122e79190613765565b925050819055506003600083815260200190815260200160002060006101000a81549073ffffffffffffffffffffffffffffffffffffffff021916905581600073ffffffffffffffffffffffffffffffffffffffff168273ffffffffffffffffffffffffffffffffffffffff167fddf252ad1be2c89b69c2b068fc378daa952ba7f163c4a11628f55a4df523b3ef60405160405180910390a45050565b606060008214156123cc576040518060400160405280600181526020017f300000000000000000000000000000000000000000000000000000000000000081525090506124e0565b600082905060005b600082146123fe5780806123e790613bd7565b915050600a826123f79190613c4f565b91506123d4565b60008167ffffffffffffffff81111561241a57612419612a25565b5b6040519080825280601f01601f19166020018201604052801561244c5781602001600182028036833780820191505090505b5090505b600085146124d9576001826124659190613765565b9150600a856124749190613c80565b60306124809190613799565b60f81b81838151811061249657612495613cb1565b5b60200101907effffffffffffffffffffffffffffffffffffffffffffffffffffffffffffff1916908160001a905350600a856124d29190613c4f565b9450612450565b8093505050505b919050565b5080546124f190612d56565b6000825580601f106125035750612522565b601f0160209004906000526020600020908101906125219190612525565b5b50565b5b8082111561253e576000816000905550600101612526565b5090565b6000604051905090565b600080fd5b600080fd5b60007fffffffff0000000000000000000000000000000000000000000000000000000082169050919050565b61258b81612556565b811461259657600080fd5b50565b6000813590506125a881612582565b92915050565b6000602082840312156125c4576125c361254c565b5b60006125d284828501612599565b91505092915050565b60008115159050919050565b6125f0816125db565b82525050565b600060208201905061260b60008301846125e7565b92915050565b6000819050919050565b61262481612611565b811461262f57600080fd5b50565b6000813590506126418161261b565b92915050565b60006020828403121561265d5761265c61254c565b5b600061266b84828501612632565b91505092915050565b600081519050919050565b600082825260208201905092915050565b60005b838110156126ae578082015181840152602081019050612693565b838111156126bd576000848401525b50505050565b6000601f19601f8301169050919050565b60006126df82612674565b6126e9818561267f565b93506126f9818560208601612690565b612702816126c3565b840191505092915050565b6000602082019050818103600083015261272781846126d4565b905092915050565b6000819050919050565b6127428161272f565b811461274d57600080fd5b50565b60008135905061275f81612739565b92915050565b60006020828403121561277b5761277a61254c565b5b600061278984828501612750565b91505092915050565b600073ffffffffffffffffffffffffffffffffffffffff82169050919050565b60006127bd82612792565b9050919050565b6127cd816127b2565b82525050565b60006020820190506127e860008301846127c4565b92915050565b6127f7816127b2565b811461280257600080fd5b50565b600081359050612814816127ee565b92915050565b600080604083850312156128315761283061254c565b5b600061283f85828601612805565b925050602061285085828601612750565b9150509250929050565b6000602082840312156128705761286f61254c565b5b600061287e84828501612805565b91505092915050565b6000806000606084860312156128a05761289f61254c565b5b60006128ae86828701612805565b93505060206128bf86828701612805565b92505060406128d086828701612750565b9150509250925092565b6128e38161272f565b82525050565b60006020820190506128fe60008301846128da565b92915050565b600081519050919050565b600082825260208201905092915050565b600061292b82612904565b612935818561290f565b9350612945818560208601612690565b61294e816126c3565b840191505092915050565b600060208201905081810360008301526129738184612920565b905092915050565b6000819050919050565b61298e8161297b565b82525050565b60006020820190506129a96000830184612985565b92915050565b6129b8816125db565b81146129c357600080fd5b50565b6000813590506129d5816129af565b92915050565b600080604083850312156129f2576129f161254c565b5b6000612a0085828601612805565b9250506020612a11858286016129c6565b9150509250929050565b600080fd5b600080fd5b7f4e487b7100000000000000000000000000000000000000000000000000000000600052604160045260246000fd5b612a5d826126c3565b810181811067ffffffffffffffff82111715612a7c57612a7b612a25565b5b80604052505050565b6000612a8f612542565b9050612a9b8282612a54565b919050565b600067ffffffffffffffff821115612abb57612aba612a25565b5b612ac4826126c3565b9050602081019050919050565b82818337600083830152505050565b6000612af3612aee84612aa0565b612a85565b905082815260208101848484011115612b0f57612b0e612a20565b5b612b1a848285612ad1565b509392505050565b600082601f830112612b3757612b36612a1b565b5b8135612b47848260208601612ae0565b91505092915050565b60008060008060808587031215612b6a57612b6961254c565b5b6000612b7887828801612805565b9450506020612b8987828801612805565b9350506040612b9a87828801612750565b925050606085013567ffffffffffffffff811115612bbb57612bba612551565b5b612bc787828801612b22565b91505092959194509250565b60008060408385031215612bea57612be961254c565b5b6000612bf885828601612805565b9250506020612c0985828601612805565b9150509250929050565b612c1c81612611565b82525050565b6000602082019050612c376000830184612c13565b92915050565b600067ffffffffffffffff821115612c5857612c57612a25565b5b612c61826126c3565b9050602081019050919050565b6000612c81612c7c84612c3d565b612a85565b905082815260208101848484011115612c9d57612c9c612a20565b5b612ca8848285612690565b509392505050565b600082601f830112612cc557612cc4612a1b565b5b8151612cd5848260208601612c6e565b91505092915050565b600060208284031215612cf457612cf361254c565b5b600082015167ffffffffffffffff811115612d1257612d11612551565b5b612d1e84828501612cb0565b91505092915050565b7f4e487b7100000000000000000000000000000000000000000000000000000000600052602260045260246000fd5b60006002820490506001821680612d6e57607f821691505b60208210811415612d8257612d81612d27565b5b50919050565b7f4552433732313a20617070726f76656420717565727920666f72206e6f6e657860008201527f697374656e7420746f6b656e0000000000000000000000000000000000000000602082015250565b6000612de4602c8361267f565b9150612def82612d88565b604082019050919050565b60006020820190508181036000830152612e1381612dd7565b9050919050565b7f4552433732313a20617070726f76616c20746f2063757272656e74206f776e6560008201527f7200000000000000000000000000000000000000000000000000000000000000602082015250565b6000612e7660218361267f565b9150612e8182612e1a565b604082019050919050565b60006020820190508181036000830152612ea581612e69565b9050919050565b7f4552433732313a20617070726f76652063616c6c6572206973206e6f74206f7760008201527f6e6572206e6f7220617070726f76656420666f7220616c6c0000000000000000602082015250565b6000612f0860388361267f565b9150612f1382612eac565b604082019050919050565b60006020820190508181036000830152612f3781612efb565b9050919050565b600081519050612f4d816127ee565b92915050565b600060208284031215612f6957612f6861254c565b5b6000612f7784828501612f3e565b91505092915050565b7f4552433732313a207472616e736665722063616c6c6572206973206e6f74206f60008201527f776e6572206e6f7220617070726f766564000000000000000000000000000000602082015250565b6000612fdc60318361267f565b9150612fe782612f80565b604082019050919050565b6000602082019050818103600083015261300b81612fcf565b9050919050565b7f4f776e61626c653a2063616c6c6572206973206e6f7420746865206f776e6572600082015250565b600061304860208361267f565b915061305382613012565b602082019050919050565b600060208201905081810360008301526130778161303b565b9050919050565b7f4552433732314275726e61626c653a2063616c6c6572206973206e6f74206f7760008201527f6e6572206e6f7220617070726f76656400000000000000000000000000000000602082015250565b60006130da60308361267f565b91506130e58261307e565b604082019050919050565b60006020820190508181036000830152613109816130cd565b9050919050565b7f455243373231556e636f6c6c65637469626c653a20746869732061646472657360008201527f7320646f6573206e6f742068617665206120746f6b656e000000000000000000602082015250565b600061316c60378361267f565b915061317782613110565b604082019050919050565b6000602082019050818103600083015261319b8161315f565b9050919050565b7f4552433732313a206f776e657220717565727920666f72206e6f6e657869737460008201527f656e7420746f6b656e0000000000000000000000000000000000000000000000602082015250565b60006131fe60298361267f565b9150613209826131a2565b604082019050919050565b6000602082019050818103600083015261322d816131f1565b9050919050565b600061324761324284612aa0565b612a85565b90508281526020810184848401111561326357613262612a20565b5b61326e848285612690565b509392505050565b600082601f83011261328b5761328a612a1b565b5b815161329b848260208601613234565b91505092915050565b6000602082840312156132ba576132b961254c565b5b600082015167ffffffffffffffff8111156132d8576132d7612551565b5b6132e484828501613276565b91505092915050565b6000815190506132fc816129af565b92915050565b6000602082840312156133185761331761254c565b5b6000613326848285016132ed565b91505092915050565b7f4552433732313a2062616c616e636520717565727920666f7220746865207a6560008201527f726f206164647265737300000000000000000000000000000000000000000000602082015250565b600061338b602a8361267f565b91506133968261332f565b604082019050919050565b600060208201905081810360008301526133ba8161337e565b9050919050565b6000815190506133d081612739565b92915050565b6000602082840312156133ec576133eb61254c565b5b60006133fa848285016133c1565b91505092915050565b61340c8161297b565b811461341757600080fd5b50565b60008151905061342981613403565b92915050565b6000602082840312156134455761344461254c565b5b60006134538482850161341a565b91505092915050565b7f4f776e61626c653a206e6577206f776e657220697320746865207a65726f206160008201527f6464726573730000000000000000000000000000000000000000000000000000602082015250565b60006134b860268361267f565b91506134c38261345c565b604082019050919050565b600060208201905081810360008301526134e7816134ab565b9050919050565b7f455243373231556e636f6c6c65637469626c653a20746869732061646472657360008201527f7320646f65732068617665206120746f6b656e00000000000000000000000000602082015250565b600061354a60338361267f565b9150613555826134ee565b604082019050919050565b600060208201905081810360008301526135798161353d565b9050919050565b7f4552433732313a206f70657261746f7220717565727920666f72206e6f6e657860008201527f697374656e7420746f6b656e0000000000000000000000000000000000000000602082015250565b60006135dc602c8361267f565b91506135e782613580565b604082019050919050565b6000602082019050818103600083015261360b816135cf565b9050919050565b7f4552433732313a207472616e73666572206f6620746f6b656e2074686174206960008201527f73206e6f74206f776e0000000000000000000000000000000000000000000000602082015250565b600061366e60298361267f565b915061367982613612565b604082019050919050565b6000602082019050818103600083015261369d81613661565b9050919050565b7f4552433732313a207472616e7366657220746f20746865207a65726f2061646460008201527f7265737300000000000000000000000000000000000000000000000000000000602082015250565b600061370060248361267f565b915061370b826136a4565b604082019050919050565b6000602082019050818103600083015261372f816136f3565b9050919050565b7f4e487b7100000000000000000000000000000000000000000000000000000000600052601160045260246000fd5b60006137708261272f565b915061377b8361272f565b92508282101561378e5761378d613736565b5b828203905092915050565b60006137a48261272f565b91506137af8361272f565b9250827fffffffffffffffffffffffffffffffffffffffffffffffffffffffffffffffff038211156137e4576137e3613736565b5b828201905092915050565b7f5061757361626c653a206e6f7420706175736564000000000000000000000000600082015250565b600061382560148361267f565b9150613830826137ef565b602082019050919050565b6000602082019050818103600083015261385481613818565b9050919050565b7f5061757361626c653a2070617573656400000000000000000000000000000000600082015250565b600061389160108361267f565b915061389c8261385b565b602082019050919050565b600060208201905081810360008301526138c081613884565b9050919050565b7f4552433732313a20617070726f766520746f2063616c6c657200000000000000600082015250565b60006138fd60198361267f565b9150613908826138c7565b602082019050919050565b6000602082019050818103600083015261392c816138f0565b9050919050565b7f4552433732313a207472616e7366657220746f206e6f6e20455243373231526560008201527f63656976657220696d706c656d656e7465720000000000000000000000000000602082015250565b600061398f60328361267f565b915061399a82613933565b604082019050919050565b600060208201905081810360008301526139be81613982565b9050919050565b7f45524337323155524953746f726167653a2055524920717565727920666f722060008201527f6e6f6e6578697374656e7420746f6b656e000000000000000000000000000000602082015250565b6000613a2160318361267f565b9150613a2c826139c5565b604082019050919050565b60006020820190508181036000830152613a5081613a14565b9050919050565b600081905092915050565b6000613a6d82612674565b613a778185613a57565b9350613a87818560208601612690565b80840191505092915050565b6000613a9f8285613a62565b9150613aab8284613a62565b91508190509392505050565b6000608082019050613acc60008301876127c4565b613ad960208301866127c4565b613ae660408301856128da565b8181036060830152613af88184612920565b905095945050505050565b600081519050613b1281612582565b92915050565b600060208284031215613b2e57613b2d61254c565b5b6000613b3c84828501613b03565b91505092915050565b7f4552433732314d657461646174613a2055524920717565727920666f72206e6f60008201527f6e6578697374656e7420746f6b656e0000000000000000000000000000000000602082015250565b6000613ba1602f8361267f565b9150613bac82613b45565b604082019050919050565b60006020820190508181036000830152613bd081613b94565b9050919050565b6000613be28261272f565b91507fffffffffffffffffffffffffffffffffffffffffffffffffffffffffffffffff821415613c1557613c14613736565b5b600182019050919050565b7f4e487b7100000000000000000000000000000000000000000000000000000000600052601260045260246000fd5b6000613c5a8261272f565b9150613c658361272f565b925082613c7557613c74613c20565b5b828204905092915050565b6000613c8b8261272f565b9150613c968361272f565b925082613ca657613ca5613c20565b5b828206905092915050565b7f4e487b7100000000000000000000000000000000000000000000000000000000600052603260045260246000fdfea264697066735822122007d6efb6f9c2a1a6174eec74b2b8092fb5d2309d1c1c24ea9a88c7e8da139e2464736f6c634300080b0033",
  "linkReferences": {},
  "deployedLinkReferences": {}
}