{
  "_format": "hh-sol-artifact-1",
  "contractName": "Register",
  "sourceName": "contracts/IdCard/Register.sol",
  "abi": [
    {
      "anonymous": false,
      "inputs": [
        {
          "indexed": true,
          "internalType": "address",
          "name": "owner",
          "type": "address"
        },
        {
          "indexed": true,
          "internalType": "address",
          "name": "approved",
          "type": "address"
        },
        {
          "indexed": true,
          "internalType": "uint256",
          "name": "tokenId",
          "type": "uint256"
        }
      ],
      "name": "Approval",
      "type": "event"
    },
    {
      "anonymous": false,
      "inputs": [
        {
          "indexed": true,
          "internalType": "address",
          "name": "owner",
          "type": "address"
        },
        {
          "indexed": true,
          "internalType": "address",
          "name": "operator",
          "type": "address"
        },
        {
          "indexed": false,
          "internalType": "bool",
          "name": "approved",
          "type": "bool"
        }
      ],
      "name": "ApprovalForAll",
      "type": "event"
    },
    {
      "anonymous": false,
      "inputs": [
        {
          "indexed": false,
          "internalType": "uint256",
          "name": "_userId",
          "type": "uint256"
        },
        {
          "indexed": false,
          "internalType": "string",
          "name": "_username",
          "type": "string"
        },
        {
          "indexed": false,
          "internalType": "string",
          "name": "_infoHash",
          "type": "string"
        },
        {
          "indexed": false,
          "internalType": "string",
          "name": "_referral",
          "type": "string"
        },
        {
          "indexed": false,
          "internalType": "uint256",
          "name": "_dappId",
          "type": "uint256"
        }
      ],
      "name": "NewUser",
      "type": "event"
    },
    {
      "anonymous": false,
      "inputs": [
        {
          "indexed": true,
          "internalType": "address",
          "name": "previousOwner",
          "type": "address"
        },
        {
          "indexed": true,
          "internalType": "address",
          "name": "newOwner",
          "type": "address"
        }
      ],
      "name": "OwnershipTransferred",
      "type": "event"
    },
    {
      "anonymous": false,
      "inputs": [
        {
          "indexed": false,
          "internalType": "address",
          "name": "account",
          "type": "address"
        }
      ],
      "name": "Paused",
      "type": "event"
    },
    {
      "anonymous": false,
      "inputs": [
        {
          "indexed": true,
          "internalType": "address",
          "name": "from",
          "type": "address"
        },
        {
          "indexed": true,
          "internalType": "address",
          "name": "to",
          "type": "address"
        },
        {
          "indexed": true,
          "internalType": "uint256",
          "name": "tokenId",
          "type": "uint256"
        }
      ],
      "name": "Transfer",
      "type": "event"
    },
    {
      "anonymous": false,
      "inputs": [
        {
          "indexed": false,
          "internalType": "address",
          "name": "account",
          "type": "address"
        }
      ],
      "name": "Unpaused",
      "type": "event"
    },
    {
      "inputs": [
        {
          "internalType": "bytes32",
          "name": "tag",
          "type": "bytes32"
        }
      ],
      "name": "ContDataGetAddress",
      "outputs": [
        {
          "internalType": "address",
          "name": "data",
          "type": "address"
        }
      ],
      "stateMutability": "view",
      "type": "function"
    },
    {
      "inputs": [
        {
          "internalType": "bytes32",
          "name": "tag",
          "type": "bytes32"
        }
      ],
      "name": "ContDataGetBool",
      "outputs": [
        {
          "internalType": "bool",
          "name": "data",
          "type": "bool"
        }
      ],
      "stateMutability": "view",
      "type": "function"
    },
    {
      "inputs": [
        {
          "internalType": "bytes32",
          "name": "tag",
          "type": "bytes32"
        }
      ],
      "name": "ContDataGetBytes",
      "outputs": [
        {
          "internalType": "bytes",
          "name": "data",
          "type": "bytes"
        }
      ],
      "stateMutability": "view",
      "type": "function"
    },
    {
      "inputs": [
        {
          "internalType": "bytes32",
          "name": "tag",
          "type": "bytes32"
        }
      ],
      "name": "ContDataGetInt",
      "outputs": [
        {
          "internalType": "int256",
          "name": "data",
          "type": "int256"
        }
      ],
      "stateMutability": "view",
      "type": "function"
    },
    {
      "inputs": [
        {
          "internalType": "bytes32",
          "name": "tag",
          "type": "bytes32"
        }
      ],
      "name": "ContDataGetString",
      "outputs": [
        {
          "internalType": "string",
          "name": "data",
          "type": "string"
        }
      ],
      "stateMutability": "view",
      "type": "function"
    },
    {
      "inputs": [
        {
          "internalType": "bytes32",
          "name": "tag",
          "type": "bytes32"
        }
      ],
      "name": "ContDataGetUint",
      "outputs": [
        {
          "internalType": "uint256",
          "name": "data",
          "type": "uint256"
        }
      ],
      "stateMutability": "view",
      "type": "function"
    },
    {
      "inputs": [
        {
          "internalType": "address",
          "name": "to",
          "type": "address"
        },
        {
          "internalType": "uint256",
          "name": "tokenId",
          "type": "uint256"
        }
      ],
      "name": "approve",
      "outputs": [],
      "stateMutability": "nonpayable",
      "type": "function"
    },
    {
      "inputs": [
        {
          "internalType": "uint256",
          "name": "userId",
          "type": "uint256"
        }
      ],
      "name": "balanceInWei",
      "outputs": [
        {
          "internalType": "uint256",
          "name": "",
          "type": "uint256"
        }
      ],
      "stateMutability": "view",
      "type": "function"
    },
    {
      "inputs": [
        {
          "internalType": "address",
          "name": "owner",
          "type": "address"
        }
      ],
      "name": "balanceOf",
      "outputs": [
        {
          "internalType": "uint256",
          "name": "",
          "type": "uint256"
        }
      ],
      "stateMutability": "view",
      "type": "function"
    },
    {
      "inputs": [
        {
          "internalType": "uint256",
          "name": "tokenId",
          "type": "uint256"
        }
      ],
      "name": "burn",
      "outputs": [],
      "stateMutability": "nonpayable",
      "type": "function"
    },
    {
      "inputs": [
        {
          "internalType": "uint256",
          "name": "tokenId",
          "type": "uint256"
        }
      ],
      "name": "getApproved",
      "outputs": [
        {
          "internalType": "address",
          "name": "",
          "type": "address"
        }
      ],
      "stateMutability": "view",
      "type": "function"
    },
    {
      "inputs": [
        {
          "internalType": "address",
          "name": "owner",
          "type": "address"
        },
        {
          "internalType": "address",
          "name": "operator",
          "type": "address"
        }
      ],
      "name": "isApprovedForAll",
      "outputs": [
        {
          "internalType": "bool",
          "name": "",
          "type": "bool"
        }
      ],
      "stateMutability": "view",
      "type": "function"
    },
    {
      "inputs": [],
      "name": "name",
      "outputs": [
        {
          "internalType": "string",
          "name": "",
          "type": "string"
        }
      ],
      "stateMutability": "view",
      "type": "function"
    },
    {
      "inputs": [],
      "name": "owner",
      "outputs": [
        {
          "internalType": "address",
          "name": "",
          "type": "address"
        }
      ],
      "stateMutability": "view",
      "type": "function"
    },
    {
      "inputs": [
        {
          "internalType": "uint256",
          "name": "tokenId",
          "type": "uint256"
        }
      ],
      "name": "ownerOf",
      "outputs": [
        {
          "internalType": "address",
          "name": "",
          "type": "address"
        }
      ],
      "stateMutability": "view",
      "type": "function"
    },
    {
      "inputs": [
        {
          "internalType": "address",
          "name": "owner",
          "type": "address"
        }
      ],
      "name": "ownsToken",
      "outputs": [
        {
          "internalType": "bool",
          "name": "",
          "type": "bool"
        }
      ],
      "stateMutability": "view",
      "type": "function"
    },
    {
      "inputs": [],
      "name": "pause",
      "outputs": [],
      "stateMutability": "nonpayable",
      "type": "function"
    },
    {
      "inputs": [],
      "name": "paused",
      "outputs": [
        {
          "internalType": "bool",
          "name": "",
          "type": "bool"
        }
      ],
      "stateMutability": "view",
      "type": "function"
    },
    {
      "inputs": [
        {
          "internalType": "string",
          "name": "_username",
          "type": "string"
        }
      ],
      "name": "registered",
      "outputs": [
        {
          "internalType": "bool",
          "name": "",
          "type": "bool"
        }
      ],
      "stateMutability": "view",
      "type": "function"
    },
    {
      "inputs": [],
      "name": "renounceOwnership",
      "outputs": [],
      "stateMutability": "nonpayable",
      "type": "function"
    },
    {
      "inputs": [
        {
          "internalType": "address",
          "name": "from",
          "type": "address"
        },
        {
          "internalType": "address",
          "name": "to",
          "type": "address"
        },
        {
          "internalType": "uint256",
          "name": "tokenId",
          "type": "uint256"
        }
      ],
      "name": "safeTransferFrom",
      "outputs": [],
      "stateMutability": "nonpayable",
      "type": "function"
    },
    {
      "inputs": [
        {
          "internalType": "address",
          "name": "from",
          "type": "address"
        },
        {
          "internalType": "address",
          "name": "to",
          "type": "address"
        },
        {
          "internalType": "uint256",
          "name": "tokenId",
          "type": "uint256"
        },
        {
          "internalType": "bytes",
          "name": "_data",
          "type": "bytes"
        }
      ],
      "name": "safeTransferFrom",
      "outputs": [],
      "stateMutability": "nonpayable",
      "type": "function"
    },
    {
      "inputs": [
        {
          "internalType": "address",
          "name": "operator",
          "type": "address"
        },
        {
          "internalType": "bool",
          "name": "approved",
          "type": "bool"
        }
      ],
      "name": "setApprovalForAll",
      "outputs": [],
      "stateMutability": "nonpayable",
      "type": "function"
    },
    {
      "inputs": [
        {
          "internalType": "string",
          "name": "username",
          "type": "string"
        },
        {
          "internalType": "string",
          "name": "infoHash",
          "type": "string"
        },
        {
          "internalType": "string",
          "name": "referral",
          "type": "string"
        },
        {
          "internalType": "uint256",
          "name": "dappId",
          "type": "uint256"
        },
        {
          "internalType": "string",
          "name": "uri",
          "type": "string"
        }
      ],
      "name": "signIn",
      "outputs": [],
      "stateMutability": "payable",
      "type": "function"
    },
    {
      "inputs": [
        {
          "internalType": "bytes4",
          "name": "interfaceId",
          "type": "bytes4"
        }
      ],
      "name": "supportsInterface",
      "outputs": [
        {
          "internalType": "bool",
          "name": "",
          "type": "bool"
        }
      ],
      "stateMutability": "view",
      "type": "function"
    },
    {
      "inputs": [],
      "name": "symbol",
      "outputs": [
        {
          "internalType": "string",
          "name": "",
          "type": "string"
        }
      ],
      "stateMutability": "view",
      "type": "function"
    },
    {
      "inputs": [
        {
          "internalType": "address",
          "name": "owner",
          "type": "address"
        }
      ],
      "name": "tokenOf",
      "outputs": [
        {
          "internalType": "uint256",
          "name": "",
          "type": "uint256"
        }
      ],
      "stateMutability": "view",
      "type": "function"
    },
    {
      "inputs": [
        {
          "internalType": "uint256",
          "name": "tokenId",
          "type": "uint256"
        }
      ],
      "name": "tokenURI",
      "outputs": [
        {
          "internalType": "string",
          "name": "",
          "type": "string"
        }
      ],
      "stateMutability": "view",
      "type": "function"
    },
    {
      "inputs": [
        {
          "internalType": "address",
          "name": "from",
          "type": "address"
        },
        {
          "internalType": "address",
          "name": "to",
          "type": "address"
        },
        {
          "internalType": "uint256",
          "name": "tokenId",
          "type": "uint256"
        }
      ],
      "name": "transferFrom",
      "outputs": [],
      "stateMutability": "nonpayable",
      "type": "function"
    },
    {
      "inputs": [
        {
          "internalType": "address",
          "name": "newOwner",
          "type": "address"
        }
      ],
      "name": "transferOwnership",
      "outputs": [],
      "stateMutability": "nonpayable",
      "type": "function"
    },
    {
      "inputs": [],
      "name": "unpause",
      "outputs": [],
      "stateMutability": "nonpayable",
      "type": "function"
    },
    {
      "inputs": [
        {
          "internalType": "string",
          "name": "_username",
          "type": "string"
        }
      ],
      "name": "userId",
      "outputs": [
        {
          "internalType": "uint256",
          "name": "",
          "type": "uint256"
        }
      ],
      "stateMutability": "view",
      "type": "function"
    },
    {
      "inputs": [
        {
          "internalType": "string",
          "name": "_username",
          "type": "string"
        }
      ],
      "name": "userProfile",
      "outputs": [
        {
          "components": [
            {
              "internalType": "string",
              "name": "username",
              "type": "string"
            },
            {
              "internalType": "string",
              "name": "infoHash",
              "type": "string"
            },
            {
              "internalType": "string",
              "name": "referral",
              "type": "string"
            },
            {
              "internalType": "uint256",
              "name": "dappId",
              "type": "uint256"
            }
          ],
          "internalType": "struct UserData.User",
          "name": "",
          "type": "tuple"
        }
      ],
      "stateMutability": "view",
      "type": "function"
    },
    {
      "inputs": [
        {
          "internalType": "uint256",
          "name": "_userId",
          "type": "uint256"
        }
      ],
      "name": "userProfile",
      "outputs": [
        {
          "components": [
            {
              "internalType": "string",
              "name": "username",
              "type": "string"
            },
            {
              "internalType": "string",
              "name": "infoHash",
              "type": "string"
            },
            {
              "internalType": "string",
              "name": "referral",
              "type": "string"
            },
            {
              "internalType": "uint256",
              "name": "dappId",
              "type": "uint256"
            }
          ],
          "internalType": "struct UserData.User",
          "name": "",
          "type": "tuple"
        }
      ],
      "stateMutability": "view",
      "type": "function"
    },
    {
      "inputs": [
        {
          "internalType": "uint256",
          "name": "_userId",
          "type": "uint256"
        }
      ],
      "name": "username",
      "outputs": [
        {
          "internalType": "string",
          "name": "",
          "type": "string"
        }
      ],
      "stateMutability": "view",
      "type": "function"
    },
    {
      "inputs": [
        {
          "internalType": "string",
          "name": "_username",
          "type": "string"
        }
      ],
      "name": "usernamePrice",
      "outputs": [
        {
          "internalType": "uint256",
          "name": "",
          "type": "uint256"
        }
      ],
      "stateMutability": "view",
      "type": "function"
    },
    {
      "inputs": [],
      "name": "version",
      "outputs": [
        {
          "internalType": "string",
          "name": "V_",
          "type": "string"
        }
      ],
      "stateMutability": "pure",
      "type": "function"
    },
    {
      "inputs": [],
      "name": "withdraw",
      "outputs": [],
      "stateMutability": "nonpayable",
      "type": "function"
    }
  ],
  "bytecode": "0x60806040523480156200001157600080fd5b506040518060400160405280600681526020017f49644361726400000000000000000000000000000000000000000000000000008152506040518060400160405280600381526020017f4944430000000000000000000000000000000000000000000000000000000000815250733e76c03d6f4cb0ea6e930f77924beb90fda2b80c6000806101000a81548173ffffffffffffffffffffffffffffffffffffffff021916908373ffffffffffffffffffffffffffffffffffffffff1602179055508160019080519060200190620000ea929190620008d9565b50806002908051906020019062000103929190620008d9565b5050506000600860006101000a81548160ff02191690831515021790555062000141620001356200016960201b60201c565b6200017160201b60201c565b62000163620001556200023760201b60201c565b60006200026160201b60201c565b62000f95565b600033905090565b6000600860019054906101000a900473ffffffffffffffffffffffffffffffffffffffff16905081600860016101000a81548173ffffffffffffffffffffffffffffffffffffffff021916908373ffffffffffffffffffffffffffffffffffffffff1602179055508173ffffffffffffffffffffffffffffffffffffffff168173ffffffffffffffffffffffffffffffffffffffff167f8be0079c531659141344cd1fd0a4f28419497f9722a3daafe3b4186f6b6457e060405160405180910390a35050565b6000600860019054906101000a900473ffffffffffffffffffffffffffffffffffffffff16905090565b620002838282604051806020016040528060008152506200028760201b60201c565b5050565b620002998383620002f560201b60201c565b620002ae6000848484620004db60201b60201c565b620002f0576040517f08c379a0000000000000000000000000000000000000000000000000000000008152600401620002e79062000a10565b60405180910390fd5b505050565b600073ffffffffffffffffffffffffffffffffffffffff168273ffffffffffffffffffffffffffffffffffffffff16141562000368576040517f08c379a00000000000000000000000000000000000000000000000000000000081526004016200035f9062000a82565b60405180910390fd5b62000379816200068560201b60201c565b15620003bc576040517f08c379a0000000000000000000000000000000000000000000000000000000008152600401620003b39062000af4565b60405180910390fd5b620003d060008383620006f160201b60201c565b6001600460008473ffffffffffffffffffffffffffffffffffffffff1673ffffffffffffffffffffffffffffffffffffffff168152602001908152602001600020600082825462000422919062000b4f565b92505081905550816003600083815260200190815260200160002060006101000a81548173ffffffffffffffffffffffffffffffffffffffff021916908373ffffffffffffffffffffffffffffffffffffffff160217905550808273ffffffffffffffffffffffffffffffffffffffff16600073ffffffffffffffffffffffffffffffffffffffff167fddf252ad1be2c89b69c2b068fc378daa952ba7f163c4a11628f55a4df523b3ef60405160405180910390a45050565b6000620005098473ffffffffffffffffffffffffffffffffffffffff166200076160201b62001e511760201c565b1562000678578373ffffffffffffffffffffffffffffffffffffffff1663150b7a026200053b6200016960201b60201c565b8786866040518563ffffffff1660e01b81526004016200055f949392919062000ca6565b6020604051808303816000875af19250505080156200059e57506040513d601f19601f820116820180604052508101906200059b919062000d5c565b60015b62000627573d8060008114620005d1576040519150601f19603f3d011682016040523d82523d6000602084013e620005d6565b606091505b506000815114156200061f576040517f08c379a0000000000000000000000000000000000000000000000000000000008152600401620006169062000a10565b60405180910390fd5b805181602001fd5b63150b7a0260e01b7bffffffffffffffffffffffffffffffffffffffffffffffffffffffff1916817bffffffffffffffffffffffffffffffffffffffffffffffffffffffff1916149150506200067d565b600190505b949350505050565b60008073ffffffffffffffffffffffffffffffffffffffff166003600084815260200190815260200160002060009054906101000a900473ffffffffffffffffffffffffffffffffffffffff1673ffffffffffffffffffffffffffffffffffffffff1614159050919050565b620007016200077460201b60201c565b1562000744576040517f08c379a00000000000000000000000000000000000000000000000000000000081526004016200073b9062000dde565b60405180910390fd5b6200075c8383836200078b60201b62001e641760201c565b505050565b600080823b905060008111915050919050565b6000600860009054906101000a900460ff16905090565b620007a3838383620007fc60201b62001ebd1760201c565b620007b4826200080160201b60201c565b15620007f7576040517f08c379a0000000000000000000000000000000000000000000000000000000008152600401620007ee9062000e76565b60405180910390fd5b505050565b505050565b60008062000815836200081e60201b60201c565b14159050919050565b60008073ffffffffffffffffffffffffffffffffffffffff168273ffffffffffffffffffffffffffffffffffffffff16141562000892576040517f08c379a0000000000000000000000000000000000000000000000000000000008152600401620008899062000f0e565b60405180910390fd5b600460008373ffffffffffffffffffffffffffffffffffffffff1673ffffffffffffffffffffffffffffffffffffffff168152602001908152602001600020549050919050565b828054620008e79062000f5f565b90600052602060002090601f0160209004810192826200090b576000855562000957565b82601f106200092657805160ff191683800117855562000957565b8280016001018555821562000957579182015b828111156200095657825182559160200191906001019062000939565b5b5090506200096691906200096a565b5090565b5b80821115620009855760008160009055506001016200096b565b5090565b600082825260208201905092915050565b7f4552433732313a207472616e7366657220746f206e6f6e20455243373231526560008201527f63656976657220696d706c656d656e7465720000000000000000000000000000602082015250565b6000620009f860328362000989565b915062000a05826200099a565b604082019050919050565b6000602082019050818103600083015262000a2b81620009e9565b9050919050565b7f4552433732313a206d696e7420746f20746865207a65726f2061646472657373600082015250565b600062000a6a60208362000989565b915062000a778262000a32565b602082019050919050565b6000602082019050818103600083015262000a9d8162000a5b565b9050919050565b7f4552433732313a20746f6b656e20616c7265616479206d696e74656400000000600082015250565b600062000adc601c8362000989565b915062000ae98262000aa4565b602082019050919050565b6000602082019050818103600083015262000b0f8162000acd565b9050919050565b6000819050919050565b7f4e487b7100000000000000000000000000000000000000000000000000000000600052601160045260246000fd5b600062000b5c8262000b16565b915062000b698362000b16565b9250827fffffffffffffffffffffffffffffffffffffffffffffffffffffffffffffffff0382111562000ba15762000ba062000b20565b5b828201905092915050565b600073ffffffffffffffffffffffffffffffffffffffff82169050919050565b600062000bd98262000bac565b9050919050565b62000beb8162000bcc565b82525050565b62000bfc8162000b16565b82525050565b600081519050919050565b600082825260208201905092915050565b60005b8381101562000c3e57808201518184015260208101905062000c21565b8381111562000c4e576000848401525b50505050565b6000601f19601f8301169050919050565b600062000c728262000c02565b62000c7e818562000c0d565b935062000c9081856020860162000c1e565b62000c9b8162000c54565b840191505092915050565b600060808201905062000cbd600083018762000be0565b62000ccc602083018662000be0565b62000cdb604083018562000bf1565b818103606083015262000cef818462000c65565b905095945050505050565b600080fd5b60007fffffffff0000000000000000000000000000000000000000000000000000000082169050919050565b62000d368162000cff565b811462000d4257600080fd5b50565b60008151905062000d568162000d2b565b92915050565b60006020828403121562000d755762000d7462000cfa565b5b600062000d858482850162000d45565b91505092915050565b7f5061757361626c653a2070617573656400000000000000000000000000000000600082015250565b600062000dc660108362000989565b915062000dd38262000d8e565b602082019050919050565b6000602082019050818103600083015262000df98162000db7565b9050919050565b7f455243373231556e636f6c6c65637469626c653a20746869732061646472657360008201527f7320646f65732068617665206120746f6b656e00000000000000000000000000602082015250565b600062000e5e60338362000989565b915062000e6b8262000e00565b604082019050919050565b6000602082019050818103600083015262000e918162000e4f565b9050919050565b7f4552433732313a2062616c616e636520717565727920666f7220746865207a6560008201527f726f206164647265737300000000000000000000000000000000000000000000602082015250565b600062000ef6602a8362000989565b915062000f038262000e98565b604082019050919050565b6000602082019050818103600083015262000f298162000ee7565b9050919050565b7f4e487b7100000000000000000000000000000000000000000000000000000000600052602260045260246000fd5b6000600282049050600182168062000f7857607f821691505b6020821081141562000f8f5762000f8e62000f30565b5b50919050565b6159cd8062000fa56000396000f3fe6080604052600436106102255760003560e01c806366ba528911610123578063b5189630116100ab578063daf90e141161006f578063daf90e141461089d578063dfb49cd3146108b9578063e985e9c5146108f6578063f2fde38b14610933578063f37181f41461095c57610225565b8063b518963014610780578063b88d4fde146107bd578063bc2f8e93146107e6578063c2d8e1ad14610823578063c87b56dd1461086057610225565b80638990a663116100f25780638990a663146106875780638da5cb5b146106c457806394f6552a146106ef57806395d89b411461072c578063a22cb4651461075757610225565b806366ba5289146105df57806370a082311461061c578063715018a6146106595780638456cb591461067057610225565b80633ccfd60b116101b157806354fd4d501161017557806354fd4d50146104d25780635c975abb146104fd5780635d2d5c37146105285780636352211e14610565578063638e2329146105a257610225565b80633ccfd60b146104155780633f4ba83a1461042c57806342842e0e1461044357806342966c681461046c57806342ec38e21461049557610225565b8063095ea7b3116101f8578063095ea7b31461030c578063190f7478146103355780631a3794231461037257806323b872dd146103af5780632b9c040f146103d857610225565b806301ffc9a71461022a57806305c063b41461026757806306fdde03146102a4578063081812fc146102cf575b600080fd5b34801561023657600080fd5b50610251600480360381019061024c9190613892565b610999565b60405161025e91906138da565b60405180910390f35b34801561027357600080fd5b5061028e6004803603810190610289919061392b565b610a7b565b60405161029b91906139f1565b60405180910390f35b3480156102b057600080fd5b506102b9610b23565b6040516102c691906139f1565b60405180910390f35b3480156102db57600080fd5b506102f660048036038101906102f19190613a49565b610bb5565b6040516103039190613ab7565b60405180910390f35b34801561031857600080fd5b50610333600480360381019061032e9190613afe565b610c3a565b005b34801561034157600080fd5b5061035c6004803603810190610357919061392b565b610d52565b6040516103699190613ab7565b60405180910390f35b34801561037e57600080fd5b5061039960048036038101906103949190613b3e565b610df6565b6040516103a691906138da565b60405180910390f35b3480156103bb57600080fd5b506103d660048036038101906103d19190613b6b565b610e0b565b005b3480156103e457600080fd5b506103ff60048036038101906103fa9190613a49565b610e6b565b60405161040c9190613bcd565b60405180910390f35b34801561042157600080fd5b5061042a610e88565b005b34801561043857600080fd5b50610441610f0c565b005b34801561044f57600080fd5b5061046a60048036038101906104659190613b6b565b610f92565b005b34801561047857600080fd5b50610493600480360381019061048e9190613a49565b610fb2565b005b3480156104a157600080fd5b506104bc60048036038101906104b79190613b3e565b61100e565b6040516104c99190613bcd565b60405180910390f35b3480156104de57600080fd5b506104e761109f565b6040516104f491906139f1565b60405180910390f35b34801561050957600080fd5b506105126110dc565b60405161051f91906138da565b60405180910390f35b34801561053457600080fd5b5061054f600480360381019061054a9190613d1d565b6110f3565b60405161055c91906138da565b60405180910390f35b34801561057157600080fd5b5061058c60048036038101906105879190613a49565b611108565b6040516105999190613ab7565b60405180910390f35b3480156105ae57600080fd5b506105c960048036038101906105c4919061392b565b6111ba565b6040516105d69190613dbb565b60405180910390f35b3480156105eb57600080fd5b506106066004803603810190610601919061392b565b611262565b60405161061391906138da565b60405180910390f35b34801561062857600080fd5b50610643600480360381019061063e9190613b3e565b611306565b6040516106509190613bcd565b60405180910390f35b34801561066557600080fd5b5061066e6113be565b005b34801561067c57600080fd5b50610685611446565b005b34801561069357600080fd5b506106ae60048036038101906106a9919061392b565b6114cc565b6040516106bb9190613bcd565b60405180910390f35b3480156106d057600080fd5b506106d9611570565b6040516106e69190613ab7565b60405180910390f35b3480156106fb57600080fd5b506107166004803603810190610711919061392b565b61159a565b6040516107239190613df6565b60405180910390f35b34801561073857600080fd5b5061074161163e565b60405161074e91906139f1565b60405180910390f35b34801561076357600080fd5b5061077e60048036038101906107799190613e3d565b6116d0565b005b34801561078c57600080fd5b506107a760048036038101906107a29190613a49565b6116e6565b6040516107b491906139f1565b60405180910390f35b3480156107c957600080fd5b506107e460048036038101906107df9190613f1e565b61178e565b005b3480156107f257600080fd5b5061080d60048036038101906108089190613d1d565b6117f0565b60405161081a9190613bcd565b60405180910390f35b34801561082f57600080fd5b5061084a60048036038101906108459190613d1d565b611820565b604051610857919061406b565b60405180910390f35b34801561086c57600080fd5b5061088760048036038101906108829190613a49565b611a15565b60405161089491906139f1565b60405180910390f35b6108b760048036038101906108b2919061408d565b611a27565b005b3480156108c557600080fd5b506108e060048036038101906108db9190613d1d565b611a7d565b6040516108ed9190613bcd565b60405180910390f35b34801561090257600080fd5b5061091d60048036038101906109189190614178565b611ad8565b60405161092a91906138da565b60405180910390f35b34801561093f57600080fd5b5061095a60048036038101906109559190613b3e565b611b6c565b005b34801561096857600080fd5b50610983600480360381019061097e9190613a49565b611c64565b604051610990919061406b565b60405180910390f35b60007f80ac58cd000000000000000000000000000000000000000000000000000000007bffffffffffffffffffffffffffffffffffffffffffffffffffffffff1916827bffffffffffffffffffffffffffffffffffffffffffffffffffffffff19161480610a6457507f5b5e139f000000000000000000000000000000000000000000000000000000007bffffffffffffffffffffffffffffffffffffffffffffffffffffffff1916827bffffffffffffffffffffffffffffffffffffffffffffffffffffffff1916145b80610a745750610a7382611ec2565b5b9050919050565b606060008054906101000a900473ffffffffffffffffffffffffffffffffffffffff1673ffffffffffffffffffffffffffffffffffffffff1663986e791a836040518263ffffffff1660e01b8152600401610ad691906141c7565b600060405180830381865afa158015610af3573d6000803e3d6000fd5b505050506040513d6000823e3d601f19601f82011682018060405250810190610b1c9190614252565b9050919050565b606060018054610b32906142ca565b80601f0160208091040260200160405190810160405280929190818152602001828054610b5e906142ca565b8015610bab5780601f10610b8057610100808354040283529160200191610bab565b820191906000526020600020905b815481529060010190602001808311610b8e57829003601f168201915b5050505050905090565b6000610bc082611f2c565b610bff576040517f08c379a0000000000000000000000000000000000000000000000000000000008152600401610bf69061436e565b60405180910390fd5b6005600083815260200190815260200160002060009054906101000a900473ffffffffffffffffffffffffffffffffffffffff169050919050565b6000610c4582611108565b90508073ffffffffffffffffffffffffffffffffffffffff168373ffffffffffffffffffffffffffffffffffffffff161415610cb6576040517f08c379a0000000000000000000000000000000000000000000000000000000008152600401610cad90614400565b60405180910390fd5b8073ffffffffffffffffffffffffffffffffffffffff16610cd5611f98565b73ffffffffffffffffffffffffffffffffffffffff161480610d045750610d0381610cfe611f98565b611ad8565b5b610d43576040517f08c379a0000000000000000000000000000000000000000000000000000000008152600401610d3a90614492565b60405180910390fd5b610d4d8383611fa0565b505050565b60008060009054906101000a900473ffffffffffffffffffffffffffffffffffffffff1673ffffffffffffffffffffffffffffffffffffffff166321f8a721836040518263ffffffff1660e01b8152600401610dae91906141c7565b602060405180830381865afa158015610dcb573d6000803e3d6000fd5b505050506040513d601f19601f82011682018060405250810190610def91906144c7565b9050919050565b600080610e0283611306565b14159050919050565b610e1c610e16611f98565b82612059565b610e5b576040517f08c379a0000000000000000000000000000000000000000000000000000000008152600401610e5290614566565b60405180910390fd5b610e66838383612137565b505050565b6000600a6000838152602001908152602001600020549050919050565b60003390506000610e988261100e565b90506000610ea582610e6b565b90506000600a6000848152602001908152602001600020819055508273ffffffffffffffffffffffffffffffffffffffff166108fc829081150290604051600060405180830381858888f19350505050158015610f06573d6000803e3d6000fd5b50505050565b610f14611f98565b73ffffffffffffffffffffffffffffffffffffffff16610f32611570565b73ffffffffffffffffffffffffffffffffffffffff1614610f88576040517f08c379a0000000000000000000000000000000000000000000000000000000008152600401610f7f906145d2565b60405180910390fd5b610f90612393565b565b610fad8383836040518060200160405280600081525061178e565b505050565b610fc3610fbd611f98565b82612059565b611002576040517f08c379a0000000000000000000000000000000000000000000000000000000008152600401610ff990614664565b60405180910390fd5b61100b81612435565b50565b600061101982610df6565b611058576040517f08c379a000000000000000000000000000000000000000000000000000000000815260040161104f906146f6565b60405180910390fd5b600960008373ffffffffffffffffffffffffffffffffffffffff1673ffffffffffffffffffffffffffffffffffffffff168152602001908152602001600020549050919050565b60606040518060400160405280600581526020017f312e312e30000000000000000000000000000000000000000000000000000000815250905090565b6000600860009054906101000a900460ff16905090565b6000806110ff836117f0565b14159050919050565b6000806003600084815260200190815260200160002060009054906101000a900473ffffffffffffffffffffffffffffffffffffffff169050600073ffffffffffffffffffffffffffffffffffffffff168173ffffffffffffffffffffffffffffffffffffffff1614156111b1576040517f08c379a00000000000000000000000000000000000000000000000000000000081526004016111a890614788565b60405180910390fd5b80915050919050565b606060008054906101000a900473ffffffffffffffffffffffffffffffffffffffff1673ffffffffffffffffffffffffffffffffffffffff1663c031a180836040518263ffffffff1660e01b815260040161121591906141c7565b600060405180830381865afa158015611232573d6000803e3d6000fd5b505050506040513d6000823e3d601f19601f8201168201806040525081019061125b9190614818565b9050919050565b60008060009054906101000a900473ffffffffffffffffffffffffffffffffffffffff1673ffffffffffffffffffffffffffffffffffffffff16637ae1cfca836040518263ffffffff1660e01b81526004016112be91906141c7565b602060405180830381865afa1580156112db573d6000803e3d6000fd5b505050506040513d601f19601f820116820180604052508101906112ff9190614876565b9050919050565b60008073ffffffffffffffffffffffffffffffffffffffff168273ffffffffffffffffffffffffffffffffffffffff161415611377576040517f08c379a000000000000000000000000000000000000000000000000000000000815260040161136e90614915565b60405180910390fd5b600460008373ffffffffffffffffffffffffffffffffffffffff1673ffffffffffffffffffffffffffffffffffffffff168152602001908152602001600020549050919050565b6113c6611f98565b73ffffffffffffffffffffffffffffffffffffffff166113e4611570565b73ffffffffffffffffffffffffffffffffffffffff161461143a576040517f08c379a0000000000000000000000000000000000000000000000000000000008152600401611431906145d2565b60405180910390fd5b6114446000612441565b565b61144e611f98565b73ffffffffffffffffffffffffffffffffffffffff1661146c611570565b73ffffffffffffffffffffffffffffffffffffffff16146114c2576040517f08c379a00000000000000000000000000000000000000000000000000000000081526004016114b9906145d2565b60405180910390fd5b6114ca612507565b565b60008060009054906101000a900473ffffffffffffffffffffffffffffffffffffffff1673ffffffffffffffffffffffffffffffffffffffff1663bd02d0f5836040518263ffffffff1660e01b815260040161152891906141c7565b602060405180830381865afa158015611545573d6000803e3d6000fd5b505050506040513d601f19601f82011682018060405250810190611569919061494a565b9050919050565b6000600860019054906101000a900473ffffffffffffffffffffffffffffffffffffffff16905090565b60008060009054906101000a900473ffffffffffffffffffffffffffffffffffffffff1673ffffffffffffffffffffffffffffffffffffffff1663dc97d962836040518263ffffffff1660e01b81526004016115f691906141c7565b602060405180830381865afa158015611613573d6000803e3d6000fd5b505050506040513d601f19601f8201168201806040525081019061163791906149a3565b9050919050565b60606002805461164d906142ca565b80601f0160208091040260200160405190810160405280929190818152602001828054611679906142ca565b80156116c65780601f1061169b576101008083540402835291602001916116c6565b820191906000526020600020905b8154815290600101906020018083116116a957829003601f168201915b5050505050905090565b6116e26116db611f98565b83836125aa565b5050565b6060600c60008381526020019081526020016000206000018054611709906142ca565b80601f0160208091040260200160405190810160405280929190818152602001828054611735906142ca565b80156117825780601f1061175757610100808354040283529160200191611782565b820191906000526020600020905b81548152906001019060200180831161176557829003601f168201915b50505050509050919050565b61179f611799611f98565b83612059565b6117de576040517f08c379a00000000000000000000000000000000000000000000000000000000081526004016117d590614566565b60405180910390fd5b6117ea84848484612717565b50505050565b6000600b6117fd83612773565b60405161180a9190614a0c565b9081526020016040518091039020549050919050565b61182861371b565b600c6000611835846117f0565b815260200190815260200160002060405180608001604052908160008201805461185e906142ca565b80601f016020809104026020016040519081016040528092919081815260200182805461188a906142ca565b80156118d75780601f106118ac576101008083540402835291602001916118d7565b820191906000526020600020905b8154815290600101906020018083116118ba57829003601f168201915b505050505081526020016001820180546118f0906142ca565b80601f016020809104026020016040519081016040528092919081815260200182805461191c906142ca565b80156119695780601f1061193e57610100808354040283529160200191611969565b820191906000526020600020905b81548152906001019060200180831161194c57829003601f168201915b50505050508152602001600282018054611982906142ca565b80601f01602080910402602001604051908101604052809291908181526020018280546119ae906142ca565b80156119fb5780601f106119d0576101008083540402835291602001916119fb565b820191906000526020600020905b8154815290600101906020018083116119de57829003601f168201915b505050505081526020016003820154815250509050919050565b6060611a208261280b565b9050919050565b611a3c85611a34856117f0565b84600061295d565b611a46600d612a37565b6000611a52600d612a4d565b9050611a5e3382612a5b565b611a688183612a79565b611a758187878787612aed565b505050505050565b6000611a88826110f3565b15611ac8576040517f08c379a0000000000000000000000000000000000000000000000000000000008152600401611abf90614a95565b60405180910390fd5b611ad182612d53565b9050919050565b6000600660008473ffffffffffffffffffffffffffffffffffffffff1673ffffffffffffffffffffffffffffffffffffffff16815260200190815260200160002060008373ffffffffffffffffffffffffffffffffffffffff1673ffffffffffffffffffffffffffffffffffffffff16815260200190815260200160002060009054906101000a900460ff16905092915050565b611b74611f98565b73ffffffffffffffffffffffffffffffffffffffff16611b92611570565b73ffffffffffffffffffffffffffffffffffffffff1614611be8576040517f08c379a0000000000000000000000000000000000000000000000000000000008152600401611bdf906145d2565b60405180910390fd5b600073ffffffffffffffffffffffffffffffffffffffff168173ffffffffffffffffffffffffffffffffffffffff161415611c58576040517f08c379a0000000000000000000000000000000000000000000000000000000008152600401611c4f90614b27565b60405180910390fd5b611c6181612441565b50565b611c6c61371b565b600c6000838152602001908152602001600020604051806080016040529081600082018054611c9a906142ca565b80601f0160208091040260200160405190810160405280929190818152602001828054611cc6906142ca565b8015611d135780601f10611ce857610100808354040283529160200191611d13565b820191906000526020600020905b815481529060010190602001808311611cf657829003601f168201915b50505050508152602001600182018054611d2c906142ca565b80601f0160208091040260200160405190810160405280929190818152602001828054611d58906142ca565b8015611da55780601f10611d7a57610100808354040283529160200191611da5565b820191906000526020600020905b815481529060010190602001808311611d8857829003601f168201915b50505050508152602001600282018054611dbe906142ca565b80601f0160208091040260200160405190810160405280929190818152602001828054611dea906142ca565b8015611e375780601f10611e0c57610100808354040283529160200191611e37565b820191906000526020600020905b815481529060010190602001808311611e1a57829003601f168201915b505050505081526020016003820154815250509050919050565b600080823b905060008111915050919050565b611e6f838383611ebd565b611e7882610df6565b15611eb8576040517f08c379a0000000000000000000000000000000000000000000000000000000008152600401611eaf90614bb9565b60405180910390fd5b505050565b505050565b60007f01ffc9a7000000000000000000000000000000000000000000000000000000007bffffffffffffffffffffffffffffffffffffffffffffffffffffffff1916827bffffffffffffffffffffffffffffffffffffffffffffffffffffffff1916149050919050565b60008073ffffffffffffffffffffffffffffffffffffffff166003600084815260200190815260200160002060009054906101000a900473ffffffffffffffffffffffffffffffffffffffff1673ffffffffffffffffffffffffffffffffffffffff1614159050919050565b600033905090565b816005600083815260200190815260200160002060006101000a81548173ffffffffffffffffffffffffffffffffffffffff021916908373ffffffffffffffffffffffffffffffffffffffff160217905550808273ffffffffffffffffffffffffffffffffffffffff1661201383611108565b73ffffffffffffffffffffffffffffffffffffffff167f8c5be1e5ebec7d5bd14f71427d1e84f3dd0314c0f7b2291e5b200ac8c7c3b92560405160405180910390a45050565b600061206482611f2c565b6120a3576040517f08c379a000000000000000000000000000000000000000000000000000000000815260040161209a90614c4b565b60405180910390fd5b60006120ae83611108565b90508073ffffffffffffffffffffffffffffffffffffffff168473ffffffffffffffffffffffffffffffffffffffff16148061211d57508373ffffffffffffffffffffffffffffffffffffffff1661210584610bb5565b73ffffffffffffffffffffffffffffffffffffffff16145b8061212e575061212d8185611ad8565b5b91505092915050565b8273ffffffffffffffffffffffffffffffffffffffff1661215782611108565b73ffffffffffffffffffffffffffffffffffffffff16146121ad576040517f08c379a00000000000000000000000000000000000000000000000000000000081526004016121a490614cdd565b60405180910390fd5b600073ffffffffffffffffffffffffffffffffffffffff168273ffffffffffffffffffffffffffffffffffffffff16141561221d576040517f08c379a000000000000000000000000000000000000000000000000000000000815260040161221490614d6f565b60405180910390fd5b612228838383612d9d565b612233600082611fa0565b6001600460008573ffffffffffffffffffffffffffffffffffffffff1673ffffffffffffffffffffffffffffffffffffffff16815260200190815260200160002060008282546122839190614dbe565b925050819055506001600460008473ffffffffffffffffffffffffffffffffffffffff1673ffffffffffffffffffffffffffffffffffffffff16815260200190815260200160002060008282546122da9190614df2565b92505081905550816003600083815260200190815260200160002060006101000a81548173ffffffffffffffffffffffffffffffffffffffff021916908373ffffffffffffffffffffffffffffffffffffffff160217905550808273ffffffffffffffffffffffffffffffffffffffff168473ffffffffffffffffffffffffffffffffffffffff167fddf252ad1be2c89b69c2b068fc378daa952ba7f163c4a11628f55a4df523b3ef60405160405180910390a4505050565b61239b6110dc565b6123da576040517f08c379a00000000000000000000000000000000000000000000000000000000081526004016123d190614e94565b60405180910390fd5b6000600860006101000a81548160ff0219169083151502179055507f5db9ee0a495bf2e6ff9c91a7834c1ba4fdd244a5e8aa4e537bd38aeae4b073aa61241e611f98565b60405161242b9190613ab7565b60405180910390a1565b61243e81612df5565b50565b6000600860019054906101000a900473ffffffffffffffffffffffffffffffffffffffff16905081600860016101000a81548173ffffffffffffffffffffffffffffffffffffffff021916908373ffffffffffffffffffffffffffffffffffffffff1602179055508173ffffffffffffffffffffffffffffffffffffffff168173ffffffffffffffffffffffffffffffffffffffff167f8be0079c531659141344cd1fd0a4f28419497f9722a3daafe3b4186f6b6457e060405160405180910390a35050565b61250f6110dc565b1561254f576040517f08c379a000000000000000000000000000000000000000000000000000000000815260040161254690614f00565b60405180910390fd5b6001600860006101000a81548160ff0219169083151502179055507f62e78cea01bee320cd4e420270b5ea74000d11b0c9f74754ebdbfc544b05a258612593611f98565b6040516125a09190613ab7565b60405180910390a1565b8173ffffffffffffffffffffffffffffffffffffffff168373ffffffffffffffffffffffffffffffffffffffff161415612619576040517f08c379a000000000000000000000000000000000000000000000000000000000815260040161261090614f6c565b60405180910390fd5b80600660008573ffffffffffffffffffffffffffffffffffffffff1673ffffffffffffffffffffffffffffffffffffffff16815260200190815260200160002060008473ffffffffffffffffffffffffffffffffffffffff1673ffffffffffffffffffffffffffffffffffffffff16815260200190815260200160002060006101000a81548160ff0219169083151502179055508173ffffffffffffffffffffffffffffffffffffffff168373ffffffffffffffffffffffffffffffffffffffff167f17307eab39ab6107e8899845ad3d59bd9653f200f220920489ca2b5937696c318360405161270a91906138da565b60405180910390a3505050565b612722848484612137565b61272e84848484612e48565b61276d576040517f08c379a000000000000000000000000000000000000000000000000000000000815260040161276490614ffe565b60405180910390fd5b50505050565b6060600082905060005b8151811015612801576127ac82828151811061279c5761279b61501e565b5b602001015160f81c60f81b612fd0565b8282815181106127bf576127be61501e565b5b60200101907effffffffffffffffffffffffffffffffffffffffffffffffffffffffffffff1916908160001a90535080806127f99061504d565b91505061277d565b5080915050919050565b606061281682611f2c565b612855576040517f08c379a000000000000000000000000000000000000000000000000000000000815260040161284c90615108565b60405180910390fd5b6000600760008481526020019081526020016000208054612875906142ca565b80601f01602080910402602001604051908101604052809291908181526020018280546128a1906142ca565b80156128ee5780601f106128c3576101008083540402835291602001916128ee565b820191906000526020600020905b8154815290600101906020018083116128d157829003601f168201915b5050505050905060006128ff613056565b9050600081511415612915578192505050612958565b60008251111561294a578082604051602001612932929190615128565b60405160208183030381529060405292505050612958565b6129538461306d565b925050505b919050565b600034905061296b85612d53565b8110156129ad576040517f08c379a00000000000000000000000000000000000000000000000000000000081526004016129a4906151be565b60405180910390fd5b60006129b7613114565b6064836129c4919061520d565b6129ce919061523e565b905060006129da613144565b6064846129e7919061520d565b6129f1919061523e565b90506129fd8683613174565b612a078582613174565b612a2e84612a298385612a1a9190614df2565b866131b590919063ffffffff16565b613174565b50505050505050565b6001816000016000828254019250508190555050565b600081600001549050919050565b612a758282604051806020016040528060008152506131dc565b5050565b612a8282611f2c565b612ac1576040517f08c379a0000000000000000000000000000000000000000000000000000000008152600401612ab89061530a565b60405180910390fd5b80600760008481526020019081526020016000209080519060200190612ae8929190613743565b505050565b6000845111612b31576040517f08c379a0000000000000000000000000000000000000000000000000000000008152600401612b2890615376565b60405180910390fd5b8373__$329b097f68f08c66f0b91efc9486bc587d$__63d14ba63590916040518263ffffffff1660e01b8152600401612b6a91906153e0565b602060405180830381865af4158015612b87573d6000803e3d6000fd5b505050506040513d601f19601f82011682018060405250810190612bab9190614876565b612bea576040517f08c379a0000000000000000000000000000000000000000000000000000000008152600401612be190615474565b60405180910390fd5b612bf48486613237565b8373__$147b945a340477953292ca8580ec2a783a$__63591c515f90916040518263ffffffff1660e01b8152600401612c2d91906154e0565b600060405180830381865af4158015612c4a573d6000803e3d6000fd5b505050506040513d6000823e3d601f19601f82011682018060405250810190612c739190614252565b9350604051806080016040528085815260200184815260200183815260200182815250600c60008781526020019081526020016000206000820151816000019080519060200190612cc5929190613743565b506020820151816001019080519060200190612ce2929190613743565b506040820151816002019080519060200190612cff929190613743565b50606082015181600301559050507fe8853e32dbec81aeec9fe0645f9741b132fa82b9a5e88b02a04dcac489753aea8585858585604051612d44959493929190615515565b60405180910390a15050505050565b60008151600a612d6391906156b0565b612d8c7f4088c85fbf217878efe046165ebbb11fe2e3abd0a2538216ecb8982b63551cb56114cc565b612d96919061520d565b9050919050565b612da56110dc565b15612de5576040517f08c379a0000000000000000000000000000000000000000000000000000000008152600401612ddc90614f00565b60405180910390fd5b612df0838383611e64565b505050565b612dfe816132af565b6000600760008381526020019081526020016000208054612e1e906142ca565b905014612e4557600760008281526020019081526020016000206000612e4491906137c9565b5b50565b6000612e698473ffffffffffffffffffffffffffffffffffffffff16611e51565b15612fc3578373ffffffffffffffffffffffffffffffffffffffff1663150b7a02612e92611f98565b8786866040518563ffffffff1660e01b8152600401612eb494939291906156fb565b6020604051808303816000875af1925050508015612ef057506040513d601f19601f82011682018060405250810190612eed919061575c565b60015b612f73573d8060008114612f20576040519150601f19603f3d011682016040523d82523d6000602084013e612f25565b606091505b50600081511415612f6b576040517f08c379a0000000000000000000000000000000000000000000000000000000008152600401612f6290614ffe565b60405180910390fd5b805181602001fd5b63150b7a0260e01b7bffffffffffffffffffffffffffffffffffffffffffffffffffffffff1916817bffffffffffffffffffffffffffffffffffffffffffffffffffffffff191614915050612fc8565b600190505b949350505050565b6000604160f81b827effffffffffffffffffffffffffffffffffffffffffffffffffffffffffffff19161015801561302e5750605a60f81b827effffffffffffffffffffffffffffffffffffffffffffffffffffffffffffff191611155b1561304d5760208260f81c6130439190615796565b60f81b9050613051565b8190505b919050565b606060405180602001604052806000815250905090565b606061307882611f2c565b6130b7576040517f08c379a00000000000000000000000000000000000000000000000000000000081526004016130ae9061583f565b60405180910390fd5b60006130c1613056565b905060008151116130e1576040518060200160405280600081525061310c565b806130eb846133c0565b6040516020016130fc929190615128565b6040516020818303038152906040525b915050919050565b600061313f7fbe534e1b45680d9fd30584748f790084e1d2011067736ca2cfc3de40e89c96676114cc565b905090565b600061316f7f452b9d778ff402c7fd242b34b915a9a51889295e7853bff285707d29d6d697816114cc565b905090565b61319a81600a60008581526020019081526020016000205461352190919063ffffffff16565b600a6000848152602001908152602001600020819055505050565b6000828211156131c8576131c761585f565b5b81836131d49190614dbe565b905092915050565b6131e6838361354d565b6131f36000848484612e48565b613232576040517f08c379a000000000000000000000000000000000000000000000000000000000815260040161322990614ffe565b60405180910390fd5b505050565b613240826110f3565b15613280576040517f08c379a000000000000000000000000000000000000000000000000000000000815260040161327790614a95565b60405180910390fd5b80600b61328c84612773565b6040516132999190614a0c565b9081526020016040518091039020819055505050565b60006132ba82611108565b90506132c881600084612d9d565b6132d3600083611fa0565b6001600460008373ffffffffffffffffffffffffffffffffffffffff1673ffffffffffffffffffffffffffffffffffffffff16815260200190815260200160002060008282546133239190614dbe565b925050819055506003600083815260200190815260200160002060006101000a81549073ffffffffffffffffffffffffffffffffffffffff021916905581600073ffffffffffffffffffffffffffffffffffffffff168273ffffffffffffffffffffffffffffffffffffffff167fddf252ad1be2c89b69c2b068fc378daa952ba7f163c4a11628f55a4df523b3ef60405160405180910390a45050565b60606000821415613408576040518060400160405280600181526020017f3000000000000000000000000000000000000000000000000000000000000000815250905061351c565b600082905060005b6000821461343a5780806134239061504d565b915050600a82613433919061520d565b9150613410565b60008167ffffffffffffffff81111561345657613455613bf2565b5b6040519080825280601f01601f1916602001820160405280156134885781602001600182028036833780820191505090505b5090505b60008514613515576001826134a19190614dbe565b9150600a856134b0919061588e565b60306134bc9190614df2565b60f81b8183815181106134d2576134d161501e565b5b60200101907effffffffffffffffffffffffffffffffffffffffffffffffffffffffffffff1916908160001a905350600a8561350e919061520d565b945061348c565b8093505050505b919050565b60008082846135309190614df2565b9050838110156135435761354261585f565b5b8091505092915050565b600073ffffffffffffffffffffffffffffffffffffffff168273ffffffffffffffffffffffffffffffffffffffff1614156135bd576040517f08c379a00000000000000000000000000000000000000000000000000000000081526004016135b49061590b565b60405180910390fd5b6135c681611f2c565b15613606576040517f08c379a00000000000000000000000000000000000000000000000000000000081526004016135fd90615977565b60405180910390fd5b61361260008383612d9d565b6001600460008473ffffffffffffffffffffffffffffffffffffffff1673ffffffffffffffffffffffffffffffffffffffff16815260200190815260200160002060008282546136629190614df2565b92505081905550816003600083815260200190815260200160002060006101000a81548173ffffffffffffffffffffffffffffffffffffffff021916908373ffffffffffffffffffffffffffffffffffffffff160217905550808273ffffffffffffffffffffffffffffffffffffffff16600073ffffffffffffffffffffffffffffffffffffffff167fddf252ad1be2c89b69c2b068fc378daa952ba7f163c4a11628f55a4df523b3ef60405160405180910390a45050565b6040518060800160405280606081526020016060815260200160608152602001600081525090565b82805461374f906142ca565b90600052602060002090601f01602090048101928261377157600085556137b8565b82601f1061378a57805160ff19168380011785556137b8565b828001600101855582156137b8579182015b828111156137b757825182559160200191906001019061379c565b5b5090506137c59190613809565b5090565b5080546137d5906142ca565b6000825580601f106137e75750613806565b601f0160209004906000526020600020908101906138059190613809565b5b50565b5b8082111561382257600081600090555060010161380a565b5090565b6000604051905090565b600080fd5b600080fd5b60007fffffffff0000000000000000000000000000000000000000000000000000000082169050919050565b61386f8161383a565b811461387a57600080fd5b50565b60008135905061388c81613866565b92915050565b6000602082840312156138a8576138a7613830565b5b60006138b68482850161387d565b91505092915050565b60008115159050919050565b6138d4816138bf565b82525050565b60006020820190506138ef60008301846138cb565b92915050565b6000819050919050565b613908816138f5565b811461391357600080fd5b50565b600081359050613925816138ff565b92915050565b60006020828403121561394157613940613830565b5b600061394f84828501613916565b91505092915050565b600081519050919050565b600082825260208201905092915050565b60005b83811015613992578082015181840152602081019050613977565b838111156139a1576000848401525b50505050565b6000601f19601f8301169050919050565b60006139c382613958565b6139cd8185613963565b93506139dd818560208601613974565b6139e6816139a7565b840191505092915050565b60006020820190508181036000830152613a0b81846139b8565b905092915050565b6000819050919050565b613a2681613a13565b8114613a3157600080fd5b50565b600081359050613a4381613a1d565b92915050565b600060208284031215613a5f57613a5e613830565b5b6000613a6d84828501613a34565b91505092915050565b600073ffffffffffffffffffffffffffffffffffffffff82169050919050565b6000613aa182613a76565b9050919050565b613ab181613a96565b82525050565b6000602082019050613acc6000830184613aa8565b92915050565b613adb81613a96565b8114613ae657600080fd5b50565b600081359050613af881613ad2565b92915050565b60008060408385031215613b1557613b14613830565b5b6000613b2385828601613ae9565b9250506020613b3485828601613a34565b9150509250929050565b600060208284031215613b5457613b53613830565b5b6000613b6284828501613ae9565b91505092915050565b600080600060608486031215613b8457613b83613830565b5b6000613b9286828701613ae9565b9350506020613ba386828701613ae9565b9250506040613bb486828701613a34565b9150509250925092565b613bc781613a13565b82525050565b6000602082019050613be26000830184613bbe565b92915050565b600080fd5b600080fd5b7f4e487b7100000000000000000000000000000000000000000000000000000000600052604160045260246000fd5b613c2a826139a7565b810181811067ffffffffffffffff82111715613c4957613c48613bf2565b5b80604052505050565b6000613c5c613826565b9050613c688282613c21565b919050565b600067ffffffffffffffff821115613c8857613c87613bf2565b5b613c91826139a7565b9050602081019050919050565b82818337600083830152505050565b6000613cc0613cbb84613c6d565b613c52565b905082815260208101848484011115613cdc57613cdb613bed565b5b613ce7848285613c9e565b509392505050565b600082601f830112613d0457613d03613be8565b5b8135613d14848260208601613cad565b91505092915050565b600060208284031215613d3357613d32613830565b5b600082013567ffffffffffffffff811115613d5157613d50613835565b5b613d5d84828501613cef565b91505092915050565b600081519050919050565b600082825260208201905092915050565b6000613d8d82613d66565b613d978185613d71565b9350613da7818560208601613974565b613db0816139a7565b840191505092915050565b60006020820190508181036000830152613dd58184613d82565b905092915050565b6000819050919050565b613df081613ddd565b82525050565b6000602082019050613e0b6000830184613de7565b92915050565b613e1a816138bf565b8114613e2557600080fd5b50565b600081359050613e3781613e11565b92915050565b60008060408385031215613e5457613e53613830565b5b6000613e6285828601613ae9565b9250506020613e7385828601613e28565b9150509250929050565b600067ffffffffffffffff821115613e9857613e97613bf2565b5b613ea1826139a7565b9050602081019050919050565b6000613ec1613ebc84613e7d565b613c52565b905082815260208101848484011115613edd57613edc613bed565b5b613ee8848285613c9e565b509392505050565b600082601f830112613f0557613f04613be8565b5b8135613f15848260208601613eae565b91505092915050565b60008060008060808587031215613f3857613f37613830565b5b6000613f4687828801613ae9565b9450506020613f5787828801613ae9565b9350506040613f6887828801613a34565b925050606085013567ffffffffffffffff811115613f8957613f88613835565b5b613f9587828801613ef0565b91505092959194509250565b600082825260208201905092915050565b6000613fbd82613958565b613fc78185613fa1565b9350613fd7818560208601613974565b613fe0816139a7565b840191505092915050565b613ff481613a13565b82525050565b600060808301600083015184820360008601526140178282613fb2565b915050602083015184820360208601526140318282613fb2565b9150506040830151848203604086015261404b8282613fb2565b91505060608301516140606060860182613feb565b508091505092915050565b600060208201905081810360008301526140858184613ffa565b905092915050565b600080600080600060a086880312156140a9576140a8613830565b5b600086013567ffffffffffffffff8111156140c7576140c6613835565b5b6140d388828901613cef565b955050602086013567ffffffffffffffff8111156140f4576140f3613835565b5b61410088828901613cef565b945050604086013567ffffffffffffffff81111561412157614120613835565b5b61412d88828901613cef565b935050606061413e88828901613a34565b925050608086013567ffffffffffffffff81111561415f5761415e613835565b5b61416b88828901613cef565b9150509295509295909350565b6000806040838503121561418f5761418e613830565b5b600061419d85828601613ae9565b92505060206141ae85828601613ae9565b9150509250929050565b6141c1816138f5565b82525050565b60006020820190506141dc60008301846141b8565b92915050565b60006141f56141f084613c6d565b613c52565b90508281526020810184848401111561421157614210613bed565b5b61421c848285613974565b509392505050565b600082601f83011261423957614238613be8565b5b81516142498482602086016141e2565b91505092915050565b60006020828403121561426857614267613830565b5b600082015167ffffffffffffffff81111561428657614285613835565b5b61429284828501614224565b91505092915050565b7f4e487b7100000000000000000000000000000000000000000000000000000000600052602260045260246000fd5b600060028204905060018216806142e257607f821691505b602082108114156142f6576142f561429b565b5b50919050565b7f4552433732313a20617070726f76656420717565727920666f72206e6f6e657860008201527f697374656e7420746f6b656e0000000000000000000000000000000000000000602082015250565b6000614358602c83613963565b9150614363826142fc565b604082019050919050565b600060208201905081810360008301526143878161434b565b9050919050565b7f4552433732313a20617070726f76616c20746f2063757272656e74206f776e6560008201527f7200000000000000000000000000000000000000000000000000000000000000602082015250565b60006143ea602183613963565b91506143f58261438e565b604082019050919050565b60006020820190508181036000830152614419816143dd565b9050919050565b7f4552433732313a20617070726f76652063616c6c6572206973206e6f74206f7760008201527f6e6572206e6f7220617070726f76656420666f7220616c6c0000000000000000602082015250565b600061447c603883613963565b915061448782614420565b604082019050919050565b600060208201905081810360008301526144ab8161446f565b9050919050565b6000815190506144c181613ad2565b92915050565b6000602082840312156144dd576144dc613830565b5b60006144eb848285016144b2565b91505092915050565b7f4552433732313a207472616e736665722063616c6c6572206973206e6f74206f60008201527f776e6572206e6f7220617070726f766564000000000000000000000000000000602082015250565b6000614550603183613963565b915061455b826144f4565b604082019050919050565b6000602082019050818103600083015261457f81614543565b9050919050565b7f4f776e61626c653a2063616c6c6572206973206e6f7420746865206f776e6572600082015250565b60006145bc602083613963565b91506145c782614586565b602082019050919050565b600060208201905081810360008301526145eb816145af565b9050919050565b7f4552433732314275726e61626c653a2063616c6c6572206973206e6f74206f7760008201527f6e6572206e6f7220617070726f76656400000000000000000000000000000000602082015250565b600061464e603083613963565b9150614659826145f2565b604082019050919050565b6000602082019050818103600083015261467d81614641565b9050919050565b7f455243373231556e636f6c6c65637469626c653a20746869732061646472657360008201527f7320646f6573206e6f742068617665206120746f6b656e000000000000000000602082015250565b60006146e0603783613963565b91506146eb82614684565b604082019050919050565b6000602082019050818103600083015261470f816146d3565b9050919050565b7f4552433732313a206f776e657220717565727920666f72206e6f6e657869737460008201527f656e7420746f6b656e0000000000000000000000000000000000000000000000602082015250565b6000614772602983613963565b915061477d82614716565b604082019050919050565b600060208201905081810360008301526147a181614765565b9050919050565b60006147bb6147b684613e7d565b613c52565b9050828152602081018484840111156147d7576147d6613bed565b5b6147e2848285613974565b509392505050565b600082601f8301126147ff576147fe613be8565b5b815161480f8482602086016147a8565b91505092915050565b60006020828403121561482e5761482d613830565b5b600082015167ffffffffffffffff81111561484c5761484b613835565b5b614858848285016147ea565b91505092915050565b60008151905061487081613e11565b92915050565b60006020828403121561488c5761488b613830565b5b600061489a84828501614861565b91505092915050565b7f4552433732313a2062616c616e636520717565727920666f7220746865207a6560008201527f726f206164647265737300000000000000000000000000000000000000000000602082015250565b60006148ff602a83613963565b915061490a826148a3565b604082019050919050565b6000602082019050818103600083015261492e816148f2565b9050919050565b60008151905061494481613a1d565b92915050565b6000602082840312156149605761495f613830565b5b600061496e84828501614935565b91505092915050565b61498081613ddd565b811461498b57600080fd5b50565b60008151905061499d81614977565b92915050565b6000602082840312156149b9576149b8613830565b5b60006149c78482850161498e565b91505092915050565b600081905092915050565b60006149e682613958565b6149f081856149d0565b9350614a00818560208601613974565b80840191505092915050565b6000614a1882846149db565b915081905092915050565b7f5468697320757365726e616d6520686173206265656e2074616b656e2062656660008201527f6f72650000000000000000000000000000000000000000000000000000000000602082015250565b6000614a7f602383613963565b9150614a8a82614a23565b604082019050919050565b60006020820190508181036000830152614aae81614a72565b9050919050565b7f4f776e61626c653a206e6577206f776e657220697320746865207a65726f206160008201527f6464726573730000000000000000000000000000000000000000000000000000602082015250565b6000614b11602683613963565b9150614b1c82614ab5565b604082019050919050565b60006020820190508181036000830152614b4081614b04565b9050919050565b7f455243373231556e636f6c6c65637469626c653a20746869732061646472657360008201527f7320646f65732068617665206120746f6b656e00000000000000000000000000602082015250565b6000614ba3603383613963565b9150614bae82614b47565b604082019050919050565b60006020820190508181036000830152614bd281614b96565b9050919050565b7f4552433732313a206f70657261746f7220717565727920666f72206e6f6e657860008201527f697374656e7420746f6b656e0000000000000000000000000000000000000000602082015250565b6000614c35602c83613963565b9150614c4082614bd9565b604082019050919050565b60006020820190508181036000830152614c6481614c28565b9050919050565b7f4552433732313a207472616e73666572206f6620746f6b656e2074686174206960008201527f73206e6f74206f776e0000000000000000000000000000000000000000000000602082015250565b6000614cc7602983613963565b9150614cd282614c6b565b604082019050919050565b60006020820190508181036000830152614cf681614cba565b9050919050565b7f4552433732313a207472616e7366657220746f20746865207a65726f2061646460008201527f7265737300000000000000000000000000000000000000000000000000000000602082015250565b6000614d59602483613963565b9150614d6482614cfd565b604082019050919050565b60006020820190508181036000830152614d8881614d4c565b9050919050565b7f4e487b7100000000000000000000000000000000000000000000000000000000600052601160045260246000fd5b6000614dc982613a13565b9150614dd483613a13565b925082821015614de757614de6614d8f565b5b828203905092915050565b6000614dfd82613a13565b9150614e0883613a13565b9250827fffffffffffffffffffffffffffffffffffffffffffffffffffffffffffffffff03821115614e3d57614e3c614d8f565b5b828201905092915050565b7f5061757361626c653a206e6f7420706175736564000000000000000000000000600082015250565b6000614e7e601483613963565b9150614e8982614e48565b602082019050919050565b60006020820190508181036000830152614ead81614e71565b9050919050565b7f5061757361626c653a2070617573656400000000000000000000000000000000600082015250565b6000614eea601083613963565b9150614ef582614eb4565b602082019050919050565b60006020820190508181036000830152614f1981614edd565b9050919050565b7f4552433732313a20617070726f766520746f2063616c6c657200000000000000600082015250565b6000614f56601983613963565b9150614f6182614f20565b602082019050919050565b60006020820190508181036000830152614f8581614f49565b9050919050565b7f4552433732313a207472616e7366657220746f206e6f6e20455243373231526560008201527f63656976657220696d706c656d656e7465720000000000000000000000000000602082015250565b6000614fe8603283613963565b9150614ff382614f8c565b604082019050919050565b6000602082019050818103600083015261501781614fdb565b9050919050565b7f4e487b7100000000000000000000000000000000000000000000000000000000600052603260045260246000fd5b600061505882613a13565b91507fffffffffffffffffffffffffffffffffffffffffffffffffffffffffffffffff82141561508b5761508a614d8f565b5b600182019050919050565b7f45524337323155524953746f726167653a2055524920717565727920666f722060008201527f6e6f6e6578697374656e7420746f6b656e000000000000000000000000000000602082015250565b60006150f2603183613963565b91506150fd82615096565b604082019050919050565b60006020820190508181036000830152615121816150e5565b9050919050565b600061513482856149db565b915061514082846149db565b91508190509392505050565b7f696e73756666696369656e742066656520666f722074686520757365726e616d60008201527f6500000000000000000000000000000000000000000000000000000000000000602082015250565b60006151a8602183613963565b91506151b38261514c565b604082019050919050565b600060208201905081810360008301526151d78161519b565b9050919050565b7f4e487b7100000000000000000000000000000000000000000000000000000000600052601260045260246000fd5b600061521882613a13565b915061522383613a13565b925082615233576152326151de565b5b828204905092915050565b600061524982613a13565b915061525483613a13565b9250817fffffffffffffffffffffffffffffffffffffffffffffffffffffffffffffffff048311821515161561528d5761528c614d8f565b5b828202905092915050565b7f45524337323155524953746f726167653a2055524920736574206f66206e6f6e60008201527f6578697374656e7420746f6b656e000000000000000000000000000000000000602082015250565b60006152f4602e83613963565b91506152ff82615298565b604082019050919050565b60006020820190508181036000830152615323816152e7565b9050919050565b7f656d70747920757365726e616d65000000000000000000000000000000000000600082015250565b6000615360600e83613963565b915061536b8261532a565b602082019050919050565b6000602082019050818103600083015261538f81615353565b9050919050565b600082825260208201905092915050565b60006153b282613958565b6153bc8185615396565b93506153cc818560208601613974565b6153d5816139a7565b840191505092915050565b600060208201905081810360008301526153fa81846153a7565b905092915050565b7f796f752063616e206a75737420757365206e756d6265727328302d3929206c6560008201527f747465727328612d7a412d5a2920616e64207369676e73282d2e5f2900000000602082015250565b600061545e603c83613963565b915061546982615402565b604082019050919050565b6000602082019050818103600083015261548d81615451565b9050919050565b7f40706f6c79676f6e000000000000000000000000000000000000000000000000600082015250565b60006154ca600883615396565b91506154d582615494565b602082019050919050565b600060408201905081810360008301526154fa81846153a7565b9050818103602083015261550d816154bd565b905092915050565b600060a08201905061552a6000830188613bbe565b818103602083015261553c81876139b8565b9050818103604083015261555081866139b8565b9050818103606083015261556481856139b8565b90506155736080830184613bbe565b9695505050505050565b60008160011c9050919050565b6000808291508390505b60018511156155d4578086048111156155b0576155af614d8f565b5b60018516156155bf5780820291505b80810290506155cd8561557d565b9450615594565b94509492505050565b6000826155ed57600190506156a9565b816155fb57600090506156a9565b8160018114615611576002811461561b5761564a565b60019150506156a9565b60ff84111561562d5761562c614d8f565b5b8360020a91508482111561564457615643614d8f565b5b506156a9565b5060208310610133831016604e8410600b841016171561567f5782820a90508381111561567a57615679614d8f565b5b6156a9565b61568c848484600161558a565b925090508184048111156156a3576156a2614d8f565b5b81810290505b9392505050565b60006156bb82613a13565b91506156c683613a13565b92506156f37fffffffffffffffffffffffffffffffffffffffffffffffffffffffffffffffff84846155dd565b905092915050565b60006080820190506157106000830187613aa8565b61571d6020830186613aa8565b61572a6040830185613bbe565b818103606083015261573c8184613d82565b905095945050505050565b60008151905061575681613866565b92915050565b60006020828403121561577257615771613830565b5b600061578084828501615747565b91505092915050565b600060ff82169050919050565b60006157a182615789565b91506157ac83615789565b92508260ff038211156157c2576157c1614d8f565b5b828201905092915050565b7f4552433732314d657461646174613a2055524920717565727920666f72206e6f60008201527f6e6578697374656e7420746f6b656e0000000000000000000000000000000000602082015250565b6000615829602f83613963565b9150615834826157cd565b604082019050919050565b600060208201905081810360008301526158588161581c565b9050919050565b7f4e487b7100000000000000000000000000000000000000000000000000000000600052600160045260246000fd5b600061589982613a13565b91506158a483613a13565b9250826158b4576158b36151de565b5b828206905092915050565b7f4552433732313a206d696e7420746f20746865207a65726f2061646472657373600082015250565b60006158f5602083613963565b9150615900826158bf565b602082019050919050565b60006020820190508181036000830152615924816158e8565b9050919050565b7f4552433732313a20746f6b656e20616c7265616479206d696e74656400000000600082015250565b6000615961601c83613963565b915061596c8261592b565b602082019050919050565b6000602082019050818103600083015261599081615954565b905091905056fea264697066735822122054526e3660923229f70da4cedc28bc3ec66cf019cf8b7ddbec87aa95d339fcc064736f6c634300080b0033",
  "linkReferences": {
    "contracts/utils/ConcatenateString.sol": {
      "ConcatenateString": [
        {
          "length": 20,
          "start": 15260
        }
      ]
    },
    "contracts/utils/regex/LiteralRegex.sol": {
      "LiteralRegex": [
        {
          "length": 20,
          "start": 15065
        }
      ]
    }
  },
  "deployedLinkReferences": {
    "contracts/utils/ConcatenateString.sol": {
      "ConcatenateString": [
        {
          "length": 20,
          "start": 11255
        }
      ]
    },
    "contracts/utils/regex/LiteralRegex.sol": {
      "LiteralRegex": [
        {
          "length": 20,
          "start": 11060
        }
      ]
    }
  }
}