{
  "_format": "hh-sol-artifact-1",
  "contractName": "PaymentData",
  "sourceName": "contracts/implementation/PaymentData.sol",
  "abi": [
    {
      "anonymous": false,
      "inputs": [
        {
          "indexed": true,
          "internalType": "address",
          "name": "previousOwner",
          "type": "address"
        },
        {
          "indexed": true,
          "internalType": "address",
          "name": "newOwner",
          "type": "address"
        }
      ],
      "name": "OwnershipTransferred",
      "type": "event"
    },
    {
      "inputs": [],
      "name": "owner",
      "outputs": [
        {
          "internalType": "address",
          "name": "",
          "type": "address"
        }
      ],
      "stateMutability": "view",
      "type": "function"
    },
    {
      "inputs": [
        {
          "internalType": "uint256",
          "name": "targetChainId",
          "type": "uint256"
        }
      ],
      "name": "price",
      "outputs": [
        {
          "internalType": "uint256",
          "name": "",
          "type": "uint256"
        }
      ],
      "stateMutability": "view",
      "type": "function"
    },
    {
      "inputs": [],
      "name": "renounceOwnership",
      "outputs": [],
      "stateMutability": "nonpayable",
      "type": "function"
    },
    {
      "inputs": [
        {
          "internalType": "uint256",
          "name": "_mintGas",
          "type": "uint256"
        },
        {
          "internalType": "uint256",
          "name": "_redeemGas",
          "type": "uint256"
        },
        {
          "internalType": "uint256",
          "name": "_feeRatio",
          "type": "uint256"
        },
        {
          "internalType": "uint256",
          "name": "_dappPercent",
          "type": "uint256"
        },
        {
          "internalType": "uint256[]",
          "name": "dappIds",
          "type": "uint256[]"
        },
        {
          "internalType": "address[]",
          "name": "dappAddresses",
          "type": "address[]"
        },
        {
          "internalType": "uint256[]",
          "name": "aggregatorChainIds",
          "type": "uint256[]"
        },
        {
          "internalType": "address[]",
          "name": "aggregatorAddresses",
          "type": "address[]"
        },
        {
          "internalType": "uint256[]",
          "name": "coinChainIds",
          "type": "uint256[]"
        },
        {
          "internalType": "int256[]",
          "name": "coinPricesUSD",
          "type": "int256[]"
        }
      ],
      "name": "set",
      "outputs": [],
      "stateMutability": "nonpayable",
      "type": "function"
    },
    {
      "inputs": [
        {
          "internalType": "address",
          "name": "newOwner",
          "type": "address"
        }
      ],
      "name": "transferOwnership",
      "outputs": [],
      "stateMutability": "nonpayable",
      "type": "function"
    }
  ],
  "bytecode": "0x608060405234801561001057600080fd5b50611463806100206000396000f3fe608060405234801561001057600080fd5b50600436106100575760003560e01c806326a49e371461005c578063715018a61461008c5780638670c7af146100965780638da5cb5b146100b2578063f2fde38b146100d0575b600080fd5b610076600480360381019061007191906108e1565b6100ec565b604051610083919061091d565b60405180910390f35b610094610171565b005b6100b060048036038101906100ab9190610cab565b6101f9565b005b6100ba61048b565b6040516100c79190610e41565b60405180910390f35b6100ea60048036038101906100e59190610e5c565b6104b5565b005b6000806100f8836105ad565b1415610139576040517f08c379a000000000000000000000000000000000000000000000000000000000815260040161013090610ee6565b60405180910390fd5b60004690506305f5e10061014c826105ad565b610155856105ad565b61015f9190610f64565b6101699190610fce565b915050919050565b6101796106d9565b73ffffffffffffffffffffffffffffffffffffffff1661019761048b565b73ffffffffffffffffffffffffffffffffffffffff16146101ed576040517f08c379a00000000000000000000000000000000000000000000000000000000081526004016101e490611131565b60405180910390fd5b6101f760006106e1565b565b6102016106d9565b73ffffffffffffffffffffffffffffffffffffffff1661021f61048b565b73ffffffffffffffffffffffffffffffffffffffff1614610275576040517f08c379a000000000000000000000000000000000000000000000000000000000815260040161026c90611131565b60405180910390fd5b84518651146102b9576040517f08c379a00000000000000000000000000000000000000000000000000000000081526004016102b09061119d565b60405180910390fd5b82518451146102fd576040517f08c379a00000000000000000000000000000000000000000000000000000000081526004016102f49061122f565b60405180910390fd5b8051825114610341576040517f08c379a0000000000000000000000000000000000000000000000000000000008152600401610338906112c1565b60405180910390fd5b61034a8a6107a7565b610353896107b1565b61035c886107bb565b610365876107c5565b60005b86518110156103c2576103af878281518110610387576103866112e1565b5b60200260200101518783815181106103a2576103a16112e1565b5b60200260200101516107cf565b80806103ba90611310565b915050610368565b5060005b84518110156104205761040d8582815181106103e5576103e46112e1565b5b6020026020010151858381518110610400576103ff6112e1565b5b6020026020010151610825565b808061041890611310565b9150506103c6565b5060005b825181101561047e5761046b838281518110610443576104426112e1565b5b602002602001015183838151811061045e5761045d6112e1565b5b602002602001015161087b565b808061047690611310565b915050610424565b5050505050505050505050565b6000603460009054906101000a900473ffffffffffffffffffffffffffffffffffffffff16905090565b6104bd6106d9565b73ffffffffffffffffffffffffffffffffffffffff166104db61048b565b73ffffffffffffffffffffffffffffffffffffffff1614610531576040517f08c379a000000000000000000000000000000000000000000000000000000000815260040161052890611131565b60405180910390fd5b600073ffffffffffffffffffffffffffffffffffffffff168173ffffffffffffffffffffffffffffffffffffffff1614156105a1576040517f08c379a0000000000000000000000000000000000000000000000000000000008152600401610598906113cb565b60405180910390fd5b6105aa816106e1565b50565b60008073ffffffffffffffffffffffffffffffffffffffff166066600084815260200190815260200160002060009054906101000a900473ffffffffffffffffffffffffffffffffffffffff1673ffffffffffffffffffffffffffffffffffffffff16141561062f5760676000838152602001908152602001600020546106d2565b6066600083815260200190815260200160002060009054906101000a900473ffffffffffffffffffffffffffffffffffffffff1673ffffffffffffffffffffffffffffffffffffffff166350d25bcd6040518163ffffffff1660e01b8152600401602060405180830381865afa1580156106ad573d6000803e3d6000fd5b505050506040513d601f19601f820116820180604052508101906106d19190611400565b5b9050919050565b600033905090565b6000603460009054906101000a900473ffffffffffffffffffffffffffffffffffffffff16905081603460006101000a81548173ffffffffffffffffffffffffffffffffffffffff021916908373ffffffffffffffffffffffffffffffffffffffff1602179055508173ffffffffffffffffffffffffffffffffffffffff168173ffffffffffffffffffffffffffffffffffffffff167f8be0079c531659141344cd1fd0a4f28419497f9722a3daafe3b4186f6b6457e060405160405180910390a35050565b8060688190555050565b8060698190555050565b80606a8190555050565b80606b8190555050565b80606c600084815260200190815260200160002060006101000a81548173ffffffffffffffffffffffffffffffffffffffff021916908373ffffffffffffffffffffffffffffffffffffffff1602179055505050565b806066600084815260200190815260200160002060006101000a81548173ffffffffffffffffffffffffffffffffffffffff021916908373ffffffffffffffffffffffffffffffffffffffff1602179055505050565b8060676000848152602001908152602001600020819055505050565b6000604051905090565b600080fd5b600080fd5b6000819050919050565b6108be816108ab565b81146108c957600080fd5b50565b6000813590506108db816108b5565b92915050565b6000602082840312156108f7576108f66108a1565b5b6000610905848285016108cc565b91505092915050565b610917816108ab565b82525050565b6000602082019050610932600083018461090e565b92915050565b600080fd5b6000601f19601f8301169050919050565b7f4e487b7100000000000000000000000000000000000000000000000000000000600052604160045260246000fd5b6109868261093d565b810181811067ffffffffffffffff821117156109a5576109a461094e565b5b80604052505050565b60006109b8610897565b90506109c4828261097d565b919050565b600067ffffffffffffffff8211156109e4576109e361094e565b5b602082029050602081019050919050565b600080fd5b6000610a0d610a08846109c9565b6109ae565b90508083825260208201905060208402830185811115610a3057610a2f6109f5565b5b835b81811015610a595780610a4588826108cc565b845260208401935050602081019050610a32565b5050509392505050565b600082601f830112610a7857610a77610938565b5b8135610a888482602086016109fa565b91505092915050565b600067ffffffffffffffff821115610aac57610aab61094e565b5b602082029050602081019050919050565b600073ffffffffffffffffffffffffffffffffffffffff82169050919050565b6000610ae882610abd565b9050919050565b610af881610add565b8114610b0357600080fd5b50565b600081359050610b1581610aef565b92915050565b6000610b2e610b2984610a91565b6109ae565b90508083825260208201905060208402830185811115610b5157610b506109f5565b5b835b81811015610b7a5780610b668882610b06565b845260208401935050602081019050610b53565b5050509392505050565b600082601f830112610b9957610b98610938565b5b8135610ba9848260208601610b1b565b91505092915050565b600067ffffffffffffffff821115610bcd57610bcc61094e565b5b602082029050602081019050919050565b6000819050919050565b610bf181610bde565b8114610bfc57600080fd5b50565b600081359050610c0e81610be8565b92915050565b6000610c27610c2284610bb2565b6109ae565b90508083825260208201905060208402830185811115610c4a57610c496109f5565b5b835b81811015610c735780610c5f8882610bff565b845260208401935050602081019050610c4c565b5050509392505050565b600082601f830112610c9257610c91610938565b5b8135610ca2848260208601610c14565b91505092915050565b6000806000806000806000806000806101408b8d031215610ccf57610cce6108a1565b5b6000610cdd8d828e016108cc565b9a50506020610cee8d828e016108cc565b9950506040610cff8d828e016108cc565b9850506060610d108d828e016108cc565b97505060808b013567ffffffffffffffff811115610d3157610d306108a6565b5b610d3d8d828e01610a63565b96505060a08b013567ffffffffffffffff811115610d5e57610d5d6108a6565b5b610d6a8d828e01610b84565b95505060c08b013567ffffffffffffffff811115610d8b57610d8a6108a6565b5b610d978d828e01610a63565b94505060e08b013567ffffffffffffffff811115610db857610db76108a6565b5b610dc48d828e01610b84565b9350506101008b013567ffffffffffffffff811115610de657610de56108a6565b5b610df28d828e01610a63565b9250506101208b013567ffffffffffffffff811115610e1457610e136108a6565b5b610e208d828e01610c7d565b9150509295989b9194979a5092959850565b610e3b81610add565b82525050565b6000602082019050610e566000830184610e32565b92915050565b600060208284031215610e7257610e716108a1565b5b6000610e8084828501610b06565b91505092915050565b600082825260208201905092915050565b7f636861696e204964206e6f7420737570706f7274656400000000000000000000600082015250565b6000610ed0601683610e89565b9150610edb82610e9a565b602082019050919050565b60006020820190508181036000830152610eff81610ec3565b9050919050565b7f4e487b7100000000000000000000000000000000000000000000000000000000600052601260045260246000fd5b7f4e487b7100000000000000000000000000000000000000000000000000000000600052601160045260246000fd5b6000610f6f82610bde565b9150610f7a83610bde565b925082610f8a57610f89610f06565b5b600160000383147f800000000000000000000000000000000000000000000000000000000000000083141615610fc357610fc2610f35565b5b828205905092915050565b6000610fd982610bde565b9150610fe483610bde565b9250827f7fffffffffffffffffffffffffffffffffffffffffffffffffffffffffffffff048211600084136000841316161561102357611022610f35565b5b817f800000000000000000000000000000000000000000000000000000000000000005831260008412600084131616156110605761105f610f35565b5b827f8000000000000000000000000000000000000000000000000000000000000000058212600084136000841216161561109d5761109c610f35565b5b827f7fffffffffffffffffffffffffffffffffffffffffffffffffffffffffffffff05821260008412600084121616156110da576110d9610f35565b5b828202905092915050565b7f4f776e61626c653a2063616c6c6572206973206e6f7420746865206f776e6572600082015250565b600061111b602083610e89565b9150611126826110e5565b602082019050919050565b6000602082019050818103600083015261114a8161110e565b9050919050565b7f646170702061727261797320617265206e6f742073616d65206c656e6774682e600082015250565b6000611187602083610e89565b915061119282611151565b602082019050919050565b600060208201905081810360008301526111b68161117a565b9050919050565b7f61676772656761746f722061727261797320617265206e6f742073616d65206c60008201527f656e6774682e0000000000000000000000000000000000000000000000000000602082015250565b6000611219602683610e89565b9150611224826111bd565b604082019050919050565b600060208201905081810360008301526112488161120c565b9050919050565b7f636f696e2070726963652061727261797320617265206e6f742073616d65206c60008201527f656e6774682e0000000000000000000000000000000000000000000000000000602082015250565b60006112ab602683610e89565b91506112b68261124f565b604082019050919050565b600060208201905081810360008301526112da8161129e565b9050919050565b7f4e487b7100000000000000000000000000000000000000000000000000000000600052603260045260246000fd5b600061131b826108ab565b91507fffffffffffffffffffffffffffffffffffffffffffffffffffffffffffffffff82141561134e5761134d610f35565b5b600182019050919050565b7f4f776e61626c653a206e6577206f776e657220697320746865207a65726f206160008201527f6464726573730000000000000000000000000000000000000000000000000000602082015250565b60006113b5602683610e89565b91506113c082611359565b604082019050919050565b600060208201905081810360008301526113e4816113a8565b9050919050565b6000815190506113fa81610be8565b92915050565b600060208284031215611416576114156108a1565b5b6000611424848285016113eb565b9150509291505056fea2646970667358221220d253606c6124644a2235748327fe79797995d7477cf4573758f94975b103578264736f6c634300080b0033",
  "linkReferences": {},
  "deployedLinkReferences": {}
}