{
  "_format": "hh-sol-artifact-1",
  "contractName": "CrossChainImplementation",
  "sourceName": "contracts/implementation/CrossChainImplementation.sol",
  "abi": [
    {
      "inputs": [],
      "stateMutability": "nonpayable",
      "type": "constructor"
    },
    {
      "anonymous": false,
      "inputs": [
        {
          "indexed": true,
          "internalType": "address",
          "name": "previousOwner",
          "type": "address"
        },
        {
          "indexed": true,
          "internalType": "address",
          "name": "newOwner",
          "type": "address"
        }
      ],
      "name": "OwnershipTransferred",
      "type": "event"
    },
    {
      "anonymous": false,
      "inputs": [
        {
          "indexed": false,
          "internalType": "uint256",
          "name": "chainId",
          "type": "uint256"
        },
        {
          "indexed": false,
          "internalType": "address",
          "name": "contAddr",
          "type": "address"
        },
        {
          "indexed": false,
          "internalType": "address",
          "name": "to",
          "type": "address"
        },
        {
          "indexed": false,
          "internalType": "uint256",
          "name": "tokenId",
          "type": "uint256"
        }
      ],
      "name": "RelayerCallRedeem",
      "type": "event"
    },
    {
      "anonymous": false,
      "inputs": [
        {
          "indexed": false,
          "internalType": "uint256",
          "name": "targetChainId",
          "type": "uint256"
        },
        {
          "indexed": false,
          "internalType": "address",
          "name": "to",
          "type": "address"
        },
        {
          "indexed": false,
          "internalType": "uint256",
          "name": "chainId",
          "type": "uint256"
        },
        {
          "indexed": false,
          "internalType": "address",
          "name": "contAddr",
          "type": "address"
        },
        {
          "indexed": false,
          "internalType": "uint256",
          "name": "tokenId",
          "type": "uint256"
        },
        {
          "indexed": false,
          "internalType": "string",
          "name": "uri",
          "type": "string"
        }
      ],
      "name": "RelayerCallSafeMintWrappedToken",
      "type": "event"
    },
    {
      "inputs": [
        {
          "internalType": "uint256",
          "name": "targetChainId",
          "type": "uint256"
        }
      ],
      "name": "mintFee",
      "outputs": [
        {
          "internalType": "uint256",
          "name": "",
          "type": "uint256"
        }
      ],
      "stateMutability": "view",
      "type": "function"
    },
    {
      "inputs": [],
      "name": "owner",
      "outputs": [
        {
          "internalType": "address",
          "name": "",
          "type": "address"
        }
      ],
      "stateMutability": "view",
      "type": "function"
    },
    {
      "inputs": [
        {
          "internalType": "uint256",
          "name": "targetChainId",
          "type": "uint256"
        }
      ],
      "name": "price",
      "outputs": [
        {
          "internalType": "uint256",
          "name": "",
          "type": "uint256"
        }
      ],
      "stateMutability": "view",
      "type": "function"
    },
    {
      "inputs": [
        {
          "internalType": "address",
          "name": "contAddr",
          "type": "address"
        },
        {
          "internalType": "address",
          "name": "to",
          "type": "address"
        },
        {
          "internalType": "uint256",
          "name": "tokenId",
          "type": "uint256"
        }
      ],
      "name": "redeem",
      "outputs": [],
      "stateMutability": "nonpayable",
      "type": "function"
    },
    {
      "inputs": [
        {
          "internalType": "uint256",
          "name": "targetChainId",
          "type": "uint256"
        }
      ],
      "name": "redeemFee",
      "outputs": [
        {
          "internalType": "uint256",
          "name": "",
          "type": "uint256"
        }
      ],
      "stateMutability": "view",
      "type": "function"
    },
    {
      "inputs": [],
      "name": "renounceOwnership",
      "outputs": [],
      "stateMutability": "nonpayable",
      "type": "function"
    },
    {
      "inputs": [
        {
          "internalType": "uint256",
          "name": "chainId",
          "type": "uint256"
        },
        {
          "internalType": "address",
          "name": "contAddr",
          "type": "address"
        },
        {
          "internalType": "address",
          "name": "to",
          "type": "address"
        },
        {
          "internalType": "uint256",
          "name": "tokenId",
          "type": "uint256"
        },
        {
          "internalType": "address",
          "name": "dappAddr",
          "type": "address"
        }
      ],
      "name": "requestReleaseLockedToken",
      "outputs": [],
      "stateMutability": "payable",
      "type": "function"
    },
    {
      "inputs": [
        {
          "internalType": "uint256",
          "name": "targetChainId",
          "type": "uint256"
        },
        {
          "internalType": "address",
          "name": "to",
          "type": "address"
        },
        {
          "internalType": "uint256",
          "name": "chainId",
          "type": "uint256"
        },
        {
          "internalType": "address",
          "name": "contAddr",
          "type": "address"
        },
        {
          "internalType": "uint256",
          "name": "tokenId",
          "type": "uint256"
        },
        {
          "internalType": "string",
          "name": "uri",
          "type": "string"
        },
        {
          "internalType": "address",
          "name": "dappAddr",
          "type": "address"
        }
      ],
      "name": "requestTransferCrossChain",
      "outputs": [],
      "stateMutability": "payable",
      "type": "function"
    },
    {
      "inputs": [
        {
          "internalType": "uint256",
          "name": "chainId",
          "type": "uint256"
        },
        {
          "internalType": "address",
          "name": "contAddr",
          "type": "address"
        },
        {
          "internalType": "address",
          "name": "to",
          "type": "address"
        },
        {
          "internalType": "uint256",
          "name": "tokenId",
          "type": "uint256"
        },
        {
          "internalType": "string",
          "name": "uri",
          "type": "string"
        }
      ],
      "name": "safeMintWrappedToken",
      "outputs": [],
      "stateMutability": "nonpayable",
      "type": "function"
    },
    {
      "inputs": [
        {
          "internalType": "uint256",
          "name": "_mintGas",
          "type": "uint256"
        },
        {
          "internalType": "uint256",
          "name": "_redeemGas",
          "type": "uint256"
        },
        {
          "internalType": "uint256",
          "name": "_feeRatio",
          "type": "uint256"
        },
        {
          "internalType": "uint256",
          "name": "_dappPercent",
          "type": "uint256"
        },
        {
          "internalType": "uint256[]",
          "name": "aggregatorChainIds",
          "type": "uint256[]"
        },
        {
          "internalType": "address[]",
          "name": "aggregatorAddresses",
          "type": "address[]"
        },
        {
          "internalType": "uint256[]",
          "name": "coinChainIds",
          "type": "uint256[]"
        },
        {
          "internalType": "int256[]",
          "name": "coinPricesUSD",
          "type": "int256[]"
        }
      ],
      "name": "set",
      "outputs": [],
      "stateMutability": "nonpayable",
      "type": "function"
    },
    {
      "inputs": [
        {
          "internalType": "address",
          "name": "newOwner",
          "type": "address"
        }
      ],
      "name": "transferOwnership",
      "outputs": [],
      "stateMutability": "nonpayable",
      "type": "function"
    },
    {
      "inputs": [],
      "name": "version",
      "outputs": [
        {
          "internalType": "string",
          "name": "",
          "type": "string"
        }
      ],
      "stateMutability": "pure",
      "type": "function"
    }
  ],
  "bytecode": "0x60806040523480156200001157600080fd5b50620000296001639502f907620001ec60201b60201c565b6200004160386406fc23ac00620001ec60201b60201c565b6200005960896406fc23ac00620001ec60201b60201c565b6200007261a86a6406fc23ac00620001ec60201b60201c565b6200008a60046406fc23ac00620001ec60201b60201c565b620000a4620138816406fc23ac00620001ec60201b60201c565b620000bd61a8696406fc23ac00620001ec60201b60201c565b620000dd620000d16200020760201b60201c565b6200020f60201b60201c565b6200010460047386d67c3d38d2bcee722e601025c25a575021c6ea620002d560201b60201c565b6200012c61a869735498bb86bc934c8d34fda08e81d444153d0d06ad620002d560201b60201c565b6200014562013881630d9701006200032b60201b60201c565b62000157600a6200034760201b60201c565b6200016960026200035160201b60201c565b6200017d6203f7a06200035b60201b60201c565b620001916203f7a06200036560201b60201c565b7316539214c06b69b3bc4c2613cfe8a6bcf6d2a4ac600860006101000a81548173ffffffffffffffffffffffffffffffffffffffff021916908373ffffffffffffffffffffffffffffffffffffffff1602179055506200036f565b80600080848152602001908152602001600020819055505050565b600033905090565b6000600160009054906101000a900473ffffffffffffffffffffffffffffffffffffffff16905081600160006101000a81548173ffffffffffffffffffffffffffffffffffffffff021916908373ffffffffffffffffffffffffffffffffffffffff1602179055508173ffffffffffffffffffffffffffffffffffffffff168173ffffffffffffffffffffffffffffffffffffffff167f8be0079c531659141344cd1fd0a4f28419497f9722a3daafe3b4186f6b6457e060405160405180910390a35050565b806002600084815260200190815260200160002060006101000a81548173ffffffffffffffffffffffffffffffffffffffff021916908373ffffffffffffffffffffffffffffffffffffffff1602179055505050565b8060036000848152602001908152602001600020819055505050565b8060078190555050565b8060068190555050565b8060048190555050565b8060058190555050565b612069806200037f6000396000f3fe6080604052600436106100a75760003560e01c8063715018a611610064578063715018a6146101ab5780638a35ace3146101c25780638da5cb5b146101ff578063f2fde38b1461022a578063f60e550e14610253578063f87fcd0f1461026f576100a7565b80630e6dfcd5146100ac57806311f918f4146100d557806316e36eb6146100f157806326a49e371461011a578063298c61ef1461015757806354fd4d5014610180575b600080fd5b3480156100b857600080fd5b506100d360048036038101906100ce9190611038565b6102ac565b005b6100ef60048036038101906100ea91906111d1565b6103be565b005b3480156100fd57600080fd5b506101186004803603810190610113919061128f565b610413565b005b34801561012657600080fd5b50610141600480360381019061013c9190611326565b61052b565b60405161014e9190611362565b60405180910390f35b34801561016357600080fd5b5061017e60048036038101906101799190611601565b6105b4565b005b34801561018c57600080fd5b506101956107c6565b6040516101a291906117af565b60405180910390f35b3480156101b757600080fd5b506101c0610803565b005b3480156101ce57600080fd5b506101e960048036038101906101e49190611326565b61088b565b6040516101f69190611362565b60405180910390f35b34801561020b57600080fd5b5061021461089d565b60405161022191906117e0565b60405180910390f35b34801561023657600080fd5b50610251600480360381019061024c91906117fb565b6108c7565b005b61026d60048036038101906102689190611828565b6109bf565b005b34801561027b57600080fd5b5061029660048036038101906102919190611326565b610a0e565b6040516102a39190611362565b60405180910390f35b6102b4610a20565b73ffffffffffffffffffffffffffffffffffffffff166102d261089d565b73ffffffffffffffffffffffffffffffffffffffff1614610328576040517f08c379a000000000000000000000000000000000000000000000000000000000815260040161031f906118ef565b60405180910390fd5b600860009054906101000a900473ffffffffffffffffffffffffffffffffffffffff1673ffffffffffffffffffffffffffffffffffffffff16630e6dfcd58484846040518463ffffffff1660e01b81526004016103879392919061190f565b600060405180830381600087803b1580156103a157600080fd5b505af11580156103b5573d6000803e3d6000fd5b50505050505050565b6103c9348883610a28565b7f9301e409432a51a191443f644ae41630782021a09e1ce98fc0e5fb72078a25ea87878787878760405161040296959493929190611946565b60405180910390a150505050505050565b61041b610a20565b73ffffffffffffffffffffffffffffffffffffffff1661043961089d565b73ffffffffffffffffffffffffffffffffffffffff161461048f576040517f08c379a0000000000000000000000000000000000000000000000000000000008152600401610486906118ef565b60405180910390fd5b600860009054906101000a900473ffffffffffffffffffffffffffffffffffffffff1673ffffffffffffffffffffffffffffffffffffffff166316e36eb686868686866040518663ffffffff1660e01b81526004016104f29594939291906119ae565b600060405180830381600087803b15801561050c57600080fd5b505af1158015610520573d6000803e3d6000fd5b505050505050505050565b60008061053783610b36565b1415610578576040517f08c379a000000000000000000000000000000000000000000000000000000000815260040161056f90611a54565b60405180910390fd5b600046905061058681610b36565b670de0b6b3a764000061059885610b36565b6105a29190611aa3565b6105ac9190611be9565b915050919050565b6105bc610a20565b73ffffffffffffffffffffffffffffffffffffffff166105da61089d565b73ffffffffffffffffffffffffffffffffffffffff1614610630576040517f08c379a0000000000000000000000000000000000000000000000000000000008152600401610627906118ef565b60405180910390fd5b8251845114610674576040517f08c379a000000000000000000000000000000000000000000000000000000000815260040161066b90611cc5565b60405180910390fd5b80518251146106b8576040517f08c379a00000000000000000000000000000000000000000000000000000000081526004016106af90611d57565b60405180910390fd5b600088146106ca576106c988610c62565b5b600087146106dc576106db87610c6c565b5b600086146106ee576106ed86610c76565b5b60008514610700576106ff85610c80565b5b60005b845181101561075d5761074a85828151811061072257610721611d77565b5b602002602001015185838151811061073d5761073c611d77565b5b6020026020010151610c8a565b808061075590611da6565b915050610703565b5060005b82518110156107bb576107a88382815181106107805761077f611d77565b5b602002602001015183838151811061079b5761079a611d77565b5b6020026020010151610ce0565b80806107b390611da6565b915050610761565b505050505050505050565b60606040518060400160405280600581526020017f302e322e30000000000000000000000000000000000000000000000000000000815250905090565b61080b610a20565b73ffffffffffffffffffffffffffffffffffffffff1661082961089d565b73ffffffffffffffffffffffffffffffffffffffff161461087f576040517f08c379a0000000000000000000000000000000000000000000000000000000008152600401610876906118ef565b60405180910390fd5b6108896000610cfc565b565b600061089682610dc2565b9050919050565b6000600160009054906101000a900473ffffffffffffffffffffffffffffffffffffffff16905090565b6108cf610a20565b73ffffffffffffffffffffffffffffffffffffffff166108ed61089d565b73ffffffffffffffffffffffffffffffffffffffff1614610943576040517f08c379a000000000000000000000000000000000000000000000000000000000815260040161093a906118ef565b60405180910390fd5b600073ffffffffffffffffffffffffffffffffffffffff168173ffffffffffffffffffffffffffffffffffffffff1614156109b3576040517f08c379a00000000000000000000000000000000000000000000000000000000081526004016109aa90611e61565b60405180910390fd5b6109bc81610cfc565b50565b6109ca348683610e14565b7f667b67437a1677e566daace17cce7e4f73fbf7707b8bda21ad49e7be550d6410858585856040516109ff9493929190611e81565b60405180910390a15050505050565b6000610a1982610f22565b9050919050565b600033905090565b60006064605a610a3785610dc2565b610a419190611ec6565b610a4b9190611f20565b905080841015610a90576040517f08c379a0000000000000000000000000000000000000000000000000000000008152600401610a8790611f9d565b60405180910390fd5b610a9861089d565b73ffffffffffffffffffffffffffffffffffffffff166108fc829081150290604051600060405180830381858888f19350505050158015610add573d6000803e3d6000fd5b508173ffffffffffffffffffffffffffffffffffffffff166108fc8286610b049190611fbd565b9081150290604051600060405180830381858888f19350505050158015610b2f573d6000803e3d6000fd5b5050505050565b60008073ffffffffffffffffffffffffffffffffffffffff166002600084815260200190815260200160002060009054906101000a900473ffffffffffffffffffffffffffffffffffffffff1673ffffffffffffffffffffffffffffffffffffffff161415610bb8576003600083815260200190815260200160002054610c5b565b6002600083815260200190815260200160002060009054906101000a900473ffffffffffffffffffffffffffffffffffffffff1673ffffffffffffffffffffffffffffffffffffffff166350d25bcd6040518163ffffffff1660e01b8152600401602060405180830381865afa158015610c36573d6000803e3d6000fd5b505050506040513d601f19601f82011682018060405250810190610c5a9190612006565b5b9050919050565b8060048190555050565b8060058190555050565b8060068190555050565b8060078190555050565b806002600084815260200190815260200160002060006101000a81548173ffffffffffffffffffffffffffffffffffffffff021916908373ffffffffffffffffffffffffffffffffffffffff1602179055505050565b8060036000848152602001908152602001600020819055505050565b6000600160009054906101000a900473ffffffffffffffffffffffffffffffffffffffff16905081600160006101000a81548173ffffffffffffffffffffffffffffffffffffffff021916908373ffffffffffffffffffffffffffffffffffffffff1602179055508173ffffffffffffffffffffffffffffffffffffffff168173ffffffffffffffffffffffffffffffffffffffff167f8be0079c531659141344cd1fd0a4f28419497f9722a3daafe3b4186f6b6457e060405160405180910390a35050565b6000670de0b6b3a7640000610dd68361052b565b610ddf84610f74565b600454600654610def9190611ec6565b610df99190611ec6565b610e039190611ec6565b610e0d9190611f20565b9050919050565b60006064605a610e2385610f22565b610e2d9190611ec6565b610e379190611f20565b905080841015610e7c576040517f08c379a0000000000000000000000000000000000000000000000000000000008152600401610e7390611f9d565b60405180910390fd5b610e8461089d565b73ffffffffffffffffffffffffffffffffffffffff166108fc829081150290604051600060405180830381858888f19350505050158015610ec9573d6000803e3d6000fd5b508173ffffffffffffffffffffffffffffffffffffffff166108fc8286610ef09190611fbd565b9081150290604051600060405180830381858888f19350505050158015610f1b573d6000803e3d6000fd5b5050505050565b6000670de0b6b3a7640000610f368361052b565b610f3f84610f74565b600454600654610f4f9190611ec6565b610f599190611ec6565b610f639190611ec6565b610f6d9190611f20565b9050919050565b6000806000838152602001908152602001600020549050919050565b6000604051905090565b600080fd5b600080fd5b600073ffffffffffffffffffffffffffffffffffffffff82169050919050565b6000610fcf82610fa4565b9050919050565b610fdf81610fc4565b8114610fea57600080fd5b50565b600081359050610ffc81610fd6565b92915050565b6000819050919050565b61101581611002565b811461102057600080fd5b50565b6000813590506110328161100c565b92915050565b60008060006060848603121561105157611050610f9a565b5b600061105f86828701610fed565b935050602061107086828701610fed565b925050604061108186828701611023565b9150509250925092565b600080fd5b600080fd5b6000601f19601f8301169050919050565b7f4e487b7100000000000000000000000000000000000000000000000000000000600052604160045260246000fd5b6110de82611095565b810181811067ffffffffffffffff821117156110fd576110fc6110a6565b5b80604052505050565b6000611110610f90565b905061111c82826110d5565b919050565b600067ffffffffffffffff82111561113c5761113b6110a6565b5b61114582611095565b9050602081019050919050565b82818337600083830152505050565b600061117461116f84611121565b611106565b9050828152602081018484840111156111905761118f611090565b5b61119b848285611152565b509392505050565b600082601f8301126111b8576111b761108b565b5b81356111c8848260208601611161565b91505092915050565b600080600080600080600060e0888a0312156111f0576111ef610f9a565b5b60006111fe8a828b01611023565b975050602061120f8a828b01610fed565b96505060406112208a828b01611023565b95505060606112318a828b01610fed565b94505060806112428a828b01611023565b93505060a088013567ffffffffffffffff81111561126357611262610f9f565b5b61126f8a828b016111a3565b92505060c06112808a828b01610fed565b91505092959891949750929550565b600080600080600060a086880312156112ab576112aa610f9a565b5b60006112b988828901611023565b95505060206112ca88828901610fed565b94505060406112db88828901610fed565b93505060606112ec88828901611023565b925050608086013567ffffffffffffffff81111561130d5761130c610f9f565b5b611319888289016111a3565b9150509295509295909350565b60006020828403121561133c5761133b610f9a565b5b600061134a84828501611023565b91505092915050565b61135c81611002565b82525050565b60006020820190506113776000830184611353565b92915050565b600067ffffffffffffffff821115611398576113976110a6565b5b602082029050602081019050919050565b600080fd5b60006113c16113bc8461137d565b611106565b905080838252602082019050602084028301858111156113e4576113e36113a9565b5b835b8181101561140d57806113f98882611023565b8452602084019350506020810190506113e6565b5050509392505050565b600082601f83011261142c5761142b61108b565b5b813561143c8482602086016113ae565b91505092915050565b600067ffffffffffffffff8211156114605761145f6110a6565b5b602082029050602081019050919050565b600061148461147f84611445565b611106565b905080838252602082019050602084028301858111156114a7576114a66113a9565b5b835b818110156114d057806114bc8882610fed565b8452602084019350506020810190506114a9565b5050509392505050565b600082601f8301126114ef576114ee61108b565b5b81356114ff848260208601611471565b91505092915050565b600067ffffffffffffffff821115611523576115226110a6565b5b602082029050602081019050919050565b6000819050919050565b61154781611534565b811461155257600080fd5b50565b6000813590506115648161153e565b92915050565b600061157d61157884611508565b611106565b905080838252602082019050602084028301858111156115a05761159f6113a9565b5b835b818110156115c957806115b58882611555565b8452602084019350506020810190506115a2565b5050509392505050565b600082601f8301126115e8576115e761108b565b5b81356115f884826020860161156a565b91505092915050565b600080600080600080600080610100898b03121561162257611621610f9a565b5b60006116308b828c01611023565b98505060206116418b828c01611023565b97505060406116528b828c01611023565b96505060606116638b828c01611023565b955050608089013567ffffffffffffffff81111561168457611683610f9f565b5b6116908b828c01611417565b94505060a089013567ffffffffffffffff8111156116b1576116b0610f9f565b5b6116bd8b828c016114da565b93505060c089013567ffffffffffffffff8111156116de576116dd610f9f565b5b6116ea8b828c01611417565b92505060e089013567ffffffffffffffff81111561170b5761170a610f9f565b5b6117178b828c016115d3565b9150509295985092959890939650565b600081519050919050565b600082825260208201905092915050565b60005b83811015611761578082015181840152602081019050611746565b83811115611770576000848401525b50505050565b600061178182611727565b61178b8185611732565b935061179b818560208601611743565b6117a481611095565b840191505092915050565b600060208201905081810360008301526117c98184611776565b905092915050565b6117da81610fc4565b82525050565b60006020820190506117f560008301846117d1565b92915050565b60006020828403121561181157611810610f9a565b5b600061181f84828501610fed565b91505092915050565b600080600080600060a0868803121561184457611843610f9a565b5b600061185288828901611023565b955050602061186388828901610fed565b945050604061187488828901610fed565b935050606061188588828901611023565b925050608061189688828901610fed565b9150509295509295909350565b7f4f776e61626c653a2063616c6c6572206973206e6f7420746865206f776e6572600082015250565b60006118d9602083611732565b91506118e4826118a3565b602082019050919050565b60006020820190508181036000830152611908816118cc565b9050919050565b600060608201905061192460008301866117d1565b61193160208301856117d1565b61193e6040830184611353565b949350505050565b600060c08201905061195b6000830189611353565b61196860208301886117d1565b6119756040830187611353565b61198260608301866117d1565b61198f6080830185611353565b81810360a08301526119a18184611776565b9050979650505050505050565b600060a0820190506119c36000830188611353565b6119d060208301876117d1565b6119dd60408301866117d1565b6119ea6060830185611353565b81810360808301526119fc8184611776565b90509695505050505050565b7f636861696e204964206e6f7420737570706f7274656400000000000000000000600082015250565b6000611a3e601683611732565b9150611a4982611a08565b602082019050919050565b60006020820190508181036000830152611a6d81611a31565b9050919050565b7f4e487b7100000000000000000000000000000000000000000000000000000000600052601160045260246000fd5b6000611aae82611534565b9150611ab983611534565b9250827f7fffffffffffffffffffffffffffffffffffffffffffffffffffffffffffffff0482116000841360008413161615611af857611af7611a74565b5b817f80000000000000000000000000000000000000000000000000000000000000000583126000841260008413161615611b3557611b34611a74565b5b827f80000000000000000000000000000000000000000000000000000000000000000582126000841360008412161615611b7257611b71611a74565b5b827f7fffffffffffffffffffffffffffffffffffffffffffffffffffffffffffffff0582126000841260008412161615611baf57611bae611a74565b5b828202905092915050565b7f4e487b7100000000000000000000000000000000000000000000000000000000600052601260045260246000fd5b6000611bf482611534565b9150611bff83611534565b925082611c0f57611c0e611bba565b5b600160000383147f800000000000000000000000000000000000000000000000000000000000000083141615611c4857611c47611a74565b5b828205905092915050565b7f61676772656761746f722061727261797320617265206e6f742073616d65206c60008201527f656e6774682e0000000000000000000000000000000000000000000000000000602082015250565b6000611caf602683611732565b9150611cba82611c53565b604082019050919050565b60006020820190508181036000830152611cde81611ca2565b9050919050565b7f636f696e2070726963652061727261797320617265206e6f742073616d65206c60008201527f656e6774682e0000000000000000000000000000000000000000000000000000602082015250565b6000611d41602683611732565b9150611d4c82611ce5565b604082019050919050565b60006020820190508181036000830152611d7081611d34565b9050919050565b7f4e487b7100000000000000000000000000000000000000000000000000000000600052603260045260246000fd5b6000611db182611002565b91507fffffffffffffffffffffffffffffffffffffffffffffffffffffffffffffffff821415611de457611de3611a74565b5b600182019050919050565b7f4f776e61626c653a206e6577206f776e657220697320746865207a65726f206160008201527f6464726573730000000000000000000000000000000000000000000000000000602082015250565b6000611e4b602683611732565b9150611e5682611def565b604082019050919050565b60006020820190508181036000830152611e7a81611e3e565b9050919050565b6000608082019050611e966000830187611353565b611ea360208301866117d1565b611eb060408301856117d1565b611ebd6060830184611353565b95945050505050565b6000611ed182611002565b9150611edc83611002565b9250817fffffffffffffffffffffffffffffffffffffffffffffffffffffffffffffffff0483118215151615611f1557611f14611a74565b5b828202905092915050565b6000611f2b82611002565b9150611f3683611002565b925082611f4657611f45611bba565b5b828204905092915050565b7f696e73756666696369656e742066656500000000000000000000000000000000600082015250565b6000611f87601083611732565b9150611f9282611f51565b602082019050919050565b60006020820190508181036000830152611fb681611f7a565b9050919050565b6000611fc882611002565b9150611fd383611002565b925082821015611fe657611fe5611a74565b5b828203905092915050565b6000815190506120008161153e565b92915050565b60006020828403121561201c5761201b610f9a565b5b600061202a84828501611ff1565b9150509291505056fea2646970667358221220780f6a0006781c01ebd1c4d97f3285a91eab51ce92973c6a90f2410472e3536664736f6c634300080b0033",
  "linkReferences": {},
  "deployedLinkReferences": {}
}