{
  "_format": "hh-sol-artifact-1",
  "contractName": "CrossChainImplementation",
  "sourceName": "contracts/implementation/CrossChainImplementation.sol",
  "abi": [
    {
      "anonymous": false,
      "inputs": [
        {
          "indexed": true,
          "internalType": "address",
          "name": "previousOwner",
          "type": "address"
        },
        {
          "indexed": true,
          "internalType": "address",
          "name": "newOwner",
          "type": "address"
        }
      ],
      "name": "OwnershipTransferred",
      "type": "event"
    },
    {
      "inputs": [],
      "name": "initialize",
      "outputs": [],
      "stateMutability": "nonpayable",
      "type": "function"
    },
    {
      "inputs": [
        {
          "internalType": "uint256",
          "name": "targetChainId",
          "type": "uint256"
        }
      ],
      "name": "mintFee",
      "outputs": [
        {
          "internalType": "uint256",
          "name": "",
          "type": "uint256"
        }
      ],
      "stateMutability": "view",
      "type": "function"
    },
    {
      "inputs": [],
      "name": "owner",
      "outputs": [
        {
          "internalType": "address",
          "name": "",
          "type": "address"
        }
      ],
      "stateMutability": "view",
      "type": "function"
    },
    {
      "inputs": [
        {
          "internalType": "uint256",
          "name": "targetChainId",
          "type": "uint256"
        }
      ],
      "name": "price",
      "outputs": [
        {
          "internalType": "uint256",
          "name": "",
          "type": "uint256"
        }
      ],
      "stateMutability": "view",
      "type": "function"
    },
    {
      "inputs": [
        {
          "internalType": "uint256",
          "name": "targetChainId",
          "type": "uint256"
        }
      ],
      "name": "redeemFee",
      "outputs": [
        {
          "internalType": "uint256",
          "name": "",
          "type": "uint256"
        }
      ],
      "stateMutability": "view",
      "type": "function"
    },
    {
      "inputs": [],
      "name": "renounceOwnership",
      "outputs": [],
      "stateMutability": "nonpayable",
      "type": "function"
    },
    {
      "inputs": [
        {
          "internalType": "uint256",
          "name": "chainId",
          "type": "uint256"
        },
        {
          "internalType": "address",
          "name": "contAddr",
          "type": "address"
        },
        {
          "internalType": "address",
          "name": "to",
          "type": "address"
        },
        {
          "internalType": "uint256",
          "name": "tokenId",
          "type": "uint256"
        },
        {
          "internalType": "uint256",
          "name": "dappId",
          "type": "uint256"
        },
        {
          "internalType": "bytes",
          "name": "data",
          "type": "bytes"
        }
      ],
      "name": "requestReleaseLockedToken",
      "outputs": [],
      "stateMutability": "payable",
      "type": "function"
    },
    {
      "inputs": [
        {
          "internalType": "uint256",
          "name": "targetChainId",
          "type": "uint256"
        },
        {
          "internalType": "address",
          "name": "to",
          "type": "address"
        },
        {
          "internalType": "uint256",
          "name": "chainId",
          "type": "uint256"
        },
        {
          "internalType": "address",
          "name": "contAddr",
          "type": "address"
        },
        {
          "internalType": "uint256",
          "name": "tokenId",
          "type": "uint256"
        },
        {
          "internalType": "string",
          "name": "uri",
          "type": "string"
        },
        {
          "internalType": "uint256",
          "name": "dappId",
          "type": "uint256"
        },
        {
          "internalType": "bytes",
          "name": "data",
          "type": "bytes"
        }
      ],
      "name": "requestTransferCrossChain",
      "outputs": [],
      "stateMutability": "payable",
      "type": "function"
    },
    {
      "inputs": [
        {
          "internalType": "uint256",
          "name": "_mintGas",
          "type": "uint256"
        },
        {
          "internalType": "uint256",
          "name": "_redeemGas",
          "type": "uint256"
        },
        {
          "internalType": "uint256",
          "name": "_feeRatio",
          "type": "uint256"
        },
        {
          "internalType": "uint256",
          "name": "_dappPercent",
          "type": "uint256"
        },
        {
          "internalType": "uint256[]",
          "name": "dappIds",
          "type": "uint256[]"
        },
        {
          "internalType": "address[]",
          "name": "dappAddresses",
          "type": "address[]"
        },
        {
          "internalType": "uint256[]",
          "name": "aggregatorChainIds",
          "type": "uint256[]"
        },
        {
          "internalType": "address[]",
          "name": "aggregatorAddresses",
          "type": "address[]"
        },
        {
          "internalType": "uint256[]",
          "name": "coinChainIds",
          "type": "uint256[]"
        },
        {
          "internalType": "int256[]",
          "name": "coinPricesUSD",
          "type": "int256[]"
        }
      ],
      "name": "set",
      "outputs": [],
      "stateMutability": "nonpayable",
      "type": "function"
    },
    {
      "inputs": [
        {
          "internalType": "address",
          "name": "newOwner",
          "type": "address"
        }
      ],
      "name": "transferOwnership",
      "outputs": [],
      "stateMutability": "nonpayable",
      "type": "function"
    },
    {
      "inputs": [],
      "name": "version",
      "outputs": [
        {
          "internalType": "string",
          "name": "",
          "type": "string"
        }
      ],
      "stateMutability": "pure",
      "type": "function"
    }
  ],
  "bytecode": "0x608060405234801561001057600080fd5b506122d5806100206000396000f3fe60806040526004361061009c5760003560e01c80638670c7af116100645780638670c7af146101535780638a35ace31461017c5780638da5cb5b146101b9578063f146dc99146101e4578063f2fde38b14610200578063f87fcd0f146102295761009c565b806326a49e37146100a157806334b490d4146100de57806354fd4d50146100fa578063715018a6146101255780638129fc1c1461013c575b600080fd5b3480156100ad57600080fd5b506100c860048036038101906100c3919061117e565b610266565b6040516100d591906111ba565b60405180910390f35b6100f860048036038101906100f3919061141a565b6102eb565b005b34801561010657600080fd5b5061010f610300565b60405161011c9190611590565b60405180910390f35b34801561013157600080fd5b5061013a61033d565b005b34801561014857600080fd5b506101516103c5565b005b34801561015f57600080fd5b5061017a60048036038101906101759190611836565b6104c7565b005b34801561018857600080fd5b506101a3600480360381019061019e919061117e565b610759565b6040516101b091906111ba565b60405180910390f35b3480156101c557600080fd5b506101ce61076b565b6040516101db91906119cc565b60405180910390f35b6101fe60048036038101906101f991906119e7565b610795565b005b34801561020c57600080fd5b5061022760048036038101906102229190611a90565b6107a8565b005b34801561023557600080fd5b50610250600480360381019061024b919061117e565b6108a0565b60405161025d91906111ba565b60405180910390f35b600080610272836108b2565b14156102b3576040517f08c379a00000000000000000000000000000000000000000000000000000000081526004016102aa90611b09565b60405180910390fd5b60004690506305f5e1006102c6826108b2565b6102cf856108b2565b6102d99190611b87565b6102e39190611bf1565b915050919050565b6102f63489846109de565b5050505050505050565b60606040518060400160405280600581526020017f312e302e30000000000000000000000000000000000000000000000000000000815250905090565b610345610b1f565b73ffffffffffffffffffffffffffffffffffffffff1661036361076b565b73ffffffffffffffffffffffffffffffffffffffff16146103b9576040517f08c379a00000000000000000000000000000000000000000000000000000000081526004016103b090611d54565b60405180910390fd5b6103c36000610b27565b565b60018054906101000a900460ff166103ed57600160009054906101000a900460ff16156103f6565b6103f5610bed565b5b610435576040517f08c379a000000000000000000000000000000000000000000000000000000000815260040161042c90611de6565b60405180910390fd5b600060018054906101000a900460ff1615905080156104835760018060016101000a81548160ff02191690831515021790555060018060006101000a81548160ff0219169083151502179055505b61048b610bfe565b610493610c5d565b61049b610cd6565b6104a3610d29565b80156104c45760006001806101000a81548160ff0219169083151502179055505b50565b6104cf610b1f565b73ffffffffffffffffffffffffffffffffffffffff166104ed61076b565b73ffffffffffffffffffffffffffffffffffffffff1614610543576040517f08c379a000000000000000000000000000000000000000000000000000000000815260040161053a90611d54565b60405180910390fd5b8451865114610587576040517f08c379a000000000000000000000000000000000000000000000000000000000815260040161057e90611e52565b60405180910390fd5b82518451146105cb576040517f08c379a00000000000000000000000000000000000000000000000000000000081526004016105c290611ee4565b60405180910390fd5b805182511461060f576040517f08c379a000000000000000000000000000000000000000000000000000000000815260040161060690611f76565b60405180910390fd5b6106188a610d6b565b61062189610d75565b61062a88610d7f565b61063387610d89565b60005b86518110156106905761067d87828151811061065557610654611f96565b5b60200260200101518783815181106106705761066f611f96565b5b6020026020010151610d93565b808061068890611fc5565b915050610636565b5060005b84518110156106ee576106db8582815181106106b3576106b2611f96565b5b60200260200101518583815181106106ce576106cd611f96565b5b6020026020010151610de9565b80806106e690611fc5565b915050610694565b5060005b825181101561074c5761073983828151811061071157610710611f96565b5b602002602001015183838151811061072c5761072b611f96565b5b6020026020010151610e3f565b808061074490611fc5565b9150506106f2565b5050505050505050505050565b600061076482610e5b565b9050919050565b6000603460009054906101000a900473ffffffffffffffffffffffffffffffffffffffff16905090565b6107a0348784610ead565b505050505050565b6107b0610b1f565b73ffffffffffffffffffffffffffffffffffffffff166107ce61076b565b73ffffffffffffffffffffffffffffffffffffffff1614610824576040517f08c379a000000000000000000000000000000000000000000000000000000000815260040161081b90611d54565b60405180910390fd5b600073ffffffffffffffffffffffffffffffffffffffff168173ffffffffffffffffffffffffffffffffffffffff161415610894576040517f08c379a000000000000000000000000000000000000000000000000000000000815260040161088b90612080565b60405180910390fd5b61089d81610b27565b50565b60006108ab82610fee565b9050919050565b60008073ffffffffffffffffffffffffffffffffffffffff166066600084815260200190815260200160002060009054906101000a900473ffffffffffffffffffffffffffffffffffffffff1673ffffffffffffffffffffffffffffffffffffffff1614156109345760676000838152602001908152602001600020546109d7565b6066600083815260200190815260200160002060009054906101000a900473ffffffffffffffffffffffffffffffffffffffff1673ffffffffffffffffffffffffffffffffffffffff166350d25bcd6040518163ffffffff1660e01b8152600401602060405180830381865afa1580156109b2573d6000803e3d6000fd5b505050506040513d601f19601f820116820180604052508101906109d691906120b5565b5b9050919050565b60006064605a6109ed85610e5b565b6109f791906120e2565b610a01919061213c565b905080841015610a46576040517f08c379a0000000000000000000000000000000000000000000000000000000008152600401610a3d906121b9565b60405180910390fd5b610a4e61076b565b73ffffffffffffffffffffffffffffffffffffffff166108fc829081150290604051600060405180830381858888f19350505050158015610a93573d6000803e3d6000fd5b50606c600083815260200190815260200160002060009054906101000a900473ffffffffffffffffffffffffffffffffffffffff1673ffffffffffffffffffffffffffffffffffffffff166108fc8286610aed91906121d9565b9081150290604051600060405180830381858888f19350505050158015610b18573d6000803e3d6000fd5b5050505050565b600033905090565b6000603460009054906101000a900473ffffffffffffffffffffffffffffffffffffffff16905081603460006101000a81548173ffffffffffffffffffffffffffffffffffffffff021916908373ffffffffffffffffffffffffffffffffffffffff1602179055508173ffffffffffffffffffffffffffffffffffffffff168173ffffffffffffffffffffffffffffffffffffffff167f8be0079c531659141344cd1fd0a4f28419497f9722a3daafe3b4186f6b6457e060405160405180910390a35050565b6000610bf83061103c565b15905090565b60018054906101000a900460ff16610c4b576040517f08c379a0000000000000000000000000000000000000000000000000000000008152600401610c429061227f565b60405180910390fd5b610c5361104f565b610c5b61109e565b565b60018054906101000a900460ff16610caa576040517f08c379a0000000000000000000000000000000000000000000000000000000008152600401610ca19061227f565b60405180910390fd5b610cb4600a610d89565b610cbe6002610d7f565b610cc961e890610d6b565b610cd461e890610d75565b565b610cf56004730715a7794a1dc8e42615f059dd6e406a6594651a610de9565b610d166201388173d0d5e3db44de05e9f294bb0a3beeaf030de24ada610de9565b610d2761a86964020e121280610e3f565b565b610d386001639502f9076110fd565b610d4860386406fc23ac006110fd565b610d5860896406fc23ac006110fd565b610d6961a86a6406fc23ac006110fd565b565b8060688190555050565b8060698190555050565b80606a8190555050565b80606b8190555050565b80606c600084815260200190815260200160002060006101000a81548173ffffffffffffffffffffffffffffffffffffffff021916908373ffffffffffffffffffffffffffffffffffffffff1602179055505050565b806066600084815260200190815260200160002060006101000a81548173ffffffffffffffffffffffffffffffffffffffff021916908373ffffffffffffffffffffffffffffffffffffffff1602179055505050565b8060676000848152602001908152602001600020819055505050565b6000670de0b6b3a7640000610e6f83610266565b610e7884611118565b606854606a54610e8891906120e2565b610e9291906120e2565b610e9c91906120e2565b610ea6919061213c565b9050919050565b60006064605a610ebc85610fee565b610ec691906120e2565b610ed0919061213c565b905080841015610f15576040517f08c379a0000000000000000000000000000000000000000000000000000000008152600401610f0c906121b9565b60405180910390fd5b610f1d61076b565b73ffffffffffffffffffffffffffffffffffffffff166108fc829081150290604051600060405180830381858888f19350505050158015610f62573d6000803e3d6000fd5b50606c600083815260200190815260200160002060009054906101000a900473ffffffffffffffffffffffffffffffffffffffff1673ffffffffffffffffffffffffffffffffffffffff166108fc8286610fbc91906121d9565b9081150290604051600060405180830381858888f19350505050158015610fe7573d6000803e3d6000fd5b5050505050565b60006305f5e100610ffe83610266565b61100784611118565b606854606a5461101791906120e2565b61102191906120e2565b61102b91906120e2565b611035919061213c565b9050919050565b600080823b905060008111915050919050565b60018054906101000a900460ff1661109c576040517f08c379a00000000000000000000000000000000000000000000000000000000081526004016110939061227f565b60405180910390fd5b565b60018054906101000a900460ff166110eb576040517f08c379a00000000000000000000000000000000000000000000000000000000081526004016110e29061227f565b60405180910390fd5b6110fb6110f6610b1f565b610b27565b565b80600080848152602001908152602001600020819055505050565b6000806000838152602001908152602001600020549050919050565b6000604051905090565b600080fd5b600080fd5b6000819050919050565b61115b81611148565b811461116657600080fd5b50565b60008135905061117881611152565b92915050565b6000602082840312156111945761119361113e565b5b60006111a284828501611169565b91505092915050565b6111b481611148565b82525050565b60006020820190506111cf60008301846111ab565b92915050565b600073ffffffffffffffffffffffffffffffffffffffff82169050919050565b6000611200826111d5565b9050919050565b611210816111f5565b811461121b57600080fd5b50565b60008135905061122d81611207565b92915050565b600080fd5b600080fd5b6000601f19601f8301169050919050565b7f4e487b7100000000000000000000000000000000000000000000000000000000600052604160045260246000fd5b6112868261123d565b810181811067ffffffffffffffff821117156112a5576112a461124e565b5b80604052505050565b60006112b8611134565b90506112c4828261127d565b919050565b600067ffffffffffffffff8211156112e4576112e361124e565b5b6112ed8261123d565b9050602081019050919050565b82818337600083830152505050565b600061131c611317846112c9565b6112ae565b90508281526020810184848401111561133857611337611238565b5b6113438482856112fa565b509392505050565b600082601f8301126113605761135f611233565b5b8135611370848260208601611309565b91505092915050565b600067ffffffffffffffff8211156113945761139361124e565b5b61139d8261123d565b9050602081019050919050565b60006113bd6113b884611379565b6112ae565b9050828152602081018484840111156113d9576113d8611238565b5b6113e48482856112fa565b509392505050565b600082601f83011261140157611400611233565b5b81356114118482602086016113aa565b91505092915050565b600080600080600080600080610100898b03121561143b5761143a61113e565b5b60006114498b828c01611169565b985050602061145a8b828c0161121e565b975050604061146b8b828c01611169565b965050606061147c8b828c0161121e565b955050608061148d8b828c01611169565b94505060a089013567ffffffffffffffff8111156114ae576114ad611143565b5b6114ba8b828c0161134b565b93505060c06114cb8b828c01611169565b92505060e089013567ffffffffffffffff8111156114ec576114eb611143565b5b6114f88b828c016113ec565b9150509295985092959890939650565b600081519050919050565b600082825260208201905092915050565b60005b83811015611542578082015181840152602081019050611527565b83811115611551576000848401525b50505050565b600061156282611508565b61156c8185611513565b935061157c818560208601611524565b6115858161123d565b840191505092915050565b600060208201905081810360008301526115aa8184611557565b905092915050565b600067ffffffffffffffff8211156115cd576115cc61124e565b5b602082029050602081019050919050565b600080fd5b60006115f66115f1846115b2565b6112ae565b90508083825260208201905060208402830185811115611619576116186115de565b5b835b81811015611642578061162e8882611169565b84526020840193505060208101905061161b565b5050509392505050565b600082601f83011261166157611660611233565b5b81356116718482602086016115e3565b91505092915050565b600067ffffffffffffffff8211156116955761169461124e565b5b602082029050602081019050919050565b60006116b96116b48461167a565b6112ae565b905080838252602082019050602084028301858111156116dc576116db6115de565b5b835b8181101561170557806116f1888261121e565b8452602084019350506020810190506116de565b5050509392505050565b600082601f83011261172457611723611233565b5b81356117348482602086016116a6565b91505092915050565b600067ffffffffffffffff8211156117585761175761124e565b5b602082029050602081019050919050565b6000819050919050565b61177c81611769565b811461178757600080fd5b50565b60008135905061179981611773565b92915050565b60006117b26117ad8461173d565b6112ae565b905080838252602082019050602084028301858111156117d5576117d46115de565b5b835b818110156117fe57806117ea888261178a565b8452602084019350506020810190506117d7565b5050509392505050565b600082601f83011261181d5761181c611233565b5b813561182d84826020860161179f565b91505092915050565b6000806000806000806000806000806101408b8d03121561185a5761185961113e565b5b60006118688d828e01611169565b9a505060206118798d828e01611169565b995050604061188a8d828e01611169565b985050606061189b8d828e01611169565b97505060808b013567ffffffffffffffff8111156118bc576118bb611143565b5b6118c88d828e0161164c565b96505060a08b013567ffffffffffffffff8111156118e9576118e8611143565b5b6118f58d828e0161170f565b95505060c08b013567ffffffffffffffff81111561191657611915611143565b5b6119228d828e0161164c565b94505060e08b013567ffffffffffffffff81111561194357611942611143565b5b61194f8d828e0161170f565b9350506101008b013567ffffffffffffffff81111561197157611970611143565b5b61197d8d828e0161164c565b9250506101208b013567ffffffffffffffff81111561199f5761199e611143565b5b6119ab8d828e01611808565b9150509295989b9194979a5092959850565b6119c6816111f5565b82525050565b60006020820190506119e160008301846119bd565b92915050565b60008060008060008060c08789031215611a0457611a0361113e565b5b6000611a1289828a01611169565b9650506020611a2389828a0161121e565b9550506040611a3489828a0161121e565b9450506060611a4589828a01611169565b9350506080611a5689828a01611169565b92505060a087013567ffffffffffffffff811115611a7757611a76611143565b5b611a8389828a016113ec565b9150509295509295509295565b600060208284031215611aa657611aa561113e565b5b6000611ab48482850161121e565b91505092915050565b7f636861696e204964206e6f7420737570706f7274656400000000000000000000600082015250565b6000611af3601683611513565b9150611afe82611abd565b602082019050919050565b60006020820190508181036000830152611b2281611ae6565b9050919050565b7f4e487b7100000000000000000000000000000000000000000000000000000000600052601260045260246000fd5b7f4e487b7100000000000000000000000000000000000000000000000000000000600052601160045260246000fd5b6000611b9282611769565b9150611b9d83611769565b925082611bad57611bac611b29565b5b600160000383147f800000000000000000000000000000000000000000000000000000000000000083141615611be657611be5611b58565b5b828205905092915050565b6000611bfc82611769565b9150611c0783611769565b9250827f7fffffffffffffffffffffffffffffffffffffffffffffffffffffffffffffff0482116000841360008413161615611c4657611c45611b58565b5b817f80000000000000000000000000000000000000000000000000000000000000000583126000841260008413161615611c8357611c82611b58565b5b827f80000000000000000000000000000000000000000000000000000000000000000582126000841360008412161615611cc057611cbf611b58565b5b827f7fffffffffffffffffffffffffffffffffffffffffffffffffffffffffffffff0582126000841260008412161615611cfd57611cfc611b58565b5b828202905092915050565b7f4f776e61626c653a2063616c6c6572206973206e6f7420746865206f776e6572600082015250565b6000611d3e602083611513565b9150611d4982611d08565b602082019050919050565b60006020820190508181036000830152611d6d81611d31565b9050919050565b7f496e697469616c697a61626c653a20636f6e747261637420697320616c72656160008201527f647920696e697469616c697a6564000000000000000000000000000000000000602082015250565b6000611dd0602e83611513565b9150611ddb82611d74565b604082019050919050565b60006020820190508181036000830152611dff81611dc3565b9050919050565b7f646170702061727261797320617265206e6f742073616d65206c656e6774682e600082015250565b6000611e3c602083611513565b9150611e4782611e06565b602082019050919050565b60006020820190508181036000830152611e6b81611e2f565b9050919050565b7f61676772656761746f722061727261797320617265206e6f742073616d65206c60008201527f656e6774682e0000000000000000000000000000000000000000000000000000602082015250565b6000611ece602683611513565b9150611ed982611e72565b604082019050919050565b60006020820190508181036000830152611efd81611ec1565b9050919050565b7f636f696e2070726963652061727261797320617265206e6f742073616d65206c60008201527f656e6774682e0000000000000000000000000000000000000000000000000000602082015250565b6000611f60602683611513565b9150611f6b82611f04565b604082019050919050565b60006020820190508181036000830152611f8f81611f53565b9050919050565b7f4e487b7100000000000000000000000000000000000000000000000000000000600052603260045260246000fd5b6000611fd082611148565b91507fffffffffffffffffffffffffffffffffffffffffffffffffffffffffffffffff82141561200357612002611b58565b5b600182019050919050565b7f4f776e61626c653a206e6577206f776e657220697320746865207a65726f206160008201527f6464726573730000000000000000000000000000000000000000000000000000602082015250565b600061206a602683611513565b91506120758261200e565b604082019050919050565b600060208201905081810360008301526120998161205d565b9050919050565b6000815190506120af81611773565b92915050565b6000602082840312156120cb576120ca61113e565b5b60006120d9848285016120a0565b91505092915050565b60006120ed82611148565b91506120f883611148565b9250817fffffffffffffffffffffffffffffffffffffffffffffffffffffffffffffffff048311821515161561213157612130611b58565b5b828202905092915050565b600061214782611148565b915061215283611148565b92508261216257612161611b29565b5b828204905092915050565b7f696e73756666696369656e742066656500000000000000000000000000000000600082015250565b60006121a3601083611513565b91506121ae8261216d565b602082019050919050565b600060208201905081810360008301526121d281612196565b9050919050565b60006121e482611148565b91506121ef83611148565b92508282101561220257612201611b58565b5b828203905092915050565b7f496e697469616c697a61626c653a20636f6e7472616374206973206e6f74206960008201527f6e697469616c697a696e67000000000000000000000000000000000000000000602082015250565b6000612269602b83611513565b91506122748261220d565b604082019050919050565b600060208201905081810360008301526122988161225c565b905091905056fea2646970667358221220544d9d63bee738c728879626b77bbde85d926c5b4ab439d875215247b6bebc0264736f6c634300080b0033",
  "linkReferences": {},
  "deployedLinkReferences": {}
}