{
  "_format": "hh-sol-artifact-1",
  "contractName": "CrossChainNFTUpgradeable",
  "sourceName": "contracts/CrossChainNFTUpgradeable/CrossChainNFTUpgradeable.sol",
  "abi": [
    {
      "inputs": [],
      "stateMutability": "nonpayable",
      "type": "constructor"
    },
    {
      "anonymous": false,
      "inputs": [
        {
          "indexed": true,
          "internalType": "address",
          "name": "owner",
          "type": "address"
        },
        {
          "indexed": true,
          "internalType": "address",
          "name": "approved",
          "type": "address"
        },
        {
          "indexed": true,
          "internalType": "uint256",
          "name": "tokenId",
          "type": "uint256"
        }
      ],
      "name": "Approval",
      "type": "event"
    },
    {
      "anonymous": false,
      "inputs": [
        {
          "indexed": true,
          "internalType": "address",
          "name": "owner",
          "type": "address"
        },
        {
          "indexed": true,
          "internalType": "address",
          "name": "operator",
          "type": "address"
        },
        {
          "indexed": false,
          "internalType": "bool",
          "name": "approved",
          "type": "bool"
        }
      ],
      "name": "ApprovalForAll",
      "type": "event"
    },
    {
      "anonymous": false,
      "inputs": [
        {
          "indexed": true,
          "internalType": "address",
          "name": "previousOwner",
          "type": "address"
        },
        {
          "indexed": true,
          "internalType": "address",
          "name": "newOwner",
          "type": "address"
        }
      ],
      "name": "OwnershipTransferred",
      "type": "event"
    },
    {
      "anonymous": false,
      "inputs": [
        {
          "indexed": false,
          "internalType": "uint256",
          "name": "chainId",
          "type": "uint256"
        },
        {
          "indexed": false,
          "internalType": "address",
          "name": "contAddr",
          "type": "address"
        },
        {
          "indexed": false,
          "internalType": "uint256",
          "name": "tokenId",
          "type": "uint256"
        },
        {
          "indexed": false,
          "internalType": "address",
          "name": "to",
          "type": "address"
        }
      ],
      "name": "RelayerCallRedeem",
      "type": "event"
    },
    {
      "anonymous": false,
      "inputs": [
        {
          "indexed": false,
          "internalType": "uint256",
          "name": "targetChainId",
          "type": "uint256"
        },
        {
          "indexed": false,
          "internalType": "address",
          "name": "to",
          "type": "address"
        },
        {
          "indexed": false,
          "internalType": "uint256",
          "name": "chainId",
          "type": "uint256"
        },
        {
          "indexed": false,
          "internalType": "address",
          "name": "contAddr",
          "type": "address"
        },
        {
          "indexed": false,
          "internalType": "uint256",
          "name": "tokenId",
          "type": "uint256"
        },
        {
          "indexed": false,
          "internalType": "string",
          "name": "uri",
          "type": "string"
        }
      ],
      "name": "RelayerCallSafeMintWrappedToken",
      "type": "event"
    },
    {
      "anonymous": false,
      "inputs": [
        {
          "indexed": false,
          "internalType": "uint256",
          "name": "wTokenId",
          "type": "uint256"
        }
      ],
      "name": "TokenWrapped",
      "type": "event"
    },
    {
      "anonymous": false,
      "inputs": [
        {
          "indexed": true,
          "internalType": "address",
          "name": "from",
          "type": "address"
        },
        {
          "indexed": true,
          "internalType": "address",
          "name": "to",
          "type": "address"
        },
        {
          "indexed": true,
          "internalType": "uint256",
          "name": "tokenId",
          "type": "uint256"
        }
      ],
      "name": "Transfer",
      "type": "event"
    },
    {
      "anonymous": false,
      "inputs": [
        {
          "indexed": false,
          "internalType": "uint256",
          "name": "wTokenId",
          "type": "uint256"
        }
      ],
      "name": "WTokenBurned",
      "type": "event"
    },
    {
      "inputs": [
        {
          "internalType": "address",
          "name": "to",
          "type": "address"
        },
        {
          "internalType": "uint256",
          "name": "tokenId",
          "type": "uint256"
        }
      ],
      "name": "approve",
      "outputs": [],
      "stateMutability": "nonpayable",
      "type": "function"
    },
    {
      "inputs": [
        {
          "internalType": "address",
          "name": "owner",
          "type": "address"
        }
      ],
      "name": "balanceOf",
      "outputs": [
        {
          "internalType": "uint256",
          "name": "",
          "type": "uint256"
        }
      ],
      "stateMutability": "view",
      "type": "function"
    },
    {
      "inputs": [
        {
          "internalType": "uint256",
          "name": "wTokenId",
          "type": "uint256"
        }
      ],
      "name": "burnWrappedToken",
      "outputs": [],
      "stateMutability": "nonpayable",
      "type": "function"
    },
    {
      "inputs": [
        {
          "internalType": "uint256",
          "name": "tokenId",
          "type": "uint256"
        }
      ],
      "name": "getApproved",
      "outputs": [
        {
          "internalType": "address",
          "name": "",
          "type": "address"
        }
      ],
      "stateMutability": "view",
      "type": "function"
    },
    {
      "inputs": [
        {
          "internalType": "uint256",
          "name": "targetChainId",
          "type": "uint256"
        }
      ],
      "name": "getFee",
      "outputs": [
        {
          "internalType": "uint256",
          "name": "fee",
          "type": "uint256"
        }
      ],
      "stateMutability": "view",
      "type": "function"
    },
    {
      "inputs": [
        {
          "internalType": "uint256",
          "name": "wTokenId",
          "type": "uint256"
        }
      ],
      "name": "getwTokenData",
      "outputs": [
        {
          "internalType": "uint256",
          "name": "chainId",
          "type": "uint256"
        },
        {
          "internalType": "address",
          "name": "contAddr",
          "type": "address"
        },
        {
          "internalType": "uint256",
          "name": "tokenId",
          "type": "uint256"
        },
        {
          "internalType": "string",
          "name": "uri",
          "type": "string"
        }
      ],
      "stateMutability": "view",
      "type": "function"
    },
    {
      "inputs": [],
      "name": "initialize",
      "outputs": [],
      "stateMutability": "nonpayable",
      "type": "function"
    },
    {
      "inputs": [
        {
          "internalType": "address",
          "name": "owner",
          "type": "address"
        },
        {
          "internalType": "address",
          "name": "operator",
          "type": "address"
        }
      ],
      "name": "isApprovedForAll",
      "outputs": [
        {
          "internalType": "bool",
          "name": "",
          "type": "bool"
        }
      ],
      "stateMutability": "view",
      "type": "function"
    },
    {
      "inputs": [],
      "name": "name",
      "outputs": [
        {
          "internalType": "string",
          "name": "",
          "type": "string"
        }
      ],
      "stateMutability": "view",
      "type": "function"
    },
    {
      "inputs": [
        {
          "internalType": "address",
          "name": "",
          "type": "address"
        },
        {
          "internalType": "address",
          "name": "",
          "type": "address"
        },
        {
          "internalType": "uint256",
          "name": "",
          "type": "uint256"
        },
        {
          "internalType": "bytes",
          "name": "",
          "type": "bytes"
        }
      ],
      "name": "onERC721Received",
      "outputs": [
        {
          "internalType": "bytes4",
          "name": "",
          "type": "bytes4"
        }
      ],
      "stateMutability": "nonpayable",
      "type": "function"
    },
    {
      "inputs": [],
      "name": "owner",
      "outputs": [
        {
          "internalType": "address",
          "name": "",
          "type": "address"
        }
      ],
      "stateMutability": "view",
      "type": "function"
    },
    {
      "inputs": [
        {
          "internalType": "uint256",
          "name": "tokenId",
          "type": "uint256"
        }
      ],
      "name": "ownerOf",
      "outputs": [
        {
          "internalType": "address",
          "name": "",
          "type": "address"
        }
      ],
      "stateMutability": "view",
      "type": "function"
    },
    {
      "inputs": [
        {
          "internalType": "address",
          "name": "contAddr",
          "type": "address"
        },
        {
          "internalType": "uint256",
          "name": "tokenId",
          "type": "uint256"
        },
        {
          "internalType": "address",
          "name": "to",
          "type": "address"
        }
      ],
      "name": "redeem",
      "outputs": [],
      "stateMutability": "nonpayable",
      "type": "function"
    },
    {
      "inputs": [],
      "name": "relayer",
      "outputs": [
        {
          "internalType": "address",
          "name": "",
          "type": "address"
        }
      ],
      "stateMutability": "view",
      "type": "function"
    },
    {
      "inputs": [],
      "name": "renounceOwnership",
      "outputs": [],
      "stateMutability": "nonpayable",
      "type": "function"
    },
    {
      "inputs": [
        {
          "internalType": "address",
          "name": "to",
          "type": "address"
        },
        {
          "internalType": "uint256",
          "name": "chainId",
          "type": "uint256"
        },
        {
          "internalType": "address",
          "name": "contAddr",
          "type": "address"
        },
        {
          "internalType": "uint256",
          "name": "tokenId",
          "type": "uint256"
        },
        {
          "internalType": "string",
          "name": "uri",
          "type": "string"
        }
      ],
      "name": "safeMintWrappedToken",
      "outputs": [
        {
          "internalType": "uint256",
          "name": "wTokenId",
          "type": "uint256"
        }
      ],
      "stateMutability": "nonpayable",
      "type": "function"
    },
    {
      "inputs": [
        {
          "internalType": "address",
          "name": "from",
          "type": "address"
        },
        {
          "internalType": "address",
          "name": "to",
          "type": "address"
        },
        {
          "internalType": "uint256",
          "name": "tokenId",
          "type": "uint256"
        }
      ],
      "name": "safeTransferFrom",
      "outputs": [],
      "stateMutability": "nonpayable",
      "type": "function"
    },
    {
      "inputs": [
        {
          "internalType": "address",
          "name": "from",
          "type": "address"
        },
        {
          "internalType": "address",
          "name": "to",
          "type": "address"
        },
        {
          "internalType": "uint256",
          "name": "tokenId",
          "type": "uint256"
        },
        {
          "internalType": "bytes",
          "name": "_data",
          "type": "bytes"
        }
      ],
      "name": "safeTransferFrom",
      "outputs": [],
      "stateMutability": "nonpayable",
      "type": "function"
    },
    {
      "inputs": [
        {
          "internalType": "address",
          "name": "operator",
          "type": "address"
        },
        {
          "internalType": "bool",
          "name": "approved",
          "type": "bool"
        }
      ],
      "name": "setApprovalForAll",
      "outputs": [],
      "stateMutability": "nonpayable",
      "type": "function"
    },
    {
      "inputs": [
        {
          "internalType": "uint256",
          "name": "targetChainId",
          "type": "uint256"
        },
        {
          "internalType": "uint256",
          "name": "fee",
          "type": "uint256"
        }
      ],
      "name": "setFee",
      "outputs": [],
      "stateMutability": "nonpayable",
      "type": "function"
    },
    {
      "inputs": [
        {
          "internalType": "uint256[]",
          "name": "targetChainIds",
          "type": "uint256[]"
        },
        {
          "internalType": "uint256[]",
          "name": "fees",
          "type": "uint256[]"
        }
      ],
      "name": "setFees",
      "outputs": [],
      "stateMutability": "nonpayable",
      "type": "function"
    },
    {
      "inputs": [
        {
          "internalType": "address",
          "name": "newRelayer",
          "type": "address"
        }
      ],
      "name": "setRelayer",
      "outputs": [],
      "stateMutability": "nonpayable",
      "type": "function"
    },
    {
      "inputs": [
        {
          "internalType": "bytes4",
          "name": "interfaceId",
          "type": "bytes4"
        }
      ],
      "name": "supportsInterface",
      "outputs": [
        {
          "internalType": "bool",
          "name": "",
          "type": "bool"
        }
      ],
      "stateMutability": "view",
      "type": "function"
    },
    {
      "inputs": [],
      "name": "symbol",
      "outputs": [
        {
          "internalType": "string",
          "name": "",
          "type": "string"
        }
      ],
      "stateMutability": "view",
      "type": "function"
    },
    {
      "inputs": [
        {
          "internalType": "uint256",
          "name": "tokenId",
          "type": "uint256"
        }
      ],
      "name": "tokenURI",
      "outputs": [
        {
          "internalType": "string",
          "name": "",
          "type": "string"
        }
      ],
      "stateMutability": "view",
      "type": "function"
    },
    {
      "inputs": [],
      "name": "totalSupply",
      "outputs": [
        {
          "internalType": "uint256",
          "name": "",
          "type": "uint256"
        }
      ],
      "stateMutability": "view",
      "type": "function"
    },
    {
      "inputs": [
        {
          "internalType": "address",
          "name": "contAddr",
          "type": "address"
        },
        {
          "internalType": "uint256",
          "name": "tokenId",
          "type": "uint256"
        },
        {
          "internalType": "address",
          "name": "from",
          "type": "address"
        },
        {
          "internalType": "address",
          "name": "to",
          "type": "address"
        },
        {
          "internalType": "uint256",
          "name": "targetChainId",
          "type": "uint256"
        }
      ],
      "name": "transferCrossChainRequest",
      "outputs": [],
      "stateMutability": "payable",
      "type": "function"
    },
    {
      "inputs": [
        {
          "internalType": "address",
          "name": "from",
          "type": "address"
        },
        {
          "internalType": "address",
          "name": "to",
          "type": "address"
        },
        {
          "internalType": "uint256",
          "name": "tokenId",
          "type": "uint256"
        }
      ],
      "name": "transferFrom",
      "outputs": [],
      "stateMutability": "nonpayable",
      "type": "function"
    },
    {
      "inputs": [
        {
          "internalType": "address",
          "name": "newOwner",
          "type": "address"
        }
      ],
      "name": "transferOwnership",
      "outputs": [],
      "stateMutability": "nonpayable",
      "type": "function"
    },
    {
      "inputs": [
        {
          "internalType": "uint256",
          "name": "wTokenId",
          "type": "uint256"
        },
        {
          "internalType": "address",
          "name": "to",
          "type": "address"
        }
      ],
      "name": "wReturnCrossChainRequest",
      "outputs": [],
      "stateMutability": "payable",
      "type": "function"
    },
    {
      "inputs": [
        {
          "internalType": "address payable",
          "name": "to",
          "type": "address"
        }
      ],
      "name": "withdrawCash",
      "outputs": [],
      "stateMutability": "nonpayable",
      "type": "function"
    }
  ],
  "bytecode": "0x608060405234801561001057600080fd5b50614999806100206000396000f3fe6080604052600436106101d85760003560e01c806370e4acd811610102578063a22cb46511610095578063c87b56dd11610064578063c87b56dd1461068b578063e985e9c5146106c8578063f2fde38b14610705578063fcee45f41461072e576101d8565b8063a22cb465146105f4578063ae7197df1461061d578063b88d4fde14610646578063c237ba6b1461066f576101d8565b80638406c079116100d15780638406c079146105335780638d4dc9251461055e5780638da5cb5b1461059e57806395d89b41146105c9576101d8565b806370e4acd81461049f578063715018a6146104dc5780637a3b45bb146104f35780638129fc1c1461051c576101d8565b8063375fede51161017a5780635c833bfd116101495780635c833bfd146103d35780636352211e146103fc5780636548e9bc1461043957806370a0823114610462576101d8565b8063375fede51461033c57806338b5c5af1461036557806342842e0e1461038157806352f7c988146103aa576101d8565b8063095ea7b3116101b6578063095ea7b314610282578063150b7a02146102ab57806318160ddd146102e857806323b872dd14610313576101d8565b806301ffc9a7146101dd57806306fdde031461021a578063081812fc14610245575b600080fd5b3480156101e957600080fd5b5061020460048036038101906101ff9190612fab565b61076b565b6040516102119190612ff3565b60405180910390f35b34801561022657600080fd5b5061022f61084d565b60405161023c91906130a7565b60405180910390f35b34801561025157600080fd5b5061026c600480360381019061026791906130ff565b6108df565b604051610279919061316d565b60405180910390f35b34801561028e57600080fd5b506102a960048036038101906102a491906131b4565b610964565b005b3480156102b757600080fd5b506102d260048036038101906102cd9190613329565b610a7c565b6040516102df91906133bb565b60405180910390f35b3480156102f457600080fd5b506102fd610a90565b60405161030a91906133e5565b60405180910390f35b34801561031f57600080fd5b5061033a60048036038101906103359190613400565b610a98565b005b34801561034857600080fd5b50610363600480360381019061035e919061351b565b610af8565b005b61037f600480360381019061037a9190613593565b610c19565b005b34801561038d57600080fd5b506103a860048036038101906103a39190613400565b610def565b005b3480156103b657600080fd5b506103d160048036038101906103cc91906135d3565b610e0f565b005b3480156103df57600080fd5b506103fa60048036038101906103f59190613613565b610ea7565b005b34801561040857600080fd5b50610423600480360381019061041e91906130ff565b610fb1565b604051610430919061316d565b60405180910390f35b34801561044557600080fd5b50610460600480360381019061045b9190613666565b611063565b005b34801561046e57600080fd5b5061048960048036038101906104849190613666565b611123565b60405161049691906133e5565b60405180910390f35b3480156104ab57600080fd5b506104c660048036038101906104c19190613734565b6111db565b6040516104d391906133e5565b60405180910390f35b3480156104e857600080fd5b506104f16112a3565b005b3480156104ff57600080fd5b5061051a600480360381019061051591906130ff565b61132b565b005b34801561052857600080fd5b50610531611390565b005b34801561053f57600080fd5b50610548611515565b604051610555919061316d565b60405180910390f35b34801561056a57600080fd5b50610585600480360381019061058091906130ff565b61153b565b60405161059594939291906137cb565b60405180910390f35b3480156105aa57600080fd5b506105b3611684565b6040516105c0919061316d565b60405180910390f35b3480156105d557600080fd5b506105de6116ae565b6040516105eb91906130a7565b60405180910390f35b34801561060057600080fd5b5061061b60048036038101906106169190613843565b611740565b005b34801561062957600080fd5b50610644600480360381019061063f91906138c1565b611756565b005b34801561065257600080fd5b5061066d60048036038101906106689190613329565b611823565b005b610689600480360381019061068491906138ee565b611885565b005b34801561069757600080fd5b506106b260048036038101906106ad91906130ff565b611971565b6040516106bf91906130a7565b60405180910390f35b3480156106d457600080fd5b506106ef60048036038101906106ea9190613969565b611983565b6040516106fc9190612ff3565b60405180910390f35b34801561071157600080fd5b5061072c60048036038101906107279190613666565b611a17565b005b34801561073a57600080fd5b50610755600480360381019061075091906130ff565b611b0f565b60405161076291906133e5565b60405180910390f35b60007f80ac58cd000000000000000000000000000000000000000000000000000000007bffffffffffffffffffffffffffffffffffffffffffffffffffffffff1916827bffffffffffffffffffffffffffffffffffffffffffffffffffffffff1916148061083657507f5b5e139f000000000000000000000000000000000000000000000000000000007bffffffffffffffffffffffffffffffffffffffffffffffffffffffff1916827bffffffffffffffffffffffffffffffffffffffffffffffffffffffff1916145b80610846575061084582611b2c565b5b9050919050565b60606065805461085c906139d8565b80601f0160208091040260200160405190810160405280929190818152602001828054610888906139d8565b80156108d55780601f106108aa576101008083540402835291602001916108d5565b820191906000526020600020905b8154815290600101906020018083116108b857829003601f168201915b5050505050905090565b60006108ea82611b96565b610929576040517f08c379a000000000000000000000000000000000000000000000000000000000815260040161092090613a7c565b60405180910390fd5b6069600083815260200190815260200160002060009054906101000a900473ffffffffffffffffffffffffffffffffffffffff169050919050565b600061096f82610fb1565b90508073ffffffffffffffffffffffffffffffffffffffff168373ffffffffffffffffffffffffffffffffffffffff1614156109e0576040517f08c379a00000000000000000000000000000000000000000000000000000000081526004016109d790613b0e565b60405180910390fd5b8073ffffffffffffffffffffffffffffffffffffffff166109ff611c02565b73ffffffffffffffffffffffffffffffffffffffff161480610a2e5750610a2d81610a28611c02565b611983565b5b610a6d576040517f08c379a0000000000000000000000000000000000000000000000000000000008152600401610a6490613ba0565b60405180910390fd5b610a778383611c0a565b505050565b600063150b7a0260e01b9050949350505050565b600047905090565b610aa9610aa3611c02565b82611cc3565b610ae8576040517f08c379a0000000000000000000000000000000000000000000000000000000008152600401610adf90613c32565b60405180910390fd5b610af3838383611da1565b505050565b610b00611c02565b73ffffffffffffffffffffffffffffffffffffffff16610b1e611684565b73ffffffffffffffffffffffffffffffffffffffff1614610b74576040517f08c379a0000000000000000000000000000000000000000000000000000000008152600401610b6b90613c9e565b60405180910390fd5b8051825114610bb8576040517f08c379a0000000000000000000000000000000000000000000000000000000008152600401610baf90613d30565b60405180910390fd5b60005b82518111610c1457610c01838281518110610bd957610bd8613d50565b5b6020026020010151838381518110610bf457610bf3613d50565b5b6020026020010151610e0f565b8080610c0c90613dae565b915050610bbb565b505050565b600060c96000848152602001908152602001600020604051806080016040529081600082015481526020016001820160009054906101000a900473ffffffffffffffffffffffffffffffffffffffff1673ffffffffffffffffffffffffffffffffffffffff1673ffffffffffffffffffffffffffffffffffffffff16815260200160028201548152602001600382018054610cb3906139d8565b80601f0160208091040260200160405190810160405280929190818152602001828054610cdf906139d8565b8015610d2c5780601f10610d0157610100808354040283529160200191610d2c565b820191906000526020600020905b815481529060010190602001808311610d0f57829003601f168201915b5050505050815250509050610d448160000151611b0f565b341015610d86576040517f08c379a0000000000000000000000000000000000000000000000000000000008152600401610d7d90613e43565b60405180910390fd5b600081600001519050600082602001519050600083604001519050610daa8661132b565b7f68d40ad5dae5d6d29b5f9a3faf65a9e21ea0772c8a6861641ef31fad20d185fb83838388604051610ddf9493929190613e63565b60405180910390a1505050505050565b610e0a83838360405180602001604052806000815250611823565b505050565b610e17611c02565b73ffffffffffffffffffffffffffffffffffffffff16610e35611684565b73ffffffffffffffffffffffffffffffffffffffff1614610e8b576040517f08c379a0000000000000000000000000000000000000000000000000000000008152600401610e8290613c9e565b60405180910390fd5b8060fe6000848152602001908152602001600020819055505050565b60fd60009054906101000a900473ffffffffffffffffffffffffffffffffffffffff1673ffffffffffffffffffffffffffffffffffffffff163373ffffffffffffffffffffffffffffffffffffffff1614610f37576040517f08c379a0000000000000000000000000000000000000000000000000000000008152600401610f2e90613ef4565b60405180910390fd5b60008390508073ffffffffffffffffffffffffffffffffffffffff166342842e0e3084866040518463ffffffff1660e01b8152600401610f7993929190613f14565b600060405180830381600087803b158015610f9357600080fd5b505af1158015610fa7573d6000803e3d6000fd5b5050505050505050565b6000806067600084815260200190815260200160002060009054906101000a900473ffffffffffffffffffffffffffffffffffffffff169050600073ffffffffffffffffffffffffffffffffffffffff168173ffffffffffffffffffffffffffffffffffffffff16141561105a576040517f08c379a000000000000000000000000000000000000000000000000000000000815260040161105190613fbd565b60405180910390fd5b80915050919050565b61106b611c02565b73ffffffffffffffffffffffffffffffffffffffff16611089611684565b73ffffffffffffffffffffffffffffffffffffffff16146110df576040517f08c379a00000000000000000000000000000000000000000000000000000000081526004016110d690613c9e565b60405180910390fd5b8060fd60006101000a81548173ffffffffffffffffffffffffffffffffffffffff021916908373ffffffffffffffffffffffffffffffffffffffff16021790555050565b60008073ffffffffffffffffffffffffffffffffffffffff168273ffffffffffffffffffffffffffffffffffffffff161415611194576040517f08c379a000000000000000000000000000000000000000000000000000000000815260040161118b9061404f565b60405180910390fd5b606860008373ffffffffffffffffffffffffffffffffffffffff1673ffffffffffffffffffffffffffffffffffffffff168152602001908152602001600020549050919050565b600060fd60009054906101000a900473ffffffffffffffffffffffffffffffffffffffff1673ffffffffffffffffffffffffffffffffffffffff163373ffffffffffffffffffffffffffffffffffffffff161461126d576040517f08c379a000000000000000000000000000000000000000000000000000000000815260040161126490613ef4565b60405180910390fd5b61127760fc611ffd565b905061128360fc61200b565b61128d8682612021565b61129a818686868661203f565b95945050505050565b6112ab611c02565b73ffffffffffffffffffffffffffffffffffffffff166112c9611684565b73ffffffffffffffffffffffffffffffffffffffff161461131f576040517f08c379a000000000000000000000000000000000000000000000000000000000815260040161131690613c9e565b60405180910390fd5b6113296000612142565b565b61133c611336611c02565b82611cc3565b61137b576040517f08c379a0000000000000000000000000000000000000000000000000000000008152600401611372906140e1565b60405180910390fd5b61138481612208565b61138d81612319565b50565b600060019054906101000a900460ff166113b85760008054906101000a900460ff16156113c1565b6113c06123b0565b5b611400576040517f08c379a00000000000000000000000000000000000000000000000000000000081526004016113f790614173565b60405180910390fd5b60008060019054906101000a900460ff161590508015611450576001600060016101000a81548160ff02191690831515021790555060016000806101000a81548160ff0219169083151502179055505b61146d7375d0b767029305b2ad067f6742e8e5b1bbdc5d3e6123c1565b6114e16040518060400160405280601881526020017f43726f7373436861696e4e46545570677261646561626c6500000000000000008152506040518060400160405280600381526020017f43434e0000000000000000000000000000000000000000000000000000000000815250612454565b6114e96124c1565b6114f161252a565b80156115125760008060016101000a81548160ff0219169083151502179055505b50565b60fd60009054906101000a900473ffffffffffffffffffffffffffffffffffffffff1681565b60008060006060600060c96000878152602001908152602001600020604051806080016040529081600082015481526020016001820160009054906101000a900473ffffffffffffffffffffffffffffffffffffffff1673ffffffffffffffffffffffffffffffffffffffff1673ffffffffffffffffffffffffffffffffffffffff168152602001600282015481526020016003820180546115dc906139d8565b80601f0160208091040260200160405190810160405280929190818152602001828054611608906139d8565b80156116555780601f1061162a57610100808354040283529160200191611655565b820191906000526020600020905b81548152906001019060200180831161163857829003601f168201915b505050505081525050905080600001519450806020015193508060400151925080606001519150509193509193565b600060ca60009054906101000a900473ffffffffffffffffffffffffffffffffffffffff16905090565b6060606680546116bd906139d8565b80601f01602080910402602001604051908101604052809291908181526020018280546116e9906139d8565b80156117365780601f1061170b57610100808354040283529160200191611736565b820191906000526020600020905b81548152906001019060200180831161171957829003601f168201915b5050505050905090565b61175261174b611c02565b838361258b565b5050565b61175e611c02565b73ffffffffffffffffffffffffffffffffffffffff1661177c611684565b73ffffffffffffffffffffffffffffffffffffffff16146117d2576040517f08c379a00000000000000000000000000000000000000000000000000000000081526004016117c990613c9e565b60405180910390fd5b8073ffffffffffffffffffffffffffffffffffffffff166108fc6117f4610a90565b9081150290604051600060405180830381858888f1935050505015801561181f573d6000803e3d6000fd5b5050565b61183461182e611c02565b83611cc3565b611873576040517f08c379a000000000000000000000000000000000000000000000000000000000815260040161186a90613c32565b60405180910390fd5b61187f848484846126f8565b50505050565b61188e81611b0f565b34101561189a57600080fd5b6118a5858585612754565b60004690507f9301e409432a51a191443f644ae41630782021a09e1ce98fc0e5fb72078a25ea82848389898b73ffffffffffffffffffffffffffffffffffffffff1663c87b56dd8c6040518263ffffffff1660e01b815260040161190991906133e5565b600060405180830381865afa158015611926573d6000803e3d6000fd5b505050506040513d6000823e3d601f19601f8201168201806040525081019061194f9190614203565b6040516119619695949392919061424c565b60405180910390a1505050505050565b606061197c826127ce565b9050919050565b6000606a60008473ffffffffffffffffffffffffffffffffffffffff1673ffffffffffffffffffffffffffffffffffffffff16815260200190815260200160002060008373ffffffffffffffffffffffffffffffffffffffff1673ffffffffffffffffffffffffffffffffffffffff16815260200190815260200160002060009054906101000a900460ff16905092915050565b611a1f611c02565b73ffffffffffffffffffffffffffffffffffffffff16611a3d611684565b73ffffffffffffffffffffffffffffffffffffffff1614611a93576040517f08c379a0000000000000000000000000000000000000000000000000000000008152600401611a8a90613c9e565b60405180910390fd5b600073ffffffffffffffffffffffffffffffffffffffff168173ffffffffffffffffffffffffffffffffffffffff161415611b03576040517f08c379a0000000000000000000000000000000000000000000000000000000008152600401611afa90614326565b60405180910390fd5b611b0c81612142565b50565b600060fe6000838152602001908152602001600020549050919050565b60007f01ffc9a7000000000000000000000000000000000000000000000000000000007bffffffffffffffffffffffffffffffffffffffffffffffffffffffff1916827bffffffffffffffffffffffffffffffffffffffffffffffffffffffff1916149050919050565b60008073ffffffffffffffffffffffffffffffffffffffff166067600084815260200190815260200160002060009054906101000a900473ffffffffffffffffffffffffffffffffffffffff1673ffffffffffffffffffffffffffffffffffffffff1614159050919050565b600033905090565b816069600083815260200190815260200160002060006101000a81548173ffffffffffffffffffffffffffffffffffffffff021916908373ffffffffffffffffffffffffffffffffffffffff160217905550808273ffffffffffffffffffffffffffffffffffffffff16611c7d83610fb1565b73ffffffffffffffffffffffffffffffffffffffff167f8c5be1e5ebec7d5bd14f71427d1e84f3dd0314c0f7b2291e5b200ac8c7c3b92560405160405180910390a45050565b6000611cce82611b96565b611d0d576040517f08c379a0000000000000000000000000000000000000000000000000000000008152600401611d04906143b8565b60405180910390fd5b6000611d1883610fb1565b90508073ffffffffffffffffffffffffffffffffffffffff168473ffffffffffffffffffffffffffffffffffffffff161480611d8757508373ffffffffffffffffffffffffffffffffffffffff16611d6f846108df565b73ffffffffffffffffffffffffffffffffffffffff16145b80611d985750611d978185611983565b5b91505092915050565b8273ffffffffffffffffffffffffffffffffffffffff16611dc182610fb1565b73ffffffffffffffffffffffffffffffffffffffff1614611e17576040517f08c379a0000000000000000000000000000000000000000000000000000000008152600401611e0e9061444a565b60405180910390fd5b600073ffffffffffffffffffffffffffffffffffffffff168273ffffffffffffffffffffffffffffffffffffffff161415611e87576040517f08c379a0000000000000000000000000000000000000000000000000000000008152600401611e7e906144dc565b60405180910390fd5b611e928383836128be565b611e9d600082611c0a565b6001606860008573ffffffffffffffffffffffffffffffffffffffff1673ffffffffffffffffffffffffffffffffffffffff1681526020019081526020016000206000828254611eed91906144fc565b925050819055506001606860008473ffffffffffffffffffffffffffffffffffffffff1673ffffffffffffffffffffffffffffffffffffffff1681526020019081526020016000206000828254611f449190614530565b92505081905550816067600083815260200190815260200160002060006101000a81548173ffffffffffffffffffffffffffffffffffffffff021916908373ffffffffffffffffffffffffffffffffffffffff160217905550808273ffffffffffffffffffffffffffffffffffffffff168473ffffffffffffffffffffffffffffffffffffffff167fddf252ad1be2c89b69c2b068fc378daa952ba7f163c4a11628f55a4df523b3ef60405160405180910390a4505050565b600081600001549050919050565b6001816000016000828254019250508190555050565b61203b8282604051806020016040528060008152506128c3565b5050565b60405180608001604052808581526020018473ffffffffffffffffffffffffffffffffffffffff1681526020018381526020018281525060c960008781526020019081526020016000206000820151816000015560208201518160010160006101000a81548173ffffffffffffffffffffffffffffffffffffffff021916908373ffffffffffffffffffffffffffffffffffffffff160217905550604082015181600201556060820151816003019080519060200190612100929190612e5c565b509050507fbbd8046f2003b15c5e4858368dad2435a58ae1e6b8e64b8edab81490292e33958560405161213391906133e5565b60405180910390a15050505050565b600060ca60009054906101000a900473ffffffffffffffffffffffffffffffffffffffff1690508160ca60006101000a81548173ffffffffffffffffffffffffffffffffffffffff021916908373ffffffffffffffffffffffffffffffffffffffff1602179055508173ffffffffffffffffffffffffffffffffffffffff168173ffffffffffffffffffffffffffffffffffffffff167f8be0079c531659141344cd1fd0a4f28419497f9722a3daafe3b4186f6b6457e060405160405180910390a35050565b600061221382610fb1565b9050612221816000846128be565b61222c600083611c0a565b6001606860008373ffffffffffffffffffffffffffffffffffffffff1673ffffffffffffffffffffffffffffffffffffffff168152602001908152602001600020600082825461227c91906144fc565b925050819055506067600083815260200190815260200160002060006101000a81549073ffffffffffffffffffffffffffffffffffffffff021916905581600073ffffffffffffffffffffffffffffffffffffffff168273ffffffffffffffffffffffffffffffffffffffff167fddf252ad1be2c89b69c2b068fc378daa952ba7f163c4a11628f55a4df523b3ef60405160405180910390a45050565b60c960008281526020019081526020016000206000808201600090556001820160006101000a81549073ffffffffffffffffffffffffffffffffffffffff021916905560028201600090556003820160006123749190612ee2565b50507fbae674de5b60cebab59cbdf60624b8a5ba69b8baf7f2c92aeaf1a2cc183ddddf816040516123a591906133e5565b60405180910390a150565b60006123bb3061291e565b15905090565b600060019054906101000a900460ff16612410576040517f08c379a0000000000000000000000000000000000000000000000000000000008152600401612407906145f8565b60405180910390fd5b8060fd60006101000a81548173ffffffffffffffffffffffffffffffffffffffff021916908373ffffffffffffffffffffffffffffffffffffffff16021790555050565b600060019054906101000a900460ff166124a3576040517f08c379a000000000000000000000000000000000000000000000000000000000815260040161249a906145f8565b60405180910390fd5b6124ab612931565b6124b3612982565b6124bd82826129d3565b5050565b600060019054906101000a900460ff16612510576040517f08c379a0000000000000000000000000000000000000000000000000000000008152600401612507906145f8565b60405180910390fd5b612518612931565b612520612982565b612528612a54565b565b600060019054906101000a900460ff16612579576040517f08c379a0000000000000000000000000000000000000000000000000000000008152600401612570906145f8565b60405180910390fd5b612581612931565b612589612aa5565b565b8173ffffffffffffffffffffffffffffffffffffffff168373ffffffffffffffffffffffffffffffffffffffff1614156125fa576040517f08c379a00000000000000000000000000000000000000000000000000000000081526004016125f190614664565b60405180910390fd5b80606a60008573ffffffffffffffffffffffffffffffffffffffff1673ffffffffffffffffffffffffffffffffffffffff16815260200190815260200160002060008473ffffffffffffffffffffffffffffffffffffffff1673ffffffffffffffffffffffffffffffffffffffff16815260200190815260200160002060006101000a81548160ff0219169083151502179055508173ffffffffffffffffffffffffffffffffffffffff168373ffffffffffffffffffffffffffffffffffffffff167f17307eab39ab6107e8899845ad3d59bd9653f200f220920489ca2b5937696c31836040516126eb9190612ff3565b60405180910390a3505050565b612703848484611da1565b61270f84848484612b06565b61274e576040517f08c379a0000000000000000000000000000000000000000000000000000000008152600401612745906146f6565b60405180910390fd5b50505050565b60008390508073ffffffffffffffffffffffffffffffffffffffff166342842e0e8330866040518463ffffffff1660e01b815260040161279693929190613f14565b600060405180830381600087803b1580156127b057600080fd5b505af11580156127c4573d6000803e3d6000fd5b5050505050505050565b60606127d982611b96565b612818576040517f08c379a000000000000000000000000000000000000000000000000000000000815260040161280f90614788565b60405180910390fd5b60c960008381526020019081526020016000206003018054612839906139d8565b80601f0160208091040260200160405190810160405280929190818152602001828054612865906139d8565b80156128b25780601f10612887576101008083540402835291602001916128b2565b820191906000526020600020905b81548152906001019060200180831161289557829003601f168201915b50505050509050919050565b505050565b6128cd8383612c8e565b6128da6000848484612b06565b612919576040517f08c379a0000000000000000000000000000000000000000000000000000000008152600401612910906146f6565b60405180910390fd5b505050565b600080823b905060008111915050919050565b600060019054906101000a900460ff16612980576040517f08c379a0000000000000000000000000000000000000000000000000000000008152600401612977906145f8565b60405180910390fd5b565b600060019054906101000a900460ff166129d1576040517f08c379a00000000000000000000000000000000000000000000000000000000081526004016129c8906145f8565b60405180910390fd5b565b600060019054906101000a900460ff16612a22576040517f08c379a0000000000000000000000000000000000000000000000000000000008152600401612a19906145f8565b60405180910390fd5b8160659080519060200190612a38929190612e5c565b508060669080519060200190612a4f929190612e5c565b505050565b600060019054906101000a900460ff16612aa3576040517f08c379a0000000000000000000000000000000000000000000000000000000008152600401612a9a906145f8565b60405180910390fd5b565b600060019054906101000a900460ff16612af4576040517f08c379a0000000000000000000000000000000000000000000000000000000008152600401612aeb906145f8565b60405180910390fd5b612b04612aff611c02565b612142565b565b6000612b278473ffffffffffffffffffffffffffffffffffffffff1661291e565b15612c81578373ffffffffffffffffffffffffffffffffffffffff1663150b7a02612b50611c02565b8786866040518563ffffffff1660e01b8152600401612b7294939291906147fd565b6020604051808303816000875af1925050508015612bae57506040513d601f19601f82011682018060405250810190612bab919061485e565b60015b612c31573d8060008114612bde576040519150601f19603f3d011682016040523d82523d6000602084013e612be3565b606091505b50600081511415612c29576040517f08c379a0000000000000000000000000000000000000000000000000000000008152600401612c20906146f6565b60405180910390fd5b805181602001fd5b63150b7a0260e01b7bffffffffffffffffffffffffffffffffffffffffffffffffffffffff1916817bffffffffffffffffffffffffffffffffffffffffffffffffffffffff191614915050612c86565b600190505b949350505050565b600073ffffffffffffffffffffffffffffffffffffffff168273ffffffffffffffffffffffffffffffffffffffff161415612cfe576040517f08c379a0000000000000000000000000000000000000000000000000000000008152600401612cf5906148d7565b60405180910390fd5b612d0781611b96565b15612d47576040517f08c379a0000000000000000000000000000000000000000000000000000000008152600401612d3e90614943565b60405180910390fd5b612d53600083836128be565b6001606860008473ffffffffffffffffffffffffffffffffffffffff1673ffffffffffffffffffffffffffffffffffffffff1681526020019081526020016000206000828254612da39190614530565b92505081905550816067600083815260200190815260200160002060006101000a81548173ffffffffffffffffffffffffffffffffffffffff021916908373ffffffffffffffffffffffffffffffffffffffff160217905550808273ffffffffffffffffffffffffffffffffffffffff16600073ffffffffffffffffffffffffffffffffffffffff167fddf252ad1be2c89b69c2b068fc378daa952ba7f163c4a11628f55a4df523b3ef60405160405180910390a45050565b828054612e68906139d8565b90600052602060002090601f016020900481019282612e8a5760008555612ed1565b82601f10612ea357805160ff1916838001178555612ed1565b82800160010185558215612ed1579182015b82811115612ed0578251825591602001919060010190612eb5565b5b509050612ede9190612f22565b5090565b508054612eee906139d8565b6000825580601f10612f005750612f1f565b601f016020900490600052602060002090810190612f1e9190612f22565b5b50565b5b80821115612f3b576000816000905550600101612f23565b5090565b6000604051905090565b600080fd5b600080fd5b60007fffffffff0000000000000000000000000000000000000000000000000000000082169050919050565b612f8881612f53565b8114612f9357600080fd5b50565b600081359050612fa581612f7f565b92915050565b600060208284031215612fc157612fc0612f49565b5b6000612fcf84828501612f96565b91505092915050565b60008115159050919050565b612fed81612fd8565b82525050565b60006020820190506130086000830184612fe4565b92915050565b600081519050919050565b600082825260208201905092915050565b60005b8381101561304857808201518184015260208101905061302d565b83811115613057576000848401525b50505050565b6000601f19601f8301169050919050565b60006130798261300e565b6130838185613019565b935061309381856020860161302a565b61309c8161305d565b840191505092915050565b600060208201905081810360008301526130c1818461306e565b905092915050565b6000819050919050565b6130dc816130c9565b81146130e757600080fd5b50565b6000813590506130f9816130d3565b92915050565b60006020828403121561311557613114612f49565b5b6000613123848285016130ea565b91505092915050565b600073ffffffffffffffffffffffffffffffffffffffff82169050919050565b60006131578261312c565b9050919050565b6131678161314c565b82525050565b6000602082019050613182600083018461315e565b92915050565b6131918161314c565b811461319c57600080fd5b50565b6000813590506131ae81613188565b92915050565b600080604083850312156131cb576131ca612f49565b5b60006131d98582860161319f565b92505060206131ea858286016130ea565b9150509250929050565b600080fd5b600080fd5b7f4e487b7100000000000000000000000000000000000000000000000000000000600052604160045260246000fd5b6132368261305d565b810181811067ffffffffffffffff82111715613255576132546131fe565b5b80604052505050565b6000613268612f3f565b9050613274828261322d565b919050565b600067ffffffffffffffff821115613294576132936131fe565b5b61329d8261305d565b9050602081019050919050565b82818337600083830152505050565b60006132cc6132c784613279565b61325e565b9050828152602081018484840111156132e8576132e76131f9565b5b6132f38482856132aa565b509392505050565b600082601f8301126133105761330f6131f4565b5b81356133208482602086016132b9565b91505092915050565b6000806000806080858703121561334357613342612f49565b5b60006133518782880161319f565b94505060206133628782880161319f565b9350506040613373878288016130ea565b925050606085013567ffffffffffffffff81111561339457613393612f4e565b5b6133a0878288016132fb565b91505092959194509250565b6133b581612f53565b82525050565b60006020820190506133d060008301846133ac565b92915050565b6133df816130c9565b82525050565b60006020820190506133fa60008301846133d6565b92915050565b60008060006060848603121561341957613418612f49565b5b60006134278682870161319f565b93505060206134388682870161319f565b9250506040613449868287016130ea565b9150509250925092565b600067ffffffffffffffff82111561346e5761346d6131fe565b5b602082029050602081019050919050565b600080fd5b600061349761349284613453565b61325e565b905080838252602082019050602084028301858111156134ba576134b961347f565b5b835b818110156134e357806134cf88826130ea565b8452602084019350506020810190506134bc565b5050509392505050565b600082601f830112613502576135016131f4565b5b8135613512848260208601613484565b91505092915050565b6000806040838503121561353257613531612f49565b5b600083013567ffffffffffffffff8111156135505761354f612f4e565b5b61355c858286016134ed565b925050602083013567ffffffffffffffff81111561357d5761357c612f4e565b5b613589858286016134ed565b9150509250929050565b600080604083850312156135aa576135a9612f49565b5b60006135b8858286016130ea565b92505060206135c98582860161319f565b9150509250929050565b600080604083850312156135ea576135e9612f49565b5b60006135f8858286016130ea565b9250506020613609858286016130ea565b9150509250929050565b60008060006060848603121561362c5761362b612f49565b5b600061363a8682870161319f565b935050602061364b868287016130ea565b925050604061365c8682870161319f565b9150509250925092565b60006020828403121561367c5761367b612f49565b5b600061368a8482850161319f565b91505092915050565b600067ffffffffffffffff8211156136ae576136ad6131fe565b5b6136b78261305d565b9050602081019050919050565b60006136d76136d284613693565b61325e565b9050828152602081018484840111156136f3576136f26131f9565b5b6136fe8482856132aa565b509392505050565b600082601f83011261371b5761371a6131f4565b5b813561372b8482602086016136c4565b91505092915050565b600080600080600060a086880312156137505761374f612f49565b5b600061375e8882890161319f565b955050602061376f888289016130ea565b94505060406137808882890161319f565b9350506060613791888289016130ea565b925050608086013567ffffffffffffffff8111156137b2576137b1612f4e565b5b6137be88828901613706565b9150509295509295909350565b60006080820190506137e060008301876133d6565b6137ed602083018661315e565b6137fa60408301856133d6565b818103606083015261380c818461306e565b905095945050505050565b61382081612fd8565b811461382b57600080fd5b50565b60008135905061383d81613817565b92915050565b6000806040838503121561385a57613859612f49565b5b60006138688582860161319f565b92505060206138798582860161382e565b9150509250929050565b600061388e8261312c565b9050919050565b61389e81613883565b81146138a957600080fd5b50565b6000813590506138bb81613895565b92915050565b6000602082840312156138d7576138d6612f49565b5b60006138e5848285016138ac565b91505092915050565b600080600080600060a0868803121561390a57613909612f49565b5b60006139188882890161319f565b9550506020613929888289016130ea565b945050604061393a8882890161319f565b935050606061394b8882890161319f565b925050608061395c888289016130ea565b9150509295509295909350565b600080604083850312156139805761397f612f49565b5b600061398e8582860161319f565b925050602061399f8582860161319f565b9150509250929050565b7f4e487b7100000000000000000000000000000000000000000000000000000000600052602260045260246000fd5b600060028204905060018216806139f057607f821691505b60208210811415613a0457613a036139a9565b5b50919050565b7f4552433732313a20617070726f76656420717565727920666f72206e6f6e657860008201527f697374656e7420746f6b656e0000000000000000000000000000000000000000602082015250565b6000613a66602c83613019565b9150613a7182613a0a565b604082019050919050565b60006020820190508181036000830152613a9581613a59565b9050919050565b7f4552433732313a20617070726f76616c20746f2063757272656e74206f776e6560008201527f7200000000000000000000000000000000000000000000000000000000000000602082015250565b6000613af8602183613019565b9150613b0382613a9c565b604082019050919050565b60006020820190508181036000830152613b2781613aeb565b9050919050565b7f4552433732313a20617070726f76652063616c6c6572206973206e6f74206f7760008201527f6e6572206e6f7220617070726f76656420666f7220616c6c0000000000000000602082015250565b6000613b8a603883613019565b9150613b9582613b2e565b604082019050919050565b60006020820190508181036000830152613bb981613b7d565b9050919050565b7f4552433732313a207472616e736665722063616c6c6572206973206e6f74206f60008201527f776e6572206e6f7220617070726f766564000000000000000000000000000000602082015250565b6000613c1c603183613019565b9150613c2782613bc0565b604082019050919050565b60006020820190508181036000830152613c4b81613c0f565b9050919050565b7f4f776e61626c653a2063616c6c6572206973206e6f7420746865206f776e6572600082015250565b6000613c88602083613019565b9150613c9382613c52565b602082019050919050565b60006020820190508181036000830152613cb781613c7b565b9050919050565b7f61727261797320617265206e6f7420696e207468652073616d65206c656e676860008201527f7400000000000000000000000000000000000000000000000000000000000000602082015250565b6000613d1a602183613019565b9150613d2582613cbe565b604082019050919050565b60006020820190508181036000830152613d4981613d0d565b9050919050565b7f4e487b7100000000000000000000000000000000000000000000000000000000600052603260045260246000fd5b7f4e487b7100000000000000000000000000000000000000000000000000000000600052601160045260246000fd5b6000613db9826130c9565b91507fffffffffffffffffffffffffffffffffffffffffffffffffffffffffffffffff821415613dec57613deb613d7f565b5b600182019050919050565b7f696e73756666696369656e742066656500000000000000000000000000000000600082015250565b6000613e2d601083613019565b9150613e3882613df7565b602082019050919050565b60006020820190508181036000830152613e5c81613e20565b9050919050565b6000608082019050613e7860008301876133d6565b613e85602083018661315e565b613e9260408301856133d6565b613e9f606083018461315e565b95945050505050565b7f726573747269637465642066756e6374696f6e20746f2072656c617965720000600082015250565b6000613ede601e83613019565b9150613ee982613ea8565b602082019050919050565b60006020820190508181036000830152613f0d81613ed1565b9050919050565b6000606082019050613f29600083018661315e565b613f36602083018561315e565b613f4360408301846133d6565b949350505050565b7f4552433732313a206f776e657220717565727920666f72206e6f6e657869737460008201527f656e7420746f6b656e0000000000000000000000000000000000000000000000602082015250565b6000613fa7602983613019565b9150613fb282613f4b565b604082019050919050565b60006020820190508181036000830152613fd681613f9a565b9050919050565b7f4552433732313a2062616c616e636520717565727920666f7220746865207a6560008201527f726f206164647265737300000000000000000000000000000000000000000000602082015250565b6000614039602a83613019565b915061404482613fdd565b604082019050919050565b600060208201905081810360008301526140688161402c565b9050919050565b7f4552433732314275726e61626c653a2063616c6c6572206973206e6f74206f7760008201527f6e6572206e6f7220617070726f76656400000000000000000000000000000000602082015250565b60006140cb603083613019565b91506140d68261406f565b604082019050919050565b600060208201905081810360008301526140fa816140be565b9050919050565b7f496e697469616c697a61626c653a20636f6e747261637420697320616c72656160008201527f647920696e697469616c697a6564000000000000000000000000000000000000602082015250565b600061415d602e83613019565b915061416882614101565b604082019050919050565b6000602082019050818103600083015261418c81614150565b9050919050565b60006141a66141a184613693565b61325e565b9050828152602081018484840111156141c2576141c16131f9565b5b6141cd84828561302a565b509392505050565b600082601f8301126141ea576141e96131f4565b5b81516141fa848260208601614193565b91505092915050565b60006020828403121561421957614218612f49565b5b600082015167ffffffffffffffff81111561423757614236612f4e565b5b614243848285016141d5565b91505092915050565b600060c08201905061426160008301896133d6565b61426e602083018861315e565b61427b60408301876133d6565b614288606083018661315e565b61429560808301856133d6565b81810360a08301526142a7818461306e565b9050979650505050505050565b7f4f776e61626c653a206e6577206f776e657220697320746865207a65726f206160008201527f6464726573730000000000000000000000000000000000000000000000000000602082015250565b6000614310602683613019565b915061431b826142b4565b604082019050919050565b6000602082019050818103600083015261433f81614303565b9050919050565b7f4552433732313a206f70657261746f7220717565727920666f72206e6f6e657860008201527f697374656e7420746f6b656e0000000000000000000000000000000000000000602082015250565b60006143a2602c83613019565b91506143ad82614346565b604082019050919050565b600060208201905081810360008301526143d181614395565b9050919050565b7f4552433732313a207472616e73666572206f6620746f6b656e2074686174206960008201527f73206e6f74206f776e0000000000000000000000000000000000000000000000602082015250565b6000614434602983613019565b915061443f826143d8565b604082019050919050565b6000602082019050818103600083015261446381614427565b9050919050565b7f4552433732313a207472616e7366657220746f20746865207a65726f2061646460008201527f7265737300000000000000000000000000000000000000000000000000000000602082015250565b60006144c6602483613019565b91506144d18261446a565b604082019050919050565b600060208201905081810360008301526144f5816144b9565b9050919050565b6000614507826130c9565b9150614512836130c9565b92508282101561452557614524613d7f565b5b828203905092915050565b600061453b826130c9565b9150614546836130c9565b9250827fffffffffffffffffffffffffffffffffffffffffffffffffffffffffffffffff0382111561457b5761457a613d7f565b5b828201905092915050565b7f496e697469616c697a61626c653a20636f6e7472616374206973206e6f74206960008201527f6e697469616c697a696e67000000000000000000000000000000000000000000602082015250565b60006145e2602b83613019565b91506145ed82614586565b604082019050919050565b60006020820190508181036000830152614611816145d5565b9050919050565b7f4552433732313a20617070726f766520746f2063616c6c657200000000000000600082015250565b600061464e601983613019565b915061465982614618565b602082019050919050565b6000602082019050818103600083015261467d81614641565b9050919050565b7f4552433732313a207472616e7366657220746f206e6f6e20455243373231526560008201527f63656976657220696d706c656d656e7465720000000000000000000000000000602082015250565b60006146e0603283613019565b91506146eb82614684565b604082019050919050565b6000602082019050818103600083015261470f816146d3565b9050919050565b7f4552433732314d657461646174613a2055524920717565727920666f72206e6f60008201527f6e6578697374656e7420746f6b656e0000000000000000000000000000000000602082015250565b6000614772602f83613019565b915061477d82614716565b604082019050919050565b600060208201905081810360008301526147a181614765565b9050919050565b600081519050919050565b600082825260208201905092915050565b60006147cf826147a8565b6147d981856147b3565b93506147e981856020860161302a565b6147f28161305d565b840191505092915050565b6000608082019050614812600083018761315e565b61481f602083018661315e565b61482c60408301856133d6565b818103606083015261483e81846147c4565b905095945050505050565b60008151905061485881612f7f565b92915050565b60006020828403121561487457614873612f49565b5b600061488284828501614849565b91505092915050565b7f4552433732313a206d696e7420746f20746865207a65726f2061646472657373600082015250565b60006148c1602083613019565b91506148cc8261488b565b602082019050919050565b600060208201905081810360008301526148f0816148b4565b9050919050565b7f4552433732313a20746f6b656e20616c7265616479206d696e74656400000000600082015250565b600061492d601c83613019565b9150614938826148f7565b602082019050919050565b6000602082019050818103600083015261495c81614920565b905091905056fea26469706673582212205c6ede9ce0985c2a333aaf512d2beb6ba025327647c3fb6c5ab8901c135423a564736f6c634300080b0033",
  "linkReferences": {},
  "deployedLinkReferences": {}
}