{
  "_format": "hh-sol-artifact-1",
  "contractName": "CrossChainNFTUpgradeable",
  "sourceName": "contracts/CrossChainNFTUpgradeable/CrossChainNFTUpgradeable.sol",
  "abi": [
    {
      "inputs": [],
      "stateMutability": "nonpayable",
      "type": "constructor"
    },
    {
      "anonymous": false,
      "inputs": [
        {
          "indexed": true,
          "internalType": "address",
          "name": "owner",
          "type": "address"
        },
        {
          "indexed": true,
          "internalType": "address",
          "name": "approved",
          "type": "address"
        },
        {
          "indexed": true,
          "internalType": "uint256",
          "name": "tokenId",
          "type": "uint256"
        }
      ],
      "name": "Approval",
      "type": "event"
    },
    {
      "anonymous": false,
      "inputs": [
        {
          "indexed": true,
          "internalType": "address",
          "name": "owner",
          "type": "address"
        },
        {
          "indexed": true,
          "internalType": "address",
          "name": "operator",
          "type": "address"
        },
        {
          "indexed": false,
          "internalType": "bool",
          "name": "approved",
          "type": "bool"
        }
      ],
      "name": "ApprovalForAll",
      "type": "event"
    },
    {
      "anonymous": false,
      "inputs": [
        {
          "indexed": true,
          "internalType": "address",
          "name": "previousOwner",
          "type": "address"
        },
        {
          "indexed": true,
          "internalType": "address",
          "name": "newOwner",
          "type": "address"
        }
      ],
      "name": "OwnershipTransferred",
      "type": "event"
    },
    {
      "anonymous": false,
      "inputs": [
        {
          "indexed": false,
          "internalType": "uint256",
          "name": "chainId",
          "type": "uint256"
        },
        {
          "indexed": false,
          "internalType": "address",
          "name": "contAddr",
          "type": "address"
        },
        {
          "indexed": false,
          "internalType": "uint256",
          "name": "tokenId",
          "type": "uint256"
        },
        {
          "indexed": false,
          "internalType": "address",
          "name": "to",
          "type": "address"
        }
      ],
      "name": "RelayerCallRedeem",
      "type": "event"
    },
    {
      "anonymous": false,
      "inputs": [
        {
          "indexed": false,
          "internalType": "uint256",
          "name": "targetChainId",
          "type": "uint256"
        },
        {
          "indexed": false,
          "internalType": "address",
          "name": "to",
          "type": "address"
        },
        {
          "indexed": false,
          "internalType": "uint256",
          "name": "chainId",
          "type": "uint256"
        },
        {
          "indexed": false,
          "internalType": "address",
          "name": "contAddr",
          "type": "address"
        },
        {
          "indexed": false,
          "internalType": "uint256",
          "name": "tokenId",
          "type": "uint256"
        },
        {
          "indexed": false,
          "internalType": "string",
          "name": "uri",
          "type": "string"
        }
      ],
      "name": "RelayerCallSafeMintWrappedToken",
      "type": "event"
    },
    {
      "anonymous": false,
      "inputs": [
        {
          "indexed": false,
          "internalType": "uint256",
          "name": "wTokenId",
          "type": "uint256"
        }
      ],
      "name": "TokenWrapped",
      "type": "event"
    },
    {
      "anonymous": false,
      "inputs": [
        {
          "indexed": true,
          "internalType": "address",
          "name": "from",
          "type": "address"
        },
        {
          "indexed": true,
          "internalType": "address",
          "name": "to",
          "type": "address"
        },
        {
          "indexed": true,
          "internalType": "uint256",
          "name": "tokenId",
          "type": "uint256"
        }
      ],
      "name": "Transfer",
      "type": "event"
    },
    {
      "anonymous": false,
      "inputs": [
        {
          "indexed": false,
          "internalType": "uint256",
          "name": "wTokenId",
          "type": "uint256"
        }
      ],
      "name": "WTokenBurned",
      "type": "event"
    },
    {
      "inputs": [
        {
          "internalType": "address",
          "name": "to",
          "type": "address"
        },
        {
          "internalType": "uint256",
          "name": "tokenId",
          "type": "uint256"
        }
      ],
      "name": "approve",
      "outputs": [],
      "stateMutability": "nonpayable",
      "type": "function"
    },
    {
      "inputs": [
        {
          "internalType": "address",
          "name": "owner",
          "type": "address"
        }
      ],
      "name": "balanceOf",
      "outputs": [
        {
          "internalType": "uint256",
          "name": "",
          "type": "uint256"
        }
      ],
      "stateMutability": "view",
      "type": "function"
    },
    {
      "inputs": [
        {
          "internalType": "uint256",
          "name": "wTokenId",
          "type": "uint256"
        }
      ],
      "name": "burnWrappedToken",
      "outputs": [],
      "stateMutability": "nonpayable",
      "type": "function"
    },
    {
      "inputs": [
        {
          "internalType": "uint256",
          "name": "tokenId",
          "type": "uint256"
        }
      ],
      "name": "getApproved",
      "outputs": [
        {
          "internalType": "address",
          "name": "",
          "type": "address"
        }
      ],
      "stateMutability": "view",
      "type": "function"
    },
    {
      "inputs": [
        {
          "internalType": "uint256",
          "name": "targetChainId",
          "type": "uint256"
        }
      ],
      "name": "getFee",
      "outputs": [
        {
          "internalType": "uint256",
          "name": "fee",
          "type": "uint256"
        }
      ],
      "stateMutability": "view",
      "type": "function"
    },
    {
      "inputs": [],
      "name": "initialize",
      "outputs": [],
      "stateMutability": "nonpayable",
      "type": "function"
    },
    {
      "inputs": [
        {
          "internalType": "address",
          "name": "owner",
          "type": "address"
        },
        {
          "internalType": "address",
          "name": "operator",
          "type": "address"
        }
      ],
      "name": "isApprovedForAll",
      "outputs": [
        {
          "internalType": "bool",
          "name": "",
          "type": "bool"
        }
      ],
      "stateMutability": "view",
      "type": "function"
    },
    {
      "inputs": [],
      "name": "name",
      "outputs": [
        {
          "internalType": "string",
          "name": "",
          "type": "string"
        }
      ],
      "stateMutability": "view",
      "type": "function"
    },
    {
      "inputs": [
        {
          "internalType": "address",
          "name": "",
          "type": "address"
        },
        {
          "internalType": "address",
          "name": "",
          "type": "address"
        },
        {
          "internalType": "uint256",
          "name": "",
          "type": "uint256"
        },
        {
          "internalType": "bytes",
          "name": "",
          "type": "bytes"
        }
      ],
      "name": "onERC721Received",
      "outputs": [
        {
          "internalType": "bytes4",
          "name": "",
          "type": "bytes4"
        }
      ],
      "stateMutability": "nonpayable",
      "type": "function"
    },
    {
      "inputs": [],
      "name": "owner",
      "outputs": [
        {
          "internalType": "address",
          "name": "",
          "type": "address"
        }
      ],
      "stateMutability": "view",
      "type": "function"
    },
    {
      "inputs": [
        {
          "internalType": "uint256",
          "name": "tokenId",
          "type": "uint256"
        }
      ],
      "name": "ownerOf",
      "outputs": [
        {
          "internalType": "address",
          "name": "",
          "type": "address"
        }
      ],
      "stateMutability": "view",
      "type": "function"
    },
    {
      "inputs": [
        {
          "internalType": "address",
          "name": "contAddr",
          "type": "address"
        },
        {
          "internalType": "uint256",
          "name": "tokenId",
          "type": "uint256"
        },
        {
          "internalType": "address",
          "name": "to",
          "type": "address"
        }
      ],
      "name": "redeem",
      "outputs": [],
      "stateMutability": "nonpayable",
      "type": "function"
    },
    {
      "inputs": [],
      "name": "relayer",
      "outputs": [
        {
          "internalType": "address",
          "name": "",
          "type": "address"
        }
      ],
      "stateMutability": "view",
      "type": "function"
    },
    {
      "inputs": [],
      "name": "renounceOwnership",
      "outputs": [],
      "stateMutability": "nonpayable",
      "type": "function"
    },
    {
      "inputs": [
        {
          "internalType": "address",
          "name": "to",
          "type": "address"
        },
        {
          "internalType": "uint256",
          "name": "chainId",
          "type": "uint256"
        },
        {
          "internalType": "address",
          "name": "contAddr",
          "type": "address"
        },
        {
          "internalType": "uint256",
          "name": "tokenId",
          "type": "uint256"
        },
        {
          "internalType": "string",
          "name": "uri",
          "type": "string"
        }
      ],
      "name": "safeMintWrappedToken",
      "outputs": [
        {
          "internalType": "uint256",
          "name": "wTokenId",
          "type": "uint256"
        }
      ],
      "stateMutability": "nonpayable",
      "type": "function"
    },
    {
      "inputs": [
        {
          "internalType": "address",
          "name": "from",
          "type": "address"
        },
        {
          "internalType": "address",
          "name": "to",
          "type": "address"
        },
        {
          "internalType": "uint256",
          "name": "tokenId",
          "type": "uint256"
        }
      ],
      "name": "safeTransferFrom",
      "outputs": [],
      "stateMutability": "nonpayable",
      "type": "function"
    },
    {
      "inputs": [
        {
          "internalType": "address",
          "name": "from",
          "type": "address"
        },
        {
          "internalType": "address",
          "name": "to",
          "type": "address"
        },
        {
          "internalType": "uint256",
          "name": "tokenId",
          "type": "uint256"
        },
        {
          "internalType": "bytes",
          "name": "_data",
          "type": "bytes"
        }
      ],
      "name": "safeTransferFrom",
      "outputs": [],
      "stateMutability": "nonpayable",
      "type": "function"
    },
    {
      "inputs": [
        {
          "internalType": "address",
          "name": "operator",
          "type": "address"
        },
        {
          "internalType": "bool",
          "name": "approved",
          "type": "bool"
        }
      ],
      "name": "setApprovalForAll",
      "outputs": [],
      "stateMutability": "nonpayable",
      "type": "function"
    },
    {
      "inputs": [
        {
          "internalType": "uint256",
          "name": "targetChainId",
          "type": "uint256"
        },
        {
          "internalType": "uint256",
          "name": "fee",
          "type": "uint256"
        }
      ],
      "name": "setFee",
      "outputs": [],
      "stateMutability": "nonpayable",
      "type": "function"
    },
    {
      "inputs": [
        {
          "internalType": "uint256[]",
          "name": "targetChainIds",
          "type": "uint256[]"
        },
        {
          "internalType": "uint256[]",
          "name": "fees",
          "type": "uint256[]"
        }
      ],
      "name": "setFees",
      "outputs": [],
      "stateMutability": "nonpayable",
      "type": "function"
    },
    {
      "inputs": [
        {
          "internalType": "bytes4",
          "name": "interfaceId",
          "type": "bytes4"
        }
      ],
      "name": "supportsInterface",
      "outputs": [
        {
          "internalType": "bool",
          "name": "",
          "type": "bool"
        }
      ],
      "stateMutability": "view",
      "type": "function"
    },
    {
      "inputs": [],
      "name": "symbol",
      "outputs": [
        {
          "internalType": "string",
          "name": "",
          "type": "string"
        }
      ],
      "stateMutability": "view",
      "type": "function"
    },
    {
      "inputs": [
        {
          "internalType": "uint256",
          "name": "tokenId",
          "type": "uint256"
        }
      ],
      "name": "tokenURI",
      "outputs": [
        {
          "internalType": "string",
          "name": "",
          "type": "string"
        }
      ],
      "stateMutability": "view",
      "type": "function"
    },
    {
      "inputs": [],
      "name": "totalSupply",
      "outputs": [
        {
          "internalType": "uint256",
          "name": "",
          "type": "uint256"
        }
      ],
      "stateMutability": "view",
      "type": "function"
    },
    {
      "inputs": [
        {
          "internalType": "address",
          "name": "contAddr",
          "type": "address"
        },
        {
          "internalType": "uint256",
          "name": "tokenId",
          "type": "uint256"
        },
        {
          "internalType": "address",
          "name": "from",
          "type": "address"
        },
        {
          "internalType": "address",
          "name": "to",
          "type": "address"
        },
        {
          "internalType": "uint256",
          "name": "targetChainId",
          "type": "uint256"
        }
      ],
      "name": "transferCrossChainRequest",
      "outputs": [],
      "stateMutability": "payable",
      "type": "function"
    },
    {
      "inputs": [
        {
          "internalType": "address",
          "name": "from",
          "type": "address"
        },
        {
          "internalType": "address",
          "name": "to",
          "type": "address"
        },
        {
          "internalType": "uint256",
          "name": "tokenId",
          "type": "uint256"
        }
      ],
      "name": "transferFrom",
      "outputs": [],
      "stateMutability": "nonpayable",
      "type": "function"
    },
    {
      "inputs": [
        {
          "internalType": "address",
          "name": "newOwner",
          "type": "address"
        }
      ],
      "name": "transferOwnership",
      "outputs": [],
      "stateMutability": "nonpayable",
      "type": "function"
    },
    {
      "inputs": [
        {
          "internalType": "uint256",
          "name": "wTokenId",
          "type": "uint256"
        },
        {
          "internalType": "address",
          "name": "to",
          "type": "address"
        }
      ],
      "name": "wReturnCrossChainRequest",
      "outputs": [],
      "stateMutability": "payable",
      "type": "function"
    },
    {
      "inputs": [
        {
          "internalType": "address payable",
          "name": "to",
          "type": "address"
        }
      ],
      "name": "withdrawCash",
      "outputs": [],
      "stateMutability": "nonpayable",
      "type": "function"
    }
  ],
  "bytecode": "0x608060405234801561001057600080fd5b50614682806100206000396000f3fe6080604052600436106101c25760003560e01c806370e4acd8116100f7578063a22cb46511610095578063c87b56dd11610064578063c87b56dd1461060c578063e985e9c514610649578063f2fde38b14610686578063fcee45f4146106af576101c2565b8063a22cb46514610575578063ae7197df1461059e578063b88d4fde146105c7578063c237ba6b146105f0576101c2565b80638129fc1c116100d15780638129fc1c146104dd5780638406c079146104f45780638da5cb5b1461051f57806395d89b411461054a576101c2565b806370e4acd814610460578063715018a61461049d5780637a3b45bb146104b4576101c2565b8063375fede51161016457806352f7c9881161013e57806352f7c988146103945780635c833bfd146103bd5780636352211e146103e657806370a0823114610423576101c2565b8063375fede51461032657806338b5c5af1461034f57806342842e0e1461036b576101c2565b8063095ea7b3116101a0578063095ea7b31461026c578063150b7a021461029557806318160ddd146102d257806323b872dd146102fd576101c2565b806301ffc9a7146101c757806306fdde0314610204578063081812fc1461022f575b600080fd5b3480156101d357600080fd5b506101ee60048036038101906101e9919061330a565b6106ec565b6040516101fb919061388c565b60405180910390f35b34801561021057600080fd5b506102196107ce565b60405161022691906138c2565b60405180910390f35b34801561023b57600080fd5b506102566004803603810190610251919061339d565b610860565b60405161026391906137ee565b60405180910390f35b34801561027857600080fd5b50610293600480360381019061028e919061310d565b6108e5565b005b3480156102a157600080fd5b506102bc60048036038101906102b79190613056565b6109fd565b6040516102c991906138a7565b60405180910390f35b3480156102de57600080fd5b506102e7610a11565b6040516102f49190613ba4565b60405180910390f35b34801561030957600080fd5b50610324600480360381019061031f9190613007565b610a19565b005b34801561033257600080fd5b5061034d6004803603810190610348919061329e565b610a79565b005b610369600480360381019061036491906133c6565b610be6565b005b34801561037757600080fd5b50610392600480360381019061038d9190613007565b610dbc565b005b3480156103a057600080fd5b506103bb60048036038101906103b69190613402565b610ddc565b005b3480156103c957600080fd5b506103e460048036038101906103df9190613149565b610e74565b005b3480156103f257600080fd5b5061040d6004803603810190610408919061339d565b610f7e565b60405161041a91906137ee565b60405180910390f35b34801561042f57600080fd5b5061044a60048036038101906104459190612f79565b611030565b6040516104579190613ba4565b60405180910390f35b34801561046c57600080fd5b506104876004803603810190610482919061320f565b6110e8565b6040516104949190613ba4565b60405180910390f35b3480156104a957600080fd5b506104b26111b0565b005b3480156104c057600080fd5b506104db60048036038101906104d6919061339d565b611238565b005b3480156104e957600080fd5b506104f261129d565b005b34801561050057600080fd5b50610509611422565b60405161051691906137ee565b60405180910390f35b34801561052b57600080fd5b50610534611448565b60405161054191906137ee565b60405180910390f35b34801561055657600080fd5b5061055f611472565b60405161056c91906138c2565b60405180910390f35b34801561058157600080fd5b5061059c600480360381019061059791906130d1565b611504565b005b3480156105aa57600080fd5b506105c560048036038101906105c09190612fa2565b61151a565b005b3480156105d357600080fd5b506105ee60048036038101906105e99190613056565b6115e7565b005b61060a60048036038101906106059190613198565b611649565b005b34801561061857600080fd5b50610633600480360381019061062e919061339d565b611744565b60405161064091906138c2565b60405180910390f35b34801561065557600080fd5b50610670600480360381019061066b9190612fcb565b611756565b60405161067d919061388c565b60405180910390f35b34801561069257600080fd5b506106ad60048036038101906106a89190612f79565b6117ea565b005b3480156106bb57600080fd5b506106d660048036038101906106d1919061339d565b6118e2565b6040516106e39190613ba4565b60405180910390f35b60007f80ac58cd000000000000000000000000000000000000000000000000000000007bffffffffffffffffffffffffffffffffffffffffffffffffffffffff1916827bffffffffffffffffffffffffffffffffffffffffffffffffffffffff191614806107b757507f5b5e139f000000000000000000000000000000000000000000000000000000007bffffffffffffffffffffffffffffffffffffffffffffffffffffffff1916827bffffffffffffffffffffffffffffffffffffffffffffffffffffffff1916145b806107c757506107c6826118ff565b5b9050919050565b6060606580546107dd90613ea9565b80601f016020809104026020016040519081016040528092919081815260200182805461080990613ea9565b80156108565780601f1061082b57610100808354040283529160200191610856565b820191906000526020600020905b81548152906001019060200180831161083957829003601f168201915b5050505050905090565b600061086b82611969565b6108aa576040517f08c379a00000000000000000000000000000000000000000000000000000000081526004016108a190613a64565b60405180910390fd5b6069600083815260200190815260200160002060009054906101000a900473ffffffffffffffffffffffffffffffffffffffff169050919050565b60006108f082610f7e565b90508073ffffffffffffffffffffffffffffffffffffffff168373ffffffffffffffffffffffffffffffffffffffff161415610961576040517f08c379a000000000000000000000000000000000000000000000000000000000815260040161095890613ae4565b60405180910390fd5b8073ffffffffffffffffffffffffffffffffffffffff166109806119d5565b73ffffffffffffffffffffffffffffffffffffffff1614806109af57506109ae816109a96119d5565b611756565b5b6109ee576040517f08c379a00000000000000000000000000000000000000000000000000000000081526004016109e5906139c4565b60405180910390fd5b6109f883836119dd565b505050565b600063150b7a0260e01b9050949350505050565b600047905090565b610a2a610a246119d5565b82611a96565b610a69576040517f08c379a0000000000000000000000000000000000000000000000000000000008152600401610a6090613b44565b60405180910390fd5b610a74838383611b74565b505050565b610a816119d5565b73ffffffffffffffffffffffffffffffffffffffff16610a9f611448565b73ffffffffffffffffffffffffffffffffffffffff1614610af5576040517f08c379a0000000000000000000000000000000000000000000000000000000008152600401610aec90613a84565b60405180910390fd5b8051825114610b39576040517f08c379a0000000000000000000000000000000000000000000000000000000008152600401610b3090613984565b60405180910390fd5b60005b82518111610be157610bce838281518110610b80577f4e487b7100000000000000000000000000000000000000000000000000000000600052603260045260246000fd5b6020026020010151838381518110610bc1577f4e487b7100000000000000000000000000000000000000000000000000000000600052603260045260246000fd5b6020026020010151610ddc565b8080610bd990613f0c565b915050610b3c565b505050565b600060c96000848152602001908152602001600020604051806080016040529081600082015481526020016001820160009054906101000a900473ffffffffffffffffffffffffffffffffffffffff1673ffffffffffffffffffffffffffffffffffffffff1673ffffffffffffffffffffffffffffffffffffffff16815260200160028201548152602001600382018054610c8090613ea9565b80601f0160208091040260200160405190810160405280929190818152602001828054610cac90613ea9565b8015610cf95780601f10610cce57610100808354040283529160200191610cf9565b820191906000526020600020905b815481529060010190602001808311610cdc57829003601f168201915b5050505050815250509050610d1181600001516118e2565b341015610d53576040517f08c379a0000000000000000000000000000000000000000000000000000000008152600401610d4a90613b24565b60405180910390fd5b600081600001519050600082602001519050600083604001519050610d7786611238565b7f68d40ad5dae5d6d29b5f9a3faf65a9e21ea0772c8a6861641ef31fad20d185fb83838388604051610dac9493929190613bbf565b60405180910390a1505050505050565b610dd7838383604051806020016040528060008152506115e7565b505050565b610de46119d5565b73ffffffffffffffffffffffffffffffffffffffff16610e02611448565b73ffffffffffffffffffffffffffffffffffffffff1614610e58576040517f08c379a0000000000000000000000000000000000000000000000000000000008152600401610e4f90613a84565b60405180910390fd5b8060fe6000848152602001908152602001600020819055505050565b60fd60009054906101000a900473ffffffffffffffffffffffffffffffffffffffff1673ffffffffffffffffffffffffffffffffffffffff163373ffffffffffffffffffffffffffffffffffffffff1614610f04576040517f08c379a0000000000000000000000000000000000000000000000000000000008152600401610efb90613b04565b60405180910390fd5b60008390508073ffffffffffffffffffffffffffffffffffffffff166342842e0e3084866040518463ffffffff1660e01b8152600401610f4693929190613809565b600060405180830381600087803b158015610f6057600080fd5b505af1158015610f74573d6000803e3d6000fd5b5050505050505050565b6000806067600084815260200190815260200160002060009054906101000a900473ffffffffffffffffffffffffffffffffffffffff169050600073ffffffffffffffffffffffffffffffffffffffff168173ffffffffffffffffffffffffffffffffffffffff161415611027576040517f08c379a000000000000000000000000000000000000000000000000000000000815260040161101e90613a04565b60405180910390fd5b80915050919050565b60008073ffffffffffffffffffffffffffffffffffffffff168273ffffffffffffffffffffffffffffffffffffffff1614156110a1576040517f08c379a0000000000000000000000000000000000000000000000000000000008152600401611098906139e4565b60405180910390fd5b606860008373ffffffffffffffffffffffffffffffffffffffff1673ffffffffffffffffffffffffffffffffffffffff168152602001908152602001600020549050919050565b600060fd60009054906101000a900473ffffffffffffffffffffffffffffffffffffffff1673ffffffffffffffffffffffffffffffffffffffff163373ffffffffffffffffffffffffffffffffffffffff161461117a576040517f08c379a000000000000000000000000000000000000000000000000000000000815260040161117190613b04565b60405180910390fd5b61118460fc611dd0565b905061119060fc611dde565b61119a8682611df4565b6111a78186868686611e12565b95945050505050565b6111b86119d5565b73ffffffffffffffffffffffffffffffffffffffff166111d6611448565b73ffffffffffffffffffffffffffffffffffffffff161461122c576040517f08c379a000000000000000000000000000000000000000000000000000000000815260040161122390613a84565b60405180910390fd5b6112366000611f15565b565b6112496112436119d5565b82611a96565b611288576040517f08c379a000000000000000000000000000000000000000000000000000000000815260040161127f90613b84565b60405180910390fd5b61129181611fdb565b61129a816120ec565b50565b600060019054906101000a900460ff166112c55760008054906101000a900460ff16156112ce565b6112cd612183565b5b61130d576040517f08c379a000000000000000000000000000000000000000000000000000000000815260040161130490613a24565b60405180910390fd5b60008060019054906101000a900460ff16159050801561135d576001600060016101000a81548160ff02191690831515021790555060016000806101000a81548160ff0219169083151502179055505b61137a73e189bfcc0d6f5f63401b104c1051699c7aa1ae4a612194565b6113ee6040518060400160405280601881526020017f43726f7373436861696e4e46545570677261646561626c6500000000000000008152506040518060400160405280600381526020017f43436800000000000000000000000000000000000000000000000000000000008152506121ef565b6113f661225c565b6113fe6122c5565b801561141f5760008060016101000a81548160ff0219169083151502179055505b50565b60fd60009054906101000a900473ffffffffffffffffffffffffffffffffffffffff1681565b600060ca60009054906101000a900473ffffffffffffffffffffffffffffffffffffffff16905090565b60606066805461148190613ea9565b80601f01602080910402602001604051908101604052809291908181526020018280546114ad90613ea9565b80156114fa5780601f106114cf576101008083540402835291602001916114fa565b820191906000526020600020905b8154815290600101906020018083116114dd57829003601f168201915b5050505050905090565b61151661150f6119d5565b8383612326565b5050565b6115226119d5565b73ffffffffffffffffffffffffffffffffffffffff16611540611448565b73ffffffffffffffffffffffffffffffffffffffff1614611596576040517f08c379a000000000000000000000000000000000000000000000000000000000815260040161158d90613a84565b60405180910390fd5b8073ffffffffffffffffffffffffffffffffffffffff166108fc6115b8610a11565b9081150290604051600060405180830381858888f193505050501580156115e3573d6000803e3d6000fd5b5050565b6115f86115f26119d5565b83611a96565b611637576040517f08c379a000000000000000000000000000000000000000000000000000000000815260040161162e90613b44565b60405180910390fd5b61164384848484612493565b50505050565b611652816118e2565b34101561165e57600080fd5b6116698585856124ef565b60004690507f9301e409432a51a191443f644ae41630782021a09e1ce98fc0e5fb72078a25ea82848389898b73ffffffffffffffffffffffffffffffffffffffff1663c87b56dd8c6040518263ffffffff1660e01b81526004016116cd9190613ba4565b60006040518083038186803b1580156116e557600080fd5b505afa1580156116f9573d6000803e3d6000fd5b505050506040513d6000823e3d601f19601f82011682018060405250810190611722919061335c565b60405161173496959493929190613c04565b60405180910390a1505050505050565b606061174f82612569565b9050919050565b6000606a60008473ffffffffffffffffffffffffffffffffffffffff1673ffffffffffffffffffffffffffffffffffffffff16815260200190815260200160002060008373ffffffffffffffffffffffffffffffffffffffff1673ffffffffffffffffffffffffffffffffffffffff16815260200190815260200160002060009054906101000a900460ff16905092915050565b6117f26119d5565b73ffffffffffffffffffffffffffffffffffffffff16611810611448565b73ffffffffffffffffffffffffffffffffffffffff1614611866576040517f08c379a000000000000000000000000000000000000000000000000000000000815260040161185d90613a84565b60405180910390fd5b600073ffffffffffffffffffffffffffffffffffffffff168173ffffffffffffffffffffffffffffffffffffffff1614156118d6576040517f08c379a00000000000000000000000000000000000000000000000000000000081526004016118cd90613904565b60405180910390fd5b6118df81611f15565b50565b600060fe6000838152602001908152602001600020549050919050565b60007f01ffc9a7000000000000000000000000000000000000000000000000000000007bffffffffffffffffffffffffffffffffffffffffffffffffffffffff1916827bffffffffffffffffffffffffffffffffffffffffffffffffffffffff1916149050919050565b60008073ffffffffffffffffffffffffffffffffffffffff166067600084815260200190815260200160002060009054906101000a900473ffffffffffffffffffffffffffffffffffffffff1673ffffffffffffffffffffffffffffffffffffffff1614159050919050565b600033905090565b816069600083815260200190815260200160002060006101000a81548173ffffffffffffffffffffffffffffffffffffffff021916908373ffffffffffffffffffffffffffffffffffffffff160217905550808273ffffffffffffffffffffffffffffffffffffffff16611a5083610f7e565b73ffffffffffffffffffffffffffffffffffffffff167f8c5be1e5ebec7d5bd14f71427d1e84f3dd0314c0f7b2291e5b200ac8c7c3b92560405160405180910390a45050565b6000611aa182611969565b611ae0576040517f08c379a0000000000000000000000000000000000000000000000000000000008152600401611ad7906139a4565b60405180910390fd5b6000611aeb83610f7e565b90508073ffffffffffffffffffffffffffffffffffffffff168473ffffffffffffffffffffffffffffffffffffffff161480611b5a57508373ffffffffffffffffffffffffffffffffffffffff16611b4284610860565b73ffffffffffffffffffffffffffffffffffffffff16145b80611b6b5750611b6a8185611756565b5b91505092915050565b8273ffffffffffffffffffffffffffffffffffffffff16611b9482610f7e565b73ffffffffffffffffffffffffffffffffffffffff1614611bea576040517f08c379a0000000000000000000000000000000000000000000000000000000008152600401611be190613aa4565b60405180910390fd5b600073ffffffffffffffffffffffffffffffffffffffff168273ffffffffffffffffffffffffffffffffffffffff161415611c5a576040517f08c379a0000000000000000000000000000000000000000000000000000000008152600401611c5190613944565b60405180910390fd5b611c65838383612659565b611c706000826119dd565b6001606860008573ffffffffffffffffffffffffffffffffffffffff1673ffffffffffffffffffffffffffffffffffffffff1681526020019081526020016000206000828254611cc09190613dad565b925050819055506001606860008473ffffffffffffffffffffffffffffffffffffffff1673ffffffffffffffffffffffffffffffffffffffff1681526020019081526020016000206000828254611d179190613d57565b92505081905550816067600083815260200190815260200160002060006101000a81548173ffffffffffffffffffffffffffffffffffffffff021916908373ffffffffffffffffffffffffffffffffffffffff160217905550808273ffffffffffffffffffffffffffffffffffffffff168473ffffffffffffffffffffffffffffffffffffffff167fddf252ad1be2c89b69c2b068fc378daa952ba7f163c4a11628f55a4df523b3ef60405160405180910390a4505050565b600081600001549050919050565b6001816000016000828254019250508190555050565b611e0e82826040518060200160405280600081525061265e565b5050565b60405180608001604052808581526020018473ffffffffffffffffffffffffffffffffffffffff1681526020018381526020018281525060c960008781526020019081526020016000206000820151816000015560208201518160010160006101000a81548173ffffffffffffffffffffffffffffffffffffffff021916908373ffffffffffffffffffffffffffffffffffffffff160217905550604082015181600201556060820151816003019080519060200190611ed3929190612c4a565b509050507fbbd8046f2003b15c5e4858368dad2435a58ae1e6b8e64b8edab81490292e339585604051611f069190613ba4565b60405180910390a15050505050565b600060ca60009054906101000a900473ffffffffffffffffffffffffffffffffffffffff1690508160ca60006101000a81548173ffffffffffffffffffffffffffffffffffffffff021916908373ffffffffffffffffffffffffffffffffffffffff1602179055508173ffffffffffffffffffffffffffffffffffffffff168173ffffffffffffffffffffffffffffffffffffffff167f8be0079c531659141344cd1fd0a4f28419497f9722a3daafe3b4186f6b6457e060405160405180910390a35050565b6000611fe682610f7e565b9050611ff481600084612659565b611fff6000836119dd565b6001606860008373ffffffffffffffffffffffffffffffffffffffff1673ffffffffffffffffffffffffffffffffffffffff168152602001908152602001600020600082825461204f9190613dad565b925050819055506067600083815260200190815260200160002060006101000a81549073ffffffffffffffffffffffffffffffffffffffff021916905581600073ffffffffffffffffffffffffffffffffffffffff168273ffffffffffffffffffffffffffffffffffffffff167fddf252ad1be2c89b69c2b068fc378daa952ba7f163c4a11628f55a4df523b3ef60405160405180910390a45050565b60c960008281526020019081526020016000206000808201600090556001820160006101000a81549073ffffffffffffffffffffffffffffffffffffffff021916905560028201600090556003820160006121479190612cd0565b50507fbae674de5b60cebab59cbdf60624b8a5ba69b8baf7f2c92aeaf1a2cc183ddddf816040516121789190613ba4565b60405180910390a150565b600061218e306126b9565b15905090565b600060019054906101000a900460ff166121e3576040517f08c379a00000000000000000000000000000000000000000000000000000000081526004016121da90613b64565b60405180910390fd5b6121ec816126cc565b50565b600060019054906101000a900460ff1661223e576040517f08c379a000000000000000000000000000000000000000000000000000000000815260040161223590613b64565b60405180910390fd5b612246612710565b61224e612761565b61225882826127b2565b5050565b600060019054906101000a900460ff166122ab576040517f08c379a00000000000000000000000000000000000000000000000000000000081526004016122a290613b64565b60405180910390fd5b6122b3612710565b6122bb612761565b6122c3612833565b565b600060019054906101000a900460ff16612314576040517f08c379a000000000000000000000000000000000000000000000000000000000815260040161230b90613b64565b60405180910390fd5b61231c612710565b612324612884565b565b8173ffffffffffffffffffffffffffffffffffffffff168373ffffffffffffffffffffffffffffffffffffffff161415612395576040517f08c379a000000000000000000000000000000000000000000000000000000000815260040161238c90613964565b60405180910390fd5b80606a60008573ffffffffffffffffffffffffffffffffffffffff1673ffffffffffffffffffffffffffffffffffffffff16815260200190815260200160002060008473ffffffffffffffffffffffffffffffffffffffff1673ffffffffffffffffffffffffffffffffffffffff16815260200190815260200160002060006101000a81548160ff0219169083151502179055508173ffffffffffffffffffffffffffffffffffffffff168373ffffffffffffffffffffffffffffffffffffffff167f17307eab39ab6107e8899845ad3d59bd9653f200f220920489ca2b5937696c3183604051612486919061388c565b60405180910390a3505050565b61249e848484611b74565b6124aa848484846128e5565b6124e9576040517f08c379a00000000000000000000000000000000000000000000000000000000081526004016124e0906138e4565b60405180910390fd5b50505050565b60008390508073ffffffffffffffffffffffffffffffffffffffff166342842e0e8330866040518463ffffffff1660e01b815260040161253193929190613809565b600060405180830381600087803b15801561254b57600080fd5b505af115801561255f573d6000803e3d6000fd5b5050505050505050565b606061257482611969565b6125b3576040517f08c379a00000000000000000000000000000000000000000000000000000000081526004016125aa90613ac4565b60405180910390fd5b60c9600083815260200190815260200160002060030180546125d490613ea9565b80601f016020809104026020016040519081016040528092919081815260200182805461260090613ea9565b801561264d5780601f106126225761010080835404028352916020019161264d565b820191906000526020600020905b81548152906001019060200180831161263057829003601f168201915b50505050509050919050565b505050565b6126688383612a7c565b61267560008484846128e5565b6126b4576040517f08c379a00000000000000000000000000000000000000000000000000000000081526004016126ab906138e4565b60405180910390fd5b505050565b600080823b905060008111915050919050565b8060fd60006101000a81548173ffffffffffffffffffffffffffffffffffffffff021916908373ffffffffffffffffffffffffffffffffffffffff16021790555050565b600060019054906101000a900460ff1661275f576040517f08c379a000000000000000000000000000000000000000000000000000000000815260040161275690613b64565b60405180910390fd5b565b600060019054906101000a900460ff166127b0576040517f08c379a00000000000000000000000000000000000000000000000000000000081526004016127a790613b64565b60405180910390fd5b565b600060019054906101000a900460ff16612801576040517f08c379a00000000000000000000000000000000000000000000000000000000081526004016127f890613b64565b60405180910390fd5b8160659080519060200190612817929190612c4a565b50806066908051906020019061282e929190612c4a565b505050565b600060019054906101000a900460ff16612882576040517f08c379a000000000000000000000000000000000000000000000000000000000815260040161287990613b64565b60405180910390fd5b565b600060019054906101000a900460ff166128d3576040517f08c379a00000000000000000000000000000000000000000000000000000000081526004016128ca90613b64565b60405180910390fd5b6128e36128de6119d5565b611f15565b565b60006129068473ffffffffffffffffffffffffffffffffffffffff166126b9565b15612a6f578373ffffffffffffffffffffffffffffffffffffffff1663150b7a0261292f6119d5565b8786866040518563ffffffff1660e01b81526004016129519493929190613840565b602060405180830381600087803b15801561296b57600080fd5b505af192505050801561299c57506040513d601f19601f820116820180604052508101906129999190613333565b60015b612a1f573d80600081146129cc576040519150601f19603f3d011682016040523d82523d6000602084013e6129d1565b606091505b50600081511415612a17576040517f08c379a0000000000000000000000000000000000000000000000000000000008152600401612a0e906138e4565b60405180910390fd5b805181602001fd5b63150b7a0260e01b7bffffffffffffffffffffffffffffffffffffffffffffffffffffffff1916817bffffffffffffffffffffffffffffffffffffffffffffffffffffffff191614915050612a74565b600190505b949350505050565b600073ffffffffffffffffffffffffffffffffffffffff168273ffffffffffffffffffffffffffffffffffffffff161415612aec576040517f08c379a0000000000000000000000000000000000000000000000000000000008152600401612ae390613a44565b60405180910390fd5b612af581611969565b15612b35576040517f08c379a0000000000000000000000000000000000000000000000000000000008152600401612b2c90613924565b60405180910390fd5b612b4160008383612659565b6001606860008473ffffffffffffffffffffffffffffffffffffffff1673ffffffffffffffffffffffffffffffffffffffff1681526020019081526020016000206000828254612b919190613d57565b92505081905550816067600083815260200190815260200160002060006101000a81548173ffffffffffffffffffffffffffffffffffffffff021916908373ffffffffffffffffffffffffffffffffffffffff160217905550808273ffffffffffffffffffffffffffffffffffffffff16600073ffffffffffffffffffffffffffffffffffffffff167fddf252ad1be2c89b69c2b068fc378daa952ba7f163c4a11628f55a4df523b3ef60405160405180910390a45050565b828054612c5690613ea9565b90600052602060002090601f016020900481019282612c785760008555612cbf565b82601f10612c9157805160ff1916838001178555612cbf565b82800160010185558215612cbf579182015b82811115612cbe578251825591602001919060010190612ca3565b5b509050612ccc9190612d10565b5090565b508054612cdc90613ea9565b6000825580601f10612cee5750612d0d565b601f016020900490600052602060002090810190612d0c9190612d10565b5b50565b5b80821115612d29576000816000905550600101612d11565b5090565b6000612d40612d3b84613c91565b613c6c565b90508083825260208201905082856020860282011115612d5f57600080fd5b60005b85811015612d8f5781612d758882612f64565b845260208401935060208301925050600181019050612d62565b5050509392505050565b6000612dac612da784613cbd565b613c6c565b905082815260208101848484011115612dc457600080fd5b612dcf848285613e67565b509392505050565b6000612dea612de584613cee565b613c6c565b905082815260208101848484011115612e0257600080fd5b612e0d848285613e67565b509392505050565b6000612e28612e2384613cee565b613c6c565b905082815260208101848484011115612e4057600080fd5b612e4b848285613e76565b509392505050565b600081359050612e62816145d9565b92915050565b600081359050612e77816145f0565b92915050565b600082601f830112612e8e57600080fd5b8135612e9e848260208601612d2d565b91505092915050565b600081359050612eb681614607565b92915050565b600081359050612ecb8161461e565b92915050565b600081519050612ee08161461e565b92915050565b600082601f830112612ef757600080fd5b8135612f07848260208601612d99565b91505092915050565b600082601f830112612f2157600080fd5b8135612f31848260208601612dd7565b91505092915050565b600082601f830112612f4b57600080fd5b8151612f5b848260208601612e15565b91505092915050565b600081359050612f7381614635565b92915050565b600060208284031215612f8b57600080fd5b6000612f9984828501612e53565b91505092915050565b600060208284031215612fb457600080fd5b6000612fc284828501612e68565b91505092915050565b60008060408385031215612fde57600080fd5b6000612fec85828601612e53565b9250506020612ffd85828601612e53565b9150509250929050565b60008060006060848603121561301c57600080fd5b600061302a86828701612e53565b935050602061303b86828701612e53565b925050604061304c86828701612f64565b9150509250925092565b6000806000806080858703121561306c57600080fd5b600061307a87828801612e53565b945050602061308b87828801612e53565b935050604061309c87828801612f64565b925050606085013567ffffffffffffffff8111156130b957600080fd5b6130c587828801612ee6565b91505092959194509250565b600080604083850312156130e457600080fd5b60006130f285828601612e53565b925050602061310385828601612ea7565b9150509250929050565b6000806040838503121561312057600080fd5b600061312e85828601612e53565b925050602061313f85828601612f64565b9150509250929050565b60008060006060848603121561315e57600080fd5b600061316c86828701612e53565b935050602061317d86828701612f64565b925050604061318e86828701612e53565b9150509250925092565b600080600080600060a086880312156131b057600080fd5b60006131be88828901612e53565b95505060206131cf88828901612f64565b94505060406131e088828901612e53565b93505060606131f188828901612e53565b925050608061320288828901612f64565b9150509295509295909350565b600080600080600060a0868803121561322757600080fd5b600061323588828901612e53565b955050602061324688828901612f64565b945050604061325788828901612e53565b935050606061326888828901612f64565b925050608086013567ffffffffffffffff81111561328557600080fd5b61329188828901612f10565b9150509295509295909350565b600080604083850312156132b157600080fd5b600083013567ffffffffffffffff8111156132cb57600080fd5b6132d785828601612e7d565b925050602083013567ffffffffffffffff8111156132f457600080fd5b61330085828601612e7d565b9150509250929050565b60006020828403121561331c57600080fd5b600061332a84828501612ebc565b91505092915050565b60006020828403121561334557600080fd5b600061335384828501612ed1565b91505092915050565b60006020828403121561336e57600080fd5b600082015167ffffffffffffffff81111561338857600080fd5b61339484828501612f3a565b91505092915050565b6000602082840312156133af57600080fd5b60006133bd84828501612f64565b91505092915050565b600080604083850312156133d957600080fd5b60006133e785828601612f64565b92505060206133f885828601612e53565b9150509250929050565b6000806040838503121561341557600080fd5b600061342385828601612f64565b925050602061343485828601612f64565b9150509250929050565b61344781613de1565b82525050565b61345681613e05565b82525050565b61346581613e11565b82525050565b600061347682613d1f565b6134808185613d35565b9350613490818560208601613e76565b61349981613fe2565b840191505092915050565b60006134af82613d2a565b6134b98185613d46565b93506134c9818560208601613e76565b6134d281613fe2565b840191505092915050565b60006134ea603283613d46565b91506134f582613ff3565b604082019050919050565b600061350d602683613d46565b915061351882614042565b604082019050919050565b6000613530601c83613d46565b915061353b82614091565b602082019050919050565b6000613553602483613d46565b915061355e826140ba565b604082019050919050565b6000613576601983613d46565b915061358182614109565b602082019050919050565b6000613599602183613d46565b91506135a482614132565b604082019050919050565b60006135bc602c83613d46565b91506135c782614181565b604082019050919050565b60006135df603883613d46565b91506135ea826141d0565b604082019050919050565b6000613602602a83613d46565b915061360d8261421f565b604082019050919050565b6000613625602983613d46565b91506136308261426e565b604082019050919050565b6000613648602e83613d46565b9150613653826142bd565b604082019050919050565b600061366b602083613d46565b91506136768261430c565b602082019050919050565b600061368e602c83613d46565b915061369982614335565b604082019050919050565b60006136b1602083613d46565b91506136bc82614384565b602082019050919050565b60006136d4602983613d46565b91506136df826143ad565b604082019050919050565b60006136f7602f83613d46565b9150613702826143fc565b604082019050919050565b600061371a602183613d46565b91506137258261444b565b604082019050919050565b600061373d601e83613d46565b91506137488261449a565b602082019050919050565b6000613760601083613d46565b915061376b826144c3565b602082019050919050565b6000613783603183613d46565b915061378e826144ec565b604082019050919050565b60006137a6602b83613d46565b91506137b18261453b565b604082019050919050565b60006137c9603083613d46565b91506137d48261458a565b604082019050919050565b6137e881613e5d565b82525050565b6000602082019050613803600083018461343e565b92915050565b600060608201905061381e600083018661343e565b61382b602083018561343e565b61383860408301846137df565b949350505050565b6000608082019050613855600083018761343e565b613862602083018661343e565b61386f60408301856137df565b8181036060830152613881818461346b565b905095945050505050565b60006020820190506138a1600083018461344d565b92915050565b60006020820190506138bc600083018461345c565b92915050565b600060208201905081810360008301526138dc81846134a4565b905092915050565b600060208201905081810360008301526138fd816134dd565b9050919050565b6000602082019050818103600083015261391d81613500565b9050919050565b6000602082019050818103600083015261393d81613523565b9050919050565b6000602082019050818103600083015261395d81613546565b9050919050565b6000602082019050818103600083015261397d81613569565b9050919050565b6000602082019050818103600083015261399d8161358c565b9050919050565b600060208201905081810360008301526139bd816135af565b9050919050565b600060208201905081810360008301526139dd816135d2565b9050919050565b600060208201905081810360008301526139fd816135f5565b9050919050565b60006020820190508181036000830152613a1d81613618565b9050919050565b60006020820190508181036000830152613a3d8161363b565b9050919050565b60006020820190508181036000830152613a5d8161365e565b9050919050565b60006020820190508181036000830152613a7d81613681565b9050919050565b60006020820190508181036000830152613a9d816136a4565b9050919050565b60006020820190508181036000830152613abd816136c7565b9050919050565b60006020820190508181036000830152613add816136ea565b9050919050565b60006020820190508181036000830152613afd8161370d565b9050919050565b60006020820190508181036000830152613b1d81613730565b9050919050565b60006020820190508181036000830152613b3d81613753565b9050919050565b60006020820190508181036000830152613b5d81613776565b9050919050565b60006020820190508181036000830152613b7d81613799565b9050919050565b60006020820190508181036000830152613b9d816137bc565b9050919050565b6000602082019050613bb960008301846137df565b92915050565b6000608082019050613bd460008301876137df565b613be1602083018661343e565b613bee60408301856137df565b613bfb606083018461343e565b95945050505050565b600060c082019050613c1960008301896137df565b613c26602083018861343e565b613c3360408301876137df565b613c40606083018661343e565b613c4d60808301856137df565b81810360a0830152613c5f81846134a4565b9050979650505050505050565b6000613c76613c87565b9050613c828282613edb565b919050565b6000604051905090565b600067ffffffffffffffff821115613cac57613cab613fb3565b5b602082029050602081019050919050565b600067ffffffffffffffff821115613cd857613cd7613fb3565b5b613ce182613fe2565b9050602081019050919050565b600067ffffffffffffffff821115613d0957613d08613fb3565b5b613d1282613fe2565b9050602081019050919050565b600081519050919050565b600081519050919050565b600082825260208201905092915050565b600082825260208201905092915050565b6000613d6282613e5d565b9150613d6d83613e5d565b9250827fffffffffffffffffffffffffffffffffffffffffffffffffffffffffffffffff03821115613da257613da1613f55565b5b828201905092915050565b6000613db882613e5d565b9150613dc383613e5d565b925082821015613dd657613dd5613f55565b5b828203905092915050565b6000613dec82613e3d565b9050919050565b6000613dfe82613e3d565b9050919050565b60008115159050919050565b60007fffffffff0000000000000000000000000000000000000000000000000000000082169050919050565b600073ffffffffffffffffffffffffffffffffffffffff82169050919050565b6000819050919050565b82818337600083830152505050565b60005b83811015613e94578082015181840152602081019050613e79565b83811115613ea3576000848401525b50505050565b60006002820490506001821680613ec157607f821691505b60208210811415613ed557613ed4613f84565b5b50919050565b613ee482613fe2565b810181811067ffffffffffffffff82111715613f0357613f02613fb3565b5b80604052505050565b6000613f1782613e5d565b91507fffffffffffffffffffffffffffffffffffffffffffffffffffffffffffffffff821415613f4a57613f49613f55565b5b600182019050919050565b7f4e487b7100000000000000000000000000000000000000000000000000000000600052601160045260246000fd5b7f4e487b7100000000000000000000000000000000000000000000000000000000600052602260045260246000fd5b7f4e487b7100000000000000000000000000000000000000000000000000000000600052604160045260246000fd5b6000601f19601f8301169050919050565b7f4552433732313a207472616e7366657220746f206e6f6e20455243373231526560008201527f63656976657220696d706c656d656e7465720000000000000000000000000000602082015250565b7f4f776e61626c653a206e6577206f776e657220697320746865207a65726f206160008201527f6464726573730000000000000000000000000000000000000000000000000000602082015250565b7f4552433732313a20746f6b656e20616c7265616479206d696e74656400000000600082015250565b7f4552433732313a207472616e7366657220746f20746865207a65726f2061646460008201527f7265737300000000000000000000000000000000000000000000000000000000602082015250565b7f4552433732313a20617070726f766520746f2063616c6c657200000000000000600082015250565b7f61727261797320617265206e6f7420696e207468652073616d65206c656e676860008201527f7400000000000000000000000000000000000000000000000000000000000000602082015250565b7f4552433732313a206f70657261746f7220717565727920666f72206e6f6e657860008201527f697374656e7420746f6b656e0000000000000000000000000000000000000000602082015250565b7f4552433732313a20617070726f76652063616c6c6572206973206e6f74206f7760008201527f6e6572206e6f7220617070726f76656420666f7220616c6c0000000000000000602082015250565b7f4552433732313a2062616c616e636520717565727920666f7220746865207a6560008201527f726f206164647265737300000000000000000000000000000000000000000000602082015250565b7f4552433732313a206f776e657220717565727920666f72206e6f6e657869737460008201527f656e7420746f6b656e0000000000000000000000000000000000000000000000602082015250565b7f496e697469616c697a61626c653a20636f6e747261637420697320616c72656160008201527f647920696e697469616c697a6564000000000000000000000000000000000000602082015250565b7f4552433732313a206d696e7420746f20746865207a65726f2061646472657373600082015250565b7f4552433732313a20617070726f76656420717565727920666f72206e6f6e657860008201527f697374656e7420746f6b656e0000000000000000000000000000000000000000602082015250565b7f4f776e61626c653a2063616c6c6572206973206e6f7420746865206f776e6572600082015250565b7f4552433732313a207472616e73666572206f6620746f6b656e2074686174206960008201527f73206e6f74206f776e0000000000000000000000000000000000000000000000602082015250565b7f4552433732314d657461646174613a2055524920717565727920666f72206e6f60008201527f6e6578697374656e7420746f6b656e0000000000000000000000000000000000602082015250565b7f4552433732313a20617070726f76616c20746f2063757272656e74206f776e6560008201527f7200000000000000000000000000000000000000000000000000000000000000602082015250565b7f726573747269637465642066756e6374696f6e20746f2072656c617965720000600082015250565b7f696e73756666696369656e742066656500000000000000000000000000000000600082015250565b7f4552433732313a207472616e736665722063616c6c6572206973206e6f74206f60008201527f776e6572206e6f7220617070726f766564000000000000000000000000000000602082015250565b7f496e697469616c697a61626c653a20636f6e7472616374206973206e6f74206960008201527f6e697469616c697a696e67000000000000000000000000000000000000000000602082015250565b7f4552433732314275726e61626c653a2063616c6c6572206973206e6f74206f7760008201527f6e6572206e6f7220617070726f76656400000000000000000000000000000000602082015250565b6145e281613de1565b81146145ed57600080fd5b50565b6145f981613df3565b811461460457600080fd5b50565b61461081613e05565b811461461b57600080fd5b50565b61462781613e11565b811461463257600080fd5b50565b61463e81613e5d565b811461464957600080fd5b5056fea2646970667358221220db68044d3df74849c7e6330ccb4c90e36740595b2302a038aa50ac39e337179a64736f6c63430008020033",
  "linkReferences": {},
  "deployedLinkReferences": {}
}