{
  "_format": "hh-sol-artifact-1",
  "contractName": "CrossChainNFTUpgradeable",
  "sourceName": "contracts/CrossChainNFTUpgradeable/CrossChainNFTUpgradeable.sol",
  "abi": [
    {
      "inputs": [],
      "stateMutability": "nonpayable",
      "type": "constructor"
    },
    {
      "anonymous": false,
      "inputs": [
        {
          "indexed": true,
          "internalType": "address",
          "name": "owner",
          "type": "address"
        },
        {
          "indexed": true,
          "internalType": "address",
          "name": "approved",
          "type": "address"
        },
        {
          "indexed": true,
          "internalType": "uint256",
          "name": "tokenId",
          "type": "uint256"
        }
      ],
      "name": "Approval",
      "type": "event"
    },
    {
      "anonymous": false,
      "inputs": [
        {
          "indexed": true,
          "internalType": "address",
          "name": "owner",
          "type": "address"
        },
        {
          "indexed": true,
          "internalType": "address",
          "name": "operator",
          "type": "address"
        },
        {
          "indexed": false,
          "internalType": "bool",
          "name": "approved",
          "type": "bool"
        }
      ],
      "name": "ApprovalForAll",
      "type": "event"
    },
    {
      "anonymous": false,
      "inputs": [
        {
          "indexed": true,
          "internalType": "address",
          "name": "previousOwner",
          "type": "address"
        },
        {
          "indexed": true,
          "internalType": "address",
          "name": "newOwner",
          "type": "address"
        }
      ],
      "name": "OwnershipTransferred",
      "type": "event"
    },
    {
      "anonymous": false,
      "inputs": [
        {
          "indexed": false,
          "internalType": "uint256",
          "name": "chainId",
          "type": "uint256"
        },
        {
          "indexed": false,
          "internalType": "address",
          "name": "contAddr",
          "type": "address"
        },
        {
          "indexed": false,
          "internalType": "uint256",
          "name": "tokenId",
          "type": "uint256"
        },
        {
          "indexed": false,
          "internalType": "address",
          "name": "to",
          "type": "address"
        }
      ],
      "name": "RelayerCallRedeem",
      "type": "event"
    },
    {
      "anonymous": false,
      "inputs": [
        {
          "indexed": false,
          "internalType": "uint256",
          "name": "targetChainId",
          "type": "uint256"
        },
        {
          "indexed": false,
          "internalType": "address",
          "name": "to",
          "type": "address"
        },
        {
          "indexed": false,
          "internalType": "uint256",
          "name": "chainId",
          "type": "uint256"
        },
        {
          "indexed": false,
          "internalType": "address",
          "name": "contAddr",
          "type": "address"
        },
        {
          "indexed": false,
          "internalType": "uint256",
          "name": "tokenId",
          "type": "uint256"
        },
        {
          "indexed": false,
          "internalType": "string",
          "name": "uri",
          "type": "string"
        }
      ],
      "name": "RelayerCallSafeMintWrappedToken",
      "type": "event"
    },
    {
      "anonymous": false,
      "inputs": [
        {
          "indexed": false,
          "internalType": "uint256",
          "name": "wTokenId",
          "type": "uint256"
        }
      ],
      "name": "TokenWrapped",
      "type": "event"
    },
    {
      "anonymous": false,
      "inputs": [
        {
          "indexed": true,
          "internalType": "address",
          "name": "from",
          "type": "address"
        },
        {
          "indexed": true,
          "internalType": "address",
          "name": "to",
          "type": "address"
        },
        {
          "indexed": true,
          "internalType": "uint256",
          "name": "tokenId",
          "type": "uint256"
        }
      ],
      "name": "Transfer",
      "type": "event"
    },
    {
      "anonymous": false,
      "inputs": [
        {
          "indexed": false,
          "internalType": "uint256",
          "name": "wTokenId",
          "type": "uint256"
        }
      ],
      "name": "WTokenBurned",
      "type": "event"
    },
    {
      "inputs": [
        {
          "internalType": "address",
          "name": "to",
          "type": "address"
        },
        {
          "internalType": "uint256",
          "name": "tokenId",
          "type": "uint256"
        }
      ],
      "name": "approve",
      "outputs": [],
      "stateMutability": "nonpayable",
      "type": "function"
    },
    {
      "inputs": [
        {
          "internalType": "address",
          "name": "owner",
          "type": "address"
        }
      ],
      "name": "balanceOf",
      "outputs": [
        {
          "internalType": "uint256",
          "name": "",
          "type": "uint256"
        }
      ],
      "stateMutability": "view",
      "type": "function"
    },
    {
      "inputs": [
        {
          "internalType": "uint256",
          "name": "wTokenId",
          "type": "uint256"
        }
      ],
      "name": "burnWrappedToken",
      "outputs": [],
      "stateMutability": "nonpayable",
      "type": "function"
    },
    {
      "inputs": [
        {
          "internalType": "uint256",
          "name": "tokenId",
          "type": "uint256"
        }
      ],
      "name": "getApproved",
      "outputs": [
        {
          "internalType": "address",
          "name": "",
          "type": "address"
        }
      ],
      "stateMutability": "view",
      "type": "function"
    },
    {
      "inputs": [
        {
          "internalType": "uint256",
          "name": "targetChainId",
          "type": "uint256"
        }
      ],
      "name": "getFee",
      "outputs": [
        {
          "internalType": "uint256",
          "name": "fee",
          "type": "uint256"
        }
      ],
      "stateMutability": "view",
      "type": "function"
    },
    {
      "inputs": [],
      "name": "initialize",
      "outputs": [],
      "stateMutability": "nonpayable",
      "type": "function"
    },
    {
      "inputs": [
        {
          "internalType": "address",
          "name": "owner",
          "type": "address"
        },
        {
          "internalType": "address",
          "name": "operator",
          "type": "address"
        }
      ],
      "name": "isApprovedForAll",
      "outputs": [
        {
          "internalType": "bool",
          "name": "",
          "type": "bool"
        }
      ],
      "stateMutability": "view",
      "type": "function"
    },
    {
      "inputs": [],
      "name": "name",
      "outputs": [
        {
          "internalType": "string",
          "name": "",
          "type": "string"
        }
      ],
      "stateMutability": "view",
      "type": "function"
    },
    {
      "inputs": [
        {
          "internalType": "address",
          "name": "",
          "type": "address"
        },
        {
          "internalType": "address",
          "name": "",
          "type": "address"
        },
        {
          "internalType": "uint256",
          "name": "",
          "type": "uint256"
        },
        {
          "internalType": "bytes",
          "name": "",
          "type": "bytes"
        }
      ],
      "name": "onERC721Received",
      "outputs": [
        {
          "internalType": "bytes4",
          "name": "",
          "type": "bytes4"
        }
      ],
      "stateMutability": "nonpayable",
      "type": "function"
    },
    {
      "inputs": [],
      "name": "owner",
      "outputs": [
        {
          "internalType": "address",
          "name": "",
          "type": "address"
        }
      ],
      "stateMutability": "view",
      "type": "function"
    },
    {
      "inputs": [
        {
          "internalType": "uint256",
          "name": "tokenId",
          "type": "uint256"
        }
      ],
      "name": "ownerOf",
      "outputs": [
        {
          "internalType": "address",
          "name": "",
          "type": "address"
        }
      ],
      "stateMutability": "view",
      "type": "function"
    },
    {
      "inputs": [
        {
          "internalType": "address",
          "name": "contAddr",
          "type": "address"
        },
        {
          "internalType": "uint256",
          "name": "tokenId",
          "type": "uint256"
        },
        {
          "internalType": "address",
          "name": "to",
          "type": "address"
        }
      ],
      "name": "redeem",
      "outputs": [],
      "stateMutability": "nonpayable",
      "type": "function"
    },
    {
      "inputs": [],
      "name": "relayer",
      "outputs": [
        {
          "internalType": "address",
          "name": "",
          "type": "address"
        }
      ],
      "stateMutability": "view",
      "type": "function"
    },
    {
      "inputs": [],
      "name": "renounceOwnership",
      "outputs": [],
      "stateMutability": "nonpayable",
      "type": "function"
    },
    {
      "inputs": [
        {
          "internalType": "address",
          "name": "to",
          "type": "address"
        },
        {
          "internalType": "uint256",
          "name": "chainId",
          "type": "uint256"
        },
        {
          "internalType": "address",
          "name": "contAddr",
          "type": "address"
        },
        {
          "internalType": "uint256",
          "name": "tokenId",
          "type": "uint256"
        },
        {
          "internalType": "string",
          "name": "uri",
          "type": "string"
        }
      ],
      "name": "safeMintWrappedToken",
      "outputs": [
        {
          "internalType": "uint256",
          "name": "wTokenId",
          "type": "uint256"
        }
      ],
      "stateMutability": "nonpayable",
      "type": "function"
    },
    {
      "inputs": [
        {
          "internalType": "address",
          "name": "from",
          "type": "address"
        },
        {
          "internalType": "address",
          "name": "to",
          "type": "address"
        },
        {
          "internalType": "uint256",
          "name": "tokenId",
          "type": "uint256"
        }
      ],
      "name": "safeTransferFrom",
      "outputs": [],
      "stateMutability": "nonpayable",
      "type": "function"
    },
    {
      "inputs": [
        {
          "internalType": "address",
          "name": "from",
          "type": "address"
        },
        {
          "internalType": "address",
          "name": "to",
          "type": "address"
        },
        {
          "internalType": "uint256",
          "name": "tokenId",
          "type": "uint256"
        },
        {
          "internalType": "bytes",
          "name": "_data",
          "type": "bytes"
        }
      ],
      "name": "safeTransferFrom",
      "outputs": [],
      "stateMutability": "nonpayable",
      "type": "function"
    },
    {
      "inputs": [
        {
          "internalType": "address",
          "name": "operator",
          "type": "address"
        },
        {
          "internalType": "bool",
          "name": "approved",
          "type": "bool"
        }
      ],
      "name": "setApprovalForAll",
      "outputs": [],
      "stateMutability": "nonpayable",
      "type": "function"
    },
    {
      "inputs": [
        {
          "internalType": "uint256",
          "name": "targetChainId",
          "type": "uint256"
        },
        {
          "internalType": "uint256",
          "name": "fee",
          "type": "uint256"
        }
      ],
      "name": "setFee",
      "outputs": [],
      "stateMutability": "nonpayable",
      "type": "function"
    },
    {
      "inputs": [
        {
          "internalType": "uint256[]",
          "name": "targetChainIds",
          "type": "uint256[]"
        },
        {
          "internalType": "uint256[]",
          "name": "fees",
          "type": "uint256[]"
        }
      ],
      "name": "setFees",
      "outputs": [],
      "stateMutability": "nonpayable",
      "type": "function"
    },
    {
      "inputs": [
        {
          "internalType": "bytes4",
          "name": "interfaceId",
          "type": "bytes4"
        }
      ],
      "name": "supportsInterface",
      "outputs": [
        {
          "internalType": "bool",
          "name": "",
          "type": "bool"
        }
      ],
      "stateMutability": "view",
      "type": "function"
    },
    {
      "inputs": [],
      "name": "symbol",
      "outputs": [
        {
          "internalType": "string",
          "name": "",
          "type": "string"
        }
      ],
      "stateMutability": "view",
      "type": "function"
    },
    {
      "inputs": [
        {
          "internalType": "uint256",
          "name": "tokenId",
          "type": "uint256"
        }
      ],
      "name": "tokenURI",
      "outputs": [
        {
          "internalType": "string",
          "name": "",
          "type": "string"
        }
      ],
      "stateMutability": "view",
      "type": "function"
    },
    {
      "inputs": [],
      "name": "totalSupply",
      "outputs": [
        {
          "internalType": "uint256",
          "name": "",
          "type": "uint256"
        }
      ],
      "stateMutability": "view",
      "type": "function"
    },
    {
      "inputs": [
        {
          "internalType": "address",
          "name": "contAddr",
          "type": "address"
        },
        {
          "internalType": "uint256",
          "name": "tokenId",
          "type": "uint256"
        },
        {
          "internalType": "address",
          "name": "from",
          "type": "address"
        },
        {
          "internalType": "address",
          "name": "to",
          "type": "address"
        },
        {
          "internalType": "uint256",
          "name": "targetChainId",
          "type": "uint256"
        }
      ],
      "name": "transferCrossChainRequest",
      "outputs": [],
      "stateMutability": "payable",
      "type": "function"
    },
    {
      "inputs": [
        {
          "internalType": "address",
          "name": "from",
          "type": "address"
        },
        {
          "internalType": "address",
          "name": "to",
          "type": "address"
        },
        {
          "internalType": "uint256",
          "name": "tokenId",
          "type": "uint256"
        }
      ],
      "name": "transferFrom",
      "outputs": [],
      "stateMutability": "nonpayable",
      "type": "function"
    },
    {
      "inputs": [
        {
          "internalType": "address",
          "name": "newOwner",
          "type": "address"
        }
      ],
      "name": "transferOwnership",
      "outputs": [],
      "stateMutability": "nonpayable",
      "type": "function"
    },
    {
      "inputs": [
        {
          "internalType": "uint256",
          "name": "wTokenId",
          "type": "uint256"
        },
        {
          "internalType": "address",
          "name": "to",
          "type": "address"
        }
      ],
      "name": "wReturnCrossChainRequest",
      "outputs": [],
      "stateMutability": "payable",
      "type": "function"
    },
    {
      "inputs": [
        {
          "internalType": "address payable",
          "name": "to",
          "type": "address"
        }
      ],
      "name": "withdrawCash",
      "outputs": [],
      "stateMutability": "nonpayable",
      "type": "function"
    }
  ],
  "bytecode": "0x608060405234801561001057600080fd5b506146d1806100206000396000f3fe6080604052600436106101c25760003560e01c806370e4acd8116100f7578063a22cb46511610095578063c87b56dd11610064578063c87b56dd1461060c578063e985e9c514610649578063f2fde38b14610686578063fcee45f4146106af576101c2565b8063a22cb46514610575578063ae7197df1461059e578063b88d4fde146105c7578063c237ba6b146105f0576101c2565b80638129fc1c116100d15780638129fc1c146104dd5780638406c079146104f45780638da5cb5b1461051f57806395d89b411461054a576101c2565b806370e4acd814610460578063715018a61461049d5780637a3b45bb146104b4576101c2565b8063375fede51161016457806352f7c9881161013e57806352f7c988146103945780635c833bfd146103bd5780636352211e146103e657806370a0823114610423576101c2565b8063375fede51461032657806338b5c5af1461034f57806342842e0e1461036b576101c2565b8063095ea7b3116101a0578063095ea7b31461026c578063150b7a021461029557806318160ddd146102d257806323b872dd146102fd576101c2565b806301ffc9a7146101c757806306fdde0314610204578063081812fc1461022f575b600080fd5b3480156101d357600080fd5b506101ee60048036038101906101e99190612d2f565b6106ec565b6040516101fb9190612d77565b60405180910390f35b34801561021057600080fd5b506102196107ce565b6040516102269190612e2b565b60405180910390f35b34801561023b57600080fd5b5061025660048036038101906102519190612e83565b610860565b6040516102639190612ef1565b60405180910390f35b34801561027857600080fd5b50610293600480360381019061028e9190612f38565b6108e5565b005b3480156102a157600080fd5b506102bc60048036038101906102b791906130ad565b6109fd565b6040516102c9919061313f565b60405180910390f35b3480156102de57600080fd5b506102e7610a11565b6040516102f49190613169565b60405180910390f35b34801561030957600080fd5b50610324600480360381019061031f9190613184565b610a19565b005b34801561033257600080fd5b5061034d6004803603810190610348919061329f565b610a79565b005b61036960048036038101906103649190613317565b610b9a565b005b34801561037757600080fd5b50610392600480360381019061038d9190613184565b610d70565b005b3480156103a057600080fd5b506103bb60048036038101906103b69190613357565b610d90565b005b3480156103c957600080fd5b506103e460048036038101906103df9190613397565b610e28565b005b3480156103f257600080fd5b5061040d60048036038101906104089190612e83565b610f32565b60405161041a9190612ef1565b60405180910390f35b34801561042f57600080fd5b5061044a600480360381019061044591906133ea565b610fe4565b6040516104579190613169565b60405180910390f35b34801561046c57600080fd5b50610487600480360381019061048291906134b8565b61109c565b6040516104949190613169565b60405180910390f35b3480156104a957600080fd5b506104b2611164565b005b3480156104c057600080fd5b506104db60048036038101906104d69190612e83565b6111ec565b005b3480156104e957600080fd5b506104f2611251565b005b34801561050057600080fd5b506105096113d6565b6040516105169190612ef1565b60405180910390f35b34801561052b57600080fd5b506105346113fc565b6040516105419190612ef1565b60405180910390f35b34801561055657600080fd5b5061055f611426565b60405161056c9190612e2b565b60405180910390f35b34801561058157600080fd5b5061059c6004803603810190610597919061357b565b6114b8565b005b3480156105aa57600080fd5b506105c560048036038101906105c091906135f9565b6114ce565b005b3480156105d357600080fd5b506105ee60048036038101906105e991906130ad565b61159b565b005b61060a60048036038101906106059190613626565b6115fd565b005b34801561061857600080fd5b50610633600480360381019061062e9190612e83565b6116e9565b6040516106409190612e2b565b60405180910390f35b34801561065557600080fd5b50610670600480360381019061066b91906136a1565b6116fb565b60405161067d9190612d77565b60405180910390f35b34801561069257600080fd5b506106ad60048036038101906106a891906133ea565b61178f565b005b3480156106bb57600080fd5b506106d660048036038101906106d19190612e83565b611887565b6040516106e39190613169565b60405180910390f35b60007f80ac58cd000000000000000000000000000000000000000000000000000000007bffffffffffffffffffffffffffffffffffffffffffffffffffffffff1916827bffffffffffffffffffffffffffffffffffffffffffffffffffffffff191614806107b757507f5b5e139f000000000000000000000000000000000000000000000000000000007bffffffffffffffffffffffffffffffffffffffffffffffffffffffff1916827bffffffffffffffffffffffffffffffffffffffffffffffffffffffff1916145b806107c757506107c6826118a4565b5b9050919050565b6060606580546107dd90613710565b80601f016020809104026020016040519081016040528092919081815260200182805461080990613710565b80156108565780601f1061082b57610100808354040283529160200191610856565b820191906000526020600020905b81548152906001019060200180831161083957829003601f168201915b5050505050905090565b600061086b8261190e565b6108aa576040517f08c379a00000000000000000000000000000000000000000000000000000000081526004016108a1906137b4565b60405180910390fd5b6069600083815260200190815260200160002060009054906101000a900473ffffffffffffffffffffffffffffffffffffffff169050919050565b60006108f082610f32565b90508073ffffffffffffffffffffffffffffffffffffffff168373ffffffffffffffffffffffffffffffffffffffff161415610961576040517f08c379a000000000000000000000000000000000000000000000000000000000815260040161095890613846565b60405180910390fd5b8073ffffffffffffffffffffffffffffffffffffffff1661098061197a565b73ffffffffffffffffffffffffffffffffffffffff1614806109af57506109ae816109a961197a565b6116fb565b5b6109ee576040517f08c379a00000000000000000000000000000000000000000000000000000000081526004016109e5906138d8565b60405180910390fd5b6109f88383611982565b505050565b600063150b7a0260e01b9050949350505050565b600047905090565b610a2a610a2461197a565b82611a3b565b610a69576040517f08c379a0000000000000000000000000000000000000000000000000000000008152600401610a609061396a565b60405180910390fd5b610a74838383611b19565b505050565b610a8161197a565b73ffffffffffffffffffffffffffffffffffffffff16610a9f6113fc565b73ffffffffffffffffffffffffffffffffffffffff1614610af5576040517f08c379a0000000000000000000000000000000000000000000000000000000008152600401610aec906139d6565b60405180910390fd5b8051825114610b39576040517f08c379a0000000000000000000000000000000000000000000000000000000008152600401610b3090613a68565b60405180910390fd5b60005b82518111610b9557610b82838281518110610b5a57610b59613a88565b5b6020026020010151838381518110610b7557610b74613a88565b5b6020026020010151610d90565b8080610b8d90613ae6565b915050610b3c565b505050565b600060c96000848152602001908152602001600020604051806080016040529081600082015481526020016001820160009054906101000a900473ffffffffffffffffffffffffffffffffffffffff1673ffffffffffffffffffffffffffffffffffffffff1673ffffffffffffffffffffffffffffffffffffffff16815260200160028201548152602001600382018054610c3490613710565b80601f0160208091040260200160405190810160405280929190818152602001828054610c6090613710565b8015610cad5780601f10610c8257610100808354040283529160200191610cad565b820191906000526020600020905b815481529060010190602001808311610c9057829003601f168201915b5050505050815250509050610cc58160000151611887565b341015610d07576040517f08c379a0000000000000000000000000000000000000000000000000000000008152600401610cfe90613b7b565b60405180910390fd5b600081600001519050600082602001519050600083604001519050610d2b866111ec565b7f68d40ad5dae5d6d29b5f9a3faf65a9e21ea0772c8a6861641ef31fad20d185fb83838388604051610d609493929190613b9b565b60405180910390a1505050505050565b610d8b8383836040518060200160405280600081525061159b565b505050565b610d9861197a565b73ffffffffffffffffffffffffffffffffffffffff16610db66113fc565b73ffffffffffffffffffffffffffffffffffffffff1614610e0c576040517f08c379a0000000000000000000000000000000000000000000000000000000008152600401610e03906139d6565b60405180910390fd5b8060fe6000848152602001908152602001600020819055505050565b60fd60009054906101000a900473ffffffffffffffffffffffffffffffffffffffff1673ffffffffffffffffffffffffffffffffffffffff163373ffffffffffffffffffffffffffffffffffffffff1614610eb8576040517f08c379a0000000000000000000000000000000000000000000000000000000008152600401610eaf90613c2c565b60405180910390fd5b60008390508073ffffffffffffffffffffffffffffffffffffffff166342842e0e3084866040518463ffffffff1660e01b8152600401610efa93929190613c4c565b600060405180830381600087803b158015610f1457600080fd5b505af1158015610f28573d6000803e3d6000fd5b5050505050505050565b6000806067600084815260200190815260200160002060009054906101000a900473ffffffffffffffffffffffffffffffffffffffff169050600073ffffffffffffffffffffffffffffffffffffffff168173ffffffffffffffffffffffffffffffffffffffff161415610fdb576040517f08c379a0000000000000000000000000000000000000000000000000000000008152600401610fd290613cf5565b60405180910390fd5b80915050919050565b60008073ffffffffffffffffffffffffffffffffffffffff168273ffffffffffffffffffffffffffffffffffffffff161415611055576040517f08c379a000000000000000000000000000000000000000000000000000000000815260040161104c90613d87565b60405180910390fd5b606860008373ffffffffffffffffffffffffffffffffffffffff1673ffffffffffffffffffffffffffffffffffffffff168152602001908152602001600020549050919050565b600060fd60009054906101000a900473ffffffffffffffffffffffffffffffffffffffff1673ffffffffffffffffffffffffffffffffffffffff163373ffffffffffffffffffffffffffffffffffffffff161461112e576040517f08c379a000000000000000000000000000000000000000000000000000000000815260040161112590613c2c565b60405180910390fd5b61113860fc611d75565b905061114460fc611d83565b61114e8682611d99565b61115b8186868686611db7565b95945050505050565b61116c61197a565b73ffffffffffffffffffffffffffffffffffffffff1661118a6113fc565b73ffffffffffffffffffffffffffffffffffffffff16146111e0576040517f08c379a00000000000000000000000000000000000000000000000000000000081526004016111d7906139d6565b60405180910390fd5b6111ea6000611eba565b565b6111fd6111f761197a565b82611a3b565b61123c576040517f08c379a000000000000000000000000000000000000000000000000000000000815260040161123390613e19565b60405180910390fd5b61124581611f80565b61124e81612091565b50565b600060019054906101000a900460ff166112795760008054906101000a900460ff1615611282565b611281612128565b5b6112c1576040517f08c379a00000000000000000000000000000000000000000000000000000000081526004016112b890613eab565b60405180910390fd5b60008060019054906101000a900460ff161590508015611311576001600060016101000a81548160ff02191690831515021790555060016000806101000a81548160ff0219169083151502179055505b61132e73e189bfcc0d6f5f63401b104c1051699c7aa1ae4a612139565b6113a26040518060400160405280601881526020017f43726f7373436861696e4e46545570677261646561626c6500000000000000008152506040518060400160405280600381526020017f4343680000000000000000000000000000000000000000000000000000000000815250612194565b6113aa612201565b6113b261226a565b80156113d35760008060016101000a81548160ff0219169083151502179055505b50565b60fd60009054906101000a900473ffffffffffffffffffffffffffffffffffffffff1681565b600060ca60009054906101000a900473ffffffffffffffffffffffffffffffffffffffff16905090565b60606066805461143590613710565b80601f016020809104026020016040519081016040528092919081815260200182805461146190613710565b80156114ae5780601f10611483576101008083540402835291602001916114ae565b820191906000526020600020905b81548152906001019060200180831161149157829003601f168201915b5050505050905090565b6114ca6114c361197a565b83836122cb565b5050565b6114d661197a565b73ffffffffffffffffffffffffffffffffffffffff166114f46113fc565b73ffffffffffffffffffffffffffffffffffffffff161461154a576040517f08c379a0000000000000000000000000000000000000000000000000000000008152600401611541906139d6565b60405180910390fd5b8073ffffffffffffffffffffffffffffffffffffffff166108fc61156c610a11565b9081150290604051600060405180830381858888f19350505050158015611597573d6000803e3d6000fd5b5050565b6115ac6115a661197a565b83611a3b565b6115eb576040517f08c379a00000000000000000000000000000000000000000000000000000000081526004016115e29061396a565b60405180910390fd5b6115f784848484612438565b50505050565b61160681611887565b34101561161257600080fd5b61161d858585612494565b60004690507f9301e409432a51a191443f644ae41630782021a09e1ce98fc0e5fb72078a25ea82848389898b73ffffffffffffffffffffffffffffffffffffffff1663c87b56dd8c6040518263ffffffff1660e01b81526004016116819190613169565b600060405180830381865afa15801561169e573d6000803e3d6000fd5b505050506040513d6000823e3d601f19601f820116820180604052508101906116c79190613f3b565b6040516116d996959493929190613f84565b60405180910390a1505050505050565b60606116f48261250e565b9050919050565b6000606a60008473ffffffffffffffffffffffffffffffffffffffff1673ffffffffffffffffffffffffffffffffffffffff16815260200190815260200160002060008373ffffffffffffffffffffffffffffffffffffffff1673ffffffffffffffffffffffffffffffffffffffff16815260200190815260200160002060009054906101000a900460ff16905092915050565b61179761197a565b73ffffffffffffffffffffffffffffffffffffffff166117b56113fc565b73ffffffffffffffffffffffffffffffffffffffff161461180b576040517f08c379a0000000000000000000000000000000000000000000000000000000008152600401611802906139d6565b60405180910390fd5b600073ffffffffffffffffffffffffffffffffffffffff168173ffffffffffffffffffffffffffffffffffffffff16141561187b576040517f08c379a00000000000000000000000000000000000000000000000000000000081526004016118729061405e565b60405180910390fd5b61188481611eba565b50565b600060fe6000838152602001908152602001600020549050919050565b60007f01ffc9a7000000000000000000000000000000000000000000000000000000007bffffffffffffffffffffffffffffffffffffffffffffffffffffffff1916827bffffffffffffffffffffffffffffffffffffffffffffffffffffffff1916149050919050565b60008073ffffffffffffffffffffffffffffffffffffffff166067600084815260200190815260200160002060009054906101000a900473ffffffffffffffffffffffffffffffffffffffff1673ffffffffffffffffffffffffffffffffffffffff1614159050919050565b600033905090565b816069600083815260200190815260200160002060006101000a81548173ffffffffffffffffffffffffffffffffffffffff021916908373ffffffffffffffffffffffffffffffffffffffff160217905550808273ffffffffffffffffffffffffffffffffffffffff166119f583610f32565b73ffffffffffffffffffffffffffffffffffffffff167f8c5be1e5ebec7d5bd14f71427d1e84f3dd0314c0f7b2291e5b200ac8c7c3b92560405160405180910390a45050565b6000611a468261190e565b611a85576040517f08c379a0000000000000000000000000000000000000000000000000000000008152600401611a7c906140f0565b60405180910390fd5b6000611a9083610f32565b90508073ffffffffffffffffffffffffffffffffffffffff168473ffffffffffffffffffffffffffffffffffffffff161480611aff57508373ffffffffffffffffffffffffffffffffffffffff16611ae784610860565b73ffffffffffffffffffffffffffffffffffffffff16145b80611b105750611b0f81856116fb565b5b91505092915050565b8273ffffffffffffffffffffffffffffffffffffffff16611b3982610f32565b73ffffffffffffffffffffffffffffffffffffffff1614611b8f576040517f08c379a0000000000000000000000000000000000000000000000000000000008152600401611b8690614182565b60405180910390fd5b600073ffffffffffffffffffffffffffffffffffffffff168273ffffffffffffffffffffffffffffffffffffffff161415611bff576040517f08c379a0000000000000000000000000000000000000000000000000000000008152600401611bf690614214565b60405180910390fd5b611c0a8383836125fe565b611c15600082611982565b6001606860008573ffffffffffffffffffffffffffffffffffffffff1673ffffffffffffffffffffffffffffffffffffffff1681526020019081526020016000206000828254611c659190614234565b925050819055506001606860008473ffffffffffffffffffffffffffffffffffffffff1673ffffffffffffffffffffffffffffffffffffffff1681526020019081526020016000206000828254611cbc9190614268565b92505081905550816067600083815260200190815260200160002060006101000a81548173ffffffffffffffffffffffffffffffffffffffff021916908373ffffffffffffffffffffffffffffffffffffffff160217905550808273ffffffffffffffffffffffffffffffffffffffff168473ffffffffffffffffffffffffffffffffffffffff167fddf252ad1be2c89b69c2b068fc378daa952ba7f163c4a11628f55a4df523b3ef60405160405180910390a4505050565b600081600001549050919050565b6001816000016000828254019250508190555050565b611db3828260405180602001604052806000815250612603565b5050565b60405180608001604052808581526020018473ffffffffffffffffffffffffffffffffffffffff1681526020018381526020018281525060c960008781526020019081526020016000206000820151816000015560208201518160010160006101000a81548173ffffffffffffffffffffffffffffffffffffffff021916908373ffffffffffffffffffffffffffffffffffffffff160217905550604082015181600201556060820151816003019080519060200190611e78929190612be0565b509050507fbbd8046f2003b15c5e4858368dad2435a58ae1e6b8e64b8edab81490292e339585604051611eab9190613169565b60405180910390a15050505050565b600060ca60009054906101000a900473ffffffffffffffffffffffffffffffffffffffff1690508160ca60006101000a81548173ffffffffffffffffffffffffffffffffffffffff021916908373ffffffffffffffffffffffffffffffffffffffff1602179055508173ffffffffffffffffffffffffffffffffffffffff168173ffffffffffffffffffffffffffffffffffffffff167f8be0079c531659141344cd1fd0a4f28419497f9722a3daafe3b4186f6b6457e060405160405180910390a35050565b6000611f8b82610f32565b9050611f99816000846125fe565b611fa4600083611982565b6001606860008373ffffffffffffffffffffffffffffffffffffffff1673ffffffffffffffffffffffffffffffffffffffff1681526020019081526020016000206000828254611ff49190614234565b925050819055506067600083815260200190815260200160002060006101000a81549073ffffffffffffffffffffffffffffffffffffffff021916905581600073ffffffffffffffffffffffffffffffffffffffff168273ffffffffffffffffffffffffffffffffffffffff167fddf252ad1be2c89b69c2b068fc378daa952ba7f163c4a11628f55a4df523b3ef60405160405180910390a45050565b60c960008281526020019081526020016000206000808201600090556001820160006101000a81549073ffffffffffffffffffffffffffffffffffffffff021916905560028201600090556003820160006120ec9190612c66565b50507fbae674de5b60cebab59cbdf60624b8a5ba69b8baf7f2c92aeaf1a2cc183ddddf8160405161211d9190613169565b60405180910390a150565b60006121333061265e565b15905090565b600060019054906101000a900460ff16612188576040517f08c379a000000000000000000000000000000000000000000000000000000000815260040161217f90614330565b60405180910390fd5b61219181612671565b50565b600060019054906101000a900460ff166121e3576040517f08c379a00000000000000000000000000000000000000000000000000000000081526004016121da90614330565b60405180910390fd5b6121eb6126b5565b6121f3612706565b6121fd8282612757565b5050565b600060019054906101000a900460ff16612250576040517f08c379a000000000000000000000000000000000000000000000000000000000815260040161224790614330565b60405180910390fd5b6122586126b5565b612260612706565b6122686127d8565b565b600060019054906101000a900460ff166122b9576040517f08c379a00000000000000000000000000000000000000000000000000000000081526004016122b090614330565b60405180910390fd5b6122c16126b5565b6122c9612829565b565b8173ffffffffffffffffffffffffffffffffffffffff168373ffffffffffffffffffffffffffffffffffffffff16141561233a576040517f08c379a00000000000000000000000000000000000000000000000000000000081526004016123319061439c565b60405180910390fd5b80606a60008573ffffffffffffffffffffffffffffffffffffffff1673ffffffffffffffffffffffffffffffffffffffff16815260200190815260200160002060008473ffffffffffffffffffffffffffffffffffffffff1673ffffffffffffffffffffffffffffffffffffffff16815260200190815260200160002060006101000a81548160ff0219169083151502179055508173ffffffffffffffffffffffffffffffffffffffff168373ffffffffffffffffffffffffffffffffffffffff167f17307eab39ab6107e8899845ad3d59bd9653f200f220920489ca2b5937696c318360405161242b9190612d77565b60405180910390a3505050565b612443848484611b19565b61244f8484848461288a565b61248e576040517f08c379a00000000000000000000000000000000000000000000000000000000081526004016124859061442e565b60405180910390fd5b50505050565b60008390508073ffffffffffffffffffffffffffffffffffffffff166342842e0e8330866040518463ffffffff1660e01b81526004016124d693929190613c4c565b600060405180830381600087803b1580156124f057600080fd5b505af1158015612504573d6000803e3d6000fd5b5050505050505050565b60606125198261190e565b612558576040517f08c379a000000000000000000000000000000000000000000000000000000000815260040161254f906144c0565b60405180910390fd5b60c96000838152602001908152602001600020600301805461257990613710565b80601f01602080910402602001604051908101604052809291908181526020018280546125a590613710565b80156125f25780601f106125c7576101008083540402835291602001916125f2565b820191906000526020600020905b8154815290600101906020018083116125d557829003601f168201915b50505050509050919050565b505050565b61260d8383612a12565b61261a600084848461288a565b612659576040517f08c379a00000000000000000000000000000000000000000000000000000000081526004016126509061442e565b60405180910390fd5b505050565b600080823b905060008111915050919050565b8060fd60006101000a81548173ffffffffffffffffffffffffffffffffffffffff021916908373ffffffffffffffffffffffffffffffffffffffff16021790555050565b600060019054906101000a900460ff16612704576040517f08c379a00000000000000000000000000000000000000000000000000000000081526004016126fb90614330565b60405180910390fd5b565b600060019054906101000a900460ff16612755576040517f08c379a000000000000000000000000000000000000000000000000000000000815260040161274c90614330565b60405180910390fd5b565b600060019054906101000a900460ff166127a6576040517f08c379a000000000000000000000000000000000000000000000000000000000815260040161279d90614330565b60405180910390fd5b81606590805190602001906127bc929190612be0565b5080606690805190602001906127d3929190612be0565b505050565b600060019054906101000a900460ff16612827576040517f08c379a000000000000000000000000000000000000000000000000000000000815260040161281e90614330565b60405180910390fd5b565b600060019054906101000a900460ff16612878576040517f08c379a000000000000000000000000000000000000000000000000000000000815260040161286f90614330565b60405180910390fd5b61288861288361197a565b611eba565b565b60006128ab8473ffffffffffffffffffffffffffffffffffffffff1661265e565b15612a05578373ffffffffffffffffffffffffffffffffffffffff1663150b7a026128d461197a565b8786866040518563ffffffff1660e01b81526004016128f69493929190614535565b6020604051808303816000875af192505050801561293257506040513d601f19601f8201168201806040525081019061292f9190614596565b60015b6129b5573d8060008114612962576040519150601f19603f3d011682016040523d82523d6000602084013e612967565b606091505b506000815114156129ad576040517f08c379a00000000000000000000000000000000000000000000000000000000081526004016129a49061442e565b60405180910390fd5b805181602001fd5b63150b7a0260e01b7bffffffffffffffffffffffffffffffffffffffffffffffffffffffff1916817bffffffffffffffffffffffffffffffffffffffffffffffffffffffff191614915050612a0a565b600190505b949350505050565b600073ffffffffffffffffffffffffffffffffffffffff168273ffffffffffffffffffffffffffffffffffffffff161415612a82576040517f08c379a0000000000000000000000000000000000000000000000000000000008152600401612a799061460f565b60405180910390fd5b612a8b8161190e565b15612acb576040517f08c379a0000000000000000000000000000000000000000000000000000000008152600401612ac29061467b565b60405180910390fd5b612ad7600083836125fe565b6001606860008473ffffffffffffffffffffffffffffffffffffffff1673ffffffffffffffffffffffffffffffffffffffff1681526020019081526020016000206000828254612b279190614268565b92505081905550816067600083815260200190815260200160002060006101000a81548173ffffffffffffffffffffffffffffffffffffffff021916908373ffffffffffffffffffffffffffffffffffffffff160217905550808273ffffffffffffffffffffffffffffffffffffffff16600073ffffffffffffffffffffffffffffffffffffffff167fddf252ad1be2c89b69c2b068fc378daa952ba7f163c4a11628f55a4df523b3ef60405160405180910390a45050565b828054612bec90613710565b90600052602060002090601f016020900481019282612c0e5760008555612c55565b82601f10612c2757805160ff1916838001178555612c55565b82800160010185558215612c55579182015b82811115612c54578251825591602001919060010190612c39565b5b509050612c629190612ca6565b5090565b508054612c7290613710565b6000825580601f10612c845750612ca3565b601f016020900490600052602060002090810190612ca29190612ca6565b5b50565b5b80821115612cbf576000816000905550600101612ca7565b5090565b6000604051905090565b600080fd5b600080fd5b60007fffffffff0000000000000000000000000000000000000000000000000000000082169050919050565b612d0c81612cd7565b8114612d1757600080fd5b50565b600081359050612d2981612d03565b92915050565b600060208284031215612d4557612d44612ccd565b5b6000612d5384828501612d1a565b91505092915050565b60008115159050919050565b612d7181612d5c565b82525050565b6000602082019050612d8c6000830184612d68565b92915050565b600081519050919050565b600082825260208201905092915050565b60005b83811015612dcc578082015181840152602081019050612db1565b83811115612ddb576000848401525b50505050565b6000601f19601f8301169050919050565b6000612dfd82612d92565b612e078185612d9d565b9350612e17818560208601612dae565b612e2081612de1565b840191505092915050565b60006020820190508181036000830152612e458184612df2565b905092915050565b6000819050919050565b612e6081612e4d565b8114612e6b57600080fd5b50565b600081359050612e7d81612e57565b92915050565b600060208284031215612e9957612e98612ccd565b5b6000612ea784828501612e6e565b91505092915050565b600073ffffffffffffffffffffffffffffffffffffffff82169050919050565b6000612edb82612eb0565b9050919050565b612eeb81612ed0565b82525050565b6000602082019050612f066000830184612ee2565b92915050565b612f1581612ed0565b8114612f2057600080fd5b50565b600081359050612f3281612f0c565b92915050565b60008060408385031215612f4f57612f4e612ccd565b5b6000612f5d85828601612f23565b9250506020612f6e85828601612e6e565b9150509250929050565b600080fd5b600080fd5b7f4e487b7100000000000000000000000000000000000000000000000000000000600052604160045260246000fd5b612fba82612de1565b810181811067ffffffffffffffff82111715612fd957612fd8612f82565b5b80604052505050565b6000612fec612cc3565b9050612ff88282612fb1565b919050565b600067ffffffffffffffff82111561301857613017612f82565b5b61302182612de1565b9050602081019050919050565b82818337600083830152505050565b600061305061304b84612ffd565b612fe2565b90508281526020810184848401111561306c5761306b612f7d565b5b61307784828561302e565b509392505050565b600082601f83011261309457613093612f78565b5b81356130a484826020860161303d565b91505092915050565b600080600080608085870312156130c7576130c6612ccd565b5b60006130d587828801612f23565b94505060206130e687828801612f23565b93505060406130f787828801612e6e565b925050606085013567ffffffffffffffff81111561311857613117612cd2565b5b6131248782880161307f565b91505092959194509250565b61313981612cd7565b82525050565b60006020820190506131546000830184613130565b92915050565b61316381612e4d565b82525050565b600060208201905061317e600083018461315a565b92915050565b60008060006060848603121561319d5761319c612ccd565b5b60006131ab86828701612f23565b93505060206131bc86828701612f23565b92505060406131cd86828701612e6e565b9150509250925092565b600067ffffffffffffffff8211156131f2576131f1612f82565b5b602082029050602081019050919050565b600080fd5b600061321b613216846131d7565b612fe2565b9050808382526020820190506020840283018581111561323e5761323d613203565b5b835b8181101561326757806132538882612e6e565b845260208401935050602081019050613240565b5050509392505050565b600082601f83011261328657613285612f78565b5b8135613296848260208601613208565b91505092915050565b600080604083850312156132b6576132b5612ccd565b5b600083013567ffffffffffffffff8111156132d4576132d3612cd2565b5b6132e085828601613271565b925050602083013567ffffffffffffffff81111561330157613300612cd2565b5b61330d85828601613271565b9150509250929050565b6000806040838503121561332e5761332d612ccd565b5b600061333c85828601612e6e565b925050602061334d85828601612f23565b9150509250929050565b6000806040838503121561336e5761336d612ccd565b5b600061337c85828601612e6e565b925050602061338d85828601612e6e565b9150509250929050565b6000806000606084860312156133b0576133af612ccd565b5b60006133be86828701612f23565b93505060206133cf86828701612e6e565b92505060406133e086828701612f23565b9150509250925092565b600060208284031215613400576133ff612ccd565b5b600061340e84828501612f23565b91505092915050565b600067ffffffffffffffff82111561343257613431612f82565b5b61343b82612de1565b9050602081019050919050565b600061345b61345684613417565b612fe2565b90508281526020810184848401111561347757613476612f7d565b5b61348284828561302e565b509392505050565b600082601f83011261349f5761349e612f78565b5b81356134af848260208601613448565b91505092915050565b600080600080600060a086880312156134d4576134d3612ccd565b5b60006134e288828901612f23565b95505060206134f388828901612e6e565b945050604061350488828901612f23565b935050606061351588828901612e6e565b925050608086013567ffffffffffffffff81111561353657613535612cd2565b5b6135428882890161348a565b9150509295509295909350565b61355881612d5c565b811461356357600080fd5b50565b6000813590506135758161354f565b92915050565b6000806040838503121561359257613591612ccd565b5b60006135a085828601612f23565b92505060206135b185828601613566565b9150509250929050565b60006135c682612eb0565b9050919050565b6135d6816135bb565b81146135e157600080fd5b50565b6000813590506135f3816135cd565b92915050565b60006020828403121561360f5761360e612ccd565b5b600061361d848285016135e4565b91505092915050565b600080600080600060a0868803121561364257613641612ccd565b5b600061365088828901612f23565b955050602061366188828901612e6e565b945050604061367288828901612f23565b935050606061368388828901612f23565b925050608061369488828901612e6e565b9150509295509295909350565b600080604083850312156136b8576136b7612ccd565b5b60006136c685828601612f23565b92505060206136d785828601612f23565b9150509250929050565b7f4e487b7100000000000000000000000000000000000000000000000000000000600052602260045260246000fd5b6000600282049050600182168061372857607f821691505b6020821081141561373c5761373b6136e1565b5b50919050565b7f4552433732313a20617070726f76656420717565727920666f72206e6f6e657860008201527f697374656e7420746f6b656e0000000000000000000000000000000000000000602082015250565b600061379e602c83612d9d565b91506137a982613742565b604082019050919050565b600060208201905081810360008301526137cd81613791565b9050919050565b7f4552433732313a20617070726f76616c20746f2063757272656e74206f776e6560008201527f7200000000000000000000000000000000000000000000000000000000000000602082015250565b6000613830602183612d9d565b915061383b826137d4565b604082019050919050565b6000602082019050818103600083015261385f81613823565b9050919050565b7f4552433732313a20617070726f76652063616c6c6572206973206e6f74206f7760008201527f6e6572206e6f7220617070726f76656420666f7220616c6c0000000000000000602082015250565b60006138c2603883612d9d565b91506138cd82613866565b604082019050919050565b600060208201905081810360008301526138f1816138b5565b9050919050565b7f4552433732313a207472616e736665722063616c6c6572206973206e6f74206f60008201527f776e6572206e6f7220617070726f766564000000000000000000000000000000602082015250565b6000613954603183612d9d565b915061395f826138f8565b604082019050919050565b6000602082019050818103600083015261398381613947565b9050919050565b7f4f776e61626c653a2063616c6c6572206973206e6f7420746865206f776e6572600082015250565b60006139c0602083612d9d565b91506139cb8261398a565b602082019050919050565b600060208201905081810360008301526139ef816139b3565b9050919050565b7f61727261797320617265206e6f7420696e207468652073616d65206c656e676860008201527f7400000000000000000000000000000000000000000000000000000000000000602082015250565b6000613a52602183612d9d565b9150613a5d826139f6565b604082019050919050565b60006020820190508181036000830152613a8181613a45565b9050919050565b7f4e487b7100000000000000000000000000000000000000000000000000000000600052603260045260246000fd5b7f4e487b7100000000000000000000000000000000000000000000000000000000600052601160045260246000fd5b6000613af182612e4d565b91507fffffffffffffffffffffffffffffffffffffffffffffffffffffffffffffffff821415613b2457613b23613ab7565b5b600182019050919050565b7f696e73756666696369656e742066656500000000000000000000000000000000600082015250565b6000613b65601083612d9d565b9150613b7082613b2f565b602082019050919050565b60006020820190508181036000830152613b9481613b58565b9050919050565b6000608082019050613bb0600083018761315a565b613bbd6020830186612ee2565b613bca604083018561315a565b613bd76060830184612ee2565b95945050505050565b7f726573747269637465642066756e6374696f6e20746f2072656c617965720000600082015250565b6000613c16601e83612d9d565b9150613c2182613be0565b602082019050919050565b60006020820190508181036000830152613c4581613c09565b9050919050565b6000606082019050613c616000830186612ee2565b613c6e6020830185612ee2565b613c7b604083018461315a565b949350505050565b7f4552433732313a206f776e657220717565727920666f72206e6f6e657869737460008201527f656e7420746f6b656e0000000000000000000000000000000000000000000000602082015250565b6000613cdf602983612d9d565b9150613cea82613c83565b604082019050919050565b60006020820190508181036000830152613d0e81613cd2565b9050919050565b7f4552433732313a2062616c616e636520717565727920666f7220746865207a6560008201527f726f206164647265737300000000000000000000000000000000000000000000602082015250565b6000613d71602a83612d9d565b9150613d7c82613d15565b604082019050919050565b60006020820190508181036000830152613da081613d64565b9050919050565b7f4552433732314275726e61626c653a2063616c6c6572206973206e6f74206f7760008201527f6e6572206e6f7220617070726f76656400000000000000000000000000000000602082015250565b6000613e03603083612d9d565b9150613e0e82613da7565b604082019050919050565b60006020820190508181036000830152613e3281613df6565b9050919050565b7f496e697469616c697a61626c653a20636f6e747261637420697320616c72656160008201527f647920696e697469616c697a6564000000000000000000000000000000000000602082015250565b6000613e95602e83612d9d565b9150613ea082613e39565b604082019050919050565b60006020820190508181036000830152613ec481613e88565b9050919050565b6000613ede613ed984613417565b612fe2565b905082815260208101848484011115613efa57613ef9612f7d565b5b613f05848285612dae565b509392505050565b600082601f830112613f2257613f21612f78565b5b8151613f32848260208601613ecb565b91505092915050565b600060208284031215613f5157613f50612ccd565b5b600082015167ffffffffffffffff811115613f6f57613f6e612cd2565b5b613f7b84828501613f0d565b91505092915050565b600060c082019050613f99600083018961315a565b613fa66020830188612ee2565b613fb3604083018761315a565b613fc06060830186612ee2565b613fcd608083018561315a565b81810360a0830152613fdf8184612df2565b9050979650505050505050565b7f4f776e61626c653a206e6577206f776e657220697320746865207a65726f206160008201527f6464726573730000000000000000000000000000000000000000000000000000602082015250565b6000614048602683612d9d565b915061405382613fec565b604082019050919050565b600060208201905081810360008301526140778161403b565b9050919050565b7f4552433732313a206f70657261746f7220717565727920666f72206e6f6e657860008201527f697374656e7420746f6b656e0000000000000000000000000000000000000000602082015250565b60006140da602c83612d9d565b91506140e58261407e565b604082019050919050565b60006020820190508181036000830152614109816140cd565b9050919050565b7f4552433732313a207472616e73666572206f6620746f6b656e2074686174206960008201527f73206e6f74206f776e0000000000000000000000000000000000000000000000602082015250565b600061416c602983612d9d565b915061417782614110565b604082019050919050565b6000602082019050818103600083015261419b8161415f565b9050919050565b7f4552433732313a207472616e7366657220746f20746865207a65726f2061646460008201527f7265737300000000000000000000000000000000000000000000000000000000602082015250565b60006141fe602483612d9d565b9150614209826141a2565b604082019050919050565b6000602082019050818103600083015261422d816141f1565b9050919050565b600061423f82612e4d565b915061424a83612e4d565b92508282101561425d5761425c613ab7565b5b828203905092915050565b600061427382612e4d565b915061427e83612e4d565b9250827fffffffffffffffffffffffffffffffffffffffffffffffffffffffffffffffff038211156142b3576142b2613ab7565b5b828201905092915050565b7f496e697469616c697a61626c653a20636f6e7472616374206973206e6f74206960008201527f6e697469616c697a696e67000000000000000000000000000000000000000000602082015250565b600061431a602b83612d9d565b9150614325826142be565b604082019050919050565b600060208201905081810360008301526143498161430d565b9050919050565b7f4552433732313a20617070726f766520746f2063616c6c657200000000000000600082015250565b6000614386601983612d9d565b915061439182614350565b602082019050919050565b600060208201905081810360008301526143b581614379565b9050919050565b7f4552433732313a207472616e7366657220746f206e6f6e20455243373231526560008201527f63656976657220696d706c656d656e7465720000000000000000000000000000602082015250565b6000614418603283612d9d565b9150614423826143bc565b604082019050919050565b600060208201905081810360008301526144478161440b565b9050919050565b7f4552433732314d657461646174613a2055524920717565727920666f72206e6f60008201527f6e6578697374656e7420746f6b656e0000000000000000000000000000000000602082015250565b60006144aa602f83612d9d565b91506144b58261444e565b604082019050919050565b600060208201905081810360008301526144d98161449d565b9050919050565b600081519050919050565b600082825260208201905092915050565b6000614507826144e0565b61451181856144eb565b9350614521818560208601612dae565b61452a81612de1565b840191505092915050565b600060808201905061454a6000830187612ee2565b6145576020830186612ee2565b614564604083018561315a565b818103606083015261457681846144fc565b905095945050505050565b60008151905061459081612d03565b92915050565b6000602082840312156145ac576145ab612ccd565b5b60006145ba84828501614581565b91505092915050565b7f4552433732313a206d696e7420746f20746865207a65726f2061646472657373600082015250565b60006145f9602083612d9d565b9150614604826145c3565b602082019050919050565b60006020820190508181036000830152614628816145ec565b9050919050565b7f4552433732313a20746f6b656e20616c7265616479206d696e74656400000000600082015250565b6000614665601c83612d9d565b91506146708261462f565b602082019050919050565b6000602082019050818103600083015261469481614658565b905091905056fea2646970667358221220812c14a36b46cff185bcecc8ab6185ff4b08017e70d5dc908bea746d07c8b76064736f6c634300080b0033",
  "linkReferences": {},
  "deployedLinkReferences": {}
}