{
  "_format": "hh-sol-artifact-1",
  "contractName": "CrossChainNFTUpgradeable",
  "sourceName": "contracts/CrossChainNFTUpgradeable/CrossChainNFTUpgradeable.sol",
  "abi": [
    {
      "inputs": [],
      "stateMutability": "nonpayable",
      "type": "constructor"
    },
    {
      "anonymous": false,
      "inputs": [
        {
          "indexed": true,
          "internalType": "address",
          "name": "owner",
          "type": "address"
        },
        {
          "indexed": true,
          "internalType": "address",
          "name": "approved",
          "type": "address"
        },
        {
          "indexed": true,
          "internalType": "uint256",
          "name": "tokenId",
          "type": "uint256"
        }
      ],
      "name": "Approval",
      "type": "event"
    },
    {
      "anonymous": false,
      "inputs": [
        {
          "indexed": true,
          "internalType": "address",
          "name": "owner",
          "type": "address"
        },
        {
          "indexed": true,
          "internalType": "address",
          "name": "operator",
          "type": "address"
        },
        {
          "indexed": false,
          "internalType": "bool",
          "name": "approved",
          "type": "bool"
        }
      ],
      "name": "ApprovalForAll",
      "type": "event"
    },
    {
      "anonymous": false,
      "inputs": [
        {
          "indexed": true,
          "internalType": "address",
          "name": "previousOwner",
          "type": "address"
        },
        {
          "indexed": true,
          "internalType": "address",
          "name": "newOwner",
          "type": "address"
        }
      ],
      "name": "OwnershipTransferred",
      "type": "event"
    },
    {
      "anonymous": false,
      "inputs": [
        {
          "indexed": false,
          "internalType": "uint256",
          "name": "chainId",
          "type": "uint256"
        },
        {
          "indexed": false,
          "internalType": "address",
          "name": "contAddr",
          "type": "address"
        },
        {
          "indexed": false,
          "internalType": "uint256",
          "name": "tokenId",
          "type": "uint256"
        },
        {
          "indexed": false,
          "internalType": "address",
          "name": "to",
          "type": "address"
        }
      ],
      "name": "RelayerCallRedeem",
      "type": "event"
    },
    {
      "anonymous": false,
      "inputs": [
        {
          "indexed": false,
          "internalType": "uint256",
          "name": "targetChainId",
          "type": "uint256"
        },
        {
          "indexed": false,
          "internalType": "address",
          "name": "to",
          "type": "address"
        },
        {
          "indexed": false,
          "internalType": "uint256",
          "name": "chainId",
          "type": "uint256"
        },
        {
          "indexed": false,
          "internalType": "address",
          "name": "contAddr",
          "type": "address"
        },
        {
          "indexed": false,
          "internalType": "uint256",
          "name": "tokenId",
          "type": "uint256"
        },
        {
          "indexed": false,
          "internalType": "string",
          "name": "uri",
          "type": "string"
        }
      ],
      "name": "RelayerCallSafeMintWrappedToken",
      "type": "event"
    },
    {
      "anonymous": false,
      "inputs": [
        {
          "indexed": false,
          "internalType": "uint256",
          "name": "wTokenId",
          "type": "uint256"
        }
      ],
      "name": "TokenWrapped",
      "type": "event"
    },
    {
      "anonymous": false,
      "inputs": [
        {
          "indexed": true,
          "internalType": "address",
          "name": "from",
          "type": "address"
        },
        {
          "indexed": true,
          "internalType": "address",
          "name": "to",
          "type": "address"
        },
        {
          "indexed": true,
          "internalType": "uint256",
          "name": "tokenId",
          "type": "uint256"
        }
      ],
      "name": "Transfer",
      "type": "event"
    },
    {
      "anonymous": false,
      "inputs": [
        {
          "indexed": false,
          "internalType": "uint256",
          "name": "wTokenId",
          "type": "uint256"
        }
      ],
      "name": "WTokenBurned",
      "type": "event"
    },
    {
      "inputs": [
        {
          "internalType": "address",
          "name": "to",
          "type": "address"
        },
        {
          "internalType": "uint256",
          "name": "tokenId",
          "type": "uint256"
        }
      ],
      "name": "approve",
      "outputs": [],
      "stateMutability": "nonpayable",
      "type": "function"
    },
    {
      "inputs": [
        {
          "internalType": "address",
          "name": "owner",
          "type": "address"
        }
      ],
      "name": "balanceOf",
      "outputs": [
        {
          "internalType": "uint256",
          "name": "",
          "type": "uint256"
        }
      ],
      "stateMutability": "view",
      "type": "function"
    },
    {
      "inputs": [
        {
          "internalType": "uint256",
          "name": "wTokenId",
          "type": "uint256"
        }
      ],
      "name": "burnWrappedToken",
      "outputs": [],
      "stateMutability": "nonpayable",
      "type": "function"
    },
    {
      "inputs": [
        {
          "internalType": "uint256",
          "name": "tokenId",
          "type": "uint256"
        }
      ],
      "name": "getApproved",
      "outputs": [
        {
          "internalType": "address",
          "name": "",
          "type": "address"
        }
      ],
      "stateMutability": "view",
      "type": "function"
    },
    {
      "inputs": [
        {
          "internalType": "uint256",
          "name": "targetChainId",
          "type": "uint256"
        }
      ],
      "name": "getFee",
      "outputs": [
        {
          "internalType": "uint256",
          "name": "fee",
          "type": "uint256"
        }
      ],
      "stateMutability": "view",
      "type": "function"
    },
    {
      "inputs": [],
      "name": "initialize",
      "outputs": [],
      "stateMutability": "nonpayable",
      "type": "function"
    },
    {
      "inputs": [
        {
          "internalType": "address",
          "name": "owner",
          "type": "address"
        },
        {
          "internalType": "address",
          "name": "operator",
          "type": "address"
        }
      ],
      "name": "isApprovedForAll",
      "outputs": [
        {
          "internalType": "bool",
          "name": "",
          "type": "bool"
        }
      ],
      "stateMutability": "view",
      "type": "function"
    },
    {
      "inputs": [],
      "name": "name",
      "outputs": [
        {
          "internalType": "string",
          "name": "",
          "type": "string"
        }
      ],
      "stateMutability": "view",
      "type": "function"
    },
    {
      "inputs": [
        {
          "internalType": "address",
          "name": "",
          "type": "address"
        },
        {
          "internalType": "address",
          "name": "",
          "type": "address"
        },
        {
          "internalType": "uint256",
          "name": "",
          "type": "uint256"
        },
        {
          "internalType": "bytes",
          "name": "",
          "type": "bytes"
        }
      ],
      "name": "onERC721Received",
      "outputs": [
        {
          "internalType": "bytes4",
          "name": "",
          "type": "bytes4"
        }
      ],
      "stateMutability": "nonpayable",
      "type": "function"
    },
    {
      "inputs": [],
      "name": "owner",
      "outputs": [
        {
          "internalType": "address",
          "name": "",
          "type": "address"
        }
      ],
      "stateMutability": "view",
      "type": "function"
    },
    {
      "inputs": [
        {
          "internalType": "uint256",
          "name": "tokenId",
          "type": "uint256"
        }
      ],
      "name": "ownerOf",
      "outputs": [
        {
          "internalType": "address",
          "name": "",
          "type": "address"
        }
      ],
      "stateMutability": "view",
      "type": "function"
    },
    {
      "inputs": [
        {
          "internalType": "address",
          "name": "contAddr",
          "type": "address"
        },
        {
          "internalType": "uint256",
          "name": "tokenId",
          "type": "uint256"
        },
        {
          "internalType": "address",
          "name": "to",
          "type": "address"
        }
      ],
      "name": "redeem",
      "outputs": [],
      "stateMutability": "nonpayable",
      "type": "function"
    },
    {
      "inputs": [],
      "name": "relayer",
      "outputs": [
        {
          "internalType": "address",
          "name": "",
          "type": "address"
        }
      ],
      "stateMutability": "view",
      "type": "function"
    },
    {
      "inputs": [],
      "name": "renounceOwnership",
      "outputs": [],
      "stateMutability": "nonpayable",
      "type": "function"
    },
    {
      "inputs": [
        {
          "internalType": "address",
          "name": "to",
          "type": "address"
        },
        {
          "internalType": "uint256",
          "name": "chainId",
          "type": "uint256"
        },
        {
          "internalType": "address",
          "name": "contAddr",
          "type": "address"
        },
        {
          "internalType": "uint256",
          "name": "tokenId",
          "type": "uint256"
        },
        {
          "internalType": "string",
          "name": "uri",
          "type": "string"
        }
      ],
      "name": "safeMintWrappedToken",
      "outputs": [
        {
          "internalType": "uint256",
          "name": "wTokenId",
          "type": "uint256"
        }
      ],
      "stateMutability": "nonpayable",
      "type": "function"
    },
    {
      "inputs": [
        {
          "internalType": "address",
          "name": "from",
          "type": "address"
        },
        {
          "internalType": "address",
          "name": "to",
          "type": "address"
        },
        {
          "internalType": "uint256",
          "name": "tokenId",
          "type": "uint256"
        }
      ],
      "name": "safeTransferFrom",
      "outputs": [],
      "stateMutability": "nonpayable",
      "type": "function"
    },
    {
      "inputs": [
        {
          "internalType": "address",
          "name": "from",
          "type": "address"
        },
        {
          "internalType": "address",
          "name": "to",
          "type": "address"
        },
        {
          "internalType": "uint256",
          "name": "tokenId",
          "type": "uint256"
        },
        {
          "internalType": "bytes",
          "name": "_data",
          "type": "bytes"
        }
      ],
      "name": "safeTransferFrom",
      "outputs": [],
      "stateMutability": "nonpayable",
      "type": "function"
    },
    {
      "inputs": [
        {
          "internalType": "address",
          "name": "operator",
          "type": "address"
        },
        {
          "internalType": "bool",
          "name": "approved",
          "type": "bool"
        }
      ],
      "name": "setApprovalForAll",
      "outputs": [],
      "stateMutability": "nonpayable",
      "type": "function"
    },
    {
      "inputs": [
        {
          "internalType": "uint256",
          "name": "targetChainId",
          "type": "uint256"
        },
        {
          "internalType": "uint256",
          "name": "fee",
          "type": "uint256"
        }
      ],
      "name": "setFee",
      "outputs": [],
      "stateMutability": "nonpayable",
      "type": "function"
    },
    {
      "inputs": [
        {
          "internalType": "uint256[]",
          "name": "targetChainIds",
          "type": "uint256[]"
        },
        {
          "internalType": "uint256[]",
          "name": "fees",
          "type": "uint256[]"
        }
      ],
      "name": "setFees",
      "outputs": [],
      "stateMutability": "nonpayable",
      "type": "function"
    },
    {
      "inputs": [
        {
          "internalType": "address",
          "name": "newRelayer",
          "type": "address"
        }
      ],
      "name": "setRelayer",
      "outputs": [],
      "stateMutability": "nonpayable",
      "type": "function"
    },
    {
      "inputs": [
        {
          "internalType": "bytes4",
          "name": "interfaceId",
          "type": "bytes4"
        }
      ],
      "name": "supportsInterface",
      "outputs": [
        {
          "internalType": "bool",
          "name": "",
          "type": "bool"
        }
      ],
      "stateMutability": "view",
      "type": "function"
    },
    {
      "inputs": [],
      "name": "symbol",
      "outputs": [
        {
          "internalType": "string",
          "name": "",
          "type": "string"
        }
      ],
      "stateMutability": "view",
      "type": "function"
    },
    {
      "inputs": [
        {
          "internalType": "uint256",
          "name": "tokenId",
          "type": "uint256"
        }
      ],
      "name": "tokenURI",
      "outputs": [
        {
          "internalType": "string",
          "name": "",
          "type": "string"
        }
      ],
      "stateMutability": "view",
      "type": "function"
    },
    {
      "inputs": [],
      "name": "totalSupply",
      "outputs": [
        {
          "internalType": "uint256",
          "name": "",
          "type": "uint256"
        }
      ],
      "stateMutability": "view",
      "type": "function"
    },
    {
      "inputs": [
        {
          "internalType": "address",
          "name": "contAddr",
          "type": "address"
        },
        {
          "internalType": "uint256",
          "name": "tokenId",
          "type": "uint256"
        },
        {
          "internalType": "address",
          "name": "from",
          "type": "address"
        },
        {
          "internalType": "address",
          "name": "to",
          "type": "address"
        },
        {
          "internalType": "uint256",
          "name": "targetChainId",
          "type": "uint256"
        }
      ],
      "name": "transferCrossChainRequest",
      "outputs": [],
      "stateMutability": "payable",
      "type": "function"
    },
    {
      "inputs": [
        {
          "internalType": "address",
          "name": "from",
          "type": "address"
        },
        {
          "internalType": "address",
          "name": "to",
          "type": "address"
        },
        {
          "internalType": "uint256",
          "name": "tokenId",
          "type": "uint256"
        }
      ],
      "name": "transferFrom",
      "outputs": [],
      "stateMutability": "nonpayable",
      "type": "function"
    },
    {
      "inputs": [
        {
          "internalType": "address",
          "name": "newOwner",
          "type": "address"
        }
      ],
      "name": "transferOwnership",
      "outputs": [],
      "stateMutability": "nonpayable",
      "type": "function"
    },
    {
      "inputs": [
        {
          "internalType": "uint256",
          "name": "wTokenId",
          "type": "uint256"
        },
        {
          "internalType": "address",
          "name": "to",
          "type": "address"
        }
      ],
      "name": "wReturnCrossChainRequest",
      "outputs": [],
      "stateMutability": "payable",
      "type": "function"
    },
    {
      "inputs": [
        {
          "internalType": "address payable",
          "name": "to",
          "type": "address"
        }
      ],
      "name": "withdrawCash",
      "outputs": [],
      "stateMutability": "nonpayable",
      "type": "function"
    }
  ],
  "bytecode": "0x608060405234801561001057600080fd5b506147b9806100206000396000f3fe6080604052600436106101cd5760003560e01c806370e4acd8116100f7578063a22cb46511610095578063c87b56dd11610064578063c87b56dd14610640578063e985e9c51461067d578063f2fde38b146106ba578063fcee45f4146106e3576101cd565b8063a22cb465146105a9578063ae7197df146105d2578063b88d4fde146105fb578063c237ba6b14610624576101cd565b80638129fc1c116100d15780638129fc1c146105115780638406c079146105285780638da5cb5b1461055357806395d89b411461057e576101cd565b806370e4acd814610494578063715018a6146104d15780637a3b45bb146104e8576101cd565b8063375fede51161016f5780635c833bfd1161013e5780635c833bfd146103c85780636352211e146103f15780636548e9bc1461042e57806370a0823114610457576101cd565b8063375fede51461033157806338b5c5af1461035a57806342842e0e1461037657806352f7c9881461039f576101cd565b8063095ea7b3116101ab578063095ea7b314610277578063150b7a02146102a057806318160ddd146102dd57806323b872dd14610308576101cd565b806301ffc9a7146101d257806306fdde031461020f578063081812fc1461023a575b600080fd5b3480156101de57600080fd5b506101f960048036038101906101f49190612e17565b610720565b6040516102069190612e5f565b60405180910390f35b34801561021b57600080fd5b50610224610802565b6040516102319190612f13565b60405180910390f35b34801561024657600080fd5b50610261600480360381019061025c9190612f6b565b610894565b60405161026e9190612fd9565b60405180910390f35b34801561028357600080fd5b5061029e60048036038101906102999190613020565b610919565b005b3480156102ac57600080fd5b506102c760048036038101906102c29190613195565b610a31565b6040516102d49190613227565b60405180910390f35b3480156102e957600080fd5b506102f2610a45565b6040516102ff9190613251565b60405180910390f35b34801561031457600080fd5b5061032f600480360381019061032a919061326c565b610a4d565b005b34801561033d57600080fd5b5061035860048036038101906103539190613387565b610aad565b005b610374600480360381019061036f91906133ff565b610bce565b005b34801561038257600080fd5b5061039d6004803603810190610398919061326c565b610da4565b005b3480156103ab57600080fd5b506103c660048036038101906103c1919061343f565b610dc4565b005b3480156103d457600080fd5b506103ef60048036038101906103ea919061347f565b610e5c565b005b3480156103fd57600080fd5b5061041860048036038101906104139190612f6b565b610f66565b6040516104259190612fd9565b60405180910390f35b34801561043a57600080fd5b50610455600480360381019061045091906134d2565b611018565b005b34801561046357600080fd5b5061047e600480360381019061047991906134d2565b6110d8565b60405161048b9190613251565b60405180910390f35b3480156104a057600080fd5b506104bb60048036038101906104b691906135a0565b611190565b6040516104c89190613251565b60405180910390f35b3480156104dd57600080fd5b506104e6611258565b005b3480156104f457600080fd5b5061050f600480360381019061050a9190612f6b565b6112e0565b005b34801561051d57600080fd5b50610526611345565b005b34801561053457600080fd5b5061053d6114ca565b60405161054a9190612fd9565b60405180910390f35b34801561055f57600080fd5b506105686114f0565b6040516105759190612fd9565b60405180910390f35b34801561058a57600080fd5b5061059361151a565b6040516105a09190612f13565b60405180910390f35b3480156105b557600080fd5b506105d060048036038101906105cb9190613663565b6115ac565b005b3480156105de57600080fd5b506105f960048036038101906105f491906136e1565b6115c2565b005b34801561060757600080fd5b50610622600480360381019061061d9190613195565b61168f565b005b61063e6004803603810190610639919061370e565b6116f1565b005b34801561064c57600080fd5b5061066760048036038101906106629190612f6b565b6117dd565b6040516106749190612f13565b60405180910390f35b34801561068957600080fd5b506106a4600480360381019061069f9190613789565b6117ef565b6040516106b19190612e5f565b60405180910390f35b3480156106c657600080fd5b506106e160048036038101906106dc91906134d2565b611883565b005b3480156106ef57600080fd5b5061070a60048036038101906107059190612f6b565b61197b565b6040516107179190613251565b60405180910390f35b60007f80ac58cd000000000000000000000000000000000000000000000000000000007bffffffffffffffffffffffffffffffffffffffffffffffffffffffff1916827bffffffffffffffffffffffffffffffffffffffffffffffffffffffff191614806107eb57507f5b5e139f000000000000000000000000000000000000000000000000000000007bffffffffffffffffffffffffffffffffffffffffffffffffffffffff1916827bffffffffffffffffffffffffffffffffffffffffffffffffffffffff1916145b806107fb57506107fa82611998565b5b9050919050565b606060658054610811906137f8565b80601f016020809104026020016040519081016040528092919081815260200182805461083d906137f8565b801561088a5780601f1061085f5761010080835404028352916020019161088a565b820191906000526020600020905b81548152906001019060200180831161086d57829003601f168201915b5050505050905090565b600061089f82611a02565b6108de576040517f08c379a00000000000000000000000000000000000000000000000000000000081526004016108d59061389c565b60405180910390fd5b6069600083815260200190815260200160002060009054906101000a900473ffffffffffffffffffffffffffffffffffffffff169050919050565b600061092482610f66565b90508073ffffffffffffffffffffffffffffffffffffffff168373ffffffffffffffffffffffffffffffffffffffff161415610995576040517f08c379a000000000000000000000000000000000000000000000000000000000815260040161098c9061392e565b60405180910390fd5b8073ffffffffffffffffffffffffffffffffffffffff166109b4611a6e565b73ffffffffffffffffffffffffffffffffffffffff1614806109e357506109e2816109dd611a6e565b6117ef565b5b610a22576040517f08c379a0000000000000000000000000000000000000000000000000000000008152600401610a19906139c0565b60405180910390fd5b610a2c8383611a76565b505050565b600063150b7a0260e01b9050949350505050565b600047905090565b610a5e610a58611a6e565b82611b2f565b610a9d576040517f08c379a0000000000000000000000000000000000000000000000000000000008152600401610a9490613a52565b60405180910390fd5b610aa8838383611c0d565b505050565b610ab5611a6e565b73ffffffffffffffffffffffffffffffffffffffff16610ad36114f0565b73ffffffffffffffffffffffffffffffffffffffff1614610b29576040517f08c379a0000000000000000000000000000000000000000000000000000000008152600401610b2090613abe565b60405180910390fd5b8051825114610b6d576040517f08c379a0000000000000000000000000000000000000000000000000000000008152600401610b6490613b50565b60405180910390fd5b60005b82518111610bc957610bb6838281518110610b8e57610b8d613b70565b5b6020026020010151838381518110610ba957610ba8613b70565b5b6020026020010151610dc4565b8080610bc190613bce565b915050610b70565b505050565b600060c96000848152602001908152602001600020604051806080016040529081600082015481526020016001820160009054906101000a900473ffffffffffffffffffffffffffffffffffffffff1673ffffffffffffffffffffffffffffffffffffffff1673ffffffffffffffffffffffffffffffffffffffff16815260200160028201548152602001600382018054610c68906137f8565b80601f0160208091040260200160405190810160405280929190818152602001828054610c94906137f8565b8015610ce15780601f10610cb657610100808354040283529160200191610ce1565b820191906000526020600020905b815481529060010190602001808311610cc457829003601f168201915b5050505050815250509050610cf9816000015161197b565b341015610d3b576040517f08c379a0000000000000000000000000000000000000000000000000000000008152600401610d3290613c63565b60405180910390fd5b600081600001519050600082602001519050600083604001519050610d5f866112e0565b7f68d40ad5dae5d6d29b5f9a3faf65a9e21ea0772c8a6861641ef31fad20d185fb83838388604051610d949493929190613c83565b60405180910390a1505050505050565b610dbf8383836040518060200160405280600081525061168f565b505050565b610dcc611a6e565b73ffffffffffffffffffffffffffffffffffffffff16610dea6114f0565b73ffffffffffffffffffffffffffffffffffffffff1614610e40576040517f08c379a0000000000000000000000000000000000000000000000000000000008152600401610e3790613abe565b60405180910390fd5b8060fe6000848152602001908152602001600020819055505050565b60fd60009054906101000a900473ffffffffffffffffffffffffffffffffffffffff1673ffffffffffffffffffffffffffffffffffffffff163373ffffffffffffffffffffffffffffffffffffffff1614610eec576040517f08c379a0000000000000000000000000000000000000000000000000000000008152600401610ee390613d14565b60405180910390fd5b60008390508073ffffffffffffffffffffffffffffffffffffffff166342842e0e3084866040518463ffffffff1660e01b8152600401610f2e93929190613d34565b600060405180830381600087803b158015610f4857600080fd5b505af1158015610f5c573d6000803e3d6000fd5b5050505050505050565b6000806067600084815260200190815260200160002060009054906101000a900473ffffffffffffffffffffffffffffffffffffffff169050600073ffffffffffffffffffffffffffffffffffffffff168173ffffffffffffffffffffffffffffffffffffffff16141561100f576040517f08c379a000000000000000000000000000000000000000000000000000000000815260040161100690613ddd565b60405180910390fd5b80915050919050565b611020611a6e565b73ffffffffffffffffffffffffffffffffffffffff1661103e6114f0565b73ffffffffffffffffffffffffffffffffffffffff1614611094576040517f08c379a000000000000000000000000000000000000000000000000000000000815260040161108b90613abe565b60405180910390fd5b8060fd60006101000a81548173ffffffffffffffffffffffffffffffffffffffff021916908373ffffffffffffffffffffffffffffffffffffffff16021790555050565b60008073ffffffffffffffffffffffffffffffffffffffff168273ffffffffffffffffffffffffffffffffffffffff161415611149576040517f08c379a000000000000000000000000000000000000000000000000000000000815260040161114090613e6f565b60405180910390fd5b606860008373ffffffffffffffffffffffffffffffffffffffff1673ffffffffffffffffffffffffffffffffffffffff168152602001908152602001600020549050919050565b600060fd60009054906101000a900473ffffffffffffffffffffffffffffffffffffffff1673ffffffffffffffffffffffffffffffffffffffff163373ffffffffffffffffffffffffffffffffffffffff1614611222576040517f08c379a000000000000000000000000000000000000000000000000000000000815260040161121990613d14565b60405180910390fd5b61122c60fc611e69565b905061123860fc611e77565b6112428682611e8d565b61124f8186868686611eab565b95945050505050565b611260611a6e565b73ffffffffffffffffffffffffffffffffffffffff1661127e6114f0565b73ffffffffffffffffffffffffffffffffffffffff16146112d4576040517f08c379a00000000000000000000000000000000000000000000000000000000081526004016112cb90613abe565b60405180910390fd5b6112de6000611fae565b565b6112f16112eb611a6e565b82611b2f565b611330576040517f08c379a000000000000000000000000000000000000000000000000000000000815260040161132790613f01565b60405180910390fd5b61133981612074565b61134281612185565b50565b600060019054906101000a900460ff1661136d5760008054906101000a900460ff1615611376565b61137561221c565b5b6113b5576040517f08c379a00000000000000000000000000000000000000000000000000000000081526004016113ac90613f93565b60405180910390fd5b60008060019054906101000a900460ff161590508015611405576001600060016101000a81548160ff02191690831515021790555060016000806101000a81548160ff0219169083151502179055505b6114227375d0b767029305b2ad067f6742e8e5b1bbdc5d3e61222d565b6114966040518060400160405280601881526020017f43726f7373436861696e4e46545570677261646561626c6500000000000000008152506040518060400160405280600381526020017f43436800000000000000000000000000000000000000000000000000000000008152506122c0565b61149e61232d565b6114a6612396565b80156114c75760008060016101000a81548160ff0219169083151502179055505b50565b60fd60009054906101000a900473ffffffffffffffffffffffffffffffffffffffff1681565b600060ca60009054906101000a900473ffffffffffffffffffffffffffffffffffffffff16905090565b606060668054611529906137f8565b80601f0160208091040260200160405190810160405280929190818152602001828054611555906137f8565b80156115a25780601f10611577576101008083540402835291602001916115a2565b820191906000526020600020905b81548152906001019060200180831161158557829003601f168201915b5050505050905090565b6115be6115b7611a6e565b83836123f7565b5050565b6115ca611a6e565b73ffffffffffffffffffffffffffffffffffffffff166115e86114f0565b73ffffffffffffffffffffffffffffffffffffffff161461163e576040517f08c379a000000000000000000000000000000000000000000000000000000000815260040161163590613abe565b60405180910390fd5b8073ffffffffffffffffffffffffffffffffffffffff166108fc611660610a45565b9081150290604051600060405180830381858888f1935050505015801561168b573d6000803e3d6000fd5b5050565b6116a061169a611a6e565b83611b2f565b6116df576040517f08c379a00000000000000000000000000000000000000000000000000000000081526004016116d690613a52565b60405180910390fd5b6116eb84848484612564565b50505050565b6116fa8161197b565b34101561170657600080fd5b6117118585856125c0565b60004690507f9301e409432a51a191443f644ae41630782021a09e1ce98fc0e5fb72078a25ea82848389898b73ffffffffffffffffffffffffffffffffffffffff1663c87b56dd8c6040518263ffffffff1660e01b81526004016117759190613251565b600060405180830381865afa158015611792573d6000803e3d6000fd5b505050506040513d6000823e3d601f19601f820116820180604052508101906117bb9190614023565b6040516117cd9695949392919061406c565b60405180910390a1505050505050565b60606117e88261263a565b9050919050565b6000606a60008473ffffffffffffffffffffffffffffffffffffffff1673ffffffffffffffffffffffffffffffffffffffff16815260200190815260200160002060008373ffffffffffffffffffffffffffffffffffffffff1673ffffffffffffffffffffffffffffffffffffffff16815260200190815260200160002060009054906101000a900460ff16905092915050565b61188b611a6e565b73ffffffffffffffffffffffffffffffffffffffff166118a96114f0565b73ffffffffffffffffffffffffffffffffffffffff16146118ff576040517f08c379a00000000000000000000000000000000000000000000000000000000081526004016118f690613abe565b60405180910390fd5b600073ffffffffffffffffffffffffffffffffffffffff168173ffffffffffffffffffffffffffffffffffffffff16141561196f576040517f08c379a000000000000000000000000000000000000000000000000000000000815260040161196690614146565b60405180910390fd5b61197881611fae565b50565b600060fe6000838152602001908152602001600020549050919050565b60007f01ffc9a7000000000000000000000000000000000000000000000000000000007bffffffffffffffffffffffffffffffffffffffffffffffffffffffff1916827bffffffffffffffffffffffffffffffffffffffffffffffffffffffff1916149050919050565b60008073ffffffffffffffffffffffffffffffffffffffff166067600084815260200190815260200160002060009054906101000a900473ffffffffffffffffffffffffffffffffffffffff1673ffffffffffffffffffffffffffffffffffffffff1614159050919050565b600033905090565b816069600083815260200190815260200160002060006101000a81548173ffffffffffffffffffffffffffffffffffffffff021916908373ffffffffffffffffffffffffffffffffffffffff160217905550808273ffffffffffffffffffffffffffffffffffffffff16611ae983610f66565b73ffffffffffffffffffffffffffffffffffffffff167f8c5be1e5ebec7d5bd14f71427d1e84f3dd0314c0f7b2291e5b200ac8c7c3b92560405160405180910390a45050565b6000611b3a82611a02565b611b79576040517f08c379a0000000000000000000000000000000000000000000000000000000008152600401611b70906141d8565b60405180910390fd5b6000611b8483610f66565b90508073ffffffffffffffffffffffffffffffffffffffff168473ffffffffffffffffffffffffffffffffffffffff161480611bf357508373ffffffffffffffffffffffffffffffffffffffff16611bdb84610894565b73ffffffffffffffffffffffffffffffffffffffff16145b80611c045750611c0381856117ef565b5b91505092915050565b8273ffffffffffffffffffffffffffffffffffffffff16611c2d82610f66565b73ffffffffffffffffffffffffffffffffffffffff1614611c83576040517f08c379a0000000000000000000000000000000000000000000000000000000008152600401611c7a9061426a565b60405180910390fd5b600073ffffffffffffffffffffffffffffffffffffffff168273ffffffffffffffffffffffffffffffffffffffff161415611cf3576040517f08c379a0000000000000000000000000000000000000000000000000000000008152600401611cea906142fc565b60405180910390fd5b611cfe83838361272a565b611d09600082611a76565b6001606860008573ffffffffffffffffffffffffffffffffffffffff1673ffffffffffffffffffffffffffffffffffffffff1681526020019081526020016000206000828254611d59919061431c565b925050819055506001606860008473ffffffffffffffffffffffffffffffffffffffff1673ffffffffffffffffffffffffffffffffffffffff1681526020019081526020016000206000828254611db09190614350565b92505081905550816067600083815260200190815260200160002060006101000a81548173ffffffffffffffffffffffffffffffffffffffff021916908373ffffffffffffffffffffffffffffffffffffffff160217905550808273ffffffffffffffffffffffffffffffffffffffff168473ffffffffffffffffffffffffffffffffffffffff167fddf252ad1be2c89b69c2b068fc378daa952ba7f163c4a11628f55a4df523b3ef60405160405180910390a4505050565b600081600001549050919050565b6001816000016000828254019250508190555050565b611ea782826040518060200160405280600081525061272f565b5050565b60405180608001604052808581526020018473ffffffffffffffffffffffffffffffffffffffff1681526020018381526020018281525060c960008781526020019081526020016000206000820151816000015560208201518160010160006101000a81548173ffffffffffffffffffffffffffffffffffffffff021916908373ffffffffffffffffffffffffffffffffffffffff160217905550604082015181600201556060820151816003019080519060200190611f6c929190612cc8565b509050507fbbd8046f2003b15c5e4858368dad2435a58ae1e6b8e64b8edab81490292e339585604051611f9f9190613251565b60405180910390a15050505050565b600060ca60009054906101000a900473ffffffffffffffffffffffffffffffffffffffff1690508160ca60006101000a81548173ffffffffffffffffffffffffffffffffffffffff021916908373ffffffffffffffffffffffffffffffffffffffff1602179055508173ffffffffffffffffffffffffffffffffffffffff168173ffffffffffffffffffffffffffffffffffffffff167f8be0079c531659141344cd1fd0a4f28419497f9722a3daafe3b4186f6b6457e060405160405180910390a35050565b600061207f82610f66565b905061208d8160008461272a565b612098600083611a76565b6001606860008373ffffffffffffffffffffffffffffffffffffffff1673ffffffffffffffffffffffffffffffffffffffff16815260200190815260200160002060008282546120e8919061431c565b925050819055506067600083815260200190815260200160002060006101000a81549073ffffffffffffffffffffffffffffffffffffffff021916905581600073ffffffffffffffffffffffffffffffffffffffff168273ffffffffffffffffffffffffffffffffffffffff167fddf252ad1be2c89b69c2b068fc378daa952ba7f163c4a11628f55a4df523b3ef60405160405180910390a45050565b60c960008281526020019081526020016000206000808201600090556001820160006101000a81549073ffffffffffffffffffffffffffffffffffffffff021916905560028201600090556003820160006121e09190612d4e565b50507fbae674de5b60cebab59cbdf60624b8a5ba69b8baf7f2c92aeaf1a2cc183ddddf816040516122119190613251565b60405180910390a150565b60006122273061278a565b15905090565b600060019054906101000a900460ff1661227c576040517f08c379a000000000000000000000000000000000000000000000000000000000815260040161227390614418565b60405180910390fd5b8060fd60006101000a81548173ffffffffffffffffffffffffffffffffffffffff021916908373ffffffffffffffffffffffffffffffffffffffff16021790555050565b600060019054906101000a900460ff1661230f576040517f08c379a000000000000000000000000000000000000000000000000000000000815260040161230690614418565b60405180910390fd5b61231761279d565b61231f6127ee565b612329828261283f565b5050565b600060019054906101000a900460ff1661237c576040517f08c379a000000000000000000000000000000000000000000000000000000000815260040161237390614418565b60405180910390fd5b61238461279d565b61238c6127ee565b6123946128c0565b565b600060019054906101000a900460ff166123e5576040517f08c379a00000000000000000000000000000000000000000000000000000000081526004016123dc90614418565b60405180910390fd5b6123ed61279d565b6123f5612911565b565b8173ffffffffffffffffffffffffffffffffffffffff168373ffffffffffffffffffffffffffffffffffffffff161415612466576040517f08c379a000000000000000000000000000000000000000000000000000000000815260040161245d90614484565b60405180910390fd5b80606a60008573ffffffffffffffffffffffffffffffffffffffff1673ffffffffffffffffffffffffffffffffffffffff16815260200190815260200160002060008473ffffffffffffffffffffffffffffffffffffffff1673ffffffffffffffffffffffffffffffffffffffff16815260200190815260200160002060006101000a81548160ff0219169083151502179055508173ffffffffffffffffffffffffffffffffffffffff168373ffffffffffffffffffffffffffffffffffffffff167f17307eab39ab6107e8899845ad3d59bd9653f200f220920489ca2b5937696c31836040516125579190612e5f565b60405180910390a3505050565b61256f848484611c0d565b61257b84848484612972565b6125ba576040517f08c379a00000000000000000000000000000000000000000000000000000000081526004016125b190614516565b60405180910390fd5b50505050565b60008390508073ffffffffffffffffffffffffffffffffffffffff166342842e0e8330866040518463ffffffff1660e01b815260040161260293929190613d34565b600060405180830381600087803b15801561261c57600080fd5b505af1158015612630573d6000803e3d6000fd5b5050505050505050565b606061264582611a02565b612684576040517f08c379a000000000000000000000000000000000000000000000000000000000815260040161267b906145a8565b60405180910390fd5b60c9600083815260200190815260200160002060030180546126a5906137f8565b80601f01602080910402602001604051908101604052809291908181526020018280546126d1906137f8565b801561271e5780601f106126f35761010080835404028352916020019161271e565b820191906000526020600020905b81548152906001019060200180831161270157829003601f168201915b50505050509050919050565b505050565b6127398383612afa565b6127466000848484612972565b612785576040517f08c379a000000000000000000000000000000000000000000000000000000000815260040161277c90614516565b60405180910390fd5b505050565b600080823b905060008111915050919050565b600060019054906101000a900460ff166127ec576040517f08c379a00000000000000000000000000000000000000000000000000000000081526004016127e390614418565b60405180910390fd5b565b600060019054906101000a900460ff1661283d576040517f08c379a000000000000000000000000000000000000000000000000000000000815260040161283490614418565b60405180910390fd5b565b600060019054906101000a900460ff1661288e576040517f08c379a000000000000000000000000000000000000000000000000000000000815260040161288590614418565b60405180910390fd5b81606590805190602001906128a4929190612cc8565b5080606690805190602001906128bb929190612cc8565b505050565b600060019054906101000a900460ff1661290f576040517f08c379a000000000000000000000000000000000000000000000000000000000815260040161290690614418565b60405180910390fd5b565b600060019054906101000a900460ff16612960576040517f08c379a000000000000000000000000000000000000000000000000000000000815260040161295790614418565b60405180910390fd5b61297061296b611a6e565b611fae565b565b60006129938473ffffffffffffffffffffffffffffffffffffffff1661278a565b15612aed578373ffffffffffffffffffffffffffffffffffffffff1663150b7a026129bc611a6e565b8786866040518563ffffffff1660e01b81526004016129de949392919061461d565b6020604051808303816000875af1925050508015612a1a57506040513d601f19601f82011682018060405250810190612a17919061467e565b60015b612a9d573d8060008114612a4a576040519150601f19603f3d011682016040523d82523d6000602084013e612a4f565b606091505b50600081511415612a95576040517f08c379a0000000000000000000000000000000000000000000000000000000008152600401612a8c90614516565b60405180910390fd5b805181602001fd5b63150b7a0260e01b7bffffffffffffffffffffffffffffffffffffffffffffffffffffffff1916817bffffffffffffffffffffffffffffffffffffffffffffffffffffffff191614915050612af2565b600190505b949350505050565b600073ffffffffffffffffffffffffffffffffffffffff168273ffffffffffffffffffffffffffffffffffffffff161415612b6a576040517f08c379a0000000000000000000000000000000000000000000000000000000008152600401612b61906146f7565b60405180910390fd5b612b7381611a02565b15612bb3576040517f08c379a0000000000000000000000000000000000000000000000000000000008152600401612baa90614763565b60405180910390fd5b612bbf6000838361272a565b6001606860008473ffffffffffffffffffffffffffffffffffffffff1673ffffffffffffffffffffffffffffffffffffffff1681526020019081526020016000206000828254612c0f9190614350565b92505081905550816067600083815260200190815260200160002060006101000a81548173ffffffffffffffffffffffffffffffffffffffff021916908373ffffffffffffffffffffffffffffffffffffffff160217905550808273ffffffffffffffffffffffffffffffffffffffff16600073ffffffffffffffffffffffffffffffffffffffff167fddf252ad1be2c89b69c2b068fc378daa952ba7f163c4a11628f55a4df523b3ef60405160405180910390a45050565b828054612cd4906137f8565b90600052602060002090601f016020900481019282612cf65760008555612d3d565b82601f10612d0f57805160ff1916838001178555612d3d565b82800160010185558215612d3d579182015b82811115612d3c578251825591602001919060010190612d21565b5b509050612d4a9190612d8e565b5090565b508054612d5a906137f8565b6000825580601f10612d6c5750612d8b565b601f016020900490600052602060002090810190612d8a9190612d8e565b5b50565b5b80821115612da7576000816000905550600101612d8f565b5090565b6000604051905090565b600080fd5b600080fd5b60007fffffffff0000000000000000000000000000000000000000000000000000000082169050919050565b612df481612dbf565b8114612dff57600080fd5b50565b600081359050612e1181612deb565b92915050565b600060208284031215612e2d57612e2c612db5565b5b6000612e3b84828501612e02565b91505092915050565b60008115159050919050565b612e5981612e44565b82525050565b6000602082019050612e746000830184612e50565b92915050565b600081519050919050565b600082825260208201905092915050565b60005b83811015612eb4578082015181840152602081019050612e99565b83811115612ec3576000848401525b50505050565b6000601f19601f8301169050919050565b6000612ee582612e7a565b612eef8185612e85565b9350612eff818560208601612e96565b612f0881612ec9565b840191505092915050565b60006020820190508181036000830152612f2d8184612eda565b905092915050565b6000819050919050565b612f4881612f35565b8114612f5357600080fd5b50565b600081359050612f6581612f3f565b92915050565b600060208284031215612f8157612f80612db5565b5b6000612f8f84828501612f56565b91505092915050565b600073ffffffffffffffffffffffffffffffffffffffff82169050919050565b6000612fc382612f98565b9050919050565b612fd381612fb8565b82525050565b6000602082019050612fee6000830184612fca565b92915050565b612ffd81612fb8565b811461300857600080fd5b50565b60008135905061301a81612ff4565b92915050565b6000806040838503121561303757613036612db5565b5b60006130458582860161300b565b925050602061305685828601612f56565b9150509250929050565b600080fd5b600080fd5b7f4e487b7100000000000000000000000000000000000000000000000000000000600052604160045260246000fd5b6130a282612ec9565b810181811067ffffffffffffffff821117156130c1576130c061306a565b5b80604052505050565b60006130d4612dab565b90506130e08282613099565b919050565b600067ffffffffffffffff821115613100576130ff61306a565b5b61310982612ec9565b9050602081019050919050565b82818337600083830152505050565b6000613138613133846130e5565b6130ca565b90508281526020810184848401111561315457613153613065565b5b61315f848285613116565b509392505050565b600082601f83011261317c5761317b613060565b5b813561318c848260208601613125565b91505092915050565b600080600080608085870312156131af576131ae612db5565b5b60006131bd8782880161300b565b94505060206131ce8782880161300b565b93505060406131df87828801612f56565b925050606085013567ffffffffffffffff811115613200576131ff612dba565b5b61320c87828801613167565b91505092959194509250565b61322181612dbf565b82525050565b600060208201905061323c6000830184613218565b92915050565b61324b81612f35565b82525050565b60006020820190506132666000830184613242565b92915050565b60008060006060848603121561328557613284612db5565b5b60006132938682870161300b565b93505060206132a48682870161300b565b92505060406132b586828701612f56565b9150509250925092565b600067ffffffffffffffff8211156132da576132d961306a565b5b602082029050602081019050919050565b600080fd5b60006133036132fe846132bf565b6130ca565b90508083825260208201905060208402830185811115613326576133256132eb565b5b835b8181101561334f578061333b8882612f56565b845260208401935050602081019050613328565b5050509392505050565b600082601f83011261336e5761336d613060565b5b813561337e8482602086016132f0565b91505092915050565b6000806040838503121561339e5761339d612db5565b5b600083013567ffffffffffffffff8111156133bc576133bb612dba565b5b6133c885828601613359565b925050602083013567ffffffffffffffff8111156133e9576133e8612dba565b5b6133f585828601613359565b9150509250929050565b6000806040838503121561341657613415612db5565b5b600061342485828601612f56565b92505060206134358582860161300b565b9150509250929050565b6000806040838503121561345657613455612db5565b5b600061346485828601612f56565b925050602061347585828601612f56565b9150509250929050565b60008060006060848603121561349857613497612db5565b5b60006134a68682870161300b565b93505060206134b786828701612f56565b92505060406134c88682870161300b565b9150509250925092565b6000602082840312156134e8576134e7612db5565b5b60006134f68482850161300b565b91505092915050565b600067ffffffffffffffff82111561351a5761351961306a565b5b61352382612ec9565b9050602081019050919050565b600061354361353e846134ff565b6130ca565b90508281526020810184848401111561355f5761355e613065565b5b61356a848285613116565b509392505050565b600082601f83011261358757613586613060565b5b8135613597848260208601613530565b91505092915050565b600080600080600060a086880312156135bc576135bb612db5565b5b60006135ca8882890161300b565b95505060206135db88828901612f56565b94505060406135ec8882890161300b565b93505060606135fd88828901612f56565b925050608086013567ffffffffffffffff81111561361e5761361d612dba565b5b61362a88828901613572565b9150509295509295909350565b61364081612e44565b811461364b57600080fd5b50565b60008135905061365d81613637565b92915050565b6000806040838503121561367a57613679612db5565b5b60006136888582860161300b565b92505060206136998582860161364e565b9150509250929050565b60006136ae82612f98565b9050919050565b6136be816136a3565b81146136c957600080fd5b50565b6000813590506136db816136b5565b92915050565b6000602082840312156136f7576136f6612db5565b5b6000613705848285016136cc565b91505092915050565b600080600080600060a0868803121561372a57613729612db5565b5b60006137388882890161300b565b955050602061374988828901612f56565b945050604061375a8882890161300b565b935050606061376b8882890161300b565b925050608061377c88828901612f56565b9150509295509295909350565b600080604083850312156137a05761379f612db5565b5b60006137ae8582860161300b565b92505060206137bf8582860161300b565b9150509250929050565b7f4e487b7100000000000000000000000000000000000000000000000000000000600052602260045260246000fd5b6000600282049050600182168061381057607f821691505b60208210811415613824576138236137c9565b5b50919050565b7f4552433732313a20617070726f76656420717565727920666f72206e6f6e657860008201527f697374656e7420746f6b656e0000000000000000000000000000000000000000602082015250565b6000613886602c83612e85565b91506138918261382a565b604082019050919050565b600060208201905081810360008301526138b581613879565b9050919050565b7f4552433732313a20617070726f76616c20746f2063757272656e74206f776e6560008201527f7200000000000000000000000000000000000000000000000000000000000000602082015250565b6000613918602183612e85565b9150613923826138bc565b604082019050919050565b600060208201905081810360008301526139478161390b565b9050919050565b7f4552433732313a20617070726f76652063616c6c6572206973206e6f74206f7760008201527f6e6572206e6f7220617070726f76656420666f7220616c6c0000000000000000602082015250565b60006139aa603883612e85565b91506139b58261394e565b604082019050919050565b600060208201905081810360008301526139d98161399d565b9050919050565b7f4552433732313a207472616e736665722063616c6c6572206973206e6f74206f60008201527f776e6572206e6f7220617070726f766564000000000000000000000000000000602082015250565b6000613a3c603183612e85565b9150613a47826139e0565b604082019050919050565b60006020820190508181036000830152613a6b81613a2f565b9050919050565b7f4f776e61626c653a2063616c6c6572206973206e6f7420746865206f776e6572600082015250565b6000613aa8602083612e85565b9150613ab382613a72565b602082019050919050565b60006020820190508181036000830152613ad781613a9b565b9050919050565b7f61727261797320617265206e6f7420696e207468652073616d65206c656e676860008201527f7400000000000000000000000000000000000000000000000000000000000000602082015250565b6000613b3a602183612e85565b9150613b4582613ade565b604082019050919050565b60006020820190508181036000830152613b6981613b2d565b9050919050565b7f4e487b7100000000000000000000000000000000000000000000000000000000600052603260045260246000fd5b7f4e487b7100000000000000000000000000000000000000000000000000000000600052601160045260246000fd5b6000613bd982612f35565b91507fffffffffffffffffffffffffffffffffffffffffffffffffffffffffffffffff821415613c0c57613c0b613b9f565b5b600182019050919050565b7f696e73756666696369656e742066656500000000000000000000000000000000600082015250565b6000613c4d601083612e85565b9150613c5882613c17565b602082019050919050565b60006020820190508181036000830152613c7c81613c40565b9050919050565b6000608082019050613c986000830187613242565b613ca56020830186612fca565b613cb26040830185613242565b613cbf6060830184612fca565b95945050505050565b7f726573747269637465642066756e6374696f6e20746f2072656c617965720000600082015250565b6000613cfe601e83612e85565b9150613d0982613cc8565b602082019050919050565b60006020820190508181036000830152613d2d81613cf1565b9050919050565b6000606082019050613d496000830186612fca565b613d566020830185612fca565b613d636040830184613242565b949350505050565b7f4552433732313a206f776e657220717565727920666f72206e6f6e657869737460008201527f656e7420746f6b656e0000000000000000000000000000000000000000000000602082015250565b6000613dc7602983612e85565b9150613dd282613d6b565b604082019050919050565b60006020820190508181036000830152613df681613dba565b9050919050565b7f4552433732313a2062616c616e636520717565727920666f7220746865207a6560008201527f726f206164647265737300000000000000000000000000000000000000000000602082015250565b6000613e59602a83612e85565b9150613e6482613dfd565b604082019050919050565b60006020820190508181036000830152613e8881613e4c565b9050919050565b7f4552433732314275726e61626c653a2063616c6c6572206973206e6f74206f7760008201527f6e6572206e6f7220617070726f76656400000000000000000000000000000000602082015250565b6000613eeb603083612e85565b9150613ef682613e8f565b604082019050919050565b60006020820190508181036000830152613f1a81613ede565b9050919050565b7f496e697469616c697a61626c653a20636f6e747261637420697320616c72656160008201527f647920696e697469616c697a6564000000000000000000000000000000000000602082015250565b6000613f7d602e83612e85565b9150613f8882613f21565b604082019050919050565b60006020820190508181036000830152613fac81613f70565b9050919050565b6000613fc6613fc1846134ff565b6130ca565b905082815260208101848484011115613fe257613fe1613065565b5b613fed848285612e96565b509392505050565b600082601f83011261400a57614009613060565b5b815161401a848260208601613fb3565b91505092915050565b60006020828403121561403957614038612db5565b5b600082015167ffffffffffffffff81111561405757614056612dba565b5b61406384828501613ff5565b91505092915050565b600060c0820190506140816000830189613242565b61408e6020830188612fca565b61409b6040830187613242565b6140a86060830186612fca565b6140b56080830185613242565b81810360a08301526140c78184612eda565b9050979650505050505050565b7f4f776e61626c653a206e6577206f776e657220697320746865207a65726f206160008201527f6464726573730000000000000000000000000000000000000000000000000000602082015250565b6000614130602683612e85565b915061413b826140d4565b604082019050919050565b6000602082019050818103600083015261415f81614123565b9050919050565b7f4552433732313a206f70657261746f7220717565727920666f72206e6f6e657860008201527f697374656e7420746f6b656e0000000000000000000000000000000000000000602082015250565b60006141c2602c83612e85565b91506141cd82614166565b604082019050919050565b600060208201905081810360008301526141f1816141b5565b9050919050565b7f4552433732313a207472616e73666572206f6620746f6b656e2074686174206960008201527f73206e6f74206f776e0000000000000000000000000000000000000000000000602082015250565b6000614254602983612e85565b915061425f826141f8565b604082019050919050565b6000602082019050818103600083015261428381614247565b9050919050565b7f4552433732313a207472616e7366657220746f20746865207a65726f2061646460008201527f7265737300000000000000000000000000000000000000000000000000000000602082015250565b60006142e6602483612e85565b91506142f18261428a565b604082019050919050565b60006020820190508181036000830152614315816142d9565b9050919050565b600061432782612f35565b915061433283612f35565b92508282101561434557614344613b9f565b5b828203905092915050565b600061435b82612f35565b915061436683612f35565b9250827fffffffffffffffffffffffffffffffffffffffffffffffffffffffffffffffff0382111561439b5761439a613b9f565b5b828201905092915050565b7f496e697469616c697a61626c653a20636f6e7472616374206973206e6f74206960008201527f6e697469616c697a696e67000000000000000000000000000000000000000000602082015250565b6000614402602b83612e85565b915061440d826143a6565b604082019050919050565b60006020820190508181036000830152614431816143f5565b9050919050565b7f4552433732313a20617070726f766520746f2063616c6c657200000000000000600082015250565b600061446e601983612e85565b915061447982614438565b602082019050919050565b6000602082019050818103600083015261449d81614461565b9050919050565b7f4552433732313a207472616e7366657220746f206e6f6e20455243373231526560008201527f63656976657220696d706c656d656e7465720000000000000000000000000000602082015250565b6000614500603283612e85565b915061450b826144a4565b604082019050919050565b6000602082019050818103600083015261452f816144f3565b9050919050565b7f4552433732314d657461646174613a2055524920717565727920666f72206e6f60008201527f6e6578697374656e7420746f6b656e0000000000000000000000000000000000602082015250565b6000614592602f83612e85565b915061459d82614536565b604082019050919050565b600060208201905081810360008301526145c181614585565b9050919050565b600081519050919050565b600082825260208201905092915050565b60006145ef826145c8565b6145f981856145d3565b9350614609818560208601612e96565b61461281612ec9565b840191505092915050565b60006080820190506146326000830187612fca565b61463f6020830186612fca565b61464c6040830185613242565b818103606083015261465e81846145e4565b905095945050505050565b60008151905061467881612deb565b92915050565b60006020828403121561469457614693612db5565b5b60006146a284828501614669565b91505092915050565b7f4552433732313a206d696e7420746f20746865207a65726f2061646472657373600082015250565b60006146e1602083612e85565b91506146ec826146ab565b602082019050919050565b60006020820190508181036000830152614710816146d4565b9050919050565b7f4552433732313a20746f6b656e20616c7265616479206d696e74656400000000600082015250565b600061474d601c83612e85565b915061475882614717565b602082019050919050565b6000602082019050818103600083015261477c81614740565b905091905056fea2646970667358221220eb8e14c9501605343a6eb2deb4a0182b6c83e7c4b67f70a2e8418658442d286964736f6c634300080b0033",
  "linkReferences": {},
  "deployedLinkReferences": {}
}